:020000040000fa
:10000000f0ff0320a17004009fbd0300cbc30300d9
:10001000b3d5030037ee030013f90300000000001e
:100020000000000000000000000000000b9e030024
:10003000dbcd0300000000000b9e03000b9e0300bd
:100040000b9e03000b9e03000b9e03000b9e030000
:100050000b9e03000b9e03000b9e03000b9e0300f0
:100060000b9e03000b9e03000b9e03000b9e0300e0
:100070000b9e03000b9e03000b9e03000b9e0300d0
:100080000b9e03000b9e03000b9e03000b9e0300c0
:100090000b9e03000b9e03000b9e03000b9e0300b0
:1000a0000b9e03000b9e03000b9e03000b9e0300a0
:1000b0000b9e03000b9e03000b9e03000b9e030090
:1000c0000b9e03000b9e03000b9e03000b9e030080
:1000d0000b9e03000b9e03000b9e03000b9e030070
:1000e0000b9e03000b9e03000000000000000000b8
:1000f000000000000b9e03007d4c03007d4c0300bc
:100100007d4c03007d4c03000b9e03000b9e0300ff
:100110000b9e03000b9e03000b9e03000b9e03002f
:100120000b9e03000b9e03000b9e03000b9e03001f
:100130000b9e03000b9e03000b9e03000b9e03000f
:100140000b9e03000b9e03000b9e03000b9e0300ff
:100150000b9e03000b9e0300000000000000000047
:10016000000000000000000000000000000000008f
:10017000000000000000000000000000000000007f
:100180000b9e03000b9e03000b9e03000b9e0300bf
:1001900005ec05000b9e03000b9e03000b9e030065
:1001a0000b9e03000b9e03000b9e03000b9e03009f
:1001b0000b9e03000b9e03000b9e03000b9e03008f
:1001c0000b9e03000b9e03000b9e03000b9e03007f
:1001d0000b9e03000b9e03000b9e03000b9e03006f
:1001e0000b9e03000b9e03000b9e0300d994050099
:1001f0000b9e03000b9e03000b9e03000b9e03004f
:100200000b9e030000000000000000000b9e030096
:100210000b9e03000b9e03000b9e03000b9e03002e
:100220000b9e03000b9e03000b9e03000b9e03001e
:100230000b9e03000b9e03000b9e03000b9e03000e
:100240000b9e03000b9e03000b9e03000b9e0300fe
:100250000b9e03000b9e03000b9e03000b9e0300ee
:020000040000fa
:10026000f8b500bff8bc08bc9e467047b54605000f
:10027000f8b500bff8bc08bc9e4670479146050023
:020000040000fa
:080280002879020001000000d2
:020000040000fa
:1002880052096ad53036a538bf40a39e81f3d7fb03
:100298007ce339829b2fff87348e4344c4dee9cb4d
:1002a800547b9432a6c2233dee4c950b42fac34ec2
:1002b800082ea16628d924b2765ba2496d8bd12578
:1002c80072f8f66486689816d4a45ccc5d65b6921c
:1002d8006c704850fdedb9da5e154657a78d9d84c0
:1002e80090d8ab008cbcd30af7e45805b8b34506e0
:1002f800d02c1e8fca3f0f02c1afbd0301138a6bfa
:100308003a9111414f67dcea97f2cfcef0b4e67329
:1003180096ac7422e7ad3585e2f937e81c75df6ed7
:1003280047f11a711d29c5896fb7620eaa18be1b3d
:10033800fc563e4bc6d279209adbc0fe78cd5af4e3
:100348001fdda8338807c731b11210592780ec5f29
:1003580060517fa919b54a0d2de57a9f93c99cef85
:10036800a0e03b4dae2af5b0c8ebbb3c8353996186
:10037800172b047eba77d626e169146355210c7dc4
:100388000000000100000002000000040000000856
:100398000000001000000020000000400000008065
:1003a8000000001b0000003650a7f4515365417e41
:1003b800c3a4171a965e273acb6bab3bf1459d1f3a
:1003c800ab58faac9303e34b55fa3020f66d76ad93
:1003d8009176cc88254c02f5fcd7e54fd7cb2ac5ba
:1003e800804435268fa362b5495ab1de671bba250a
:1003f800980eea45e1c0fe5d02752fc312f04c81ec
:10040800a397468dc6f9d36be75f8f03959c92152a
:10041800eb7a6dbfda5952952d83bed4d321745827
:100428002969e04944c8c98e6a89c27578798ef409
:100438006b3e5899dd71b927b64fe1be17ad88f00c
:1004480066ac20c9b43ace7d184adf6382311ae51a
:1004580060335197457f5362e07764b184ae6bbbdc
:100468001ca081fe942b08f95868487019fd458f27
:10047800876cde94b7f87b5223d373abe2024b72de
:10048800578f1fe32aab55660728ebb203c2b52f77
:100498009a7bc586a50837d3f2872830b2a5bf2333
:1004a800ba6a03025c8216ed2b1ccf8a92b479a734
:1004b800f0f207f3a1e2694ecdf4da65d5be050680
:1004c8001f6234d18afea6c49d532e34a055f3a2d0
:1004d80032e18a0575ebf6a439ec830baaef60408c
:1004e800069f715e51106ebdf98a213e3d06dd966c
:1004f800ae053edd46bde64db58d5491055dc47132
:100508006fd40604ff15506024fb981997e9bdd6ef
:10051800cc434089779ed967bd42e8b0888b89076c
:10052800385b19e7dbeec879470a7ca1e90f427c02
:10053800c91e84f8000000008386800948ed2b322c
:10054800ac70111e4e725a6cfbff0efd5638850fab
:100558001ed5ae3d27392d3664d90f0a21a65c6811
:10056800d1545b9b3a2e3624b1670a0c0fe7579398
:10057800d296eeb49e919b1b4fc5c080a220dc6131
:10058800694b775a161a121c0aba93e2e52aa0c0d8
:1005980043e0223c1d171b120b0d090eadc78bf251
:1005a800b9a8b62dc8a91e148519f1574c0775afff
:1005b800bbdd99eefd607fa39f2601f7bcf5725c59
:1005c800c53b6644347efb5b7629438bdcc623cb74
:1005d80068fcedb663f1e4b8cadc31d71085634234
:1005e800402297132011c6847d244a85f83dbbd24a
:1005f8001132f9ae6da129c74b2f9e1df330b2dc25
:10060800ec52860dd0e3c1776c16b32b99b970a95b
:10061800fa4894112264e947c48cfca81a3ff0a058
:10062800d82c7d56ef903322c74e4987c1d138d98f
:10063800fea2ca8c360bd498cf81f5a628de7aa5ff
:10064800268eb7daa4bfad3fe49d3a2c0d927850c0
:100658009bcc5f6a62467e54c2138df6e8b8d89088
:100668005ef7392ef5afc382be805d9f7c93d0695b
:10067800a92dd56fb31225cf3b99acc8a77d18100b
:100688006e639ce87bbb3bdb097826cdf418596e7a
:1006980001b79aeca89a4f83656e95e67ee6ffaaa5
:1006a80008cfbc21e6e815efd99be7bace366f4aea
:1006b800d4099fead67cb029afb2a43131233f2aae
:1006c8003094a5c6c066a23537bc4e74a6ca82fc53
:1006d800b0d090e015d8a7334a9804f1f7daec4186
:1006e8000e50cd7f2ff691178dd64d764db0ef4336
:1006f800544daaccdf0496e4e3b5d19e1b886a4c1e
:10070800b81f2cc17f51654604ea5e9d5d358c019a
:10071800737487fa2e410bfb5a1d67b352d2db92d2
:10072800335610e91347d66d8c61d79a7a0ca137e6
:100738008e14f859893c13ebee27a9ce35c961b759
:10074800ede51ce13cb1477a59dfd29c3f73f25585
:1007580079ce1418bf37c773eacdf7535baafd5f8c
:10076800146f3ddf86db447881f3afca3ec468b9b5
:100778002c3424385f40a3c272c31d160c25e2bc7a
:100788008b493c2841950dff7101a839deb30c084f
:100798009ce4b4d890c156646184cb7b70b632d5e2
:1007a800745c6c484257b8d0a7f4515065417e53e9
:1007b800a4171ac35e273a966bab3bcb459d1ff136
:1007c80058faacab03e34b93fa3020556d76adf68f
:1007d80076cc88914c02f525d7e54ffccb2ac5d7b6
:1007e80044352680a362b58f5ab1de491bba256706
:1007f8000eea4598c0fe5de1752fc302f04c8112e8
:1008080097468da3f9d36bc65f8f03e79c92159526
:100818007a6dbfeb595295da83bed42d217458d323
:1008280069e04929c8c98e4489c2756a798ef47805
:100838003e58996b71b927dd4fe1beb6ad88f01708
:10084800ac20c9663ace7db44adf6318311ae58216
:10085800335197607f5362457764b1e0ae6bbb84d8
:10086800a081fe1c2b08f99468487058fd458f1923
:100878006cde9487f87b52b7d373ab23024b72e2da
:100888008f1fe357ab55662a28ebb207c2b52f0373
:100898007bc5869a0837d3a5872830f2a5bf23b22f
:1008a8006a0302ba8216ed5c1ccf8a2bb479a79230
:1008b800f207f3f0e2694ea1f4da65cdbe0506d57c
:1008c8006234d11ffea6c48a532e349d55f3a2a0cc
:1008d800e18a0532ebf6a475ec830b39ef6040aa88
:1008e8009f715e06106ebd518a213ef906dd963d68
:1008f800053eddaebde64d468d5491b55dc471052e
:10090800d406046f155060fffb981924e9bdd697eb
:10091800434089cc9ed9677742e8b0bd8b89078868
:100928005b19e738eec879db0a7ca1470f427ce9fe
:100938001e84f8c90000000086800983ed2b324828
:1009480070111eac725a6c4eff0efdfb38850f56a7
:10095800d5ae3d1e392d3627d90f0a64a65c68210d
:10096800545b9bd12e36243a670a0cb1e757930f94
:1009780096eeb4d2919b1b9ec5c0804f20dc61a22d
:100988004b775a691a121c16ba93e20a2aa0c0e5d4
:10099800e0223c43171b121d0d090e0bc78bf2ad4d
:1009a800a8b62db9a91e14c819f157850775af4cfb
:1009b800dd99eebb607fa3fd2601f79ff5725cbc55
:1009c8003b6644c57efb5b3429438b76c623cbdc70
:1009d800fcedb668f1e4b863dc31d7ca8563421030
:1009e8002297134011c68420244a857d3dbbd2f846
:1009f80032f9ae11a129c76d2f9e1d4b30b2dcf321
:100a080052860dece3c177d016b32b6cb970a99957
:100a1800489411fa64e947228cfca8c43ff0a01a54
:100a28002c7d56d8903322ef4e4987c7d138d9c18b
:100a3800a2ca8cfe0bd4983681f5a6cfde7aa528fb
:100a48008eb7da26bfad3fa49d3a2ce49278500dbc
:100a5800cc5f6a9b467e5462138df6c2b8d890e884
:100a6800f7392e5eafc382f5805d9fbe93d0697c57
:100a78002dd56fa91225cfb399acc83b7d1810a707
:100a8800639ce86ebb3bdb7b7826cd0918596ef476
:100a9800b79aec019a4f83a86e95e665e6ffaa7ea1
:100aa800cfbc2108e815efe69be7bad9366f4acee6
:100ab800099fead47cb029d6b2a431af233f2a31aa
:100ac80094a5c63066a235c0bc4e7437ca82fca64f
:100ad800d090e0b0d8a733159804f14adaec41f782
:100ae80050cd7f0ef691172fd64d768db0ef434d32
:100af8004daacc540496e4dfb5d19ee3886a4c1b1a
:100b08001f2cc1b85165467fea5e9d04358c015d96
:100b18007487fa73410bfb2e1d67b35ad2db9252ce
:100b28005610e93347d66d1361d79a8c0ca1377ae2
:100b380014f8598e3c13eb8927a9ceeec961b73555
:100b4800e51ce1edb1477a3cdfd29c5973f2553f81
:100b5800ce14187937c773bfcdf753eaaafd5f5b88
:100b68006f3ddf14db447886f3afca81c468b93eb1
:100b78003424382c40a3c25fc31d167225e2bc0c76
:100b8800493c288b950dff4101a83971b30c08de4b
:100b9800e4b4d89cc156649084cb7b61b632d570de
:100ba8005c6c487457b8d042f45150a7417e5365e5
:100bb800171ac3a4273a965eab3bcb6b9d1ff14532
:100bc800faacab58e34b9303302055fa76adf66d8b
:100bd800cc88917602f5254ce54ffcd72ac5d7cbb2
:100be8003526804462b58fa3b1de495aba25671b02
:100bf800ea45980efe5de1c02fc302754c8112f0e4
:100c0800468da397d36bc6f98f03e75f9215959c22
:100c18006dbfeb7a5295da59bed42d837458d3211f
:100c2800e0492969c98e44c8c2756a898ef4787901
:100c380058996b3eb927dd71e1beb64f88f017ad04
:100c480020c966acce7db43adf63184a1ae5823112
:100c5800519760335362457f64b1e0776bbb84aed4
:100c680081fe1ca008f9942b48705868458f19fd1f
:100c7800de94876c7b52b7f873ab23d34b72e202d6
:100c88001fe3578f55662aabebb20728b52f03c26f
:100c9800c5869a7b37d3a5082830f287bf23b2a52b
:100ca8000302ba6a16ed5c82cf8a2b1c79a792b42c
:100cb80007f3f0f2694ea1e2da65cdf40506d5be78
:100cc80034d11f62a6c48afe2e349d53f3a2a055c8
:100cd8008a0532e1f6a475eb830b39ec6040aaef84
:100ce800715e069f6ebd5110213ef98add963d0664
:100cf8003eddae05e64d46bd5491b58dc471055d2a
:100d080006046fd45060ff15981924fbbdd697e9e7
:100d18004089cc43d967779ee8b0bd428907888b64
:100d280019e7385bc879dbee7ca1470a427ce90ffa
:100d380084f8c91e00000000800983862b3248ed24
:100d4800111eac705a6c4e720efdfbff850f5638a3
:100d5800ae3d1ed52d3627390f0a64d95c6821a609
:100d68005b9bd15436243a2e0a0cb16757930fe790
:100d7800eeb4d2969b1b9e91c0804fc5dc61a22029
:100d8800775a694b121c161a93e20abaa0c0e52ad0
:100d9800223c43e01b121d17090e0b0d8bf2adc749
:100da800b62db9a81e14c8a9f157851975af4c07f7
:100db80099eebbdd7fa3fd6001f79f26725cbcf551
:100dc8006644c53bfb5b347e438b762923cbdcc66c
:100dd800edb668fce4b863f131d7cadc634210852c
:100de80097134022c68420114a857d24bbd2f83d42
:100df800f9ae113229c76da19e1d4b2fb2dcf3301d
:100e0800860dec52c177d0e3b32b6c1670a999b953
:100e18009411fa48e9472264fca8c48cf0a01a3f50
:100e28007d56d82c3322ef904987c74e38d9c1d187
:100e3800ca8cfea2d498360bf5a6cf817aa528def7
:100e4800b7da268ead3fa4bf3a2ce49d78500d92b8
:100e58005f6a9bcc7e5462468df6c213d890e8b880
:100e6800392e5ef7c382f5af5d9fbe80d0697c9353
:100e7800d56fa92d25cfb312acc83b991810a77d03
:100e88009ce86e633bdb7bbb26cd0978596ef41872
:100e98009aec01b74f83a89a95e6656effaa7ee69d
:100ea800bc2108cf15efe6e8e7bad99b6f4ace36e2
:100eb8009fead409b029d67ca431afb23f2a3123a6
:100ec800a5c63094a235c0664e7437bc82fca6ca4b
:100ed80090e0b0d0a73315d804f14a98ec41f7da7e
:100ee800cd7f0e5091172ff64d768dd6ef434db02e
:100ef800aacc544d96e4df04d19ee3b56a4c1b8816
:100f08002cc1b81f65467f515e9d04ea8c015d3592
:100f180087fa73740bfb2e4167b35a1ddb9252d2ca
:100f280010e93356d66d1347d79a8c61a1377a0cde
:100f3800f8598e1413eb893ca9ceee2761b735c951
:100f48001ce1ede5477a3cb1d29c59dff2553f737d
:100f5800141879cec773bf37f753eacdfd5f5baa84
:100f68003ddf146f447886dbafca81f368b93ec4ad
:100f780024382c34a3c25f401d1672c3e2bc0c2572
:100f88003c288b490dff4195a83971010c08deb347
:100f9800b4d89ce4566490c1cb7b618432d570b6da
:100fa8006c48745cb8d042575150a7f47e536541e1
:100fb8001ac3a4173a965e273bcb6bab1ff1459d2e
:100fc800acab58fa4b9303e32055fa30adf66d7687
:100fd800889176ccf5254c024ffcd7e5c5d7cb2aae
:100fe80026804435b58fa362de495ab125671bbafe
:100ff80045980eea5de1c0fec302752f8112f04ce0
:101008008da397466bc6f9d303e75f8f15959c921e
:10101800bfeb7a6d95da5952d42d83be58d321741b
:10102800492969e08e44c8c9756a89c2f478798efd
:10103800996b3e5827dd71b9beb64fe1f017ad8800
:10104800c966ac207db43ace63184adfe582311a0e
:101058009760335162457f53b1e07764bb84ae6bd0
:10106800fe1ca081f9942b08705868488f19fd451b
:1010780094876cde52b7f87bab23d37372e2024bd2
:10108800e3578f1f662aab55b20728eb2f03c2b56b
:10109800869a7bc5d3a5083730f2872823b2a5bf27
:1010a80002ba6a03ed5c82168a2b1ccfa792b47928
:1010b800f3f0f2074ea1e26965cdf4da06d5be0574
:1010c800d11f6234c48afea6349d532ea2a055f3c4
:1010d8000532e18aa475ebf60b39ec8340aaef6080
:1010e8005e069f71bd51106e3ef98a21963d06dd60
:1010f800ddae053e4d46bde691b58d5471055dc426
:10110800046fd40660ff15501924fb98d697e9bde3
:1011180089cc434067779ed9b0bd42e807888b8960
:10112800e7385b1979dbeec8a1470a7c7ce90f42f6
:10113800f8c91e8400000000098386803248ed2b20
:101148001eac70116c4e725afdfbff0e0f5638859f
:101158003d1ed5ae3627392d0a64d90f6821a65c05
:101168009bd1545b243a2e360cb1670a930fe7578c
:10117800b4d296ee1b9e919b804fc5c061a220dc25
:101188005a694b771c161a12e20aba93c0e52aa0cc
:101198003c43e022121d171b0e0b0d09f2adc78b45
:1011a8002db9a8b614c8a91e578519f1af4c0775f3
:1011b800eebbdd99a3fd607ff79f26015cbcf5724d
:1011c80044c53b665b347efb8b762943cbdcc62368
:1011d800b668fcedb863f1e4d7cadc314210856328
:1011e80013402297842011c6857d244ad2f83dbb3e
:1011f800ae1132f9c76da1291d4b2f9edcf330b219
:101208000dec528677d0e3c12b6c16b3a999b9704f
:1012180011fa4894472264e9a8c48cfca01a3ff04c
:1012280056d82c7d22ef903387c74e49d9c1d13883
:101238008cfea2ca98360bd4a6cf81f5a528de7af3
:10124800da268eb73fa4bfad2ce49d3a500d9278b4
:101258006a9bcc5f5462467ef6c2138d90e8b8d87c
:101268002e5ef73982f5afc39fbe805d697c93d04f
:101278006fa92dd5cfb31225c83b99ac10a77d18ff
:10128800e86e639cdb7bbb3bcd0978266ef418596e
:10129800ec01b79a83a89a4fe6656e95aa7ee6ff99
:1012a8002108cfbcefe6e815bad99be74ace366fde
:1012b800ead4099f29d67cb031afb2a42a31233fa2
:1012c800c63094a535c066a27437bc4efca6ca8247
:1012d800e0b0d0903315d8a7f14a980441f7daec7a
:1012e8007f0e50cd172ff691768dd64d434db0ef2a
:1012f800cc544daae4df04969ee3b5d14c1b886a12
:10130800c1b81f2c467f51659d04ea5e015d358c8e
:10131800fa737487fb2e410bb35a1d679252d2dbc6
:10132800e93356106d1347d69a8c61d7377a0ca1da
:10133800598e14f8eb893c13ceee27a9b735c9614d
:10134800e1ede51c7a3cb1479c59dfd2553f73f279
:101358001879ce1473bf37c753eacdf75f5baafd80
:10136800df146f3d7886db44ca81f3afb93ec468a9
:10137800382c3424c25f40a31672c31dbc0c25e26e
:10138800288b493cff41950d397101a808deb30c43
:10139800d89ce4b46490c1567b6184cbd570b632d6
:1013a80048745c6cd04257b8a56363c6847c7cf8eb
:1013b800997777ee8d7b7bf60df2f2ffbd6b6bd6de
:1013c800b16f6fde54c5c591503030600301010222
:1013d800a96767ce7d2b2b5619fefee762d7d7b5d6
:1013e800e6abab4d9a7676ec45caca8f9d82821fd2
:1013f80040c9c989877d7dfa15fafaefeb5959b2c8
:10140800c947478e0bf0f0fbecadad4167d4d4b3c0
:10141800fda2a25feaafaf45bf9c9c23f7a4a453eb
:10142800967272e45bc0c09bc2b7b7751cfdfde144
:10143800ae93933d6a26264c5a36366c413f3f7e22
:1014480002f7f7f54fcccc835c343468f4a5a5518a
:1014580034e5e5d108f1f1f9937171e273d8d8abad
:10146800533131623f15152a0c04040852c7c79539
:10147800652323465ec3c39d28181830a196963766
:101488000f05050ab59a9a2f0907070e3612122476
:101498009b80801b3de2e2df26ebebcd6927274ee0
:1014a800cdb2b27f9f7575ea1b0909129e83831d11
:1014b800742c2c582e1a1a342d1b1b36b26e6edc67
:1014c800ee5a5ab4fba0a05bf65252a44d3b3b76b1
:1014d80061d6d6b7ceb3b37d7b2929523ee3e3dd8f
:1014e800712f2f5e97848413f55353a668d1d1b911
:1014f800000000002cededc1602020401ffcfce343
:10150800c8b1b179ed5b5bb6be6a6ad446cbcb8d08
:10151800d9bebe674b393972de4a4a94d44c4c98ce
:10152800e85858b04acfcf856bd0d0bb2aefefc56b
:10153800e5aaaa4f16fbfbedc5434386d74d4d9a46
:101548005533336694858511cf45458a10f9f9e9f5
:1015580006020204817f7ffef05050a0443c3c7894
:10156800ba9f9f25e3a8a84bf35151a2fea3a35d00
:10157800c04040808a8f8f05ad92923fbc9d9d21cf
:101588004838387004f5f5f1dfbcbc63c1b6b677ee
:1015980075dadaaf63212142301010201affffe517
:1015a8000ef3f3fd6dd2d2bf4ccdcd81140c0c18c7
:1015b800351313262fececc3e15f5fbea297973576
:1015c800cc4444883917172e57c4c493f2a7a7559b
:1015d800827e7efc473d3d7aac6464c8e75d5dbab7
:1015e8002b191932957373e6a06060c09881811930
:1015f800d14f4f9e7fdcdca3662222447e2a2a54e8
:10160800ab90903b8388880bca46468c29eeeec780
:10161800d3b8b86b3c14142879dedea7e25e5ebc52
:101628001d0b0b1676dbdbad3be0e0db563232649c
:101638004e3a3a741e0a0a14db4949920a06060c05
:101648006c242448e45c5cb85dc2c29f6ed3d3bdf1
:10165800efacac43a66262c4a8919139a4959531c8
:1016680037e4e4d38b7979f232e7e7d543c8c88bfe
:101678005937376eb76d6dda8c8d8d0164d5d5b15c
:10168800d24e4e9ce0a9a949b46c6cd8fa5656ac17
:1016980007f4f4f325eaeacfaf6565ca8e7a7af4df
:1016a800e9aeae4718080810d5baba6f887878f04e
:1016b8006f25254a722e2e5c241c1c38f1a6a657cd
:1016c800c7b4b47351c6c69723e8e8cb7cdddda167
:1016d8009c7474e8211f1f3edd4b4b96dcbdbd6139
:1016e800868b8b0d858a8a0f907070e0423e3e7c17
:1016f800c4b5b571aa6666ccd848489005030306f8
:1017080001f6f6f7120e0e1ca36161c25f35356a49
:10171800f95757aed0b9b9699186861758c1c1999a
:10172800271d1d3ab99e9e2738e1e1d913f8f8eb39
:10173800b398982b33111122bb6969d270d9d9a9f2
:10174800898e8e07a7949433b69b9b2d221e1e3c30
:101758009287871520e9e9c949cece87ff5555aa52
:10176800782828507adfdfa58f8c8c03f8a1a1593f
:1017780080898909170d0d1adabfbf6531e6e6d7ea
:10178800c6424284b86868d0c3414182b099992959
:10179800772d2d5a110f0f1ecbb0b07bfc5454a8d7
:1017a800d6bbbb6d3a16162c6363c6a57c7cf88441
:1017b8007777ee997b7bf68df2f2ff0d6b6bd6bdda
:1017c8006f6fdeb1c5c5915430306050010102031e
:1017d8006767cea92b2b567dfefee719d7d7b562d2
:1017e800abab4de67676ec9acaca8f4582821f9dce
:1017f800c9c989407d7dfa87fafaef155959b2ebc4
:1018080047478ec9f0f0fb0badad41ecd4d4b367bc
:10181800a2a25ffdafaf45ea9c9c23bfa4a453f7e7
:101828007272e496c0c09b5bb7b775c2fdfde11c40
:1018380093933dae26264c6a36366c5a3f3f7e411e
:10184800f7f7f502cccc834f3434685ca5a551f486
:10185800e5e5d134f1f1f9087171e293d8d8ab73a9
:101868003131625315152a3f0404080cc7c7955235
:1018780023234665c3c39d5e18183028969637a162
:1018880005050a0f9a9a2fb507070e091212243672
:1018980080801b9be2e2df3debebcd2627274e69dc
:1018a800b2b27fcd7575ea9f0909121b83831d9e0d
:1018b8002c2c58741a1a342e1b1b362d6e6edcb263
:1018c8005a5ab4eea0a05bfb5252a4f63b3b764dad
:1018d800d6d6b761b3b37dce2929527be3e3dd3e8b
:1018e8002f2f5e71848413975353a6f5d1d1b9680d
:1018f80000000000ededc12c20204060fcfce31f3f
:10190800b1b179c85b5bb6ed6a6ad4becbcb8d4604
:10191800bebe67d93939724b4a4a94de4c4c98d4ca
:101928005858b0e8cfcf854ad0d0bb6befefc52a67
:10193800aaaa4fe5fbfbed16434386c54d4d9ad742
:10194800333366558585119445458acff9f9e910f1
:10195800020204067f7ffe815050a0f03c3c784490
:101968009f9f25baa8a84be35151a2f3a3a35dfefc
:10197800404080c08f8f058a92923fad9d9d21bccb
:1019880038387048f5f5f104bcbc63dfb6b677c1ea
:10199800dadaaf752121426310102030ffffe51a13
:1019a800f3f3fd0ed2d2bf6dcdcd814c0c0c1814c3
:1019b80013132635ececc32f5f5fbee1979735a272
:1019c800444488cc17172e39c4c49357a7a755f297
:1019d8007e7efc823d3d7a476464c8ac5d5dbae7b3
:1019e8001919322b7373e6956060c0a0818119982c
:1019f8004f4f9ed1dcdca37f222244662a2a547ee4
:101a080090903bab88880b8346468ccaeeeec7297c
:101a1800b8b86bd31414283cdedea7795e5ebce24e
:101a28000b0b161ddbdbad76e0e0db3b3232645698
:101a38003a3a744e0a0a141e494992db06060c0a01
:101a48002424486c5c5cb8e4c2c29f5dd3d3bd6eed
:101a5800acac43ef6262c4a6919139a8959531a4c4
:101a6800e4e4d3377979f28be7e7d532c8c88b43fa
:101a780037376e596d6ddab78d8d018cd5d5b16458
:101a88004e4e9cd2a9a949e06c6cd8b45656acfa13
:101a9800f4f4f307eaeacf256565caaf7a7af48edb
:101aa800aeae47e908081018baba6fd57878f0884a
:101ab80025254a6f2e2e5c721c1c3824a6a657f1c9
:101ac800b4b473c7c6c69751e8e8cb23dddda17c63
:101ad8007474e89c1f1f3e214b4b96ddbdbd61dc35
:101ae8008b8b0d868a8a0f857070e0903e3e7c4213
:101af800b5b571c46666ccaa484890d803030605f4
:101b0800f6f6f7010e0e1c126161c2a335356a5f45
:101b18005757aef9b9b969d086861791c1c1995896
:101b28001d1d3a279e9e27b9e1e1d938f8f8eb1335
:101b380098982bb3111122336969d2bbd9d9a970ee
:101b48008e8e0789949433a79b9b2db61e1e3c222c
:101b580087871592e9e9c920cece87495555aaff4e
:101b680028285078dfdfa57a8c8c038fa1a159f83b
:101b7800898909800d0d1a17bfbf65dae6e6d731e6
:101b8800424284c66868d0b8414182c3999929b055
:101b98002d2d5a770f0f1e11b0b07bcb5454a8fcd3
:101ba800bbbb6dd616162c3a63c6a5637cf8847c3d
:101bb80077ee99777bf68d7bf2ff0df26bd6bd6bd6
:101bc8006fdeb16fc59154c530605030010203011a
:101bd80067cea9672b567d2bfee719fed7b562d7ce
:101be800ab4de6ab76ec9a76ca8f45ca821f9d82ca
:101bf800c98940c97dfa877dfaef15fa59b2eb59c0
:101c0800478ec947f0fb0bf0ad41ecadd4b367d4b8
:101c1800a25ffda2af45eaaf9c23bf9ca453f7a4e3
:101c280072e49672c09b5bc0b775c2b7fde11cfd3c
:101c3800933dae93264c6a26366c5a363f7e413f1a
:101c4800f7f502f7cc834fcc34685c34a551f4a582
:101c5800e5d134e5f1f908f171e29371d8ab73d8a5
:101c680031625331152a3f1504080c04c79552c731
:101c780023466523c39d5ec3183028189637a1965e
:101c8800050a0f059a2fb59a070e0907122436126e
:101c9800801b9b80e2df3de2ebcd26eb274e6927d8
:101ca800b27fcdb275ea9f7509121b09831d9e8309
:101cb8002c58742c1a342e1a1b362d1b6edcb26e5f
:101cc8005ab4ee5aa05bfba052a4f6523b764d3ba9
:101cd800d6b761d6b37dceb329527b29e3dd3ee387
:101ce8002f5e712f8413978453a6f553d1b968d109
:101cf80000000000edc12ced20406020fce31ffc3b
:101d0800b179c8b15bb6ed5b6ad4be6acb8d46cb00
:101d1800be67d9be39724b394a94de4a4c98d44cc6
:101d280058b0e858cf854acfd0bb6bd0efc52aef63
:101d3800aa4fe5aafbed16fb4386c5434d9ad74d3e
:101d48003366553385119485458acf45f9e910f9ed
:101d5800020406027ffe817f50a0f0503c78443c8c
:101d68009f25ba9fa84be3a851a2f351a35dfea3f8
:101d78004080c0408f058a8f923fad929d21bc9dc7
:101d880038704838f5f104f5bc63dfbcb677c1b6e6
:101d9800daaf75da2142632110203010ffe51aff0f
:101da800f3fd0ef3d2bf6dd2cd814ccd0c18140cbf
:101db80013263513ecc32fec5fbee15f9735a2976e
:101dc8004488cc44172e3917c49357c4a755f2a793
:101dd8007efc827e3d7a473d64c8ac645dbae75daf
:101de80019322b1973e6957360c0a0608119988128
:101df8004f9ed14fdca37fdc224466222a547e2ae0
:101e0800903bab90880b8388468cca46eec729ee78
:101e1800b86bd3b814283c14dea779de5ebce25e4a
:101e28000b161d0bdbad76dbe0db3be03264563294
:101e38003a744e3a0a141e0a4992db49060c0a06fd
:101e480024486c245cb8e45cc29f5dc2d3bd6ed3e9
:101e5800ac43efac62c4a6629139a8919531a495c0
:101e6800e4d337e479f28b79e7d532e7c88b43c8f6
:101e7800376e59376ddab76d8d018c8dd5b164d554
:101e88004e9cd24ea949e0a96cd8b46c56acfa560f
:101e9800f4f307f4eacf25ea65caaf657af48e7ad7
:101ea800ae47e9ae08101808ba6fd5ba78f0887846
:101eb800254a6f252e5c722e1c38241ca657f1a6c5
:101ec800b473c7b4c69751c6e8cb23e8dda17cdd5f
:101ed80074e89c741f3e211f4b96dd4bbd61dcbd31
:101ee8008b0d868b8a0f858a70e090703e7c423e0f
:101ef800b571c4b566ccaa664890d84803060503f0
:101f0800f6f701f60e1c120e61c2a361356a5f3541
:101f180057aef957b969d0b986179186c19958c192
:101f28001d3a271d9e27b99ee1d938e1f8eb13f831
:101f3800982bb3981122331169d2bb69d9a970d9ea
:101f48008e07898e9433a7949b2db69b1e3c221e28
:101f580087159287e9c920e9ce8749ce55aaff554a
:101f680028507828dfa57adf8c038f8ca159f8a137
:101f7800890980890d1a170dbf65dabfe6d731e6e2
:101f88004284c64268d0b8684182c3419929b09951
:101f98002d5a772d0f1e110fb07bcbb054a8fc54cf
:101fa800bb6dd6bb162c3a16c6a56363f8847c7c39
:101fb800ee997777f68d7b7bff0df2f2d6bd6b6bd2
:101fc800deb16f6f9154c5c5605030300203010116
:101fd800cea96767567d2b2be719fefeb562d7d7ca
:101fe8004de6ababec9a76768f45caca1f9d8282c6
:101ff8008940c9c9fa877d7def15fafab2eb5959bc
:102008008ec94747fb0bf0f041ecadadb367d4d4b4
:102018005ffda2a245eaafaf23bf9c9c53f7a4a4df
:10202800e49672729b5bc0c075c2b7b7e11cfdfd38
:102038003dae93934c6a26266c5a36367e413f3f16
:10204800f502f7f7834fcccc685c343451f4a5a57e
:10205800d134e5e5f908f1f1e2937171ab73d8d8a1
:10206800625331312a3f1515080c04049552c7c72d
:10207800466523239d5ec3c33028181837a196965a
:102088000a0f05052fb59a9a0e090707243612126a
:102098001b9b8080df3de2e2cd26ebeb4e692727d4
:1020a8007fcdb2b2ea9f7575121b09091d9e838305
:1020b80058742c2c342e1a1a362d1b1bdcb26e6e5b
:1020c800b4ee5a5a5bfba0a0a4f65252764d3b3ba5
:1020d800b761d6d67dceb3b3527b2929dd3ee3e383
:1020e8005e712f2f13978484a6f55353b968d1d105
:1020f80000000000c12ceded40602020e31ffcfc37
:1021080079c8b1b1b6ed5b5bd4be6a6a8d46cbcbfc
:1021180067d9bebe724b393994de4a4a98d44c4cc2
:10212800b0e85858854acfcfbb6bd0d0c52aefef5f
:102138004fe5aaaaed16fbfb86c543439ad74d4d3a
:1021480066553333119485858acf4545e910f9f9e9
:1021580004060202fe817f7fa0f0505078443c3c88
:1021680025ba9f9f4be3a8a8a2f351515dfea3a3f4
:1021780080c04040058a8f8f3fad929221bc9d9dc3
:1021880070483838f104f5f563dfbcbc77c1b6b6e2
:10219800af75dada4263212120301010e51affff0b
:1021a800fd0ef3f3bf6dd2d2814ccdcd18140c0cbb
:1021b80026351313c32fececbee15f5f35a297976a
:1021c80088cc44442e3917179357c4c455f2a7a78f
:1021d800fc827e7e7a473d3dc8ac6464bae75d5dab
:1021e800322b1919e6957373c0a060601998818124
:1021f8009ed14f4fa37fdcdc44662222547e2a2adc
:102208003bab90900b8388888cca4646c729eeee74
:102218006bd3b8b8283c1414a779dedebce25e5e46
:10222800161d0b0bad76dbdbdb3be0e06456323290
:10223800744e3a3a141e0a0a92db49490c0a0606f9
:10224800486c2424b8e45c5c9f5dc2c2bd6ed3d3e5
:1022580043efacacc4a6626239a8919131a49595bc
:10226800d337e4e4f28b7979d532e7e78b43c8c8f2
:102278006e593737dab76d6d018c8d8db164d5d550
:102288009cd24e4e49e0a9a9d8b46c6cacfa56560b
:10229800f307f4f4cf25eaeacaaf6565f48e7a7ad3
:1022a80047e9aeae101808086fd5babaf088787842
:1022b8004a6f25255c722e2e38241c1c57f1a6a6c1
:1022c80073c7b4b49751c6c6cb23e8e8a17cdddd5b
:1022d800e89c74743e211f1f96dd4b4b61dcbdbd2d
:1022e8000d868b8b0f858a8ae09070707c423e3e0b
:1022f80071c4b5b5ccaa666690d8484806050303ec
:10230800f701f6f61c120e0ec2a361616a5f35353d
:10231800aef9575769d0b9b9179186869958c1c18e
:102328003a271d1d27b99e9ed938e1e1eb13f8f82d
:102338002bb3989822331111d2bb6969a970d9d9e6
:1023480007898e8e33a794942db69b9b3c221e1e24
:1023580015928787c920e9e98749ceceaaff555546
:1023680050782828a57adfdf038f8c8c59f8a1a133
:10237800098089891a170d0d65dabfbfd731e6e6de
:1023880084c64242d0b8686882c3414129b099994d
:102398005a772d2d1e110f0f7bcbb0b0a8fc5454cb
:1023a8006dd6bbbb2c3a16164c696d697465640012
:1023b8004469726563746564000000005573616761
:1023c800653a20616e6e6f756e636520302f310d32
:1023d8000a000000257320626361737420737562bc
:1023e8006d69747465643a2025640d0a0000000064
:1023f80055736167653a2073736920696e666f0d5e
:102408000a000000696e666f0000000053534920ff
:102418007661726961626c6520736c6f7473202dcc
:10242800206163746976653a2025642c20746f7482
:10243800616c3a2025640d0a0000000053534920be
:102448007661726961626c65202564206e616d65d4
:102458003a2025732c2076616c75653a2025732cfb
:1024680020747970653a2025640d0a0055736167f8
:10247800653a206874747020696e666f2f73746192
:10248800742f646973636f6e6e6563740d0a000060
:102498004854545020636f6e6e656374696f6e7331
:1024a800202d206163746976653a2025642c206f9d
:1024b80070656e3a2025640d0a0000004854545097
:1024c80020636f6e6e3a202564207374617475738f
:1024d8003a2030782534782c20736d3a20307825ce
:1024e80034782c206368756e6b733a2025642c2031
:1024f8006368756e6b20656d7074793a2025642c5d
:102508002066696c6520656d7074793a2025640dc4
:102518000a0000000948545450206368756e6b3aed
:1025280020256420666c6167733a203078253478fa
:102538002c207374617475733a2030782534782ca4
:1025480020664e616d653a2025730d0a0000000073
:102558000948545450206368756e6b3a2064796e4c
:1025680020627566666572733a2025642c20766150
:1025780072204e616d653a2025730d0a0000000037
:10258800485454503a206661696c656420746f2021
:1025980067657420696e666f20666f7220636f6e60
:1025a8006e3a2025640d0a007374617400000000ff
:1025b8004854545020636f6e6e656374696f6e7310
:1025c8003a2025642c206163746976653a20256475
:1025d8002c206f70656e3a2025640d0a00000000fb
:1025e8004854545020706f6f6c20656d7074793a40
:1025f8002025642c206d61782064657074683a2009
:1026080025642c2070617273652072657472696527
:10261800733a2025640d0a00646973636f6e6e65f2
:10262800637400004854545020646973636f6e6e7d
:10263800656374656420256420636f6e6e656374da
:10264800696f6e732c206163746976653a2025641e
:102658000d0a0000485454503a20756e6b6e6f771f
:102668006e20706172616d657465720d0a000000fc
:1026780064697361626c6564000000006469736179
:10268800626c6500656e61626c656400656e6162ae
:102698006c65000055736167653a202573203c69b5
:1026a8006e746572666163653e203c6f6e2f6f665f
:1026b800663e200d0a00000045783a202573205018
:1026c80049433332494e54206f6e200d0a000000f2
:1026d800556e6b6e6f776e20696e74657266616396
:1026e800650d0a006f6e00006f666600556e6b6eb2
:1026f8006f776e206f7074696f6e0d0a00000000ae
:1027080025732025730d0a004661696c6564207481
:102718006f2025732025730d0a000000556e6b6e1f
:102728006f776e20736572766963652025730d0a6d
:10273800000000006e6f6e6500000000383e00006b
:10274800010000000c24000002000000ec2600003c
:1027580003000000f0260000030000003c3e0000db
:102768000400000055736167653a20646e73632046
:102778003c64656c2f696e666f2f6f6e2f6f66668f
:102788002f6c6f6f6b75703e200d0a005573616773
:10279800653a202573203c6f6e2f6f66663e203c9d
:1027a800696e746572666163653e203c7374726914
:1027b80063742f707265663e2f3c636c6561723e70
:1027c800200d0a0045783a202573206f6e20657425
:1027d80068300d0a000000007374726963740000a9
:1027e8007072656600000000636c6561720000002d
:1027f80055736167653a20646e7363206c6f6f6b05
:102808007570203c747970653e203c686f73744e17
:10281800616d653e200d0a0048656c703a203c6881
:102828006f73744e616d653e2855524c29202d20da
:102838006c6f6f6b20757020666f7220686f737491
:102848006e616d650d0a000048656c703a203c7435
:102858007970653e203a2061206f72204120666fb2
:102868007220495076342061646472657373206cf9
:102878006f6f6b75700d0a0048656c703a203c7478
:102888007970653e203a2061616161206f72204154
:1028980041414120666f7220495076362061646458
:1028a80072657373206c6f6f6b75700d0a00000092
:1028b80048656c703a203c747970653e203a206116
:1028c8006e7920666f7220626f7468204950763482
:1028d80020616e64204950763620616464726573a5
:1028e80073206c6f6f6b75700d0a0000646e7363f4
:1028f800206c6f6f6b75703a20636f6d6d616e64dd
:1029080020696e2070726f67726573732e2052652e
:10291800747279206c617465722e0d0a00000000d3
:1029280041000000610000004141414100000000f9
:102938006161616100000000414e5900616e7900db
:10294800646e7363206c6f6f6b75703a205b2573d0
:102958005d204c6f6f6b75702054797065206e6fb9
:102968007420737570706f727465642e0d0a0000a0
:10297800646e7363206c6f6f6b75703a20486f7369
:1029880074206e616d6520746f6f206c6f6e672e9a
:102998002052657472792e0d0a000000646e73630c
:1029a800206c6f6f6b75703a207265736f6c766907
:1029b8006e6720686f73743a20257320666f7220e3
:1029c800747970653a2573200d0a000055736167a4
:1029d800653a20646e73632064656c203c686f738d
:1029e800744e616d653e7c616c6c200d0a000000c0
:1029f80048656c703a203c686f73744e616d653e33
:102a08002855524c29202d2052656d6f766520740b
:102a1800686520656e7472792069662065786973c7
:102a28007473200d0a00000048656c703a20616cd0
:102a38006c202d2052656d6f766520616c6c20745a
:102a48006865207265736f6c76656420656e747254
:102a580079200d0a00000000616c6c005b25735d35
:102a6800206e6f742070617274206f6620746865c0
:102a780020444e5320436163686520656e74727903
:102a8800200d0a00496e636f6d706c657465206374
:102a98006f6d6d616e64200d0a00000055736167eb
:102aa800653a20646e736320696e666f200d0a00b4
:102ab80048656c703a20646973706c617920746839
:102ac8006520444e5320636163686520656e7472a7
:102ad800792064657461696c73200d0a0000000038
:102ae800444e5320436c69656e7420697320646f8b
:102af800776e210d0a000000444e5320436c69652f
:102b08006e74204946202d205374726963743a20ec
:102b180025732c205072656665727265643a2025ab
:102b2800730d0a00444e5320436c69656e74202d62
:102b38002074696d653a2025642c2070656e64697f
:102b48006e673a2025642c2063757272656e743a3c
:102b58002025642c20746f74616c3a2025640d0a5a
:102b680000000000486f73746e616d65203d20257c
:102b780073200d0a54696d656f7574203d202564b6
:102b8800200d0a0049507634203d25730d0a0000b7
:102b980049507636203d2025730d0a002d2d2d2d08
:102ba8002d2d2d2d2d2d2d2d2d2d2d2d2d2d2d2d4d
:102bb8002d2d2d2d2d2d2d2d2d2d2d2d2d2d2d2d3d
:102bc8002d2d2d2d2d2d2d2d2d2d2d2d2d2d2d2d2d
:102bd8000d0a00004e6f20444e5320436c69656e09
:102be8007420436163686520656e7472696573203b
:102bf8000d0a0000496e76616c696420496e707533
:102c08007420436f6d6d616e64203a5b20257320dc
:102c18005d200d0a000000006172703a2071756530
:102c280075652066756c6c2f6572726f720d0a007f
:102c38006172703a206164647265737320616c72aa
:102c480065616479207175657565640d0a00000019
:102c58006172703a2061646472657373206e65777f
:102c68006c79207175657565640d0a005573616727
:102c7800653a20617270203c696e746572666163a2
:102c8800653e203c722f712f642f6c3e203c69708a
:102c9800416464723e200d0a0000000045783a2025
:102ca800617270205049433332494e5420722031aa
:102cb80039322e3136382e312e313035200d0a007a
:102cc8006c0000006172703a20256420736c6f7488
:102cd8007320696e207468652063616368650d0af6
:102ce800000000006172703a204950763420616417
:102cf80064726573733a2025730000002c204d41df
:102d08004320416464726573733a202573000000a0
:102d18002c20636f6d706c6574650d0a00000000ef
:102d28002c207065726d616e656e740d0a0000006e
:102d38006172703a20495076342061646472657318
:102d4800733a2025732c207175657565640d0a002a
:102d5800496e76616c6964204950206164647265cb
:102d6800737320737472696e67200d0a0000000087
:102d7800720000006172703a207265736f6c76653c
:102d880064202d2049507634206164647265737321
:102d98003a2025732c204d414320416464726573a9
:102da800733a2025730d0a00710000006172703ab1
:102db800204950763420616464726573733a202523
:102dc800732c204d414320416464726573733a202b
:102dd80025730d0a000000006172703a206e6f20a2
:102de8007375636820656e7472790d0a00000000bf
:102df800640000006172703a2072656d6f766564d8
:102e08002025730d0a0000006172703a20556e6b20
:102e18006e6f776e206f7074696f6e0d0a00000018
:102e280070696e67363a2077726f6e6720726570c8
:102e38006c792072656365697665640d0a00000027
:102e480070696e67363a207265706c792066726fa9
:102e58006d205b25735d2074696d65203d202564b8
:102e68006d730d0a0000000050696e673a20777292
:102e78006f6e67207265706c79207265636569761c
:102e880065642e204d61736b3a2030782532780db9
:102e98000a00000050696e673a207265706c795bb1
:102ea80025645d2066726f6d2025733a2074696d04
:102eb80065203d2025646d730d0a000070696e67fa
:102ec800363a20636f6d6d616e6420696e20707292
:102ed8006f67726573732e205265747279206c6106
:102ee8007465722e0d0a000055736167653a20708b
:102ef800696e6736203c6e65743e203c783a3a78b5
:102f08003a783a783a783e203c73697a653e200de3
:102f18000a00000045783a2070696e6736206665b9
:102f280038303a3a32333a323232323a3333333350
:102f38003a3132333420313530300d0a0000000088
:102f480070696e67363a20486f7374206e616d65dc
:102f580020746f6f206c6f6e672e205265747279c3
:102f68002e0d0a0070696e67363a207265736f6cb1
:102f780076696e6720686f73743a2025730d0a00ae
:102f880070696e67363a204661696c656420746fb3
:102f98002072656769737465722049434d502068d3
:102fa800616e646c65720d0a0000000050696e67fe
:102fb8003a20646f6e652e2053656e742025642058
:102fc80072657175657374732c20726563656976b3
:102fd8006564202564207265706c6965732e0d0a1e
:102fe8000000000050696e672055736167653a20dc
:102ff80070696e67203c73746f703e2f3c6e616d14
:10300800652f616464726573733e203c6920696e44
:10301800746572666163653e203c6e206e50696e11
:1030280067733e203c74206d73506572696f643e0f
:10303800203c732073697a653e0d0a0073746f70c3
:103048000000000050696e673a20636f6d6d616e15
:103058006420696e2070726f67726573732e2052d8
:1030680065747279206c617465722e0d0a00000017
:1030780050696e673a20486f7374206e616d6520e1
:10308800746f6f206c6f6e672e2052657472792e84
:103098000d0a0000690000006e00000074000000c6
:1030a8007300000050696e673a20446174612073b0
:1030b800697a6520746f6f206269672e204d617888
:1030c8003a2025642e2052657472790d0a0000009a
:1030d80050696e673a20556e6b6e6f776e2070611f
:1030e80072616d657465720d0a00000050696e6743
:1030f8003a207265736f6c76696e6720686f7374b7
:103108003a2025730d0a0000556e6b6e6f776e209e
:103118006865617020747970652e205573653a2052
:103128005b312c2025645d0d0a0000004e6f20687d
:1031380065617020696e666f2065786973747320a5
:10314800666f7220747970653a202573210d0a0024
:103158004865617020747970653a2025732e20497e
:103168006e697469616c2063726561746564206856
:103178006561702073697a653a2025642042797404
:1031880065730d0a00000000416c6c6f6361626c2e
:103198006520626c6f636b20686561702073697a63
:1031a800653a2025642042797465730d0a00000091
:1031b800416c6c20617661696c61626c6520686540
:1031c80061702073697a653a2025642042797465b4
:1031d800732c20686967682077617465726d617205
:1031e8006b3a2025640d0a004c6173742068656190
:1031f80070206572726f723a20307825780d0a0057
:103208004e6f20547261636520696e666f20657821
:10321800697374732e0d0a0000000000183e000048
:10322800243e00002c3e0000537461636b207570cf
:10323800206661696c65640d0a000000537461635f
:103248006b207570207375636365656465640d0a2a
:103258000000000055736167653a20737461636b01
:10326800203c75702f646f776e3e203c70726573da
:10327800657276653e0d0a0045783a20737461637d
:103288006b20646f776e2070726573657276650d5a
:103298000a00000075700000537461636b20616c54
:1032a8007265616479207570210d0a005475726e1b
:1032b80020537461636b20646f776e20616e6420a5
:1032c8007468656e207570210d0a0000526573746c
:1032d800617274696e672074686520737461636bca
:1032e800207769746820256420696e746572666148
:1032f80063652873290d0a00646f776e000000006b
:10330800537461636b20646f776e3a2063616e6eed
:103318006f7420676574206120737461636b206823
:10332800616e646c650d0a00537461636b20646f91
:10333800776e207375636365656465640d0a0000c4
:1033480055736167653a206966203c696e746572d9
:10335800666163653e203c646f776e2f75703e2012
:103368000d0a000045783a206966205049433332f7
:10337800494e5420646f776e200d0a00556e6b6eaf
:103388006f776e20696e746572666163652073700d
:1033980065636966696564200d0a0000546869738d
:1033a80020696e7465726661636520616c7265611f
:1033b80064792075700d0a005468697320696e7409
:1033c80065726661636520616c7265616479206409
:1033d8006f776e0d0a00000057726f6e672070617c
:1033e80072616d657465722073706563696669657d
:1033f80064200d0a000000004f7065726174696fe7
:103408006e207375636365737366756c210d0a00ae
:103418004f7065726174696f6e206661696c65646e
:10342800210d0a0055736167653a207365746d61f3
:1034380063203c696e746572666163653e203c7802
:103448003a783a783a783a783a783e200d0a000085
:1034580045783a207365746d61632050494333326f
:10346800494e542061613a62623a63633a64643a4d
:1034780065653a6666200d0a00000000617267768d
:103488005b325d3a2025730d0a000000496e7661b3
:103498006c6964204d4143206164647265737320d4
:1034a800737472696e67200d0a00000053657420fa
:1034b8004d41432061646472657373206661696c71
:1034c80065640d0a000000005365742042494f539b
:1034d800204e616d65204f4b0d0a00005365742026
:1034e80042494f53204e616d65206661696c656481
:1034f8000d0a000055736167653a20736574626947
:103508006f73203c696e746572666163653e203c2a
:10351800782e782e782e783e200d0a0045783a20ad
:1035280073657462696f73205049433332494e544e
:10353800204d434850424f4152445f3239200d0ad2
:103548000000000053657420676174657761792015
:1035580061646472657373204f4b0d0a00000000ac
:10356800536574206761746577617920616464725a
:10357800657373206661696c65640d0a000000005c
:1035880055736167653a207365746777203c696e87
:10359800746572666163653e203c697076342f36c7
:1035a80020616464726573733e203c76616c696463
:1035b80054696d653e200d0a0000000045783a20e8
:1035c8007365746777205049433332494e5420312c
:1035d80039322e3136382e302e31200d0a000000b7
:1035e8005365742069702061646472657373204f39
:1035f8004b0d0a005365742069702061646472651c
:103608007373206661696c65640d0a0055736167a0
:10361800653a207365746970203c696e74657266da
:103628006163653e203c697076342f36206164649e
:10363800726573733e203c697076346d61736b2fcd
:103648006970763620707265666978206c656e3ea2
:103658000d0a000045783a20736574697020504956
:10366800433332494e54203139322e3136382e30d8
:103678002e38203235352e3235352e3235352e302e
:10368800200d0a004e6f207375636820696e74659b
:1036980072666163652069732075700d0a00000009
:1036a800416e206164647265737320736572766914
:1036b800636520697320616c726561647920727535
:1036c8006e6e696e672e2053746f702044484350a5
:1036d8002c205a434c4c2c206574632e206669724a
:1036e80073740d0a00000000496e76616c696420ed
:1036f8004950206d61736b20737472696e67200d79
:103708000a00000055736167653a20736574646e3a
:1037180073203c696e746572666163653e203c780f
:103728002e782e782e783e200d0a000045783a2013
:10373800736574646e73205049433332494e542084
:103748003235352e3235352e3235352e30200d0aac
:103758000000000053657420444e53206164647275
:10376800657373206661696c65640d0a000000006a
:103778006e6f7420676976656e0000004e6f6e6527
:103788000000000073756363657373006661696c9c
:103798000000000055736167653a202573203c6975
:1037a8006e746572666163653e203c6f6e2f6f664e
:1037b800662f72656e65772f726571756573742fe4
:1037c800696e666f3e200d0a0000000072656e6526
:1037d80077000000726571756573740052657175c4
:1037e800657374206e6565647320616e204950208e
:1037f800616464726573730d0a00000044484350a5
:10380800207374617475733a202564202820256418
:10381800203d3d20426f756e64292c2074696d65ca
:103828003a2025640d0a000044484350206c656125
:1038380073652073746172743a2025642c20647552
:10384800726174696f6e3a202564730d0a00000076
:10385800444843502072656e65772074696d653af7
:103868002025642c20726562696e642074696d6518
:103878003a2025640d0a00004448435020616464de
:10388800726573733a2025730d0a0000444843504b
:10389800207365727665723a2025730d0a00000060
:1038a8004448435020626f6f74206e616d653a2002
:1038b80025730d0a00000000444843502054696de8
:1038c8006520736572766572733a2025642c20250d
:1038d800730d0a0044484350204e545020736572bb
:1038e800766572733a2025642c2025730d0a000032
:1038f800444843503a206661696c656420746f20bf
:1039080067657420696e666f0d0a000025732025af
:10391800732025730d0a00007375636365737366fe
:10392800756c00006661696c6564210073657400dc
:103938006765740044656661756c7420696e7465aa
:103948007266616365207365742025730d0a000033
:1039580044656661756c7420696e7465726661632e
:10396800652069733a2025730d0a00005573616755
:10397800653a206465666e6574207365742f6765a3
:1039880074203c696e746572666163653e0d0a0059
:1039980045783a206465666e6574207365742065a1
:1039a8007468300d0a00000055500000444f574e0f
:1039b8000000000052656164790000004e6f7420b9
:1039c800526561647900000055736167653a206e3d
:1039d8006574696e666f0d0a0000000045783a202c
:1039e8006e6574696e666f0d0a0000002d2d2d2d11
:1039f8002d2d2d2d2d2d20496e7465726661636500
:103a0800203c25732f25733e202d2d2d2d2d2d2d5a
:103a18002d2d2d200d0a0000496e746572666163b4
:103a28006520697320646f776e0d0a00486f7374a0
:103a3800204e616d653a202573202d204e424e534d
:103a480020656e61626c65640d0a00004950763429
:103a580020416464726573733a2025730d0a00006f
:103a68004d61736b3a2025730d0a00004761746538
:103a78007761793a2025730d0a000000444e533ac5
:103a88002025730d0a0000004d41432041646472f3
:103a98006573733a2025730d0a0000004950763685
:103aa80020556e6963617374206164647265737311
:103ab80065733a0d0a0000002020202025730d0aa6
:103ac8000000000020202020556e6b6e6f776e0d71
:103ad8000a00000049507636204d756c74696361a0
:103ae8007374206164647265737365733a0d0a00b8
:103af800646863702069732025730d0a0000000054
:103b08004c696e6b2069732025730d0a0000000054
:103b18005374617475733a2025730d0a0000000010
:103b280064656661756c74204950206164647265cf
:103b3800737300002573206973204f4e0d0a00002f
:103b4800646863700000000050696e673a20444e54
:103b580053206661696c75726520666f72202573e3
:103b68000d0a000050696e67363a20444e532066ad
:103b780061696c75726520666f722025730d0a0085
:103b880070696e67363a2072657175657374207452
:103b9800696d656f75742e0d0a00000070696e6797
:103ba800363a20726571756573742073656e74207a
:103bb800746f3a202573200d0a00000070696e6743
:103bc800363a206661696c656420746f2073656e8f
:103bd80064207265717565737420746f3a2025735b
:103be8000d0a0000444e53204c6f6f6b75703a20dd
:103bf800444e53206661696c75726520666f722049
:103c080025730d0a00000000444e53204c6f6f6b63
:103c180075703a20726571756573742074696d6585
:103c28006f75742e0d0a00004c6f6f6b7570204114
:103c38006e737765723a0d0a2d2d2d2d2d2d2d2d94
:103c48002d2d2d2d2d2d2d2d2d2d2d2d2d2d0d0adf
:103c5800000000004e6f204c6f6f6b757020656e12
:103c680074727920666f72205b25735d0d0a0000ff
:103c78005b25735d2041204950763420416464728d
:103c8800657373203a2025642e25642e25642e251d
:103c9800640d0a005b25735d204141414120495074
:103ca80076362041646472657373203a25730d0a71
:103cb800000000003a20737461636b20636f6d6dc0
:103cc800616e647300000000746370697000000026
:103cd800443e0000b19902004c3e0000683e0000de
:103ce800a92a0400703e0000483b000001ae020013
:103cf8008c3e0000a43e0000d7ec0500ac3e00005e
:103d0800c83e0000cdec0500d03e0000e43e0000b7
:103d1800958a0400ec3e0000003f0000bd9b0300b4
:103d2800083f0000243f0000bd0204002c3f0000b3
:103d3800443f0000e1cc04004c3f0000683f000015
:103d4800f96c0400703f0000843f0000c1ae03001e
:103d5800883f0000a83f0000959a0300b03f00008c
:103d6800c43f0000b5d50300d03f0000e43f000089
:103d780025c70200ec3f000004400000d5380300ce
:103d88000c40000024400000f5c402002840000058
:103d98003840000005a201004040000058400000e3
:103da800b12d03006040000074400000a9810400a8
:103db800784000008c400000210405009840000075
:103dc8004661696c656420746f206372656174650f
:103dd80020544350495020436f6d6d616e64730ddc
:103de8000a000000544350495020636f6d6d616ea6
:103df8006473207461736b20726567697374726190
:103e080074696f6e206661696c65640d0a00000054
:103e1800696e7465726e616c00000000706f6f6c83
:103e28000000000065787465726e616c0000000027
:103e380064656c006c6f6f6b757000006e657469fb
:103e48006e666f003a20476574206e6574776f72ee
:103e58006b20696e666f726d6174696f6e00000029
:103e68006465666e657400003a205365742f476573
:103e7800742064656661756c7420696e7465726619
:103e8800616365003a204448435020636c69656e5d
:103e98007420636f6d6d616e647300006468637095
:103ea800730000003a205475726e20444843502035
:103eb800736572766572206f6e2f6f6666000000fc
:103ec8007a636c6c000000003a205475726e205ab8
:103ed800434c4c206f6e2f6f6666000073657464e8
:103ee8006e7300003a2053657420444e5320616479
:103ef8006472657373000000736574697000000074
:103f08003a20536574204950206164647265737364
:103f180020616e64206d61736b00000073657467c7
:103f2800770000003a205365742047617465776113
:103f3800792061646472657373000000736574624c
:103f4800696f73003a2053657420686f7374277320
:103f5800204e657442494f53206e616d6500000024
:103f68007365746d616300003a20536574204d4198
:103f78004320616464726573730000006966000021
:103f88003a204272696e6720616e20696e746572ac
:103f9800666163652075702f646f776e000000009e
:103fa800737461636b0000003a20537461636b2083
:103fb8007475726e206f6e2f6f666600686561702b
:103fc800696e666f000000003a20436865636b20e5
:103fd80068656170207374617475730070696e67c9
:103fe800000000003a2050696e6720616e20495039
:103ff80020616464726573730000000070696e6705
:10400800360000003a2050696e6720616e204950e2
:1040180056362061646472657373000061727000c3
:104028003a2041525020636f6d6d616e64730000d9
:10403800646e7363000000003a20444e5320636ca2
:1040480069656e7420636f6d6d616e647300000046
:1040580068747470000000003a2048545450206975
:104068006e666f726d6174696f6e000073736900bc
:104078003a2053534920696e666f726d6174696f97
:104088006e000000616e6e6f756e63650000000063
:0c4098003a20416e6e6f756e636500008b
:020000040000fa
:1040a4002de9f04fd7b0002058f062f9044658f0db
:1040b400b3f950b9204655f081f80f211a2055f074
:1040c400c7f930b957b0bde8f08f204651f08cf9ec
:1040d400f3e75af09ffc0446974bb3f90230b3f16f
:1040e400ff3fefd0954b1b68002bebd0924b1b7f0f
:1040f4000e93012be6d1914b1b7913f0010f0fd1d5
:104104008e4b1869036800228d4998478d4b1860bf
:10411400b0f1ff3fd6d0894a137943f001031371fc
:10412400864b1b7913f0020f03d0dff810a201f0c5
:1041340033b9204649f096f9f7e72bf0e7fe01285a
:1041440001f09a81002401f022b92b88c3ebc30348
:1041540003eb43131d4495f88952012d0ad0002d19
:1041640041f09c815bf0aff8012801f08c812c4672
:1041740001f00db945f00ef8012801f08481002406
:1041840001f005b9704856f011fd0446082801f203
:10419400fe806d4d23aa014628464ff0effc002215
:1041a40056ab234403f8cc2c284656f0fffc0546b6
:1041b40000f16003dbb2052b01f2e9802b2222fa25
:1041c40003f313f0010f01f0e28029a849f07ef90e
:1041d400002801f0dc808df89e509df8a13013b9c1
:1041e400a52d01f0d48023a83df020fb032801f085
:1041f400ce809df8a130032b32d038a847f0f2fed0
:10420400002801f0c980389b26939df8a130012b2a
:1042140001f2c2809df89e20a52a15d1012b41f000
:10422400bb8038a847f0defe002801f0b580389b3b
:104234008df89c3038a847f0d5fe002801f0ac80fa
:10424400389b8df89d300be038a847f0cbfe002852
:1042540001f0a28038a847f0c5fe002801f09c8038
:1042640040f2e11117985af08bfeb0f5f07f51d36c
:1042740000221146179e304650f063ffdaf80050d2
:10428400304658f0c9fbe862daf80050e96a0029c0
:1042940001f0828000232b869df8a130032b00f0cf
:1042a400e6878df87f4000248df880408df88140aa
:1042b400adf88440adf88840adf81040282221467e
:1042c4002ea85af04df8aaf83440aaf83240aaf8b9
:1042d4003040aaf83640baf81c301893aaf838408f
:1042e400ac70a3461094a146159416941a941c9489
:1042f400a04619940d9409940894079427460694ab
:104304000b941d94264603940f9423ab1b9349e10d
:104314000024a5e740f2e1120521179828f054ff84
:10432400a6e7089b2bb100230c930a93059700f092
:104334008abe0a932ce100bf00000020c0a1002027
:10434400fcdf040010a3002008000020daf800407d
:1043540004f12c0b4ff00003adf810305946302017
:1043640057f0f0fd5946822057f0ecfd238e1c9344
:104374005946002057f0e6fd5946002057f0e2fd6b
:104384005946022057f0defd5946012057f0dafd68
:1043940059469df8a10057f0d5fd9df87f301d9337
:1043a4005946042057f0cefd59469df87f0057f03a
:1043b400c9fd9df87f305a1e8df87f206bb11b9c80
:1043c400594614f8010b57f0bdfd9df87f305a1e75
:1043d4008df87f20002bf3d11b9401238af83a3007
:1043e4005946a22057f0aefd5946822057f0aafd47
:1043f400bbf804301a935946002057f0a3fd5946e0
:10440400002057f09ffd5946022057f09bfd594666
:10441400042057f097fd59469df89b0057f092fdf4
:1044240059469df89a0057f08dfd59469df899001c
:1044340057f088fd59469df8980057f083fd9af887
:104444003a3001338af83a305946022057f07afd5f
:104454005946012057f076fdbbf8043016935946af
:10446400002057f06ffd9af83a3001338af83a3059
:104474005946022057f066fd5946012057f062fd67
:10448400bbf8043015935946002057f05bfd4ff0fc
:1044940000038df882309af83a3001338af83a30c2
:1044a4004ff0000921a852f05ff8002800f0dd86e3
:1044b400bdf88440baf80660002c00f09380002513
:1044c4000df18a0052f050f80246002800f08c806a
:1044d400bdf88a00baf806300344aaf8063001355c
:1044e400edb21044201a84b2002ce9d1aaf8066077
:1044f4000b959af83a3001338af83a309df8a13096
:1045040003f0fd03012b71d00b9b06930023099349
:104514000893099b1946089a1046069a00fb012342
:10452400deb29af83a3001338af83a3007925946a3
:10453400302057f007fd5946822057f003fdbbf8a1
:10454400043019935946002057f0fcfc59460020ca
:1045540057f0f8fc4ff00003aaf838309af83a30d4
:1045640001338af83a30079b002b40f0a2809df873
:10457400a130032b58d0baf8063010930b238af8d5
:104584003a30bbf804703b1dabf8043000230a93a7
:10459400079b334313f0ff0f00f0b6850a9b002bf3
:1045a40040f078869af83a300b2b00f29f8501a2ee
:1045b40052f823f051430000e54300004d4400004d
:1045c40075440000a9440000014500003345000083
:1045d4006b450000f9460000cf4700001548000075
:1045e40027430000002581e70b9082e79df89e3069
:1045f400a52b05d00b9b069300230993089388e70a
:104604009df89c300b9a934228bf1346d9b2069169
:104614009df89d3008938a4203d3531adbb2099361
:1046240077e70023099374e70df18303009329ab23
:1046340038aaff21ce4d28684bf083fc9df8e83062
:1046440013f0400f06d0daf81000046a00233e9af3
:104654002968a0475946062057f074fcdaf8100080
:10466400c46a01230df17f02c1490968a0479df87e
:104674007f008df88300594657f064fc9df87f3025
:104684005a1e8df87f20a3b1daf81000c46a012302
:104694000df18a02b6490968a04759469df88a0077
:1046a40057f050fc9df87f305a1e8df87f20002b68
:1046b400ead109f101035ffa83f922a851f054ff0a
:1046c400039000283dd0bdf88430bdf888209b1aa3
:1046d400039a9b1aadf88430bbf804709df89e30a1
:1046e400a52b04bf3b1dabf804309af83a300133d4
:1046f4008af83a3020a929a849f028fc60b39df82b
:104704009e30a32b33d15946062057f01bfc594643
:104714009df8800057f016fc9df880305d1eeab2cb
:10472400039273b31546013529ab1d441c46594603
:1047340014f8010b57f006fcac42f8d1ff230393a5
:104744001fe0cdf800b04b4605221599169856f097
:104754005ffe01230a931be7cdf800b04b46052208
:104764001599169856f054fe01230a9310e756f053
:1047740041fa0346002800f01e859df89e30a52bc3
:10478400c1d19df8a130032b40f0ae8009238af8f3
:104794003a309df8a4302b2b40f0f4859df8a530d9
:1047a400062b40f0dc809df8a630012b40f0d7802a
:1047b4009df8a730042b40f0d2809af83a40002ca0
:1047c40000f0b180072c00f09584079b002b00f0cb
:1047d400d180013b13f0ff03079300f0cb80731edd
:1047e400deb22eab00939df8803029aa26a960483a
:1047f400006820f019fc0d90012804d09df89e302b
:10480400a52b40f0bd809af83a3001338af83a304b
:10481400abf804705946302057f094fb5946822077
:1048240057f090fbbbf804705946002057f08afb00
:104834005946002057f086fb5946062057f082fb64
:104844009df89e30a32b00f05781a02b00f0d2815d
:10485400a52b00f0b281a12b00f0b281039b002ba9
:1048640040f041859df8a130002b00f0408259466c
:10487400052057f067fb5946002057f063fb9df86d
:104884009e30a12b00f03e82a52b00f064859df89c
:104894009e30a02b40f0508202230393012303fa9d
:1048a40009f31bb2baf832201a43aaf83220baf834
:1048b40030201a43aaf83020baf834201a43aaf850
:1048c4003420baf836201343aaf836309df89e30c7
:1048d400a02b00f00c85a52b40f00f850d9b012b20
:1048e40040f00b8500f003bd23a83cf09fff4ff080
:1048f40000038af83a309df89e30a32b05d0032894
:1049040005d009238af83a3043e7022807d09df8f6
:10491400a4302b2b3ff442af00230a9338e609233b
:104924008af83a3035e72eab00939df8803029aaf7
:1049340026a90f48006820f077fb0d90daf80030c4
:10494400329a1a701c9a023aaaf81c204ff00002fc
:104954009a7104225a7101221a71079426469af810
:104964003a40002c7ff42eaf00230a9310e600bfd8
:1049740010a30020baf806301093002307932ee703
:10498400abf804705946302057f0dcfa59468220bf
:1049940057f0d8fabbf804705946002057f0d2fa01
:1049a4005946002057f0cefa9df88040594606201b
:1049b40057f0c8fadaf8008098f80330002b51d089
:1049c4009df8800001305946c0b257f0bbfa631e0f
:1049d400dbb254b1013329aad5181446594614f848
:1049e400010b57f0affaac42f8d198f80330002b22
:1049f4003ed1bdf8103002339df88020d318adf8b5
:104a040010309df8a130002b3fd0012b00f05284d0
:104a1400032b00f04984bdf810300233adf8103098
:104a2400baf83830bdf810502b440433aaf83830a3
:104a3400bbf80440a046abf804705946c5f3072000
:104a440057f080fa5946e8b257f07cfaabf80440c4
:104a54004ff00003adf8103007238af83a300023f2
:104a64000a9395e559469df8800057f06bfaaee736
:104a74005946002057f066fabdf8103003339df80c
:104a84008020d318adf81030bbe702228df88220c5
:104a9400cdf800b04b461599169856f0b9fc594616
:104aa400052057f04ffa5946002057f04bfa9df86d
:104ab400a130032bafd1b3e759460d9c204657f0e4
:104ac40041fa5946002057f03dfa802c0bd00d9b3b
:104ad400812becd1012303fa09f3baf834201343f0
:104ae400aaf83430e3e7012303fa09f3baf83020d3
:104af4001343aaf83030dae79df880409df8c010df
:104b0400009429abbdf8c820c9099df8a10039f06b
:104b140097fa034690b3daf8008098f803308bb321
:104b24009df8800001305946c0b257f00bfa631e5d
:104b3400dbb254b1013329aad5181446594614f8e6
:104b4400010b57f0fff9ac42f8d198f80330fbb9e8
:104b54000df182022ea926a821f03cff03909df8b6
:104b64008220d2b9daf80030db78f3b19df88030d6
:104b74000333039a1344adf8103072e000228af82c
:104b84003a2018e359469df8800057f0dbf9cee748
:104b94005946002057f0d6f9dae7cdf800b04b4675
:104ba4001599169856f034fcdce79df880300233f2
:104bb400039a1344adf8103053e00d9b012b19d028
:104bc40026a92ea81df0e6fe0390002867d09df8c4
:104bd4009e30a12b40f0b880daf800309b78002b8f
:104be40000f0ba80bdf810300233039a1344adf8d4
:104bf40010306be69df8c0109df88030009329ab0f
:104c0400bdf8c820c9099df8a10039f019fa034676
:104c140090b39df88040daf8008098f803307bb3b5
:104c2400601c5946c0b257f08df9631edbb254b113
:104c3400013329aad5181446594614f8010b57f024
:104c440081f9ac42f8d198f80330f3b99df880307b
:104c54000233adf8103026aa00212ea826f096fdc6
:104c64000390039b002bb2d19df89e30a32b7ff4bd
:104c7400f9ad0023039340e300228af83a209ae234
:104c84005946204657f05ef9cfe75946002057f0c1
:104c940059f99df880300333adf81030dbe79df807
:104ca4008040daf8008098f80330dbb1601c594684
:104cb400c0b257f047f9631edbb254b1013329aadd
:104cc400d5181446594614f8010b57f03bf9ac4279
:104cd400f8d198f80330002bc6d05946002057f07d
:104ce40031f9c1e75946204657f02cf9e3e702228f
:104cf4008df88220cdf800b04b461599169856f0e1
:104d040087fbb4e59df8a130012b07d09df88030d6
:104d14000533adf8103000230393bfe5bbf804302e
:104d2400023babf804305946822057f00bf9594640
:104d3400002057f007f9aae5a52b00f01183a12b59
:104d4400e4d000230393a9e5a52b40f0cc820d9b6e
:104d5400012b7ff441afcae2039b0233adf810305c
:104d6400b4e59df8a13003f0fd03012b40f0e2828d
:104d7400079a002a40f0de821899621ab2f5f07f91
:104d840080f2bc810b238af83a30d6e2013ef6b2b7
:104d940022a851f0e9fb0390bdf88830baf8062048
:104da4001344aaf8063090e0cdf800b04b46052233
:104db4001599169856f02cfb0a943de12ea9b94b8f
:104dc400186833f0effc002848d19df8805059460c
:104dd400062057f0b7f8002800f0668159469df880
:104de400800057f0aff8002800f0638129ab1d4420
:104df4001c46ac4208d0594614f8010b57f0a2f8ef
:104e04000028f6d10e9b0f935946822057f09af84a
:104e1400002800f053815946002057f093f80028e9
:104e240000f05181012303fa09f3baf83620134341
:104e3400aaf836309df880300433adf810300023e2
:104e440003931be059469df8800057f07bf8002837
:104e540040f0c4800d940e9b0f93ede026ab0093bd
:104e64000df1810320aa29a92ea81af057f803905e
:104e74000028aad0039b0233adf81030baf83830ba
:104e8400bdf8104023440433aaf83830bbf804803a
:104e9400059babf804305946c4f3072057f052f889
:104ea400002800f015815946e0b257f04bf800286d
:104eb40000f01181abf80480189ba8eb0303b3f551
:104ec400f07f00f30b81cdf81480129bbb4200f0fd
:104ed400b380fbb2069a9a42149b08bf994609f123
:104ee40001095ffa89f90137baf836303b4113f00a
:104ef400010f7ff44baf0eb1013ef6b24ff0000349
:104f0400adf81030bbf80480059babf8043059466b
:104f1400302057f017f8002800f08c805946822082
:104f240057f010f8002800f0a480bbf80430059373
:104f34005946002057f006f8002800f09d80594695
:104f4400002056f0ffff0446002800f09880139bd1
:104f54008df8813022a851f007fb039000286bd014
:104f640020a929a848f0f2ff00283ff41daf9df8be
:104f74009e30a32b03d055f03dfe00285cd02eab11
:104f840000939df8803029aa26a94648006820f09d
:104f94004bf80d9082283ff411af0d9b002b7ff44a
:104fa4005daf9df880505946062056f0cbff00288f
:104fb40068d0daf800301193dc78002c3ff442af6b
:104fc4009df8800001305946c0b256f0bbff00285e
:104fd4005bd09df8803001338df8803029ab1d44bf
:104fe4001c46ac4208d0594614f8010b56f0aaffef
:104ff4000028f6d10e9b0f93119bdb782bb15946f9
:10500400002056f09fff002842d05946822056f0d7
:1050140099ff00283fd05946002056f093ff0028fe
:105024003cd0012303fa09f3baf836201343aaf853
:1050340036301fe70e9b0f930c9b01330c93dbb2ae
:10504400089a9a424fd99df830301393109baaf8ce
:10505400063009990029efd0069b1d4601334a1eec
:1050640053fa82f312930b9b5b1adbb214932f4611
:105074002fe70e9b0f93dfe70e9b0f93dce70e9b4e
:105084000f93d9e70e9b0f93d6e70e9b0f93d3e7ad
:105094000e9b0f93d0e70e9b0f93cde70e9b0f93c0
:1050a400cae700bf10a300200e9b0f9300230393b5
:1050b400c2e70e9b0f9300230393bde70e9b0f9350
:1050c40000230393b8e70e9b0f9300230393b3e7e6
:1050d4000e9b0f93b0e70e9b0f93ade7cdf81480b2
:1050e4000e9b0f93a8e7059ffff752ba00230a937c
:1050f400fff74eba00230a93fff74aba27460f93e5
:1051040000230a93fff744ba00238af83a300f9b2e
:105114001bb19df89e30a52b5ed0bbf804400a9bc2
:1051240043b1189be31ab3f5f07f03dd9df89e307d
:10513400a52b5bd1199babf8043059469af839007a
:1051440056f000ff59469af8380056f0fbfebaf8bc
:10515400385005f11006b6b2aaf838601a9babf8bd
:1051640004305946300a56f0edfef6b25946304640
:1051740056f0e8feabf804409df8a130032b63d051
:1051840005f119001d9b184480b2aaf83800bbf839
:1051940004401c9babf804305946000a56f0d2fe7a
:1051a40059469af8380056f0cdfeabf80440002377
:1051b4008af83a300123002b5ed0daf800301a79ed
:1051c400002a40f0e980198e179c20464ff0b9ff61
:1051d400204623f0f1ffdfe04146abf804800122d2
:1051e400af4bb3f902004ff0acff96e7cdf800b037
:1051f400002301221599169856f00af91a9babf868
:1052040004305946002056f09dfe59460c2056f0b5
:1052140099fe1d9c04f11500aaf838001c9babf8fc
:1052240004305946000a56f08dfe04f11500594623
:10523400c0b256f087fe199b023babf80430002342
:105244008af83a300123b6e70023abf80430594614
:10525400304656f077feabf804409df8a130032b9e
:105264008ed105f1150080b28fe70023a3e726a8ad
:1052740002f036fa03469ee7daf8003000221a8676
:10528400da6289e00021864bb3f9020041f082f82a
:10529400fef718bf00238af83a300f9b002b7ff4e7
:1052a40038afbbf804403ce79df89e30a32b06d1f1
:1052b400fff7b6bb9df89e30a32b3ff4acaba02bfd
:1052c4003ff4faaba12b7ff4f2ab0d9b822b7ff45e
:1052d400eeab5946822056f035fe5946002056f072
:1052e40031fefff7e4bb9df89e30a02b05d1bdf83d
:1052f4001030039a1344adf81030baf83830bdf8c2
:1053040010502b440433aaf83830bbf80440a046ac
:10531400abf804705946c5f3072056f013fe5946fe
:10532400e8b256f00ffeabf804409df89e30a52b72
:105334003ff417ad07238af83a304ff00003adf875
:105344001030daf800304ff000029a70474600231c
:105354000a93fff71db99df8a130012b3ff4deac91
:105364000d9b012b7ff4d2ac02230393fff796ba73
:10537400032a71d04b4855f019fc04283ef402afbf
:10538400002404e09af83a40fff71cba00249df880
:10539400a130032b3ef464af414bb3f902301f46f6
:1053a4001793184654f0c6fd054600283ff46aaf2b
:1053b4003d4c40f2f1120021204658f0d1ff42a9a1
:1053c40038463cf035f8549e304648f04bf8344ba0
:1053d4001e629c60dc60b5f5f07f94bf621904f531
:1053e400f0721a61b5f5f07f28bf4ff4f075aab2d8
:1053f400214638463af0a5fd384656f05ef80022bc
:10540400239224928df89420aaf80620aaf81c204e
:10541400daf81000046a134624490968a047b0f179
:10542400ff3fb9d038a858f02bfd389d1c4b002203
:105434001a712ea851f098f804460028a7d02ea877
:1054440046f0d0fd0028a1d02e9bdab28df8a12021
:10545400012b8dd9032b1fd102202af029ff022012
:105464001cf0e6fe02202af09ff9044695f81c3150
:1054740013f0010f7ef461ae95f81c3103f00303c1
:10548400032b3ef462ae9df8a130032b3ef440aff3
:10549400002c3ef4b2ae7fe7002478e7002476e7e0
:1054a40000000020080000202400002010a3002099
:020000040000fa
:1054b4002de9f04f9db0002800f0958783460d93a9
:1054c40008920b91d0f82c330c934bb30024089b17
:1054d400c3b10b9a052a00f07a870f2a00f0778768
:1054e400dbf80c03002800f08a8723f00205012d65
:1054f40000f09086052b00f08d86089b043b012b61
:1055040040f2fa87dbf83c33002b40f09887dbf855
:105514004033002b18bf1c4620461db0bde8f08f59
:10552400c0f83c33c0f8403311462af0a9ff041eea
:105534004bdbdbf87432dbf81020934281f02080df
:10554400dbf82010012940f35287dbf8701219446c
:1055540007910846cbf8a412a2eb0308cbf8a88263
:10556400cbf8ac32002311938df843300c4600295c
:1055740000f0938743460df1430211a951f010fd49
:105584000028c0f28e879df84330a32b40f08d870e
:10559400434612aa11a9204658f0fafd0028c0f289
:1055a4008887434612aa11a9204657f073fe0028a3
:1055b400c0f28387119b984540f2de8700230e9347
:1055c40019ab0993c14600f0a6bc04f19703012b63
:1055d400a2d8cbf83c43ace74a4611a9079850f04f
:1055e400e0fd0028c1f23980c5b200f0c1bc00253d
:1055f40000f0bebc9bf8453313f0080f40f08787da
:1056040043f008038bf84533119c079b1c44129dff
:105614000023189319932b4619aa18a9204657f06a
:1056240039fe0028c0f25887199b002b00f06c84c7
:105634002a4618a9204650f0b4fd0028c0f24c8731
:105644009bf8443360f304138bf84433189b9d4256
:1056540040f25a841a9303339d42c0f03d872b468f
:1056640017aa1aa9204651f09bfc002840f0348761
:105674009df85c30022b40f02f871a9b5a1c1a921b
:10568400e35c012b40f02887a35c8bf8e8329bf89d
:10569400443343f020038bf8443300f035bc9bf8cb
:1056a400453313f0020f40f0368743f002038bf8c2
:1056b4004533119c079b1c44129d002318931a9395
:1056c4008df85c302b461aaa18a9204657f0e2fd43
:1056d400002843db2b461aaa18a9204657f0dafd06
:1056e40000283bdb189b19932b4617aa19a92046bf
:1056f40051f056fc18b99df85c30a02b31d0189ba2
:1057040019939d4240f200842b4617aa19a92046fa
:1057140051f046fc18b99df85c30a12b70d0189b51
:1057240019939d4240f2f0832b4617aa19a92046eb
:1057340051f036fc002840f0e7839df85c30a22b42
:1057440040f0e283189b013318932b461aaa18a938
:10575400204658f01dfd002880f2d6836ff08b049c
:10576400dae6189b013318932b461aaa18a9204687
:1057740058f00efd0028f1db189b19932b4617aa4d
:1057840019a9204651f00cfc18b99df85c30a02be7
:1057940004d0189b1a9a13441893b0e7189b01334a
:1057a40018932b461aaa18a9204658f0f1fc002891
:1057b400d4db189b19932b4617aa19a9204651f03c
:1057c400effb18b99df85c30862b04d0189b1a9a0d
:1057d4001344189393e7189b013318932b461aaa82
:1057e40018a9204658f0d4fc0028b7db1a9bcbf844
:1057f400bc32189aa118cbf8b812134418937ee758
:10580400189b013318932b461aaa18a9204658f05e
:10581400bffc0028a2db189b1a9a134418937ee756
:105824009bf8453313f0040f40f0798643f00403ea
:105834008bf84533119d079b1d44129e002318933a
:1058440019938df85c303446334619aa18a92846b2
:1058540057f020fd0028c0f23486189b9e4240f287
:105864005383002606e0189b199a134418939c420c
:1058740040f24a83234619aa18a9284657f00afd7c
:105884000028c0f21e861a96009407231aaa18a9a3
:10589400284642f0abf90028c0f21386234617aa23
:1058a40018a9284651f07cfb0028c0f20a8623463a
:1058b40019aa18a9284658f06bfc0028c0f20186e2
:1058c4009df85c30862bced11a9b742bcbd1199bbf
:1058d400cbf8b432189b1d44cbf8b05214e39bf8b8
:1058e400453313f0100f40f01e8643f010038bf87d
:1058f4004533119e079b1e44ddf848a000231893ee
:105904001993cdf828a0534619aa18a9304657f080
:10591400c1fc0028c0f2dd859bf8443343f040030a
:105924008bf84433f6e00a9b1aaa18a9304658f0bb
:105934002ffc00282ddb189fe41b199b234419938b
:10594400102058f0fdfc054638b3022343601a9832
:10595400013058f0f5fc8046e86098b11a9cac60c0
:105964002246f11956f05eff002308f80430dbf8f4
:1059740024302b60cbf82450199b1b1b199327440c
:105984001897c7e0284658f0e3fc6ff07c0400f059
:10599400ebbd6ff08b0400f0e7bd6ff07c0400f00a
:1059a400e3bd0a9b1aaa18a9304658f0f1fb002857
:1059b4002ddb189d641b199b23441993102058f068
:1059c400bffc044638b3012343601a98184458f0c6
:1059d400b7fc8046e06098b11a9fa7603a467119f7
:1059e40056f020ff002308f80730dbf82830236046
:1059f400cbf82840199bdb1b19933d44189589e08b
:105a0400204658f0a5fc6ff07c0400f0adbd6ff0ab
:105a14008b0400f0a9bd6ff07c0400f0a5bd0a9bc7
:105a24001aaa18a9304658f0b3fb002852db189d77
:105a3400641b199b234419931a996b189a454ddbdf
:105a440000293cdd725d3a2a3bd00c9b70192f2a49
:105a540008bf0b460133994202ddc25c3a2af6d1f3
:105a640002398b423eda2b44f21852782f2a3dd168
:105a740033449b782f2b3dd1102058f061fc044611
:105a840000283bd0062343601a98013058f058fc94
:105a94008046e060b8b11a9fa7603a46711956f083
:105aa400c1fe002308f80730dbf824302360cbf86c
