:020000040000fa
:10000000f0ff0320c58f0000a9aa0000afaa0000de
:10001000bbaa0000c1aa0000c7aa0000000000009f
:10002000000000000000000000000000676e0000fb
:10003000b5aa000000000000676e000065a1000086
:10004000676e0000676e0000676e0000676e00005c
:10005000676e0000676e0000676e0000676e00004c
:10006000676e0000676e0000676e0000676e00003c
:10007000e1a000000da10000676e0000676e0000a7
:10008000676e0000676e0000676e000039a1000017
:10009000676e0000676e0000676e0000676e00000c
:1000a000676e0000676e0000676e0000676e0000fc
:1000b000676e0000676e0000676e0000676e0000ec
:1000c000676e0000676e0000676e0000676e0000dc
:1000d000676e0000676e0000676e0000676e0000cc
:1000e000676e0000676e0000000000000000000066
:1000f00000000000676e0000676e0000676e000081
:10010000676e0000676e0000676e0000676e00009b
:10011000676e0000676e0000676e0000676e00008b
:10012000676e0000676e0000676e0000676e00007b
:10013000676e0000676e0000676e0000676e00006b
:10014000676e0000676e0000676e0000676e00005b
:10015000676e0000676e00000000000000000000f5
:10016000000000000000000000000000000000008f
:10017000000000000000000000000000000000007f
:10018000676e0000676e0000676e0000676e00001b
:1001900000000000676e0000676e0000676e0000e0
:1001a000676e0000676e0000676e0000676e0000fb
:1001b000676e0000676e0000676e0000676e0000eb
:1001c000676e0000676e0000676e0000676e0000db
:1001d000676e0000676e0000676e0000676e0000cb
:1001e000676e0000676e0000676e0000676e0000bb
:1001f000676e0000676e0000676e0000676e0000ab
:10020000676e00000000000000000000676e000044
:10021000676e0000676e0000676e0000676e00008a
:10022000676e0000676e0000676e0000676e00007a
:10023000676e0000676e0000676e0000676e00006a
:10024000676e0000676e0000676e0000676e00005a
:10025000676e0000676e0000676e0000676e00004a
:020000040000fa
:10026000f8b500bff8bc08bc9e467047a19a0000d4
:10027000f8b500bff8bc08bc9e4670477d9a0000e8
:020000040000fa
:1002800080b590b000af0023bb8600237b8600239f
:100290003b610023fb60002387f83f300323bb87cb
:1002a00003237b8700233b870023fb864ff6ff73e6
:1002b0003b86a24b9a893b8e13403b86a04b9a8982
:1002c0003b8e13403b869f4b00221a809e4b0022a0
:1002d0001a70022009f0d6fef862fb6a1b689ab217
:1002e0009a4b1a80fb6a5b6803f00203002b01d073
:1002f00001237b87032009f0c5fef862fb6a1b68b7
:100300009ab2934b1a80fb6a5b6803f00203002bde
:1003100001d00123bb878e4b1b881a468d4b1b884f
:100320001946bb8f03fb01f313448b4a1288934297
:100330000add874b1b881a46874b1b881946874b5b
:100340001b880b449a4218db814b1b881a46814b51
:100350001b881946bb8f03fb01f31344804a1288a4
:10036000934210dd7a4b1b881a467d4b1b88194639
:100370007c4b1b880b449a4205da0221032004f0cf
:1003800041f81e233ee3714b1b881a46764b1b88af
:1003900019467b8f03fb01f313446f4a1288934283
:1003a0000add6a4b1b881a466b4b1b8819466b4b40
:1003b0001b880b449a4231db644b1b881a466a4bfc
:1003c0001b8819467b8f03fb01f31344644a128890
:1003d00093420add5d4b1b881a46614b1b88194608
:1003e000604b1b880b449a4218db584b1b881a46fb
:1003f0005d4b1b8819467b8f03fb01f31344544a62
:100400001288934210dd514b1b881a46504b1b88b3
:100410001946504b1b880b449a4205da02210220f0
:1004200003f0f0ff1d23ede207f1140304224ff463
:100430001861184606f028fc7b697b617b699bb2da
:100440007b6107f1100304224ff41a61184606f08d
:100450001bfc3b693b6107f10c03042240f6a4112d
:10046000184606f011fcfb68fb60344b5b883b8749
:10047000334b5b88fb867b6903f41063002b79d0d8
:100480007b6903f4c063002b01d13023bae27b699e
:1004900003f40073002b06d17b6903f48063002b07
:1004a00001d03023aee23b8e002b15d03b8e03f003
:1004b0000403002b04d17b6903f40073002b09d1e2
:1004c0003b8e03f00803002b06d17b6903f48063a5
:1004d000002b01d0302395e2244bbb62174b1b69e4
:1004e000bb623b69002b09d03b69ba6a9a4203d8c8
:1004f0003b691f4a934201d9362383e27b6903f4a7
:100500000073002b0ed07b6903f48063002b09d0ad
:10051000fb68002b06d0fa683b699a4202d301239c
:1005200087f83f3097f83f30002b23d03b8e03f005
:100530001003002b1ed1302364e200bf28030020eb
:10054000e4020020f201002010020020e801002057
:10055000240200200a020020d2020020c80200204b
:10056000c0020020da020020dc010020a086010089
:10057000000050c3914b1b78002b2cd07b6903f4f7
:100580001063002b0dd13b8f022b08d03b8f032b28
:1005900005d0fb8e022b02d0fb8e032b5fd13023c4
:1005a00030e27b6903f48063002b07d13b8f032b80
:1005b00002d0fb8e032b01d1302323e27b6903f4ad
:1005c0000073002b4bd13b8f022b02d0fb8e022bf2
:1005d00045d1302316e27b6903f41063002b1dd153
:1005e000774b1b88002b0bd001233b87754b1b8857
:1005f000002b02d02223fb8631e00023fb862ee075
:10060000704b1b88002b04d000233b870123fb8603
:1006100025e000233b870023fb8620e0684b1b88f6
:10062000002b09d097f83f30002b02d003233b87e3
:1006300004e002233b8701e000233b87614b1b88da
:10064000002b0ad07b6903f48063002b02d00323c4
:10065000fb8604e00223fb8601e00023fb863b8f40
:10066000032b0cd13b69584a53623b69564a53608d
:100670003b69564a53623b69544a53600ee03b8fd4
:10068000022b0bd13b69504a53623b694e4a53607f
:100690003b694e4a53623b694c4a53604c4b1b7852
:1006a000002b07d13b8f002b02d0fb8e002b01d1fa
:1006b0002923a7e13b8f002b02d1fb8e002b02d018
:1006c000444b01221a70434b1b78002b10d03c4b3b
:1006d0001b88002b04d0404b4ff480621a8007e047
:1006e000384b1b88002b03d03b4b4ff400621a8021
:1006f0003b8f022b08d03b8f032b05d0fb8e022ba8
:1007000002d0fb8e032b09d1344b01221a702c4be3
:100710001b88002b02d1304b00221a802a4a3b8fc3
:1007200053802a4afb8e53802d4b00221a802d4b7a
:1007300000221a802c4b00221a802c4b00221a8097
:1007400097f83f30012b53d1fa683b6913447b6221
:10075000fa683b699a4216d33b697a6ab2fbf3f3b3
:100760009ab2214b1a803a697b6ab3fbf2f102fb21
:1007700001f29b1a002b09d11b4b1b8801339ab243
:10078000194b1a8002e0184b01221a803b697a6ae1
:10079000b2fbf3f39ab2124b1a803a697b6ab3fb4d
:1007a000f2f102fb01f29b1a002b2dd00c4b1b889f
:1007b00001339ab20a4b1a8026e000bf6c03002076
:1007c000dc0100200a02002028030020e4020020af
:1007d000d40100201d020020f2010020150200209b
:1007e00006020020e40100200c020020200200206c
:1007f0003b8f022b02d1854b01221a80fb8e032beb
:1008000002d0834b01221a80824b00221a800023df
:10081000bb6007f1080304224ff48461184606f018
:1008200033fabb687b867c4b1b88002b34d07b8ed5
:10083000002b31d000237b603b1d04224ff48061ec
:10084000184606f021fa7b687b607b68bb86bb8e0e
:10085000002b18d0bb8e02333b627a8e3b6a02fbc0
:1008600003f33b623b6a03f5c34327333b623b6ab6
:10087000db086a4aa2fb03231b0a3b623b6a9ab26b
:10088000674b1a8004e000237b86654b00221a80a8
:10089000644b00221a8004e00023bb86604b0022d8
:1008a0001a805f4b1b88002b03d15f4b1b78002bfa
:1008b00007d15b4b1b88002b05d05b4b1b78002bb3
:1008c00001d11f239ee0594b1b78002b0ad0524bbd
:1008d0001b88002b06d0564b1b8843f480639ab2ca
:1008e000534b1a80534b00221a80534b00221a801c
:1008f000524b00221a80524b00221a80514b002288
:100900001a70514b00221a70504b00221a80504b23
:1009100000221a854e4b00225a854d4b002283f847
:1009200040204c4b00221a854a4b00225a85494be5
:10093000002283f840207b6903f40073002b50d021
:100940003b69002b03d13b4b00221a8018e03b6926
:100950005b09414aa2fb0323db09fb61fb69042b12
:1009600003d8344b01221a800ae0fb699bb25b007a
:100970009bb23a4aa2fb0323db089ab22d4b1a80a2
:100980007b6903f48063002b2bd0fa683b699a42a1
:1009900004d2284b1a882a4b1a8022e0fa683b6955
:1009a00013445b092c4aa2fb0323db09bb61bb692f
:1009b000042b03d8224b01221a8008e0bb695b009c
:1009c000264aa2fb0323db089ab21d4b1a80194b5f
:1009d0001b885b089ab21a4b1b8813449ab2184bb7
:1009e0001a800d4b1b88002b02d0022008f03cfe21
:1009f0001b4b1b88002b02d0032008f035fe07f0ac
:100a000071fd002318464037bd4680bd0c02002012
:100a10000602002070030020dc01002089b5f814d4
:100a20001a020020d80100201e0200201d02002012
:100a3000f2010020ea010020e0010020180200205d
:100a4000f0010020f401002011020020ee0100203e
:100a5000e402002028030020c55a7c0acdcccccc6f
:040a60000a02002066
:020000040000fa
:100a640080b584b000af03460a46fb711346bb80d1
:100a74000023fb8100237b73d54b4ff6ff721a8052
:100a8400d44b01221a70fb7903f01003002b09d018
:100a940001237b73d04b1b7823f01003dab2ce4bc7
:100aa4001a7012e0cc4b1b7803f01003002b05d016
:100ab400fb7903f00f03012b40f08783c64b1b78af
:100ac40003f00f03dab2c44b1a70fb7903f00f037f
:100ad400fb71c14b1b783b733b7b1b013b733a7b24
:100ae400fb7913443b733b7b442b28d0442b0bdc16
:100af400222b15d0222b02dc122b11d028e0242b20
:100b040014d0422b0cd023e0822b09d0822b02dca0
:100b1400482b14d01ce0842b11d0882b0fd017e065
:100b2400022002f0adfe0346fb8111e0ab49ac4864
:100b340004f06af90346fb81fb89002b07d1a94b1a
:100b44001b78184602f09cfe0346fb8100e000bfc0
:100b5400fb89002b40f05182a34b00221a803b7b7f
:100b6400113b772b00f2458201a252f823f000bf1b
:100b7400ad0f0000230e0000550d0000f10f000022
:100b8400f70f0000f70f0000f70f0000f10f00004f
:100b9400f70f0000f70f0000f70f0000f70f000039
:100ba400f70f0000f70f0000f70f0000f70f000029
:100bb4009b0f0000b10f0000f10f0000850e000034
:100bc400f70f0000f70f0000f70f0000f10f00000f
:100bd400f70f0000f70f0000f70f0000f70f0000f9
:100be400f70f0000f70f0000f70f0000f70f0000e9
:100bf400f90d0000f10f0000f70f0000f10f0000e5
:100c0400f70f0000f70f0000f70f0000f10f0000ce
:100c1400f70f0000f70f0000f70f0000f70f0000b8
:100c2400f70f0000f70f0000f70f0000f70f0000a8
:100c34007f0f0000530f0000f10f0000b10f000000
:100c4400f70f0000f70f0000f70f0000db0e0000a5
:100c5400f70f0000f70f0000f70f0000f70f000078
:100c6400f70f0000f70f0000f70f0000f70f000068
:100c7400f70f0000f70f0000f70f0000f70f000058
:100c8400f70f0000f70f0000f70f0000f70f000048
:100c9400f70f0000f70f0000f70f0000f70f000038
:100ca400f70f0000f70f0000f70f0000f70f000028
:100cb400f70f0000f70f0000f70f0000f70f000018
:100cc400f70f0000f70f0000f70f0000f70f000008
:100cd400f70f0000f70f0000f70f0000f70f0000f8
:100ce400f70f0000f70f0000f70f0000f70f0000e8
:100cf400f70f0000f70f0000f70f0000f70f0000d8
:100d0400f70f0000f70f0000f70f0000f70f0000c7
:100d1400f70f0000f70f0000f70f0000f70f0000b7
:100d2400f70f0000f70f0000f70f0000f70f0000a7
:100d3400630f0000350f0000f10f0000250f0000c5
:100d4400f70f0000f70f0000f70f0000b10f0000cd
:100d5400264b01221a70022002f092fd0346002b5a
:100d640005d0224b00221a701523fb8178e1002064
:100d740008f00afd05f08efa0346fb81fb89002b7f
:100d84000cd1144b00221a7009f0bcfd0346fb8100
:100d9400fb89002b02d1164b01221a70fb89002b10
:100da4000ad0fb89ff2b07d00a4b1b78002b01d1fb
:100db40009f005fe04f00afd032009f01ffdfb897c
:100dc400002b00f04081094b00221a703be100bf68
:100dd40012020020da010020db010020dc010020e7
:100de4000a02002022020020d60100201402002062
:100df400be020020ab4b1b78002b0bd0a94b00226a
:100e04001a70002008f0c0fc04f0e0fc09f0d7fde3
:100e14000346fb8109f0ccfd09f0c0fc20e108f099
:100e240065fba14b1b78002b01d15123fb81fb896e
:100e3400002b40f00a8105f02dfa0346fb81fb8963
:100e4400002b0cd1994b00221a7009f05bfd03466c
:100e5400fb81fb89002b02d1954b01221a70fb897f
:100e6400002b00f0f280fb89ff2b00f0ee808f4b0b
:100e74001b78002b01d109f0a2fd04f0a7fce4e0eb
:100e8400fff7fcf90346fb81fb89002b12d1874b4a
:100e940000221a70874809f0d2fc0346fb81fb89c3
:100ea400002b07d1834b1b88184608f090fc824b1b
:100eb40001221a70fb89002b00f0c980fb89ff2beb
:100ec40000f0c580794b1b78002b01d109f022fd7d
:100ed40004f076febbe007f0cbfd0346fb81fb8903
:100ee400002b0cd1714b00221a7009f01bfd034634
:100ef400fb81fb89002b02d1704b01221a70fb8904
:100f0400002b00f0a680fb89ff2b00f0a280674b2a
:100f14001b78002b01d109f00dfd09f0a5fa98e02a
:100f240009f008fd09f0a0fa604b00221a7097e05e
:100f340009f000fd0346fb8109f096fa5b4b0022a1
:100f44001a70fb89002b40f0868042233b7309f022
:100f5400e1fc04f035fe554b00221a7080e009f0e4
:100f6400e9fc0346fb8109f07ffa504b00221a701a
:100f7400fb89002b71d141233b7309f0cbfc034661
:100f8400fb8104f01dfe494b00221a70fb89002be3
:100f940065d121233b7304f019fc09f010fd0346cd
:100fa400fb8109f0fbfb5be009f0f8fb7b7b002b8a
:100fb40004d03b7b9bb2184609f036fc404b1b78af
:100fc40003f00c03002b0ed03e4b1b88002b03d0e8
:100fd400022008f047fb06e03b4b1b88002b02d0a5
:100fe400032008f03ffbfe23fb8139e01123fb8142
:100ff40036e01223fb8100bf32e0314b1b78042b17
:1010040008d0082b02d0022b08d029e009f092fc6a
:1010140009f02afa09f07efc04f0d2fdfb89162bb4
:101024000dd104f0d3fb09f0cafc002008f084fac7
:10103400012008f081fa224b01221a7010e0204ba3
:1010440002221a700ce000bf0ae000bf08e000bff3
:1010540006e000bf04e000bf02e000bf00e000bf04
:10106400fb89ff2b51d1194b01221a703b7b9ab299
:10107400174b1a80164b1b88242b0dd0242b03dc12
:10108400123b012b28d802e0482b05d024e0114b59
:101094004ff4fa621a8023e00e4b42f228321a808f
:1010a4001ee000bf14020020b8280020da0100204e
:1010b400be020020f20100201c02002016020020c3
:1010c400db010020dc0100200a02002008020020cd
:1010d400d6010020120200203e4bc8221a8000bf15
:1010e4003c4bb3f900309ab23a4bb3f900303a4969
:1010f40081fb03018910db17cb1a1bb29bb2d31af5
:101104009bb21ab2334b1a8060e0fa79334b1b78e6
:1011140003f00f039a424ed0fb89002b02d1bb8807
:10112400002b1fd02d4b1a78fb791343dbb203f04d
:101134000803002b16d02a4b1b78002b03d009f090
:10114400f9fb09f091f9274b1b88002b03d00220ef
:1011540008f0f2f906e0244b1b88002b02d0032090
:1011640008f0eaf9fb89002b0ed01c4b1b78082be6
:1011740002d11a4b04221a70184b1b7843f0100347
:10118400dab2164b1a700be0bb88002b05d0bb8873
:10119400fb81fb7943f01003fb71104afb79137058
:1011a400124b00221a700d4b1b78fa89114618460f
:1011b40003f09cff0ae00d4b00221a70074b1b78ca
:1011c4000021184603f092ff00e000bf1037bd462f
:1011d40080bd00bf1202002067666666db01002046
:1011e40016020020dc0100200a0200200802002070
:020000040000fa
:1011f40090b591b002afba607b600346fb810b46a9
:101204007b737b7bfb867b689b891b12dbb203f0c1
:101214000f0387f823300023bb867b689b89dbb2ee
:101224003b84002387f833307b7b3b8697f823305d
:10123400072b28d07b689b691b88dbb2bb86bb8edf
:10124400002b20d1fb8941f60f42934204d9fb893c
:1012540041f62f42934214d9fb89b3f5b05f03d30f
:10126400fb89b3f5c05f0cd3fb89b3f5d05f03d31f
:10127400fb89b3f5e05f04d3fb894ff2300293425c
:1012840001d13b8cbb8697f84c30002b12d097f8d9
:101294002330072b01d105232de37b7b002b06d1c3
:1012a400bb68002b03d0bb6c1b88dbb2bb86bb8e38
:1012b4003b862ce07b7b9bb2ba8e9a4201d21123ef
:1012c40019e37b7b1946786808f015f8f861fb6927
:1012d4009b889bb29b10dbb203f00e02a84b1b78d9
:1012e40003f00f031340002b11d1fb699b889bb2c1
:1012f40003f03803002b08d1fb699b889bb2002bb9
:1013040001d10523f7e20723f5e21a23f3e27b7bfd
:10131400002b29d0fb8941f60f42934204d9fb8963
:1013240041f62f42934214d9fb89b3f5b05f03d33e
:10133400fb89b3f5c05f0cd3fb89b3f5d05f03d34e
:10134400fb89b3f5e05f04d3fb894ff2300293428b
:101354000ad17b689b691b88dbb27b837b8b002b68
:1013640002d0012387f833307b681b6a002b0bd033
:101374007b681c6a797bf88997f84c300093bb6cc6
:10138400ba68a0470346b6e2002387f82f30072344
:1013940087f82e30bb68002b01d10023abe27b7ba6
:1013a400fb869be27b689b69bb6200233b83fb8ecd
:1013b400dbb21946786807f09efff861fb8edbb25a
:1013c4007968184603f064fc03463b83fb699b88f9
:1013d4009bb29b10dbb203f00e02694b1b7803f047
:1013e4000f031340002b00f04f82fb8e002b06d01e
:1013f4003b8b1b099bb25b00ba6a1344bb627b7bc9
:101404009bb2fa8e9a420ad097f84c30002b00f027
:1014140062827b7b9bb2fa8e9a42c0f05c82fb8e26
:10142400002b15d197f82330072b11d0bb6c1b88e8
:10143400fb75fb7d9bb23a8c9a4201d213235ae28c
:10144400bb6c1a88bb6a1a80bb6c0233bb6417e29c
:10145400fb691a785b781b021343fb84fb691b88c6
:101464009bb2b3f5e06f19d3fb695b889bb2082b81
:1014740005d8fb695b889bb22f33fb840ee0fb69c4
:101484005b889bb2102b02d10623fb8406e0fb6928
:101494005b889bb2202b01d10723fb84fb8c112b8f
:1014a40000f08881112b1edc052b6bd0052b0ddc85
:1014b400022b04dc002b65dc002b3bd0dde1032b8d
:1014c40000f0c280042b00f04d81d6e1082b03dc30
:1014d400072b80f24781b7e0092b00f089810b2ba1
:1014e40000f3cb81ace12d2b4cd02d2b11dc1e2b2a
:1014f40048d01e2b06dc152b00f05c811b2b00f062
:101504005981bae11f2b00f09f80202b00f02a8123
:10151400b3e1372b08dc302b34da2e2b00f0948027
:101524002f2b00f01f81a8e1a3f51873032b00f201
:10153400a48185e197f84c30002b1ed0fb695b88b1
:101544009bb203f00f03002b0cddfb695b889ab29e
:101554003b8b13449bb203f00f03002b02d1bb6cf3
:101564000233bb64fb695b889bb21b1103f00f035e
:101574005b00ba6c1344bb6482e11823bbe100bf77
:10158400db0100200023bb84fb695b889bb21a4605
:101594009b4b33f812301a463b8b03f00f0302facd
:1015a40003f3bb82bb6a1b88bb84b7f91430db43eb
:1015b4001ab2b7f9243013401bb2bb8497f84c30ed
:1015c400002b08d0bb6c1a88bb8a13409ab2bb8c20
:1015d4001343bb8426e0bb6c1b881a46fb695b88fb
:1015e4009bb21946864b33f81130db431340002b72
:1015f40001d012237fe1bb6c1a88fb695b889bb224
:1016040019467f4b33f8113013409bb21a463b8b7b
:1016140003f00f0302fa03f31ab2b7f924301343a9
:101624001bb2bb84bb6aba8c1a80fb695b889ab212
:101634003b8b13449bb203f00f03002b40f01f813c
:10164400bb6c0233bb641ae13b8b03f00f03002b2a
:1016540001d005234fe1bb6c1b887b8297f83330a4
:10166400002b06d0bb6a1b887a8a9a4201d01c23bd
:1016740041e1fb8941f60f42934219d9fb8941f6b6
:101684002f42934214d87b8ab3f5b05f03d37b8a8d
:10169400b3f5c05f0cd37b8ab3f5d05f03d37b8ae9
:1016a400b3f5e05f04d37b8a002b01d0122322e13f
:1016b400fb8941f63242934204d0fb8941f633421e
:1016c400934248d1fb8e012b17d1bb6a1b887a8abf
:1016d4009a420fd07a8afb891146184603f038f9ea
:1016e400034687f82e3097f82e30002b02d097f857
:1016f4002e3000e1434b01221a70fb8e082b2ad1b5
:10170400414b00225a61404b404a1a613e4b002231
:101714005a603f4b00225a613d4b3c4a1a613c4b94
:1017240000225a607b8a03f00203002b13d0364b4d
:1017340000225a85344b00221a85334b002283f849
:101744004020334b00225a85314b00221a85304bfe
:10175400002283f84020bb6a7a8a1a80bb6c023369
:10176400bb648de03b8b03f00f03002b01d00523fa
:10177400c1e097f83330002b0fd0bb6a1a88bb6cda
:101784001b889a4207d1bb6a02331a88bb6c0233a6
:101794001b889a4201d01c23ade0bb6c1a88bb6a3b
:1017a4001a80bb6a0233ba6c52881a80bb6c043349
:1017b400bb6465e03b8b03f00f03002b01d00523d2
:1017c40099e0bb6c1a88bb6a1a80bb6a0233ba6c94
:1017d40052881a80bb6a0433ba6c92881a80bb6a36
:1017e4000633ba6cd2881a80bb6c0833bb6447e0fa
:1017f4003b8b03f00f03002b0cd005237be000bfd1
:1018040080a500006c03002028030020a0860100ae
:10181400e4020020fb695b889bb20733db101a46a5
:10182400b96cb86a08f064fffb695b889bb223f06b
:101834000f030f331b115b00ba6c1344bb641fe02e
:101844003b8b03f00f03002b01d0052353e0fb690e
:101854005b889bb20733db101a46b96cb86a08f090
:1018640047fffb695b889bb223f00f030f331b1107
:101874005b00ba6c1344bb6402e018233be000bf76
:10188400012387f82f3026e0fb8e002b03d1bb6c9d
:101894000233bb641ce0fb695b889bb203f00f035b
:1018a400002b0cddfb695b889ab23b8b13449bb223
:1018b40003f00f03002b02d1bb6c0233bb64fb6942
:1018c4005b889bb21b099bb25b00ba6c1344bb647c
:1018d400182387f82e30fb8e0133fb86fa8e3b8e5d
:1018e4009a427ff65fad97f82f30002b02d197f81c
:1018f4002e3000e0002318463c37bd4690bd00bfa3
:020000040000fa
:10190400e42700201c00000000000000000000206c
:10191400c0000000000000001628002002000000a3
:1019240000000000762800200200000000000000f3
:10193400c00000200c00000000000000dc26002095
:101944008000000000000000e327002001000000e8
:1019540000000000bc270020270000000100000058
:10196400000000010000010000020000010000046a
:101974000000000000000000000000000000000063
:101984000003000001000000cc0000200200000061
:1019940000000000482800200800000000000000ab
:1019a400c425002018010000010000000000000010
:1019b40000000000011621000109000004aa000033
:1019c400e8a10000502800200000000000000000f2
:1019d400000000000000000000000000001a2100c8
:1019e4000109000010aa000014a2000058280020d9
:1019f40000000000000000000000000000000000e3
:101a040000000000121c0600010800001caa0000cf
:101a1400bca600008c28002000000000000000008c
:101a2400000000000000000000000000131c06007d
:101a34000108000028aa0000d8a600009028002071
:101a44000000000000000000000000000000000092
:101a54000000000000602a000109000034aa000010
:101a640080a80000602800200000000000000000a2
:101a740000000000000000000000000010702a00b8
:101a84000109000040aa000070a700006828002097
:101a94000000000000000000000000000000000042
:101aa40000000000ffff0000000000000000000034
:101ab4000000000000000000000000000000000022
:101ac400000000007828002004000000010000004d
:101ad400891300003a2800200200000000000000e2
:101ae40000280020160000000100000053414d456d
:101af400353320457468657243415420536c6176d4
:101b0400650000007c2800200400000001000000a3
:101b1400312e300080280020040000000100000065
:101b2400302e3900182800201400000001000000a5
:101b340004000000d80400005592000001000000d9
:101b440001000000702800200600000001000000d1
:101b540004000201040300008428002004000000a3
:101b640000000000e4230020e00100000100000068
:101b74000000000000000000001007000007000043
:101b840070aa00004caa0000782800200000000081
:101b94000000000000000000000000000000000041
:101ba400011005000007000078aa0000f8a8000052
:101bb4003a2800200000000000000000000000009f
:101bc40000000000000000000810090000070000e9
:101bd40080aa000058aa000000280020000000008d
:101be40000000000000000000000000000000000f1
:101bf400091009000007000088aa000094a800004a
:101c04007c2800200000000000000000000000000c
:101c140000000000000000000a1009000007000096
:101c240090aa0000a8a8000080280020000000005e
:101c340000000000000000000000000000000000a0
:101c4400181023000409000040a50000349c000083
:101c54001828002000000000000000000000000020
:101c64000000000000000000f1102a00020900003a
:101c7400bca800003c9b00003c28002000000000a1
:101c84000000000000000000000000000000000050
:101c9400f8101b000007000098aa0000d0a800005c
:101ca400482800207d900000000000000000000093
:101cb4000000000000000000001c050004080000f3
:101cc40064aa0000e4a800007028002000000000be
:101cd4000000000000000000000000000000000000
:101ce400321c29002009000080750000b86400003f
:101cf4002803002000000000000000000000000095
:101d04000000000000000000331c2900200900002e
:101d140080750000b8650000e402002000000000a7
:101d240000000000000000000000000000000000af
:101d3400ffff0000000000000000000000000000a1
:101d4400000000000000000000000000000000008f
:101d5400d000002008000000000000003928002006
:101d64000100000000000000d8000020e000000096
:101d740000000000b8010020040000000000000082
:101d8400bc0100201600000000000000882800208c
:101d94000400000000000000b8280020010000003a
:101da40000000000d40100205200000000000000e8
:101db400280200202800000000000000500200203b
:101dc40094000000000000003c2800200c000000eb
:101dd40001000000020000000100000004000000f7
:101de4002c2800200d0000000100000053756249fa
:101df4006e6465782030303000000000e40200207a
:101e04008e000000000000005028002008000000a0
:101e1400010000000100000020011070582800207b
:101e24000800000001000000010000002001006023
:101e34008c280020040000000100000001000116ad
:101e44009028002004000000010000000100001a96
:101e540060280020080000000100000001000000cc
:101e640000000000682800200800000001000000b5
:101e7400010000000000000094280020040000007d
:101e8400000000009828002004000000000000006a
:101e94009c2800200400000000000000a02800206e
:101ea4000400000000000000b92800200100000028
:101eb40000000000ba28002001000000000000001b
:101ec400740300201620000000000000bb2800203e
:101ed40001000000000000008c2300204d000000e1
:101ee40000000000dc2300200100000000000000ce
:101ef400a42800200400000000000000a8280020fe
:101f04000400000000000000ac28002004000000d1
:101f140000000000b02800200400000001000000c0
:101f24005c2700205c270020600000000100000006
:101f3400000000000000000000000000000000009d
:101f4400000000000000000000000000000000008d
:101f5400000000000000000000000000000000007d
:101f6400000000000000000000000000000000006d
:101f7400000000000000000000000000000000005d
:101f8400000000000000000000000000000000004d
:101f9400e02300200400000000000000b42800201a
:101fa4000400000000000000000000000000000029
:020000040000fa
:101fb40090b593b002afba607b600346fb810b46d9
:101fc4007b737b7bfb877b689b891b12dbb203f0f3
:101fd4000f0387f82a307b689b89dbb2bb877b7b46
:101fe4007b8797f82a30072b08d0fb89b3f5805fed
:101ff40004d37b689b691b88dbb2bb8797f854309a
:10200400002b0cd097f82a30072b03d0fb89b3f5ab
:10201400805f01d2052302e3bb8f7b872ee07b7bad
:102024009bb2ba8f9a4201d21123f8e2fb8fdbb242
:102034001946786807f05ff978627b6a9b889bb2df
:10204400002b19d07b6a9b889bb2dbb25b00dbb2ae
:1020540003f00e02a04b1b7803f00f031340002b78
:102064000cd17b6a9b889bb203f00703002b01d140
:102074000623d4e21a23d2e20523d0e27b68db698b
:10208400002b0bd07b68dc69797bf88997f8543096
:1020940000933b6dba68a0470346c0e2fb89b3f5e1
:1020a400805f7cd27b7b002b79d07b689b697b63d0
:1020b4007b7b1946786807f01ef978627b6a5b8837
:1020c4009bb20733db107b847b6bfb617b7b03f16f
:1020d4008043013b9b00fa6913441b687b637b6b61
:1020e40003f00103002b43d000237b867b6b23f09a
:1020f40001037b6300237b861be07b6b1b881b0a2d
:102104009ab23b6d1a803b6d1b881ab27b6b02330b
:102114001b881b021bb213431bb29ab23b6d1a807d
:102124003b6d02333b657b6b02337b637b8e0133f8
:102134007b867b8c5b089bb27a8e9a42ddd37b8c48
:1021440003f001039bb2002b00f067823b6d1b88f8
:1021540023f0ff039ab23b6d1a803b6d1a887b6ba8
:102164001b881b0a9bb213439ab23b6d1a8054e23c
:102174007b6b1a883b6d1a803b6d02337a6b5288f5
:102184001a803b6d04333b657b6b04337b637b8c30
:10219400043b1a46796b386d08f0aafa3de2002335
:1021a40087f83130002387f830307b7bfb8728e2c7
:1021b4007b689b69bb610023fb85fb8f002b0bd0e5
:1021c400fb89b3f5805f07d3fb8fdbb279681846d0
:1021d40002f05efd0346fb85fb8d1b099bb25b0091
:1021e400ba691344bb61fb8fdbb21946786807f008
:1021f40082f878627b6a9b889bb2dbb25b00dbb2bd
:1022040003f00e02344b1b7803f00f031340002b32
:1022140000f0ab817b7b9bb2fa8f9a420ad097f88d
:102224005430002b00f0ea817b7b9bb2fa8f9a42f8
:10223400c0f0e481fb8f002b0ad197f82a30072bda
:1022440006d03b6dba8f1a803b6d02333b65d5e1f6
:102254007b6a1a785b781b021343bb857b6a1b88f5
:102264009bb2b3f5e06f19d37b6a5b889bb2082bf2
:1022740005d87b6a5b889bb22f33bb850ee07b6af3
:102284005b889bb2102b02d10623bb8506e07b6ad8
:102294005b889bb2202b01d10723bb85bb8d112bff
:1022a40000f0e680112b20dc052b6ad0052b0ddc19
:1022b400022b04dc002b64dc002b3dd04ae1032b11
:1022c40000f0b380042b00f0bf8043e1082b05dc51
:1022d400072b80f2b980a8e0db010020092b00f075
:1022e4000f810b2b00f33681e0e02d2b49d02d2bf1
:1022f40011dc1e2b45d01e2b06dc152b00f0b880fc
:102304001b2b00f0b58025e11f2b00f08e80202bc5
:1023140000f09a801ee1372b08dc302b31da2e2bab
:1023240000f083802f2b00f08f8013e1a3f5187346
:10233400032b00f20f81b9e097f85430002b1ed024
:102344007b6a5b889bb203f00f03002b0cdd7b6a76
:102354005b889ab2fb8d13449bb203f00f03002bee
:1023640002d13b6d02333b657b6a5b889bb21b11d8
:1023740003f00f035b003a6d13443b65f1e018234f
:102384004de10023fb827b6a5b889bb21a46a64b15
:1023940033f812301a46fb8d03f00f0302fa03f3ed
:1023a400bb82bb691b88fb82fb8d03f00f03002bf0
:1023b40002d13b6d00221a803b6d1a883b6d1a8056
:1023c40097f85430002b0ad03b6d1a88f98abb8adf
:1023d4000b409bb213439ab23b6d1a8012e03b6de3
:1023e4001b881ab2f98abb8a0b409bb21946fb8d33
:1023f40003f00f0341fa03f31bb213431bb29ab267
:102404003b6d1a803b6d1a883b6d1a807b6a5b8832
:102414009ab2fb8d13449bb203f00f03002b40f0e0
:102424009b803b6d02333b6596e0fb8d03f00f030d
:10243400002b01d00523f2e0bb691a883b6d1a809a
:102444003b6d02333b658ce0fb8d03f00f03002be7
:1024540001d00523e3e0bb691a883b6d1a803b6d0c
:102464000233ba6952881a803b6d04333b6578e0c5
:10247400fb8d03f00f03002b01d00523cfe0bb69d4
:102484001a883b6d1a803b6d0233ba6952881a80f0
:102494003b6d0433ba6992881a803b6d0633ba697e
:1024a400d2881a803b6d08333b655ae0fb8d03f0fc
:1024b4000f03002b01d00523b1e07b6a5b889bb23c
:1024c4000733db101a46b969386d08f011f97b6ad5
:1024d4005b889bb223f00f030f331b115b003a6d33
:1024e40013443b657b6a5b889bb203f00f03002bac
:1024f40034d03b6d1b88dbb29ab23b6d1a802de061
:10250400fb8d03f00f03002b01d0052387e07b6aca
:102514005b889bb20733db101a46b969386d08f043
:10252400e7f87b6a5b889bb223f00f030f331b1120
:102534005b003a6d13443b657b6a5b889bb203f096
:102544000f03002b0cd03b6d1b88dbb29ab23b6da2
:102554001a8005e0182362e000bf02e000bf00e03b
:1025640000bf012387f8313048e0002387f82b307f
:10257400fb8d03f00f03002b02d13b6d00221a8068
:102584007b6a5b889bb203f00f03002b0fdd7b6a31
:102594005b889ab2fb8d13449bb203f00f03002bac
:1025a40005d13b6d02333b653b6d00221a8000234d
:1025b40087f82b300ae03b6d02333b653b6d00220c
:1025c4001a8097f82b30013387f82b3097f82b209b
:1025d4007b6a5b889bb21b1103f00f039a42eadb10
:1025e4007b6a9b889bb203f00703002b03d106236d
:1025f40087f8303002e01a2387f83030fb8f01333c
:10260400fb87fa8f7b8f9a427ff6d2ad97f83130f1
:10261400002b03d197f8303001e000bf00231846a7
:0c2624004437bd4690bd00bf80a50000fb
:020000040000fa
:1026300090b591b002af7860002387f837307b689f
:102640001b899bb287f8223097f8223023f01f03b2
:1026500087f821307b681a785b781b021343fb8371
:10266000002387f8363000233b630023fb62ae4b28
:102670001b78002b01d00923a9e297f82130202be9
:102680000bd0202b03dc002b00f0698283e2402b6f
:1026900003d0602b00f063827de27b685b899bb294
:1026a000dbb2bb83bb8b1b02bb837b681b899bb2ea
:1026b0001b0a9ab2bb8b1344bb837b685b899bb2ba
:1026c0001b0a9bb2fb76bb8b184607f025fc786192
:1026d0007b69002b00f03f82002387f82b3000231a
:1026e0007b62002387f823307b699b89fb74fa7e29
:1026f000fb7c9a4203d9112387f837300ce097f816
:10270000223003f01003dbb2f97eb88b7a6903f054
:1027100081fb38633b6bfb6297f83730002b32d17b
:1027200097f82130402b28d1fb8b0a2b01d00823ae
:102730004de23b6b042b10d83b6b002b0dd00123db
:1027400087f82b307b680c337b627b6a00221a800f
:102750007b6a023300221a8015e0744b1b88103b01
:10276000fb62fa6a3b6b9a4203d2012387f823305b
:1027700009e07b6810337b6205e097f8223003f0b4
:10278000020387f82b3097f83730002b44d197f8a5
:102790002130202b40d197f82b30002b10d0fb8b11
:1027a0000a2b01d0082312e297f822309b1003f085
:1027b0000303c3f10403fb627b680c337b622be0f1
:1027c0007b68db899bb21b047a68928992b21344be
:1027d000fb60fb681033564a1288934207d9fa8b84
:1027e000534b1b88063b9a4208d00823efe1fa8b33
:1027f000fb680a339a4201d00823e8e17b68103372
:102800007b62fb68fb62fb8b0a3b1a46fb6a9342c6
:1028100002d9012387f8233097f83730002b0ed1e7
:1028200097f8223003f01003002b08d0012387f81b
:102830003630fb7e012b02d9052387f8373097f815
:102840003730002b40f0ab8197f82330002b00f09d
:10285000d980384b01221a70374b01221a70374a3f
:1028600097f836301370364abb8b1380354afb7e9f
:102870001370354a7b69136097f82130402b03d1e0
:10288000324a3b6b136002e0304afb6a1360304b04
:102890001b68002b07d02e4b1b68184608f064f805
:1028a0002b4b00221a60294b1b68013323f00103d4
:1028b000184608f051f803461a46254b1a60244b77
:1028c0001b68002b0bd197f83630002b03d0052363
:1028d00087f8373063e1042387f837305fe197f8f2
:1028e0002130402b7ad11a4b1b68f97eb88b97f8b0
:1028f0003620019200937b693a6bfff75bfb03463e
:1029000087f8373097f83730002b25d17b6803f1f3
:1029100010000f4b1b68fa6a194607f0ebfe0d4bcf
:1029200060221a706ae000bfbb280020c8020020a5
:10293000da02002099230020a623002098230020fb
:10294000bc230020d4230020d02300209c2300207f
:10295000b8230020a723002097f83730ff2b4dd154
:102960009d4b04221a709d4a97f8363013709c4a8a
:10297000fb7e13709b4abb8b13809b4a3b6b13609f
:102980009a4b1b689a4a13607b69db69994a13600a
:10299000994b01221a70994a7b681360974b1b6808
:1029a0001b899ab2954b1b6822f0ff0292b21a81e2
:1029b000924b1b681b899bb21ab297f822301bb24c
:1029c00003f0f0031bb213431ab28c4b1b6892b294
:1029d0001a818b4b60221a700023f8e0834b186831
:1029e0007b6803f11001fb8b0a3b1a4607f082fe5d
:1029f000834b00221a70fb8b0a3bfb62814afb6a05
:102a00001360cce03b6b002b08d17f4abb8b13805b
:102a10007e4afb7e13707e4a7b69136097f82130f3
:102a2000402b4cd1f97eb88b97f8363001937b6af6
:102a300000937b693a6bfff7bdfa034687f837309e
:102a400097f83730ff2b40f0aa80634b03221a70af
:102a5000624a97f836301370614afb7e1370614a00
:102a6000bb8b1380604a3b6b1360614a7b6a1360c7
:102a70007b69db695f4a13605f4b01221a705f4a12
:102a80007b6813605d4b1b681b899ab25b4b1b68ac
:102a900022f0ff0292b21a81584b1b681b899bb22d
:102aa0001ab297f822301bb203f0f0031bb21343a3
:102ab0001ab2524b1b6892b21a81002387e0f97e4a
:102ac000b88b97f8363001937b6a00937b69fa6a7a
:102ad000fef790fb034687f8373097f83730ff2b27
:102ae0005dd13d4b01221a703c4a97f83630137085
:102af0003b4afb7e13703b4abb8b13803a4afb6a0e
:102b000013603b4a7b6a13607b691b6a394a136016
:102b1000394b01221a70394a7b681360374b1b68a6
:102b20001b899ab2354b1b6822f0ff0292b21a81c0
:102b3000324b1b681b899bb21ab297f822301bb22a
:102b400003f0f0031bb213431ab22c4b1b6892b272
:102b50001a8100233be0082387f837301fe0284b19
:102b60001b7897f821209a4211d197f82130002b39
:102b700006d1786800f0acfc034687f837300fe0e8
:102b8000786801f00ffb034687f8373008e003232d
:102b900087f8373004e0032387f8373000e000bfc0
:102ba00097f83730ff2b11d097f8223003f010033d
:102bb000dab2fb6a9cb297f8211097f837007b686d
:102bc00001933b6b0093234601f00cfd0023184654
:102bd0003c37bd4690bd00bfa4230020a5230020a4
:102be000d8230020d6230020b4230020b8230020bf
:102bf00090230020a0230020bb280020b023002029
:102c0000a723002094230020bc230020d4230020ed
:042c1000d0230020ad
:020000040000fa
:102c140080b58cb000af786048f20403fb857b6814
:102c24001b889bb2063b7b857b681b889bb2052b6c
:102c340001d8062321e27b68db889bb2013b052b8c
:102c440000f2f78001a252f823f000bf692c0000c3
:102c5400dd2c0000212d0000772d0000cd2d00007b
:102c6400f72d0000984b1b88002b40f0d7807b6821
:102c74001b899bb21a467b685b899bb21b04134376
:102c84007b627b6803f10c007b6803f10c02798d95
:102c94007b6a06f031fd0346fb858c4b00221a60eb
:102ca400fb8d47f69572934206d8894b01221a6030
:102cb400fb8d884a1360b1e0fb8d47f6fa729342ac
:102cc40000f2ac80824b00221a60824b00221a6010
:102cd4007d4b01221a80a1e07b4b1b88002b40f026
:102ce4009f807b681b899bb21a467b685b899bb279
:102cf4001b0413433b627b680c33798d3a6a184694
:102d040007f098f80346fb85fb8d002b02d147f6ac
:102d1400fd73fb856e4b00221a6081e06a4b1b88b1
:102d2400022b03d0684b1b88062b7bd17b681b8945
:102d34009bb21a467b685b899bb21b041343fb61fd
:102d4400634b1b68fa699a420fd17b680c337a8d06
:102d54001146184605f06cff0346fb85fb8d002bde
:102d640060d147f6fd73fb855ce048f20503fb8503
:102d740058e0554b1b88012b1ed1564b1a687b68b3
:102d84000c331946104607f071f80346fb85514b86
:102d94001b684e4a1360fb8d47f69572934243d8e5
:102da400fa8d4c4b1b6813444a4a1360484b1b680a
:102db4000133474a136037e0434b1b88042b33d15c
:102dc40047f6fe73fb852fe03f4b1b88002b2dd06d
:102dd4007b681b899bb21a467b685b899bb21b0488
:102de4001343bb61b86907f063fb47f6ff73fb85c8
:102df4001ce0354b1b88012b03d0334b1b88042b61
:102e040016d17b681b8998b2304b19687b680c33e8
:102e14001a4607f0a3fb0346fb8509e000bf08e060
:102e240000bf06e000bf04e000bf02e000bf00e016
:102e340000bffb8d47f69572934225d8244b1b683f
:102e44007b617b68002242f003029a710022da71ee
:102e54007b699ab27b681a817b691b0c9ab27b6886
:102e64005a81fb8d06339ab27b681a80fa8d1a4b0d
:102e74001b880c3b9a4203d1134b01221a80c5e0f4
:102e8400114b04221a80c1e0fb8d47f6fa7293427b
:102e940024d87b68002242f006029a710022da717b
:102ea400fb8da3f5ff43163b9ab27b681a817b68be
:102eb40000229a720022da727b68002242f0060233
:102ec4001a7000225a70a1e0c0010020cc01002039
:102ed400c4010020bc010020c8020020fb8d47f67d
:102ee400fd72934204d0fb8d47f6fc7293422bd1c2
:102ef400644b1b68bb60634b1b680133614a1360fe
:102f04007b68002242f004029a710022da71bb68e5
:102f14009ab27b681a81bb681b0c9ab27b685a818f
:102f24007b68002242f006021a7000225a70fb8d60
:102f340047f6fd72934203d1534b02221a8065e097
:102f4400514b00221a8061e0b7f92e30002b07dbc9
:102f54004d4b00221a80786807f004fd00238ce0b2
:102f6400fb8d3b61002387f82d307b68002242f003
:102f740005029a710022da713b699ab27b681a8160
:102f84003b691b0c9ab27b685a817b68002242f031
:102f940006021a7000225a701de07b6803f10c02cd
:102fa40097f82d305b08dbb25b0013441b88fb8170
:102fb400fb89dbb2002b13d097f82d30013387f84f
:102fc4002d30fb8903f47f43002b0bd097f82d3071
:102fd400013387f82d3097f82d301f2bddd902e00f
:102fe40000bf00e000bf97f82d301f2b0bd87b6883
:102ff4001b889ab297f82d309bb213449bb20133cd
:103004009ab27b681a80204b00221a801f4b1b78cf
:10301400002b27d07b689b889bb2c3f30b039ab227
:103024007b689a801a4b1b7803f00703002b02d1ac
:10303400174b01221a707b689b889bb21ab2144bff
:103044001b781b031bb213431bb29ab27b689a8092
:103054000f4b1b780133dab20d4b1a70786803f00a
:10306400a3f909e04021786804f0b4f90346002b81
:1030740002d0084a7b681360002318463037bd46e7
:1030840080bd00bfc4010020c00100201402002044
:0830940050020020c8010020d9
:020000040000fa
:10309c0090b58fb002af78600023fb737b681b89ff
:1030ac009bb2dbb203f07f0387f82130022387f851
:1030bc002f3097f82130052b06d17b681b889bb2eb
:1030cc00092b08d80623f2e17b681b889bb2072bdf
:1030dc0001d80623ebe197f82130032b00f0d180c7
:1030ec00052b00f0ce80012b40f0a5817b689b89dd
:1030fc009bb2052b00f2a2810023bb857b689b89c8
:10310c009bb287f820300e227968ad4807f0ecfab4
:10311c0097f820305a1e87f82020002b22d1a94b7b
:10312c0000221a80002387f82b3014e097f82b30fc
:10313c00184605f039f90346fb837b689a1d97f80e
:10314c002b3004335b001344fa8b1a8097f82b3026
:10315c00013387f82b3097f82b30042be6d9122348
:10316c00bb855ae00023bb83964b1b88002b11d0e8
:10317c00954b1b880c3bbb857b68063306337b6207
:10318c00924b1b88bb818f4b1b88013b9ab28d4b9a
:10319c001a802ae097f82030184605f005f9034606
:1031ac00bb834ff48053bb81874b1b880e3bbb8585
:1031bc007b68063308337b62bb8b5a00bb8d9a420b
:1031cc0010ddbb8d02337b83bb8b5a00bb8dd21ab7
:1031dc007b8b013b1a447b8b92fbf3f39ab2794bba
:1031ec001a8002e0774b00221a8097f8203098b2b0
:1031fc00ba8d07f10c0107f10f0300937b6a03f002
:10320c0053fb0346bb85ba89704b1a806e4b1a88e8
:10321c00bb8dd31a9bb2063bbb857b68ba8d1a80db
:10322c00fb7b002b40f00a817b681b899bb223f04f
:10323c007f039ab27b681a817b681b899bb243f02f
:10324c0002039ab27b681a815e4b1a887b685a819a
:10325c005c4b1b88002b00f0f1807b681b899bb2b8
:10326c0023f080039ab27b681a817b681b899bb21e
:10327c0043f080039ab27b681a81822387f82f303f
:10328c00dce07b689b899bb2bb81bb89b3f5805f1b
:10329c0002d20523fb73d3e0bb89184606f036fe39
:1032ac0078617b69002b00f0c38000237b8497f846
:1032bc002130032b26d17b6803f10e04786907f0cb
:1032cc0075fa03461b682360b88900237a690021cc
:1032dc0002f0bcfe03460c337b843b4b1b885a1f0d
:1032ec007b8c9a4202dc0c237b8481e0b8897b685e
:1032fc000e3304337a69002102f0a8fe03460c3326
:10330c007b8475e07b68db899bb2fb74786907f082
:10331c004dfa03465b889bb2bb74fa7cbb7c9a4229
:10332c0064d87b6803f11004fb7c1946786905f0be
:10333c00deff034606221946204607f0d5f97b68c6
:10334c00db899bb2dbb29ab27b68da81786907f0d1
:10335c002dfa03469a78db781b0213433b823b8a97
:10336c001b129bb203f00f033b823b8a082b02d04b
:10337c003b8a092b11d1fb7c002b0ed17b681033bf
:10338c000633134a1468506891681c605860996041
:10339c00127b1a731c237b842ae0b889f97c0023e6
:1033ac007a6902f053fe034610337b84064b1b886c
:1033bc005a1f7b8c9a420ddc10237b8418e000bfd3
:1033cc00c0230020ac230020c80200208c23002046
:1033dc002c280020b8897b6810330633f97c7a6975
:1033ec0002f034fe034610337b8401e01123fb739f
:1033fc00fb7b002b24d17b6800229a720022da72ac
:10340c007b687a8c1a807b681b899bb223f07f03c4
:10341c009ab27b681a817b681b899ab297f8213023
:10342c009bb201339bb213439ab27b681a8107e0bb
:10343c000823fb7304e00323fb7302e000bf00e0ee
:10344c0000bffb7b002b25d07b68002242f00a02d8
:10345c001a7000225a707b681b899bb223f07f0381
:10346c009ab27b681a817b681b899bb243f0070375
:10347c009ab27b681a817b6800229a720022da72f7
:10348c00fb7b1a460c4b53f822207b68da600b4b03
:10349c0000221a8097f82f301946786803f096ffaf
:1034ac000346002b02d0064a7b68136000231846a3
:1034bc003437bd4690bd00bf10890000ac230020fe
:0434cc00b801002023
:020000040000fa
:1034d000b0b588b002af78600023fb7500233b6174
:1034e0007b681b899bb203f010039b4a12789342be
:1034f00002d10123fb7562e1984b1b88093bbb811c
:103500007b681b899bb2dbb203f01003dab2924beb
:103510001a70934b1b68002b00f04f81914b1a6877
:10352000914b1b68d31a3b617b681b899bb203f0ec
:103530000103002b2ed0bb893a699a4227d87b68b9
:103540001a785b781b0213437b817b89033b1a4605
:103550003b6993420bd87b681b899bb25b109bb283
:10356000db439bb203f007033a699a4208d03b69f8
:10357000072b09d97b89033b1a463b69934203d148
:103580007a4b00221a7011e00e23fb750ee00e2319
:10359000fb750be0754b01221a70bb893a699a42a0
:1035a00002d80e23fb7501e0bb893b61fb7d002b3c
:1035b00040f005810023fb816b4b1b6803f0010386
:1035c000002b3dd0664b1a68674b1b685b085b009d
:1035d00013441988624b1a68634b1b685b085b00d5
:1035e0001344cab292b21a805d4b1a685e4b1b68d4
:1035f0005b085b0013441b881ab27b681b899bb273
:103600001bb223f0ff031bb2134319b2544b1a68c9
:10361000554b1b685b085b0013448ab21a80504b01
:103620001a68514b1b685b0801335b00d0187b683c
:1036300003f10a013b69013b1a4607f05bf842e0df
:103640007b681b899bb21b0a9bb21ab27b685b89a1
:103650009bb21b021bb2134319b2414b1a68424b77
:103660001b685b085b0013448ab21a800123fb814c
:1036700023e0fb89013b7a6804335b0013445b88d9
:103680009bb21b0a9bb21ab2fb89796804335b00b8
:103690000b445b889bb21b021bb2134318b2304b26
:1036a0001a68314b1b685908fb890b445b001344b3
:1036b00082b21a80fb890133fb81fa893b690133ad
:1036c0005b089a42d5d3294b1b78002b77d1284b26
:1036d0001888284b1978234b1c68274b1d68204bf2
:1036e0001b68264a1278019200932b462246fdf76a
:1036f00081fd0346fb75fb7dff2b55d1204b02223c
:103700001a701e4b1a781f4b1a701a4b1a781e4be0
:103710001a70174b1a881d4b1a80124b1b681c4ad3
:1037200013600f4b1b681b4a1360134b1b681b6a0b
:10373000194a1360194b01221a70194a7b681360e9
:103740000a4b00221a70174b00221a70064b0022f7
:103750001a60ff2388e000bfa6230020da020020c1
:10376000b82300209c2300209423002099230020cc
:10377000bc230020d4230020d02300209823002045
:10378000a4230020a5230020d8230020d623002036
:10379000b423002090230020a0230020bb28002079
:1037a000b0230020a7230020314b1b68184607f0e8
:1037b000dbf82f4b00221a6001e00323fb75fb7d31
:1037c000002b3bd17b68002242f00a021a700022d3
:1037d0005a707b68db889bb2c3f30b039ab27b6899
:1037e000da807b68db889bb243f440539ab27b68f3
:1037f000da80204b1b78002b07d07b68002242f038
:1038000030021a7200225a7206e07b68002242f0ef
:1038100020021a7200225a72174b1b78012b06d114
:10382000164b1a683b691344144a13601be0134b90
:1038300000221a60124b00221a7014e00e4b002274
:103840001a700f4b00221a70094b1b68002b07d00f
:10385000074b1b68184607f087f8054b00221a60d3
:10386000064b00221a60fb7d18461837bd46b0bdd6
:10387000b8230020a62300209923002094230020b1
:04388000a72300205a
:020000040000fa
:1038840080b586b000af0346fb710023bb750023ef
:10389400bb8200237b82974b1b8841f6fe729342c6
:1038a40011d9944b1b8841f6fe7293420bd9914b6c
:1038b4001b8841f6fe72934205d98e4b1b8841f654
:1038c400fe72934201d8142397e1002006f0d8fb3e
:1038d400f860fb681b681b0cbb82fb681b687b825f
:1038e400fb685b6803f48033002b02d11623bb759d
:1038f4002be0fb685b6803f00c03042b02d0162357
:10390400bb7522e0fb685b6803f00203002b02d165
:103914001623bb7519e0bb8a212b02d81623bb756d
:1039240013e0bb8ab3f5807f02d91623bb750ce084
:103934007b8ab3f5805f02d21623bb7505e07b8ad0
:10394400b3f5005f01d31623bb75bb7d002b3fd1bc
:10395400012006f095fbf860fb681b681b0cbb821a
:10396400fb681b687b82fb685b6803f48033002b75
:1039740002d11623bb752be0fb685b6803f00c03d4
:10398400002b02d01623bb7522e0fb685b6803f0b2
:103994000203002b02d11623bb7519e0bb8a212b2d
:1039a40002d81623bb7513e0bb8ab3f5807f02d916
:1039b4001623bb750ce07b8ab3f5805f02d2162315
:1039c400bb7505e07b8ab3f5005f01d31623bb7595
:1039d400bb7d002b6fd1fb79032b6cd9464b0122a5
:1039e4001a70032006f04cfbf860fb681b681b0c84
:1039f400bb82fb681b687b82fb685b6803f48033d3
:103a0400002b05d0bb8a002b02d10423bb7548e0f0
:103a1400fb685b6803f48033002b39d0374b1b8879
:103a2400ba8a9a4206d1354b1b88002b02d0bb8a36
:103a3400442b02d90323bb7533e0fb685b6803f0b6
:103a44000c03002b21d12e4b1b78022b07d17b8a30
:103a5400b3f5805f03d37b8ab3f5005f08d3284bab
:103a64001b78022b0ed0274b1b887a8a9a4209d1e5
:103a7400fb685b6803f00203002b12d01e4b00228c
:103a84001a700ee00223bb750be00423bb7508e03b
:103a9400bb8a002b03d1194b1b88002b01d00323b5
:103aa400bb75bb7d002b06d0bb7d1946032000f0ff
:103ab400a7fc1e23bb75bb7d002b40f08680fb79e1
:103ac400022b40f28280022006f0dafaf860fb68ea
:103ad4001b681b0cbb82fb681b687b82fb685b68f2
:103ae40003f48033002b0fd0bb8a002b0cd10423aa
:103af400bb7560e00e020020d40100200a02002001
:103b0400db01002024020020fb685b6803f480339f
:103b1400002b47d03b4b1b88ba8a9a423fd1394b82
:103b24001b88002b3bd0bb8a442b38d8fb685b68ce
:103b340003f00c03042b2ed1334b1b78022b07d13b
:103b44007b8ab3f5805f03d37b8ab3f5005f08d328
:103b54002d4b1b78022b1bd02c4b1b887a8a9a4244
:103b640016d1fb685b6803f04003002b03d0284b9d
:103b740001221a7002e0264b00221a70fb685b686f
:103b840003f00203002b09d0224b00221a7005e037
:103b94000223bb750fe00423bb750ce00be0032389
:103ba400bb7508e0bb8a002b03d1164b1b88002b86
:103bb40001d00323bb75bb7d002b06d0bb7d19460a
:103bc400022000f01dfc1d23bb75bb7d002b13d10f
:103bd400fb79fb750be0fb7d184606f051faf860a3
:103be400fb685b680c4a1360fb7d0133fb750b4b70
:103bf4001b78fa7d9a42eed3bb7d18461837bd4632
:103c040080bd00bfdc010020db010020e8010020b2
:103c14001e020020d4010020882800202202002057
:020000040000fa
:103c240080b58ab000af0023fb8400233b6107f119
:103c3400100304224ff4a061184603f023f83b69f3
:103c44003b613b69002b80f23b813b6903f0e063fd
:103c54003b6207f10c03042240f20451184603f0be
:103c640011f8fb68fb603b6923f0e0433b613b6a6e
:103c7400b3f1807f11d03b6ab3f1807f04d83b6af3
:103c8400002b00f00e8107e13b6ab3f1007f35d0d1
:103c94003b6ab3f1806f63d0fee08b4b1b68002b53
:103ca4000fd0894b1b68fa68104698470346fb847b
:103cb400fb8c002b00f0f7803b6943f000533b6121
:103cc400f1e0fb68b3f5006f13d8804b1b68002b41
:103cd4000fd07e4b1b68fb61fb685b00fa69d01850
:103ce4007b4b1b881a464ff4a16102f0d7fe00bf3c
:103cf400d9e03b6943f000533b61d4e0754b1b684a
:103d0400002b0ed0734b1b68fa6810469847034685
:103d1400fb84fb8c002b1ed03b6943f000533b61ba
:103d240019e0fb68b3f5006f11d8684b1b68002bd2
:103d34000dd0664b1b68bb61fb685b00ba6913441a
:103d440002224ff4a161184602f09cff03e03b6994
:103d540043f000533b61604b4ff47a721a80a3e046
:103d64005b4b1b88082b62d1fb68b3f5006f04d949
:103d74003b6943f000533b618de0534b1b68002bc0
:103d84000ed0514b1b68fa68104698470346fb84d3
:103d9400fb8c002b20d03b6943f000533b617ae05d
:103da400fb68b3f5006f12d8484b1b68002b0ed08c
:103db400464b1b687b61fb685b007a69d018444bf7
:103dc4001b881a464ff4a16102f068fe04e03b69c7
:103dd40043f000533b615ee03b6923f0f0433b61f9
:103de4003b69bb6007f1080304224ff4a061184645
:103df40002f054fe07f1100304224ff4a0611846a8
:103e040002f040ff3b693b613b6903f0e0633b62c6
:103e140007f10c03042240f20451184602f032ff69
:103e2400fb68fb603b6ab3f1806f9dd03ce02b4b99
:103e34001b68002b11d0294b1b6898470346fb8451
:103e4400fb8c002b04d03b6943f000533b612be017
:103e54003b6923f000633b6126e004f023f9034649
:103e6400fb84fb8c002b03d1184b1b68002b04d163
:103e74003b6943f000633b610de0144b1b68103356
:103e840004224ff4a161184602f008fe3b6923f0b6
:103e940000633b6108e007e03b6943f000533b618a
:103ea40002e000bf00e000bf0d4b00221a803b6916
:103eb4007b603b1d04224ff4a061184602f0eefd26
:103ec40000bf2837bd4680bde40000209c010020cf
:103ed40046010020e8000020b0010020a8010020d5
:043ee4004401002075
:020000040000fa
:103ee80080b582b000af9d4b1b78002b00f032816b
:103ef80000237b800023fb710023bb80984bb3f920
:103f08000030002b6dd1974b1b881b099bb2fb71ae
:103f1800944b1b88242b1cd0242b04dc123b012b34
:103f280000f2058102e0482b26d000e18e4b1b7879
:103f3800002b01d106f041fd01f046fc8b4b1b78ac
:103f4800002b03d08a4b1b88bb80f0e00123bb8089
:103f5800ede0854b1b78002b01d106f0d9fc01f070
:103f68002dfe824b1b78002b03d0814b1b88bb8016
:103f7800dde00123bb80dae07e4b1b78002b14d0f8
:103f88007d4b1b78002b02d12d23bb801be07b4b84
:103f98001b78002b06d17a4b1b88002b02d01b23e1
:103fa800bb8010e01a23bb800de0754b1b88002beb
:103fb80002d01b23bb8006e00823fb710023bb80d3
:103fc800704b01221a70bb88002b00f0a980664b49
:103fd8001b78002b01d106f0abfc06f043fa00bfba
:103fe8009ee0604b1b88242b2ad0242b04dc123b38
:103ff800012b00f29c8002e0482b3ed097e05a4b00
:104008001b78002b00f08e80574b00221a7006f0a8
:1040180077fc03467b807b88002b09d15a4b012211
:104028001a70504b1b88dbb203f00f03fb7179e069
:104038007b88ff2b76d006f0c0fc01f0c5fb71e051
:10404800494b1b78002b6fd0474b00221a704f4802
:1040580006f0f3fb03467b807b88002b05d14c4b95
:1040680001221a700423fb715ee07b88ff2b5bd072
:1040780006f04efc01f0a2fd56e03b4b1b78002bee
:1040880054d03c4b1b78002b2ad0424bb3f900305c
:10409800002b4bdd3f4bb3f900203f4bb3f9003009
:1040a8009a4243dc3b4b00221a803b4b00221a8089
:1040b8002d4b00221a7006f033fc03467b807b8868
:1040c800002b05d12f4b01221a700823fb712de01c
:1040d8007b88ff2b2ad006f02bfc06f0c3f925e0dd
:1040e800274b1b88002b03d0244b1b78002b1dd09b
:1040f8001d4b00221a7006f013fc03467b807b8858
:10410800002b05d11f4b01221a700823fb710de00b
:104118007b88ff2b0ad006f00bfc06f0a3f905e01c
:1041280000bf04e000bf02e000bf00e000bffb7971
:10413800002b0fd0094b00221a70bb88002b03d02c
:10414800fb7943f01003fb71ba88fb7911461846d6
:1041580000f0caff00bf0837bd4680bd0802002036
:1041680012020020d6010020da010020e20100201e
:10417800de01002015020020f401002010020020ba
:10418800dc01002016020020be020020f2010020ff
:0c4198001c020020ee010020e6010020c7
:020000040000fa
:1041a40080b588b000af78600023fb777b683b6103
:1041b4007b681b7a03f010038a4a1278934202d177
:1041c4000123fb7709e10023bb61874b1b88093b73
:1041d400fb817b681b7a03f01003dab2814b1a70ff
:1041e400fa89824b1b681a44814b1b689a4209d98d
:1041f4007f4b1a687d4b1b68d31abb617d4b002231
:104204001a7004e0fb89bb617a4b01221a703b6986
:104214001b899bb2dbb29ab23b691a81734b1b6850
:1042240003f00103002b25d03b691b899bb21ab212
:10423400714b19686d4b1b685b085b000b441b8852
:104244001bb223f0ff031bb213431bb29ab23b69a8
:104254001a813b6903f10a00674b1a68634b1b68b8
:104264005b0801335b00d118bb69013b1a4606f0b9
:104274003ffa46e00023fb825c4b1b685b08bb6093
:104284003b691b899bb21ab25b4b1968574b1b687d
:104294005b085b000b441b881b021bb213431bb25d
:1042a4009ab23b691a810023fb8225e0524b1a68bb
:1042b400f98abb680b445b0013441b881b0a9bb23e
:1042c4001ab24d4b1968f88abb68034401335b008a
:1042d4000b441b881b021bb223f0ff031bb21343c6
:1042e4001ab2fb8a91b23a6904335b0013440a465a
:1042f4005a80fb8a0133fb82fa8abb695b089a42c3
:10430400d4d33b69db889bb2c3f30b039ab23b69fa
:10431400da803b69db889bb243f440539ab23b6931
:10432400da803b691b899bb223f0ff039ab23b6995
:104334001a81304b1b78002b0ad03b691b899ab237
:10434400284b1b789bb213439ab23b691a810ce049
:104354003b691b899ab2234b1b7843f00103dbb200
:104364009bb213439ab23b691a81bb69062b15d8d9
:104374003b69002242f00a021a7000225a703b691b
:104384001b899ab2bb699bb2c3f107039bb25b0062
:104394009bb213439ab23b691a8105e0bb699bb295
:1043a40003339ab23b691a80124b1b78012b06d156
:1043b4000e4b1a68bb6913440c4a13600de00e4b94
:1043c4001b68184606f0cefa0b4b00221a60074b06
:1043d40000221a60094b00221a70fb7f184620370e
:1043e400bd4680bda6230020c802002094230020df
:1043f4009c23002099230020b8230020a723002019
:020000040000fa
:1044040080b584b000af03460a46fb711346bb7106
:1044140006f0fff9f860fb68002b00f0d780bb7949
:10442400013bbb71fb685b889bb2dbb29ab2fb6851
:104434005a80fb685b889bb21ab2b979fb799b00fe
:104444000b441b021bb213431bb29ab2fb685a8083
:10445400fb79022b02d0032b48d08de0bb79032bd0
:1044640000f2958001a252f823f000bf81440000bd
:1044740081440000a1440000b3440000fb68002212
:104484001a71002242f010025a71fb684ff0ff3299
:104494009a71002242f01f02da7126e04d4b1a880d
:1044a400fb689a804b4b1a88fb68da801de0494b05
:1044b4001b88002b0ed0fb68002242f00a021a71fe
:1044c40000225a71fb68002242f001029a71002214
:1044d400da7109e0fb6800221a7100225a71fb6844
:1044e40000229a710022da7100bf50e0bb79032bdd
:1044f4004fd801a252f823f00d4500000d450000ed
:104504002d4500003f450000fb6800221a7100227f
:1045140042f010025a71fb684ff0ff329a71002288
:1045240042f01f02da7126e02b4b1a88fb689a804e
:10453400294b1a88fb68da801de0274b1b88002b67
:104544000ed0fb68002242f00e021a7100225a714a
:10455400fb68002242f001029a710022da7109e03c
:10456400fb6800221a7100225a71fb6800229a71ba
:104574000022da7100bf0ce0fb6800221a710022ed
:104584005a71fb6800229a710022da7102e000bfbe
:1045940000e000bffb6800221a70002262f05f0294
:1045a4005a70fb685b889bb223f0ff039ab2fb68e6
:1045b4005a80fb685b889ab2084b1b789bb2134302
:1045c4009ab2fb685a80f86803f01afd00bf1037ee
:1045d400bd4680bddc0100200a020020db01002072
:020000040000fa
:1045e40090b583b000af0446084611461a462346e8
:1045f400fb710346bb710b467b7113467b80bb7911
:10460400602b0ad0bb79002b07d0fb691b899bb2b6
:1046140023f0ff039ab2fb691a81fb79002b40f067
:104624008580fb69db889bb2c3f30b039ab2fb69f9
:10463400da80fb69db889bb243f440539ab2fb698e
:10464400da80bb79402b4bd1bb69042b22d8bb69e0
:10465400002b1fd0fb69002242f00a021a700022cc
:104664005a70fb691b899ab27b7943f00303dbb26e
:1046740019b2bb69dbb2c3f104039b001bb20b4349
:104684001bb29bb213439bb243f040039ab2fb6943
:104694001a8170e07b88ba699a4205d97b880a330b
:1046a4009ab2fb691a8005e0bb699bb20a339ab2dd
:1046b400fb691a80bb699ab2fb699a81bb691b0cbe
:1046c4009ab2fb69da81fb691b899ab27b7943f060
:1046d4004103dbb29bb213439ab2fb691a814ae0ed
:1046e400bb79002b0fd1fb69002242f00a021a7039
:1046f40000225a70fb691b899bb243f020039ab2d3
:10470400fb691a8137e0bb79602b34d0fb69002246
:1047140042f00a021a7000225a70fb691b899bb28c
:1047240043f060039ab2fb691a8124e0fb6900221a
:1047340042f00a021a7000225a70fb69db889bb2ad
:10474400c3f30b039ab2fb69da80fb69db889bb283
:1047540043f400539ab2fb69da80fb691b899bb26c
:1047640043f080039ab2fb691a81fb79094a52f833
:104774002320fb69da600221f86902f02bfe03466c
:10478400002b02d0044afb69136000bf0c37bd46fe
:0c47940090bd00bf10890000b80100209b
:020000040000fa
:1047a00080b584b000af0023bb814ff48033bb6081
:1047b00003f010f8614b1b78002b09d007f10803b8
:1047c000042240f60c01184602f05efabb68bb609a
:1047d00004f026fc0346fb81fb8903f02003002b39
:1047e00001d0fff71ffafb8903f00103002b18d05b
:1047f000534b1b78002b14d100237b603b1d0422fc
:104800004ff49071184602f03ffa7b68bb81fb8938
:1048100023f01103fb81bb89dbb200211846fcf7b2
:1048200021f9fb8903f01003002b1cd0444b1b78ab
:10483000002b18d1434b1b7803f01003002b12d12f
:10484000404b1b7823f01003012b0cd0fb8923f085
:104850001003fb813b4b1b7803f00f03dbb20021fd
:104860001846fcf7fff8364b1b78002b01d0fff7fa
:104870003bfb324b1b78002b5cd0bb6803f48033ce
:10488000002b08d12f4b1b7803f00f03dbb2002164
:104890001846fcf7e7f8fb8903f40073002b0fd0f0
:1048a000294b00221a60294b1b88042219462648ee
:1048b00002f0f6f8fb8923f40073fb8101f018fa8b
:1048c000bb6803f40033002b03d0214b1b78002b73
:1048d00008d0bb6803f40033002b1cd11c4b1b78a1
:1048e000002b18d003f0d6ff194b1b78002b04d0f7
:1048f000bb6843f00073bb6003e0bb6823f0007348
:10490000bb60bb68bb6007f10803042240f60c01e2
:10491000184602f0c5f804f083fb0346fb81fb89cf
:1049200003f48073002b05d0fb8923f48073fb8193
:1049300000f090fc00bf1037bd4680bdbe020020d5
:1049400008020020db010020f8010020d202002034
:04495000dc02002065
:020000040000fa
:1049540080b483b000af03460a46fb801346bb8095
:10496400bb88222b00f2be8001a252f823f000bfc4
:10497400014a0000054a0000734a0000a74a0000eb
:10498400e94a0000e94a0000e94a0000e94a000057
:10499400e94a0000e94a0000e94a0000e94a000047
:1049a400e94a0000e94a0000e94a0000e94a000037
:1049b400e94a0000e94a0000e94a0000e94a000027
:1049c400e94a0000e94a0000e94a0000e94a000017
:1049d400e94a0000e94a0000e94a0000e94a000007
:1049e400e94a0000e94a0000e94a0000e94a0000f7
:1049f400e94a0000e94a0000514a0000002372e03d
:104a0400fb8841f6324293420bd13a4b1b88002b70
:104a140007d0394b9b8903f00203002b01dd0023ef
:104a240061e0fb8841f63342934254d1334b9b8976
:104a340003f00203002b4edd2e4b1b88002b4ad1c2
:104a44002f4b1b88002b46d000234ce0fb8841f6fb
:104a54003342934241d1294b9b8903f00203002b3b
:104a64003bdd244b1b88002b37d000233be0fb8825
:104a740041f63242934207d11f4b9b8903f0040352
:104a8400002b01dd00232ee0fb8841f633429342e4
:104a940025d11a4b9b8903f00403002b1fdd00234f
:104aa40021e0fb8841f63242934207d1124b9b89a5
:104ab40003f00803002b01dd002314e0fb8841f61a
:104ac400334293420dd10d4b9b8903f00803002b15
:104ad40007dd002307e000bf04e000bf02e000bfe1
:104ae40000e000bf122318460c37bd465df8047b76
:104af400704700bfdc01002028030020e4020020ee
:044b04000a02002081
:020000040000fa
:104b080080b582b000af78600b467b8013467b701f
:104b18007b88002b00f0a780574b1b68b3f5002f4c
:104b280080f0a1807a88554b1b681344b3f5002f99
:104b380005d9524b00221a6048f2030398e07a889c
:104b48004f4b1b681344b3f5005f48d94c4b1b68a7
:104b5800c3f500534b4a1360494b1b684a4a9818df
:104b6800484b1b681a46796805f0c0fd444b1a6823
:104b7800444b1b681344424a13603f4b1b6842492d
:104b8800184603f0fdfe3c4b1a683d4b1b68134466
:104b9800394a1360394b1a68394b1b681344374a32
:104ba8001360384b1b687a6813447b60354b1b686d
:104bb8009bb27a88d31a7b80314b00221a60304b23
:104bc8001b68314a13447a887968184605f08efdc7
:104bd8007a882b4b1b681344294a13600ee0284b34
:104be8001b68294a13447a887968184605f07efdbf
:104bf8007a88234b1b681344214a1360204b1b6897
:104c0800b3f5005f02d07b78002b2fd11c4b1b68bb
:104c1800b3f5005f0fd21a4b1b68c3f50053194a4e
:104c28001360174b1b68184a9818164b1b681a46ce
:104c3800ff2105f09dfe104b1b681349184603f031
:104c48009ffe0d4b1a680e4b1b6813440a4a1360eb
:104c58000a4b1a680a4b1b681344084a1360084b2e
:104c680000221a6002e048f20d0301e000bf0023b1
:104c780018460837bd4680bd9c280020982800208b
:0c4c880094280020a028002074030020c5
:020000040000fa
:104c940080b487b000af03463960fb710023bb8248
:104ca4003b689b891b12dbb203f00f03fb73fb7998
:104cb400002b02d0bb8a1033bb82fb7b072b01d1b4
:104cc40000239be00123fb8291e0fb7b082b04d1b2
:104cd4003b681b6906333b6108e03b681969fa8a43
:104ce40013465b0013445b000b443b613b691b8828
:104cf4009bb21f2b23d01f2b0ddc062b1fd0062ba2
:104d040004dc032b1bd0042b39d05ce0082b36ddec
:104d14000b2b14d057e02f2b31d02f2b04dc202b5e
:104d24002dd02e2b0bd04ee0b3f5187f07d0b3f562
:104d3400187f48dba3f26223012b44d81fe0bb8a0f
:104d44000f339bb223f00f03bb82fb799bb2fa8a29
:104d54009a4244d23b691b889bb20b2b05d03b691a
:104d64001b889bb2b3f5187f05d13b695b889ab267
:104d7400bb8a1344bb82bb8a1033bb822fe0bb8a3d
:104d84001f339bb223f01f03bb82fb799bb2fa8ac9
:104d94009a4226d23b691b889bb240f2622293421c
:104da40006d03b691b889bb240f26322934206d132
:104db4003b695b889ab2bb8a1344bb8211e0bb8a0d
:104dc4002033bb820de0fb799bb2fa8a9a420ad265
:104dd4003b695b889ab2bb8a1344bb8203e000bf81
:104de40002e000bf00e000bffb8a0133fb82fb79d5
:104df4009bb2fa8a9a427ff668afbb8a18461c3780
:084e0400bd465df8047b704718
:020000040000fa
:104e0c0090b589b000af786039600023fb83002334
:104e1c00bb8300237b8300233b8300233b61002364
:104e2c00fb810023bb600023fb8200233b833ce01f
:104e3c003b8b4e4a5b0013445b88184605f066f8c2
:104e4c0038613b69002b28d03b699b691b88fb812f
:104e5c000023fb821ce03b699c69fb8adbb20133bb
:104e6c00dbb239691846fff70fff0346db089bb22c
:104e7c005b089bb25b002344bb60bb681b689bb2a6
:104e8c00dbb29ab27b8b13447b83fb8a0133fb82ac
:104e9c00fa8afb899a42ded304e000237b83252324
:104eac00fb8307e03b8b01333b83304b1b883a8bf6
:104ebc009a42bdd37b8b0733db107b83fb8b002ba0
:104ecc0044d100233b833ce03b8b294a5b001344d9
:104edc005b88184605f01af838613b69002b28d01e
:104eec003b699b691b88fb810023fb821ce03b69af
:104efc009c69fb8adbb20133dbb239691846fff7d8
:104f0c00c3fe0346db089bb25b089bb25b002344e9
:104f1c00bb60bb681b689bb2dbb29ab2bb8b134401
:104f2c00bb83fb8a0133fb82fa8afb899a42ded36c
:104f3c0004e00023bb832423fb8307e03b8b01337a
:104f4c003b830b4b1b883a8b9a42bdd3bb8b0733ed
:104f5c00db10bb837b68ba8b1a803b687a8b1a8018
:104f6c00fb8b18462437bd4690bd00bf8c28002013
:044f7c009028002059
:020000040000fa
:104f800080b582b000af00233b603b460422042181
:104f9000184601f079fe3b683b603b681b0adab2b9
:104fa0003a4b1a703b681b0c9bb29b029bb203f6f8
:104fb000ff739ab2364b1a8004f09afa0023fb7101
:104fc00006e0fb79184604f0b9fafb790133fb716e
:104fd0002e4b1b78fa799a42f3d301f06dfb2d4bdf
:104fe00000221a702c4b00221a702c4b00221a70cf
:104ff0002b4b00221a702b4b00221a702a4b0022d6
:105000001a702a4b00221a70294b00221a80294b51
:1050100000221a80284b00221a80284b00221a8076
:10502000274b00221a80274b00221a80264b002291
:105030001a70264b00221a70254b00221a80254b2d
:1050400000221a80244b00221a80244b00221a804e
:10505000234b01221a70224b1b780021184600f0c6
:1050600047f8204b00221a801f4b00221a701f4b5a
:1050700000221a7002f020ff05f0e6f9002004f08b
:1050800085fb00bf0837bd4680bd00bf220200205f
:105090000e02002014020020da0100200802002085
:1050a00010020020160200201c0200201e02002018
:1050b0001a020020d8010020e0010020ea010020af
:1050c00018020020f001002015020020e20100205b
:1050d000de010020f2010020dc0100200a02002095
:1050e000db010020d6010020230200201d02002049
:020000040000fa
:1050f00080b586b000af03460a46fb711346bb80fd
:10510000bb88fb8200233b614e4b1b78fa799a42a5
:1051100002d04c4afb791370bb884ff6ff72934262
:1051200009d0fb8a3b6107f1100304224ff49a7106
:10513000184601f0b5fc434b1b783b613b693b6172
:1051400007f1100304224ff49871184601f0a8fcef
:10515000bb88002b04d0fb7903f01003002b03d194
:10516000394b00221a701ae0bb882d2b09d0bb885e
:105170001a2b06d0bb88322b03d0344b1b78012b63
:1051800003d1314b01221a7009e0bb881b2b03d1dc
:105190002d4b02221a7002e02b4b0d221a702a4b63
:1051a0001b7843f01003dab2274b1a70fb7903f037
:1051b0000f03013b072b27d801a252f823f000bfb1
:1051c000e1510000e951000001520000f1510000de
:1051d000095200000952000009520000f951000074
:1051e0001b4b00221a700fe0194b0d221a700be0b6
:1051f000174b01221a7007e0154b0f221a7003e0bb
:10520000134b0e221a7000bf114b1b7843f0100392
:10521000dab20f4b1a700023fb600d4b1b781a4655
:10522000094b1b781b021343fb6007f10c0304229c
:105230004ff49c71184601f033fc00bf1837bd468f
:1052400080bd00bfdb01002023020020e20100201e
:04525000ec0100204d
:020000040000fa
:1052540080b584b000af00237b604e4b19883b1da2
:105264000422184601f00efd7b689bb27b607b68cc
:10527400fb81494b1b78012b30d10a2005f06afbd6
:105284000346bb60bb68002b28d00a220021b86803
:1052940005f070fbbb68002242f004021a70002281
:1052a4005a70bb689b889bb223f470639ab2bb6844
:1052b4009a80bb68002242f001029a710022da71de
:1052c400bb68002242f007021a7200225a720021bf
:1052d400b86802f07ff8b86805f044fbfb89063330
:1052e400fb812e4b1b78002b03d12d4b1b78002bfd
:1052f40003d02c4b01221a7048e02a4b00221a706a
:10530400294b1b88fa899a4202d9274b1b88fb81b7
:10531400254b1b88184605f01dfb03461a46234bf4
:105324001a60224b1b68002b03d11e4b01221a70fa
:105334002ce01e4b1868174b1b88fa89194601f09c
:10534400a1fc00233b603b46042240f604011846be
:1053540001f098fc3b683b603b6803f40063002b5e
:105364000fd0134b00221a600a4b1a880e4b1b886d
:1053740013449bb2043b9bb2042219460c4801f02f
:1053840081fc0a4b1b68184601f002fc1037bd462d
:1053940080bd00bfc0020020bc020020bd0200206e
:1053a400d9020020d0020020da020020d40200201a
:0453b400f8010020dc
:020000040000fa
:1053b80080b582b000af474b20221a80454b0022af
:1053c8005a80444b00225a60424b44f21f029a8191
:1053d800404b414a1a613f4b00225a613d4b002223
:1053e8009a833c4b00221a623a4b00221a85394ba9
:1053f80000225a85374b002283f84020374b202261
:105408001a80364b00225a80324b5b68334a53600d
:10541800304b9a89314b9a81304b2f4a1a612f4b66
:1054280000225a612d4b00229a832c4b00221a62cb
:105438002a4b00221a85294b00225a85274b002225
:1054480083f84020264b00221a7004f025fa034600
:10545800fb80fb88002b01d004f08cfb214b002241
:105468001a70214b00221a70204b00221a80204b00
:1054780000221a701f4b00221a601f4b00221a606c
:105488001e4b00221a601e4b00221a6000233b604c
:105498003b4604220821184601f0f2fb3b683b60ba
:1054a8003b6803f00803002b03d0164b00221a7048
:1054b80008e0144b01221a7004224ff411611248bb
:1054c80001f0defb114b4ff47a621a6000bf083717
:1054d800bd4680bd28030020a0860100e40200200c
:1054e8006c030020a4230020a5230020d62300203d
:1054f800d8230020b423002090230020a0230020dc
:10550800b823002004020020d0000020d40000208e
:020000040000fa
:1055180080b582b000af494b00221a80484b1b78f7
:10552800002b00f08480474b1b78002b05d0464b9e
:105538001b8801339ab2444b1a80444b1b88002bba
:105548005cd0434b1a88414b1b889a4223d9414b64
:105558001b88002b0bd0404b1a8d404b1b899a425d
:1055680005d83d4b1b8d03339ab23b4b1a853c4bf8
:105578001b88002b0fd0374b1b88002b0bd1394bc6
:105588001a8d364b1b899a4205d8364b1b8d03332f
:105598009ab2344b1a852f4b1b88002b20d1304be5
:1055a8001b88002b1cd003f025ff0346fb80fb88db
:1055b80003f40063002b0cd1254b1a88234b1b885e
:1055c8009a421ad8224b1b8801339ab2204b1a8070
:1055d80013e01f4b00221a80224b00221a850ce090
:1055e8001b4b1a88194b1b889a4207d8184b1b88e3
:1055f80001339ab2164b1a8000e000bf04f034fb66
:10560800104b1b78002b12d0174b1b88002b0ed089
:10561800154b1a880c4b1b889a4208d102f05eff82
:10562800114b1b88012b02d1074b00221a8003f073
:105638009bfb00bf0837bd4680bd00bfe0010020ce
:10564800150200201c020020e40100200c020020aa
:1056580020020020dc010020280300203c28002034
:0c5668000a020020e402002006020020dc
:020000040000fa
:1056740080b586b000af00237b82444b00221a60c1
:10568400434b00221a60434b00221a60424b002213
:105694001a60424b00221a60414b00221a60414baf
:1056a40000221a60404b00221a60404b00221a600c
:1056b4003f4b00221a60fff761fcfff77bfe3d4b76
:1056c40001221a703c4b00221a703c4b00221a60d3
:1056d4003b4b00221a603b4b00221a600023fb6004
:1056e40000237b610023bb6030e007f10c0304223c
:1056f4004ff41161184603f06bff07f1080304220d
:105704004ff41161184603f063fffa68bb689a42cc
:1057140004d8ba68fb68d31abb6004e0ba68fb68b3
:10572400d31a013bbb60274b1b68002b03d1bb681a
:10573400244a136007e0234b1a68bb689a4202d9d3
:10574400bb68204a13607b6901337b617b69b3f5d5
:105754007a7fcad300237b603b1d04224ff4a061ef
:10576400184601f08ffa7b687b607b6803f4800342
:10577400002b03d0144b08221a8002e0124b04229f
:105784001a807b8a18461837bd4680bde400002085
:10579400e8000020a8010020d8000020ac0100206f
:1057a4004801002040010020b4010020a401002091
:1057b4004c01002039280020dc000020e0000020fb
:0c57c40054010020f000002046010020ed
:020000040000fa
:1057d00080b582b000af464b00221a70002003f063
:1057e000adfe012003f0aafe424b1b68002b04d043
:1057f000404b1b68184605f0b7f83f4b1b68002b61
:105800000ad03d4b1a683b4b1b689a4204d03a4b76
:105810001b68184605f0a8f8384b1b68002b10d001
:10582000364b1a68334b1b689a420ad0334b1a68be
:10583000314b1b689a4204d0304b1b68184605f068
:1058400093f801f037fe04f0fbfc2d4b00221a60a8
:10585000284b00221a60294b00221a60264b002296
:105860001a60284b00221a7000233b603b4604223a
:1058700040f60c01184601f007fa3b6823f000736c
:105880003b603b46042240f60c01184601f008f943
:105890001d4b00221a701d4b00221a701c4b002257
:1058a0001a701c4b00221a701b4b00221a701b48e6
:1058b00003f0f7fc78607b68002b02d0786805f075
:1058c00053f87b68002bf2d1154803f0eafc7860ae
:1058d0007b68002b02d0786805f046f87b68002bc7
:1058e000f2d102f0e9fa00bf0837bd4680bd00bf23
:1058f000be020020e0020020c4020020cc020020f2
:10590000d4020020dc020020bd020020d0020020d2
:10591000d9020020d8020020500200208802002076
:04592000540200200d
:020000040000fa
:1059240080b5adf5005d84b000af07f110030c3b0a
:1059340018600a4607f110030d3b1a70002307f59f
:10594400005202f10c021360002307f5005202f129
:105954000802136004f02efd034603f01003002b2d
:1059640007d14ff43e2307f5005202f10c021360f5
:1059740006e04ff4783307f5005202f10c0213608d
:1059840000bf04f0c7fc0346002bfad107f1100353
:10599400083b07f5005202f10c0212684ff4006153
:1059a400184604f0a9fd07f110030c3b07f11000a1
:1059b40008384ff40062196804f09afe07f11003e6
:1059c4000d3b1a7807f11003083b9a7307f1100393
:1059d4000c3b07f11002083a1a6007f5005303f173
:1059e4000c03186804f0b2fa002307f5005202f120
:1059f4000802136031e007f110030c3b07f5005275
