:020000040000fa
:10000000f0ff0320a97e000073930000939c000082
:10001000c3a7000033a8000083ab0000000000006d
:10002000000000000000000000000000035e00006f
:10003000a79f000000000000035e000095a60000de
:10004000035e0000035e0000035e0000035e00002c
:10005000035e0000035e0000035e0000035e00001c
:10006000035e0000035e0000035e0000035e00000c
:10007000a1a30000c1a30000035e0000035e000016
:10008000035e0000035e0000035e0000e1a30000c9
:10009000035e0000035e0000035e0000035e0000dc
:1000a000035e0000035e0000035e0000035e0000cc
:1000b000035e0000035e0000035e0000035e0000bc
:1000c000035e0000035e0000035e0000035e0000ac
:1000d000035e0000035e0000035e0000035e00009c
:1000e000035e0000035e000000000000000000004e
:1000f00000000000035e0000c1650000c165000053
:10010000c1650000c1650000035e0000035e0000e1
:10011000035e0000035e0000035e0000035e00005b
:10012000035e0000035e0000035e0000035e00004b
:10013000035e0000035e0000054a0000054a00005f
:10014000054a0000054a0000035e0000035e00004f
:10015000035e0000035e00000000000000000000dd
:10016000000000000000000000000000000000008f
:10017000000000000000000000000000000000007f
:10018000035e0000035e0000035e0000035e0000eb
:10019000035e0000035e0000035e0000035e0000db
:1001a000035e0000035e0000035e0000035e0000cb
:1001b000035e0000035e0000035e0000035e0000bb
:1001c000035e0000035e0000035e0000035e0000ab
:1001d000035e0000035e0000035e0000035e00009b
:1001e000035e0000035e0000035e0000035e00008b
:1001f000035e0000035e0000035e0000035e00007b
:10020000035e00000000000000000000035e00002c
:10021000035e0000035e0000035e0000035e00005a
:10022000035e0000035e0000035e0000035e00004a
:10023000035e0000035e0000035e0000035e00003a
:10024000035e0000035e0000035e0000035e00002a
:10025000035e0000035e0000035e0000035e00001a
:020000040000fa
:10026000f8b500bff8bc08bc9e467047e196000098
:10027000f8b500bff8bc08bc9e467047bd960000ac
:020000040000fa
:08028000803c000001000000b9
:020000040000fa
:100288006c2a00201c000000000000000000002074
:10029800c0000000000000009e2a002002000000ac
:1002a800000000003c2b00200400000000000000bb
:1002b8006e2b00200200000000000000762b0020ba
:1002c80002000000000000007e2b00200200000059
:1002d80000000000c22b0020020000000000000007
:1002e8004b2a00200100000000000000c62b00205f
:1002f8000200000000000000da2a002002000000ce
:1003080000000000672b0020010000000100000031
:10031800b1000000cc2b0020030000000100000009
:100328008a518a00cb2b0020010000000100000048
:10033800f1000000d92a002001000000010000009f
:10034800cf000000ed2a002001000000010000009d
:100358005f000000fd2a00200100000001000000ed
:1003680020000000fe2a002001000000010000001b
:1003780012000000ff2a0020010000000100000018
:1003880032000000cf2b0020010000000100000017
:1003980001000000d02b0020010000000100000037
:1003a80032000000d12b00200100000001000000f5
:1003b80080000000d22b0020010000000100000096
:1003c80005000000c82b0020030000000100000009
:1003d800a0b55500c42b0020020000000100000059
:1003e800106f0000c02b0020020000000100000078
:1003f800005f0000d32b0020010000000000000077
:10040800c00000202c00000000000000ec000020cc
:1004180030000000000000001c0100200c0000005b
:1004280000000000442900208000000000000000b7
:10043800d42b00200100000000000000242a002026
:10044800270000000100000000000001000001007a
:10045800000200000100000400000000000000008d
:100468000000000000000000000300000100000080
:10047800280100200200000000000000802b00205e
:100488000400000000000000ee2a00200200000026
:1004980000000000402b00200800000000000000c1
:1004a80020260020b8010000010000000000000024
:1004b800000000000016210007090000289e000027
:1004c800a48300004c2a0020000000000000000067
:1004d80000000000000000000000000001162100dc
:1004e8000409000060a40000fc8f0000b42a00206a
:1004f80000000000000000000000000000000000f4
:1005080000000000001a210002090000e8a800000d
:10051800449b0000242b0020000000000000000085
:10052800000000000000000000000000021a210086
:1005380001090000acaa0000f89d0000502b002023
:1005480000000000000000000000000000000000a3
:1005580000000000121c060002080000c4aa0000e7
:10056800b0a60000702b0020000000000000000072
:10057800000000000000000000000000131c06003e
:1005880002080000d0aa0000cca60000782b0020aa
:100598000000000000000000000000000000000053
:1005a8000000000000602a0002090000fca800000a
:1005b80060a20000182b00200000000000000000ce
:1005c80000000000000000000000000021602a0078
:1005d80001090000dcaa0000c4a70000482b002085
:1005e8000000000000000000000000000000000003
:1005f8000000000010702a000409000080a4000018
:1006080030a10000302b0020000000000000000096
:1006180000000000000000000000000000802a0028
:1006280007090000589e00001c8c00000c2b0020bd
:1006380000000000000000000000000000000000b2
:1006480000000000ffff00000000000000000000a4
:100658000000000000000000000000000000000092
:100668000000000040240020e0010000010000001c
:100678000000000000000000001007000007000054
:1006880084ab000094aa00008c2b0020000000001e
:100698000000000000000000000000000000000052
:1006a80001100500000700008cab0000c4a9000081
:1006b800ee2a0020000000000000000000000000fa
:1006c80000000000000000000810090000070000fa
:1006d80094ab0000a0aa0000882a002000000000b7
:1006e8000000000000000000000000000000000002
:1006f80009100900000700009cab000084a8000056
:10070800842b002000000000000000000000000012
:1007180000000000000000000a10090000070000a7
:10072800a4ab000098a80000882b0020000000005f
:1007380000000000000000000000000000000000b1
:10074800181023000409000040a40000f8980000d5
:10075800a02a0020000000000000000000000000a7
:100768000000000000000000f1102a00020900004b
:10077800d4a80000fc970000002b00200000000017
:100788000000000000000000000000000000000061
:10079800f8101b0000070000acab0000aca800007c
:1007a800402b0020b1950000000000000000000070
:1007b8000000000000000000001c05000408000004
:1007c800b8aa0000c0a80000682b002000000000a4
:1007d8000000000000000000000000000000000011
:1007e800321c290020090000b0710000045e0000de
:1007f800840300200000000000000000000000004a
:100808000000000000000000331c2900200900003f
:10081800b0710000045f00004003002000000000e9
:1008280000000000000000000000000000000000c0
:10083800ffff0000000000000000000000000000b2
:1008480000000000000000000000000000000000a0
:10085800882a0020160000000100000053414d4581
:10086800353320457468657243415420536c617672
:1008780065000000842b0020040000000100000037
:10088800312e3000882b00200400000001000000f9
:10089800302e3900a02a00201400000001000000ba
:1008a80004000000d8040000559200000100000078
:1008b80001000000682b0020060000000100000075
:1008c80004000102030400008c2b00200400000037
:1008d80001000000891300002c010020080000001e
:1008e80000000000d52b00200100000000000000df
:1008f80034010020e0000000000000001402002085
:10090800040000000000000018020020160000008b
:1009180000000000d62b00200100000000000000ad
:10092800902b00200400000000000000300200208e
:10093800520000000000000084020020280000008f
:1009480000000000ac02002094000000000000003d
:10095800f02a00200d0000000100000053756249d4
:100968006e6465782030303000000000002b0020d5
:100978000c0000000100000002000000010000005f
:1009880004000000400300208e000000000000006a
:10099800d72b00200100000000000000d82b002009
:1009a8000100000000000000942b0020040000005b
:1009b80000000000982b0020040000000000000048
:1009c8009c2b00200400000000000000a02b002049
:1009d8000400000000000000a42b00200400000018
:1009e800000000000c2b00200c000000010000009b
:1009f8000500000096000000000100004c2a0020bd
:100a08002000000001000000070000002001008015
:100a180008020080010300800104008001050080b5
:100a28000500000010000000182b00200c0000003a
:100a380001000000020000000000000000000000ab
:100a4800242b00200c000000010000000200000020
:100a58002001006020020060302b00200c00000004
:100a6800010000000200000000000000000000007b
:100a7800b42a002014000000010000000400000057
:100a8800200110700802107008000000100000001b
:100a9800482b0020080000000100000001000000b1
:100aa80000000000502b002008000000010000009a
:100ab8000100000020012160a82b00200400000094
:100ac8000100000001000000702b0020060000005b
:100ad800010000000200001601160000782b00201b
:100ae80006000000010000000200001a021a0000bf
:100af800582b002008000000010000000100000041
:100b080080250000ac2b002004000000010000003c
:100b180001000000d00300201620000000000000a3
:100b2800d92b00200100000000000000e82300206d
:100b38004d00000000000000da2b0020010000003a
:100b480000000000db2b0020010000000100000075
:100b580001000000602b00200700000001000000d9
:100b680048656c6c6f2c0000c82a0020110000003a
:100b78000100000074686973206973207468652037
:100b880064656d6f00000000dc2a00201100000081
:100b980001000000666f72204f4c454420432063db
:100ba8006c69636b0000000038240020010000001d
:100bb80000000000b02b002004000000000000002e
:100bc800b42b00200400000000000000b82b002017
:100bd8000400000001000000c4290020c4290020ee
:100be800600000000100000000000000a0a5000057
:100bf800c0a5000080a50000000000000000000063
:100c080000000000000000000000000000000000dc
:100c180000000000000000000000000000000000cc
:100c280000000000000000000000000000000000bc
:100c380000000000000000000000000000000000ac
:100c480000000000000000003c2400200400000018
:100c580000000000d82700206c01000001000000ff
:100c68004300000000000000000000000000000039
:100c7800000000000000000000000000000000006c
:100c88004300000000000000000000000000000019
:100c9800000000000000000000000000000000004c
:100ca80043000000000000000000000000000000f9
:100cb800000000000000000000000000000000002c
:100cc80043000000000000000000000000000000d9
:100cd800000000000000000000000000000000000c
:100ce80043000000000000000000000000000000b9
:100cf80000000000000000000000000000000000ec
:100d08004300000000000000000000000000000098
:100d180000000000000000000000000000000000cb
:100d28004300000000000000000000000000000078
:100d380000000000000000000000000000000000ab
:100d480091a7000085a2000000000000005d0000df
:100d580045ab000044ab000044ab000044ab0000ce
:100d680044ab000044ab000044ab000044ab0000bf
:100d780044ab000044ab0000ffffffffffffffff95
:100d8800ffffffffffff00000100415343494900f7
:100d9800000000000000000000000000000000004b
:100da80000000000000000000000415343494900d2
:100db800000000000000000000000000000000002b
:100dc800000000000000000000000000bc2b002014
:100dd8000400000000000000000000000000000007
:020000040000fa
:100de8002de9f0414ff6ff72b44b1a800122b44b43
:100df8001a7010f0100736d0b24a137823f0100397
:100e0800137001270e4600f00f05ae4b1c7805eb5a
:100e1800041404f0ff04442c0fd000f2f082222cba
:100e280000f0e78240f2e481242c40f0df82a649fa
:100e3800a64804f05bfe804648b9a54b187803f035
:100e4800ddfa1ffa80f8b8f1000f00f03b839d4be4
:100e58001b78042b00f05a81082b00f05381022bd9
:100e680040f05e8156e1974b1b7813f0100f05d0c8
:100e780000f00f02012a01d0bde8f08103f00f0352
:100e8800904a1370bee70122924b1a70022003f0b9
:100e9800b5fa28b100228f4b1a704ff0150842e1bd
:100ea800002008f067fe06f0bffb804678b1b8f175
:100eb800ff0f00f00484824b1b78bbb104f0f8fbf1
:100ec800032009f0abfe0022824b1a702be10022ae
:100ed8007b4b1a7009f084fe80460028e7d1012276
:100ee8007d4b1a70032009f099fe1ce109f028fed9
:100ef800e4e7784b1b7843b94ff0000809f08ffe00
:100f08000022764b1a703123aee00020714b187026
:100f180008f030fe04f0ccfb09f012fe8046ede745
:100f280008f0aeff6e4b1b78002b00f0c58306f06f
:100f38007bfb804648b1b8f1ff0f00f0cd83604bd2
:100f48001b7873b104f0b4fbede000225c4b1a701f
:100f580009f046fe80460028edd101225e4b1a704a
:100f6800e1e009f0edfdede701f022fb804648b134
:100f7800b8f1ff0f00f05182514b1b789bb105f07f
:100f8800cbfdd0e000224e4b1a70564809f02afedd
:100f980080460028ecd1534b188808f007fe012240
:100fa800514b1a70bfe009f01ffee8e708f01cf982
:100fb800804648b1b8f1ff0f00f03682404b1b78ed
:100fc80073b109f0abfcaee000223d4b1a7009f09a
:100fd8000dfe80460028edd10122444b1a70a2e094
:100fe80009f006feede709f003fe09f097fc4ff063
:100ff8000008334b83f8008095e009f0f9fd80463e
:1010080009f08cfc00222e4b1a70b8f1000f40f04a
:10101800168209f0e9fd05f07ffd4ff00008284b26
:1010280083f800807fe009f0e3fd804609f076fc54
:101038000022234b1a70b8f1000f40f0028209f029
:10104800d3fd804605f068fd00221d4b1a70b8f1eb
:10105800000f40f0f88104f02bfb09f071fd804689
:1010680000221e4b1a702123b8f1ff0f5bd101211a
:101078001f4a11701f4a1380c822104b1a8084e03f
:101088000022164b1a7077b90e4b1b7813f00c0f11
:1010980000f0cf810c4b1b884bb90c4b1b885bbbfa
:1010a8004ff0fe083fe0204609f0bafdece70220c9
:1010b80008f006fe4ff0fe0835e000bf6e02002083
:1010c8003602002037020020380200206602002085
:1010d8007e020020700200201a030020c8030020ae
:1010e800d62b00204e020020780200207202002039
:1010f8006402002032020020032008f0e1fd4ff0d6
:10110800fe0810e009f074fd09f008fc09f06cfd18
:1011180005f002fdb8f1160f16d00222cb4b1a705b
:10112800b8f1ff0f21d0c94b187800f00f03ab427c
:1011380057d0b8f1000f40f09381002e40f0bb81ea
:10114800c24b1d70b046ace104f0b2fa09f0f8fced
:10115800002008f07ffd012008f07cfd0122bb4b38
:101168001a70e0e74ff01108dae70122b84b1a705d
:10117800b84b1c80242c18d014d8123c94423ff64b
:101188007baf4ff4fa62b44b1a80b348b0f9003021
:10119800b24981fb0321da17c2eba1029b1a038033
:1011a800bde8f081482c7ff467af42f22832aa4ba1
:1011b8001a80eae74ff01108b5e709f019fd09f0c0
:1011c800adfb56e1022008f045fd5ce1032008f084
:1011d80041fd58e104229d4b1a705de1002eafd00d
:1011e8006de100219a4b197004f0d8f9bde8f0813f
:1011f800122c00f0fe800022964b1a80a4f11103f5
:10120800772b00f2138101a252f823f08910000015
:10121800290f00008f0e00006d110000351400002a
:1012280035140000351400006d110000351400005d
:101238003514000035140000351400003514000082
:101248003514000035140000351400005f1000004c
:101258008f1000006d110000710f000035140000a0
:1012680035140000351400006d110000351400001d
:101278003514000035140000351400003514000042
:10128800351400003514000035140000fb0e000072
:101298006d110000351400006d11000035140000b8
:1012a80035140000351400006d11000035140000dd
:1012b8003514000035140000351400003514000002
:1012c80035140000351400003514000047100000e4
:1012d8001b1000006d1100008f1000003514000075
:1012e8003514000035140000b50f00003514000057
:1012f80035140000351400003514000035140000c2
:1013080035140000351400003514000035140000b1
:1013180035140000351400003514000035140000a1
:101328003514000035140000351400003514000091
:101338003514000035140000351400003514000081
:101348003514000035140000351400003514000071
:101358003514000035140000351400003514000061
:101368003514000035140000351400003514000051
:101378003514000035140000351400003514000041
:101388003514000035140000351400003514000031
:101398003514000035140000351400003514000021
:1013a8003514000035140000351400003514000011
:1013b8003514000035140000351400003514000001
:1013c8003514000035140000351400002f100000fb
:1013d800031000006d110000ef0f0000351400002d
:1013e80035140000351400008f100000422c7ff4e3
:1013f80002af022003f002f81ffa80f823e5822cde
:10140800f7d006d9842c3ff418ad882c3ff415addd
:10141800f1e6482c3ff411adede6242201210c4bf6
:1014280019700c4b1a80c0e64822f7e74ff01208f3
:1014380079e64ff0fe0876e64ff0120873e682234d
:1014480012e6812310e641230ee600bf3702002092
:1014580064020020320200206e0200206766666681
:10146800284310f0080f12d09f4b1b78002b7ff4f5
:10147800a4ae9e4b1b88002b7ff4a4ae9c4b1b880c
:10148800002b7ff4a3aeb8f1000f3ff4a7ae994b41
:101498001b78082b3ff49eae964a137843f010034e
:1014a80013700022944b1a704146924b187804f03e
:1014b80075f8bde8f081284310f0080fd4d145f045
:1014c80010053de600228d4b1a80a4f11103772bfd
:1014d800b2d801a252f823f089100000290f0000a9
:1014e8008f0e0000bd1100004114000041140000df
:1014f80041140000bd110000411400004114000017
:10150800411400004114000041140000411400007f
:1015180041140000411400005f1000008f1000000b
:10152800bd110000710f00004114000041140000bb
:1015380041140000bd1100004114000041140000d6
:10154800411400004114000041140000411400003f
:101558004114000041140000fb0e0000bd11000002
:1015680041140000bd1100004114000041140000a6
:1015780041140000bd110000411400004114000096
:1015880041140000411400004114000041140000ff
:101598004114000041140000471000001b10000017
:1015a800bd1100008f10000041140000411400001c
:1015b80041140000b50f0000411400004114000060
:1015c80041140000411400004114000041140000bf
:1015d80041140000411400004114000041140000af
:1015e800411400004114000041140000411400009f
:1015f800411400004114000041140000411400008f
:10160800411400004114000041140000411400007e
:10161800411400004114000041140000411400006e
:10162800411400004114000041140000411400005e
:10163800411400004114000041140000411400004e
:10164800411400004114000041140000411400003e
:10165800411400004114000041140000411400002e
:10166800411400004114000041140000411400001e
:10167800411400004114000041140000411400000e
:1016880041140000411400004114000041140000fe
:1016980041140000411400002f1000000310000046
:1016a800bd110000ef0f00004114000041140000bc
:1016b800411400008f1000004ff0510833e503205b
:1016c80009f0acfa00220e4b1a7001220a4b1a706c
:1016d80013220a4b1a8054e50122074b1a70122272
:1016e800064b1a804de500bf720200203802002028
:1016f8006602002037020020640200203202002027
:04170800700200204b
:020000040000fa
:10170c002de9f04f89b0a54b1c7824b10924204653
:10171c0009b0bde8f08f0546b0f808805ffa88f78d
:10172c0007f0e006202e27d01ad9402e24d0602ea8
:10173c0018d19b4b1b78b34200f0d1814ff00009bc
:10174c00cdf808904ff0030a0195029b00931ffa05
:10175c0089f307f010023146504604f0c1fdd6e77c
:10176c00002ee6d04ff00009cdf808904ff0030a98
:10177c00baf1ff0fcbd0e7e7b5f800a0b5f80ab087
:10178c004fea182303eb0b239bb203934fea1b2b5b
:10179c00184608f0affe0490002800f0a283037beb
:1017ac009b4506d94ff00009cdf808904ff0110a6f
:1017bc00cae707f01003059302465946039806f052
:1017cc0003fc0290402e0fd0202e2bd00694ddf877
:1017dc00089000230793059b002b56d0bbf1010ffb
:1017ec0051d94ff0050aafe7baf10a0f01d008241e
:1017fc008de7431e032b08d805f10c030793002338
:10180c00ab81eb8106948146e5e7664b1b88a3f11f
:10181c001009029b4b4500f2448305f1100307931a
:10182c000694d8e717f0020f0dd0baf10a0f01d0c9
:10183c0008246ce7c7f38103c3f1040905f10c0319
:10184c0007930694c7e7ea89ab8903eb0249564b29
:10185c001b8809f110029a4204d9063b9a4507d01d
:10186c00082454e709f10a039a4501d008244ee7ed
:10187c0005f110030793aaf10a03994594bf0023bd
:10188c0001230693a7e701230593069b002b42d166
:10189c00029b4bb9454bbdf80c201a80444b83f886
:1018ac0000b0444b049a1a60402e00f0e380059b74
:1018bc000193079b0093049b4a465946039801f0f9
:1018cc00a7f98246ff287ff43faf01233a4a1370f1
:1018dc003a4a9df814101170394a82f800b0394a0e
:1018ec00bdf80c101180384ac2f80090374a07999d
:1018fc001160049a116a364a1160284a1370354bec
:10190c001d602b8923f0ff0308f0f00843ea08035d
:10191c002b81069cfbe601232f4a13702f4a137070
:10192c002f4b9df814201a70204bbdf80c201a80f8
:10193c001f4b83f800b01f4b049a1a60402e294ba2
:10194c0006bf029a1a60c3f80090274b186808b1ba
:10195c0009f04af8234b1868013020f0010009f017
:10196c003bf8214b186080b1402e41d0aaf10a09f6
:10197c004a4605f1100108f037ff0022084b1a7097
:10198c00a2461a4bc3f80090f2e6059b002b14bf3d
:10199c004ff0050a4ff0040ad6e600bfd92b002001
:1019ac0003240020240300203603002018240020e8
:1019bc00302400202c2400200024002001240020ae
:1019cc00342400203224002010240020ec2300209a
:1019dc00fc2300200c240020f523002002240020ee
:1019ec00f4230020f823002014240020f0230020ee
:1019fc00059b01930090049b029a5946039801f0b1
:101a0c008ffb824658b3ff28bbd10422b84b1a7007
:101a1c00b84b9df814201a70b74b83f800b0b74b35
:101a2c00bdf80c201a80b64b029a1a60b54b1a6896
:101a3c00b54b1a60049bda69b44b1a600122b44ba3
:101a4c001a70b44b1d602b8923f0ff0308f0f008cb
:101a5c0043ea08032b816022af4b1a7057e64a46c3
:101a6c00a84b196805f1100008f0befe6022aa4bc5
:101a7c001a7086e7059b0193079b0093049b029abf
:101a8c005946039801f04cfb8246ff287ff45cae6c
:101a9c000322974b1a70974b9df814201a70964b93
:101aac0083f800b0954bbdf80c201a80944b029a29
:101abc001a60954b079a1a60049bda69934b1a606b
:101acc000122934b1a70934b1d602b8923f0ff035b
:101adc0008f0f00843ea08032b81069c17e6002e59
:101aec0040f03d818d4b1a7808f010039a4200f0bb
:101afc00f2818b4b1b88093b9bb207f01002874984
:101b0c000a70804a1068002800f0e881854a116844
:101b1c00854a1268521a18f0010f1ad09a4200f234
:101b2c00c5812b88033b9a4200f2c0816fea680e94
:101b3c000ef0070e724505d0072a40f2b7819a4283
:101b4c0040f0b4814ff0000e784b83f800e09146e2
:101b5c0009e04ff0010cdff8d4e18ef800c0994693
:101b6c009a4240f2a38111f0010f4ed149086a89c3
:101b7c004fea182343ea022320f8113009f101003f
:101b8c00400801281ad901218846dff898c1dff8ee
:101b9c0074e105eb4102dcf8003008eb5308b2f8b5
:101bac0008a053891b0243ea1a23def8002022f80e
:101bbc001830013189b288468142ead35b4b93f8e5
:101bcc000080b8f1000f41d00a232b7000236b70fa
:101bdc00eb88c3f30b0343f44053eb804f4b1b7860
:101bec00002b00f0ad8030232b7200236b724f4b17
:101bfc001b78012b00f0a98000234a4a1360464a47
:101c0c001370b246994602939ee5490810f81130bc
:101c1c0020f811303b49434802685208d1f800e0e3
:101c2c002b8923f0ff033ef812c043ea0c032ef875
:101c3c001230036823f001030233086809f1ff3204
:101c4c0005f10a01184408f0cffdb7e7384bd3f87b
:101c5c0000c0354a12683749097837480088dff8e0
:101c6c00dce09ef800e0cdf804e0dff898e0def868
:101c7c0000300093634600f0cbff8246ff2829d149
:101c8c0002221b4b1a702d4b1a781a4b1a70294bc7
:101c9c001a78194b1a70284b1a88184b1a80224b39
:101cac001a68174b1a60174b1a68174b1a60204b9f
:101cbc001b681a6a154b1a600122154b1a70154bca
:101ccc001d600023194a1370134a1370154a1360d0
:101cdc0044461ce5dff82c80d8f8000008f084fea0
:101cec000023c8f80030baf1000f3ff46dafdfe00d
:101cfc000024002001240020342400203224002061
:101d0c001024002014240020ec230020fc230020ad
:101d1c00d92b00200c2400200324002002240020b6
:101d2c0036030020f0230020f8230020f5230020a8
:101d3c002c2400203024002018240020f423002020
:101d4c0020232b7200236b7251e76d4a13684b44ae
:101d5c001360b2464ff00009cdf80890f4e42a7aeb
:101d6c0002f01002674b1b78934200f0c180664b67
:101d7c001b88093b9bb263490a709946604a1268fa
:101d8c006249096813448b4286bfa1eb020900210a
:101d9c0001215f4b19705ffa88f8a5f8088012f0e2
:101dac00010354d14fea520e5a4a106830f81e20e3
:101dbc0048ea0228a5f808805fea590c13d00021e4
:101dcc001a46724400eb4203b3f8028030f812302a
:101ddc001b0a05eb410243ea08235381013189b206
:101dec000a468c45edd8eb88c3f30b0343f4405300
:101dfc00eb802b8903f47f432b81454a1278002a10
:101e0c003ad0404a127813432b81b9f1060f3ad8d5
:101e1c000a232b7000236b70c9f107032a8942ea4d
:101e2c0043032b813a4b1b78012b30d0dff8e48035
:101e3c00d8f8000008f0d8fd0023c8f80030304a6c
:101e4c001360354a1370a246994602937ce4314bd9
:101e5c001968520831f8123023f0ff0343ea0808de
:101e6c00a5f8088001eb420109f1ff32023105f1be
:101e7c000a0008f0b9fcb6e7224a127842f00102d7
:101e8c0013432b81c1e709f103032b80cae71c4ada
:101e9c0013684b441360a2464ff00009cdf808902c
:101eac0052e4012306930023079394e44ff00e0aa7
:101ebc000023174a1370184a1370164b186820b178
:101ecc0008f092fd0022134b1a6000230c4a136099
:101edc00994602934ce44ff0010ae9e74ff0030aec
:101eec00e6e74ff00009cdf808904ff0080a2be414
:101efc004ff00009cdf808904ff0010a24e400bf20
:101f0c00f02300200224002024030020f8230020ca
:0c1f1c00f52300201424002003240020e2
:020000040000fa
:101f2800000020007f000d100388010002950100c9
:101f380003a2010007af010005bc01000ac90100a6
:101f480007e3010001f0010003fd0100030a02009c
:101f5800051702000724020002310200033e0200b6
:101f6800024b0200035802000565020004720200d9
:101f7800057f0200058c02000599020005a60200f3
:101f880005b3020005c0020005cd020005da020013
:101f980002e7020002f4020007010300070e030033
:101fa800071b03000428030009350300064f03003c
:101fb800055c030006690300067603000583030039
:101fc80005900300069d030006aa030003b703005b
:101fd80004c4030005d1030004de030007eb03007b
:101fe80006f803000705040005120400071f040093
:101ff800062c0400053904000546040006530400b5
:1020080005600400096d04000587040005940400b8
:1020180005a1040003ae040003bb040003c80400c8
:1020280007d5040006e2040003ef040005fc0400e1
:1020380005090500041605000523050005300500ff
:10204800033d0500054a0500055705000164050024
:1020580002710500057e0500018b05000798050043
:1020680005a5050005b2050005bf050005cc05005e
:1020780003d9050004e6050003f305000500060082
:10208800050d0600071a0600052706000534060098
:1020980004410600044e0600025b060004680600c0
:1020a800077506000382060000000000000000001b
:1020b800000000000000000002020202020200020a
:1020c80000000000050505000000000000000000f9
:1020d800000028287e14143f0a0a000000000404a7
:1020e8001e05050e14140f0404000000000000462d
:1020f800004900290026009001500248028801008a
:10210800000000000000060909262911314e0000d0
:1021180000000101010000000000000000000004b0
:10212800020201010101010202040000010202048d
:1021380004040404020201000004150e1504000042
:1021480000000000000000000808087f08080800d8
:102158000000000000000000000002020201000070
:102168000000000000070000000000000000000060
:102178000000000002020000000004040402020241
:1021880002020101010000000e1111111111110ebe
:102198000000000000040604040404040e0000000b
:1021a80000000e1110080402011f00000000000ebc
:1021b80011100c1010110e0000000000080c0a0984
:1021c8001f08080800000000001f01010f1010116f
:1021d8000e00000000000c02010f1111110e00008a
:1021e8000000001f1008080404020200000000009c
:1021f8000e11110e1111110e00000000000e111128
:10220800111e100806000000000000000202000075
:1022180002020000000000000002020000020202a8
:10222800010000000040300c020c304000000000ab
:10223800000000007f007f00000000000000000296
:102248000c3040300c0200000000000708080402af
:1022580002000200000000000000007c008200393b
:1022680001250125012501f90002003c00000000bc
:1022780000000c0c1212123f212100000000000f78
:1022880011110f1111110f00000000003c02010193
:102298000101023c00000000000f11212121211141
:1022a8000f00000000001f01010f0101011f0000c5
:1022b8000000001f01011f010101010000000000d2
:1022c8003c0201013921223c0000000000212121ab
:1022d8003f21212121000000000007020202020222
:1022e800020700000000000e080808080808070098
:1022f8000000000011090503030509110000000092
:1023080000010101010101010f00000000006363e9
:10231800555549494141000000000023232525293e
:1023280029313100000000001c2241414141221c9a
:1023380000000000000f1111110f01010100000041
:1023480000001c2241414141221c10600000000f86
:102358001111110f09112100000000001e01010eca
:102368001010100f00000000001f040404040404ef
:10237800040000000000212121212121211e00004c
:102388000000001111110a0a0a04040000000000ec
:10239800000000110111011101aa00aa00aa0044bd
:1023a8000044000000000000000011110a04040aa3
:1023b8001111000000000011110a0a0404040400ad
:1023c800000000001f1008040402011f00000000a4
:1023d80007010101010101010101070000010101db
:1023e80002020202020404040000070404040404b4
:1023f800040404040700000008142241000000003f
:1024080000000000000000000000000000003f0085
:1024180000020400000000000000000000000000ae
:10242800000e101e11111e000000000101010f1105
:102438001111110f000000000000000e0101010140
:102448000e000000001010101e111111111e0000c6
:1024580000000000000e111f01110e000000000610
:102468000101070101010101000000000000001e38
:10247800111111111e100e00000101010f1111118f
:10248800111100000000000100010101010101001b
:102498000000000002000302020202020201000022
:1024a80001010109050305091100000000010101ee
:1024b8000101010101010000000000000037494945
:1024c800494949000000000000000f1111111111c5
:1024d800000000000000000e111111110e00000094
:1024e800000000000f111111110f01010000000080
:1024f800001e111111111e1010000000000005032c
:1025080001010101000000000000000e01030c0899
:102518000700000000000101070101010106000099
:10252800000000000011111111111e000000000030
:10253800000011110a0a040400000000000000490c
:10254800495555222200000000000000110a040429
:102558000a110000000000000011110a0a04040218
:102568000200000000000f080402010f0000000034
:10257800080404040403040404040800000202021a
:102588000202020202020202000001020202020c1e
:10259800020202020100000000000046493100006a
:1025a80000000000000705050505050507000000f7
:020000040000fa
:1025b800f0b585b00023029301939a4a94899a4a08
:1025c80095899a4a13809a4a1370022008f0a4f851
:1025d8000268984b1a80436803f00203002b0cbf73
:1025e80003260126032008f097f80368924a13800f
:1025f800426802f00202002a0cbf032201229bb2a9
:102608008e49088800fb02328d4909888a420bdd11
:102618008c4f3f880f44bb4206da0221032003f0a7
:102628006bfd1e2005b0f0bd874f3f88ba4204dd20
:10263800864a12883a449342efdb7e4ab2f800e0b9
:10264800834a128806fb02e6b1420ada7d4a1288fa
:1026580011448e4505da0221084603f04dfd1d2080
:10266800e0e7b74204da794a12881744be45f2db3c
:10267800b34202da03449e45eddb04224ff41861ad
:1026880003a804f0dbf9bdf80c30039304224ff4df
:102698001a6102a804f0d2f9042240f6a4110deb45
:1026a800020004f0cbf9019e5e4b59885e4b5a88b4
:1026b800039b13f4106f00f0748113f4007f01d1b1
:1026c8003020afe72c400bd014f0040f00f05981f4
:1026d80014f0080f04d113f4806f01d03020a1e763
:1026e800029850b14f4d2d69854201d9362099e79e
:1026f800584da84201d9362094e703f4c065b5f5d2
:10270800c06f10d05448007800bb514a1188002986
:1027180052d14a4a1488002c00f0b88113f4806f13
:102728005dd102224be1002eecd08642c0f0378109
:1027380014f0100f01d1302074e70120464c2478a2
:10274800002ce2d013f4806f04d038e113f4806fca
:102758000ad10020032900f01a81032a00f0198108
:1027680013f4007f04d03be013f4007f30d1002045
:10277800022900f01081022a00f00f81032900f0dd
:1027880021810c460ee0324b1c8834b12b4b1a8841
:10279800002a40f03281012404e0284b1a880032d4
:1027a80018bf01222d4b1b78002b40f07581002c9f
:1027b80040f01481292035e7002840f013811f4a92
:1027c80012887ab113f4806f04d10222114607e00f
:1027d8000020f4e003220221f1e00322f2e00322c8
:1027e800022908d1029b0f494b624b600e494b628c
:1027f8004b600224eee00c46d4e70120184a108012
:10280800b1fbf3f082b2174c228003fb1013002bac
:1028180000f0c8810132134b1a80c3e10121104b2b
:102828001980bae184030020400300204e020020f2
:102838006c02002044020020800200206602002072
:102848002e030020240300201c0300203603002050
:1028580038020020000050c3c803002030020020c6
:10286800680200206202002004a8002340f8103dfe
:1028780004224ff4806104f0e1f8009b9ab2cab1d7
:102888000232a3b246f2a71102fb0313db08904af7
:10289800a2fb03231b0a8f4a138000228e4b1a8047
:1028a8008c4b1b88002b00f093818c4b1b782bb929
:1028b8001f20b7e60022874b1a80eee7884b1b786b
:1028c8003bb1884b1b8823b1874a138843f4806344
:1028d80013800023854a1380854a1380854a138014
:1028e800854a1380854a1370854a1370854a138078
:1028f800854a1385538582f84030844a1385538569
:1029080082f84030039a12f4007f18d00299002907
:1029180000f0a3804b097e48a0fb0303db09042bce
:1029280017d80120714b188012f4806f07d0019bd3
:10293800994240f297806d4b1a886f4b1a80694b09
:102948001b88b3b9734b1b88bbb905f0e5fe0020a3
:1029580068e65b009bb27048a0fb0303db08634892
:102968000380e1e75b000a22b3fbf2f3624a1380bb
:1029780084e0022007f0a4f9e4e7032007f0a0f9b7
:10298800e3e730204ee630204ce630204ae630209f
:1029980048e6302046e6302044e6302042e6002073
:1029a800cce65e4b187800283ff4edae8b1e9bb248
:1029b800012be8d9931e9bb2012be6d900200329ed
:1029c8007ff40eaf029b51494b624b604e494b62fc
:1029d8004b600324524b1b78002b60d1002a5ed138
:1029e80029201fe64b4a1288002aebd013f4806f87
:1029f8007ff4f3ae02220321e1e722220124d1e68b
:102a0800374b1b78002b40f0978000233f494b80c1
:102a18003d494b8043490b8043490b8043490b8018
:102a280043490b80012840f0b880029bf1189e4270
:102a3800fff4e3aeb1fbf3f082b203fb10134bb922
:102a4800511c3a4b1980374b1a80abe00121394ba6
:102a580019708ce0354b1a80dce612f4806f3ff475
:102a68006eaf019b0b445b09294aa2fb0323db09d8
:102a7800042b3ff677af01221f4b1a801e4a1b4bcf
:102a88001988138803eb5103138058e7244b1b78ec
:102a98000bb92920c6e522460cb9002ab0d001217d
:102aa8000f4b19700f4b1b88002b4ad04ff48061d5
:102ab8000d4b1980a31e9bb2012b4ed801211d4b33
:102ac800197057e04ff48061074b1980144644e0b1
:102ad80089b5f81476020020340200207a0200201a
:102ae80079020020380200204e0200204602002011
:102af8003c020020740200204c02002050020020fa
:102b08006d0200204a0200204003002084030020b8
:102b1800c55a7c0a66020020cdccccccc803002064
:102b280030020020620200204002002068020020db
:102b38007c02002071020020294b1c88002cc1d186
:102b48002246284b1b881bb14ff40061264b198085
:102b5800a31e9bb2012b7ff679af931e9bb2012b6c
:102b680008d80121214b19701d4b1b8813b900216e
:102b78001d4b19801e4b5c801e4b5a8000231e493a
:102b88000b801e490b801e490b801e490b800128b3
:102b98003ff44baf022c3ff441ae032a02d001228e
:102ba800154b1a800023184a138004a840f8103dda
:102bb80004224ff4846103f041ff009c084b1b88fa
:102bc8001bb1a3b2002b7ff44fae00220f4b1a802b
:102bd8000f4b1b78002b3ff471ae1f2022e500bf7e
:102be80038020020660200204e02002071020020f8
:102bf80084030020400300206202002040020020dd
:102c0800680200207c020020cc030020760200200d
:042c18007a0200201c
:020000040000fa
:102c1c002de9f04f8bb004900c4616461d46ddf89e
:102c2c0050809df854b01ffa81fa9b89c3f303229c
:102c3c000692dbb20593072a00f03e821946ab6977
:102c4c0093f80090b9f1000f40f04182a0f5e053e9
:102c5c00103b9bb21f2b40f23882a0f5b0539bb2b5
:102c6c00b3f5007fc0f04082a0f5d0539bb2b3f512
:102c7c00007fc0f03c824ff23003984208bf894677
:102c8c0025e2f4b90eb198f80090079439e021468a
:102c9c00284607f05dfb8288b24b1b7803f00e03cd
:102cac0013eaa2030bd112f0380f02d01a230393ac
:102cbc0016e2002a0cbf05230723039310e25cb332
:102ccc00d1460499a1f5e053103b9bb21f2b12d9ae
:102cdc00a1f5b0539bb2b3f5007f0cd3a1f5d05343
:102cec009bb2b3f5007f06d34ff23003994202d06a
:102cfc000023079305e0ab691b78003318bf012351
:102d0c0007932f6a5fb1cdf800b043463246214697
:102d1c000498b8470390e3e1d1460794f1e7002efd
:102d2c0000f0a081ca4500f2a0815446072303930a
:102d3c0000230893049ba3f5e053103b9bb209932b
:102d4c0031e1102a40d0202a40f05c8110f00f0fa6
:102d5c0040f0a081079b5bb13288b8f800309a42f2
:102d6c0040f09b817288b8f802309a4240f098810a
:102d7c00b8f800303380b8f80230738008f10408da
:102d8c00012308930be1022b17d8002b40f0918004
:102d9c00bbf1000f00f06f817b8813f00f0f05d093
:102dac00184410f00f0f08bf08f10208c3f3031307
:102dbc0008eb430801230893f1e0032b04d0042b08
:102dcc00c4d073e0072bc1d210f00f0f40f0598123
:102ddc00b8f80070079b1bb13388bb4240f054819c
:102dec00099b1f2b0ed8a7f5b0539bb2b3f5007ff0
:102dfc0008d3a7f5d0539bb2b3f5007f02d3002fb5
:102e0c0040f04581049ba3f5e153123b9bb2012b8f
:102e1c007bd9378008f1020801230893bfe00b2b04
:102e2c002bd943e02d2b44d021d81e2b41d018d8c0
:102e3c00152b01d01b2b39d110f00f0f40f0338123
:102e4c00b8f800303380b8f802307380b8f804302a
:102e5c00b380b8f80630f38008f108080123089312
:102e6c009de01f2bb0d0202b3ff470af1ee0372b12
:102e7c0015d9a3f51873032b18d810f00f0f40f0c9
:102e8c0018817a880732d2104146304607f0acfce4
:102e9c007b881b0908eb4308012308937fe0302b48
:102eac0007d22e2b90d02f2b3ff450af1823039327
:102ebc0016e17a882c4b33f8122000f00f0e02fa30
:102ecc000ef1338823ea01031bb2bbf1000f10d0c3
:102edc00b8f8002011400b439bb233807b88184418
:102eec0010f00f0f40f0b48008f102080123089392
:102efc0055e0b8f8001031ea020c40f0bf800a40ef
:102f0c0002fa0ef213439bb2e7e7012c1bd0082cfc
:102f1c007ff47faf154a002353611549116153604b
:102f2c00144a53611161536017f0020f3ff471aff3
:102f3c000e4a5385138582f840300e4a538513850b
:102f4c0082f8403065e73388bb4207d03946049895
:102f5c0002f0d6f80390002840f0c2800122064b04
:102f6c001a7056e73702002020a5000084030020c9
:102f7c00a086010040030020c8030020002c62d072
:102f8c007b8813f00f0f05d0184410f00f0f08bffb
:102f9c0008f102081b0908eb4308182303930134ba
:102fac00a4b24c4557d8e6b23146284607f0d0f9c2
:102fbc0007462946304603f05bff584b1b7803f05d
:102fcc000e03ba8813eaa203d8d0ae69002c00f025
:102fdc009180c0f30f1306eb4306a24507d0bbf15b
:102fec00000fdcd0a245dad8002c00f087803b889b
:102ffc00b3f5e06f06d37a88082a3ff6a2ae02f149
:10300c002f039bb2112b3ff417af3ff60baf052be1
:10301c003ff44faf7ff6b7ae082b7ff6d3ae092b3c
:10302c007ff4fdae10f00f0f40d17a880732d2102a
:10303c004146304607f0d8fb7b881b0908eb430858
:10304c0001230893abe708f1020818230393a6e7c2
:10305c0001230893a3e7089b002b039b18bf0023b5
:10306c0003933de0002303933ae00723039337e0f7
:10307c001323039334e01823039331e012230393b7
:10308c002ee0052303932be01c23039328e012234b
:10309c00039325e00523039322e01c2303931fe0f5
:1030ac001c2303931ce00523039319e005230393ce
:1030bc0016e00523039313e0bbf1000f02d00523a8
:1030cc0003930de04ff0000905e0ddf81490bbf11f
:1030dc00000f7ff4d6adca457ff6d9ad112303930b
:1030ec0003980bb0bde8f08fddf81490efe7ddf836
:1030fc001490ece7baf1000f7ff471af069b072b2d
:10310c003ff475afb8f80030dab205999142afd3fd
:10311c00338008f102080123089340e737020020ae
:020000040000fa
:10312c002de9f04f89b00590049115469946129cf3
:10313c009df84ca01ffa81fb9f89c7f30328ffb2af
:10314c00b8f1070f00f0bc81b0f5805fc0f0bf8113
:10315c00d9f818301f78baf1000f1fd1bb4505d92b
:10316c0011230293029809b0bde8f08f04994846e8
:10317c0007f0eef8838813b905230293f2e79a4a15
:10318c00127802f00e0212ea430214d103f0070384
:10319c00002b0cbf06231a230293e3e70697d9f8fa
:1031ac001c605eb1cdf800a023462a460499059810
:1031bc00b0470290d6e706975f46f0e7059bb3f55c
:1031cc00805f04d2049b93b902935e4605e05f4591
:1031dc000ad35e46002302930493cdf81c80cdf8ed
:1031ec000c90ddf814901ee100230293bae7049ec4
:1031fc003146484607f0acf843880733db109db2e4
:10320c0006f1804b0bf1ff3bd9f8182052f82b102c
:10321c0011f0010f25d021f0010632466b0811d0b8
:10322c00013b9bb201335f00e01931460b881b0a4e
:10323c00238031f8022f43ea022324f8023ba042f8
:10324c00f4d1f21915f0010f00f02581238803f455
:10325c007f432380128843ea1223238000230293a6
:10326c0080e70a8822804a8862809bb21a1f043148
:10327c00201d07f0b9fa0023029373e7079b072b75
:10328c0000f04581bdf8183024f8023bc7e0bef1d0
:10329c00100f31d0bef1200f40f04c8118f00f0f01
:1032ac0040f0028132f8103023804b886380043464
:1032bc0001230493b3e0022b15d8002b6ed1baf185
:1032cc00000f00f0eb806b8813f00f0f04d09844c4
:1032dc0018f00f0f08bf0234c3f3031304eb4304bd
:1032ec00012304939be0032b06d0042bd6d0182388
:1032fc00029337e7072bd1d218f00f0f40f0d18093
:10330c0032f8103024f8023b0123049387e00b2b96
:10331c00edd818f00f0f40f0cd806a880732d2102c
:10332c00204607f061fa6b881a0904eb420413f08b
:10333c000f0f00f0a38023782380012304936ee009
:10334c002d2b2bd01cd81e2b28d014d8152b01d0ec
:10335c001b2bccd118f00f0f40f0a98032f8103095
:10336c0023804b8863808b88a380cb88e3800834d0
:10337c000123049353e01f2bbed0202b8ed0b6e735
:10338c00372b04d9a3f51873032bc2d9afe7302b15
:10339c0004d22e2bb0d02f2b80d0a8e708f00f0e24
:1033ac006b88124931f8133003fa0ef39bb232f8e2
:1033bc001020bef1000f01d1002020802088baf12e
:1033cc00000f0bd01340034323806b88984418f0f4
:1033dc000f0f50d102340123049320e0134043fa21
:1033ec000ef303432380f0e73702002020a50000f2
:1033fc006b8813f0f00f0ad00023194624f8021f33
:10340c000133dbb26a88c2f303129342f6dbab885a
:10341c0003f00703002b0cbf06231a23029301367b
:10342c00b6b2b74230d3002e58d0b9f5805f55d321
:10343c00f5b20399284603f01bfd804629460398f4
:10344c0006f086ff0546504b1b7803f00e0382886e
:10345c0013ea420351d118f00f0f00f092806b88e1
:10346c0013f00f0fc4d0984418f00f0fc0d10023e5
:10347c0063800234bce701230493d0e70123049357
:10348c00cde701230493cae7049b002b029b18bfd2
:10349c000023029366e60023029363e6182302934b
:1034ac0060e6052302935de6052302935ae60523a5
:1034bc00029357e60523029354e60523029351e643
:1034cc00baf1000f3ff44aae052302934ae6baf173
:1034dc00000f3ff443ae0523029343e6f1b2039889
:1034ec0006f036ff0546284b1b7803f00e03828846
:1034fc0013ea420343d04ff00008b34504d0baf1ad
:10350c00000f8cd0b3458ad8002e3ff4b7ae039b86
:10351c009a69c8f30f1002eb40012b88b3f5e06fea
:10352c0008d3b5f802e0bef1080f3ff6b0ae0ef1cd
:10353c002f039bb2112b3ff40daf3ff601af052bc0
:10354c003ff42caf7ff6b7ae082b7ff6d3ae092b2a
:10355c007ff4ddae18f00f0fafd16a880732d210ae
:10356c00204607f041f96b881a0904eb420413f06a
:10357c000f0f86d023782380012304934fe74ff05d
:0c358c000008002323806ae737020020bb
:020000040000fa
:103598002de9f04f0d4697b090461c46074618b1e6
:1035a80083690bb905f098fb8f4b9d4258d17d6814
:1035b800ab8918075ed52b69002b5bd000230993d4
:1035c80020238df8293030238df82a304ff0010a56
:1035d800c1464e4616f8013b002b56d1b9eb080bf5
:1035e8000bd05b4642462946384605f099fe013025
:1035f80000f05981099b5b44099399f80030002b2e
:1036080000f0518100234ff0ff3204930793059295
:1036180006938df8533005223178744804f054fb32
:1036280006f10109049b002833d1d90644bf2022a2
:103638008df853201a0744bf2b228df85320327877
:103648002a2a2ed0079a00210a20b146013699f875
:103658000030303b092b72d900292fd007922de07a
:10366800634b9d4201d1bd68a2e7624b9d4208bff2
:10367800fd689de72946384603f0bcfa00289dd02e
:103688004ff0ff3017b0bde8f08f252ba6d0b1461c
:103698009fe7564a801a0afa00f0184304904e46eb
:1036a800b9e72268002a04f10401bbbf524243f083
:1036b800020307920792b8bf04930c4699f80030aa
:1036c8002e2b10d199f801302a2b09f101013ad19a
:1036d8002268002a04f10403b8bf4ff0ff3209f151
:1036e800020905921c46444e99f800100322304600
:1036f80004f0eafa40b14023801b03fa00f0049b6f
:103708000343049309f1010999f800103b488df827
:103718002810062204f0d8fa9df82820692a09f111
:10372800010827d037d8582a00f0c3801ed8002aad
:1037380000f0ec8001238df85220089348e000fb4c
:103748000232012181e70023059318460a2689469b
:10375800013199f80020303a092a03d9002bc2d048
:103768000590c0e706fb00200123f0e7632a29d073
:10377800642adfd1049b13f0800f04f104022dd0da
:103788002368002b144603da2d225b428df8532060
:103798001b490a2244e0702a00f0968009d86f2a53
:1037a800c8d1049b13f0800f04f104012cd02368c6
:1037b8002de0752af5d0782abcd178238df85530bc
:1037c800104979e023688df85230012308930434b6
:1037d80000238df853300df1520642e013f0400fec
:1037e800236818bf1bb2cce7a0a50000869d000087
:1037f800c0a5000080a500008c9d0000909d0000e1
:10380800649d0000759d00005806d0d523886f2a56
:103818000c464b490cbf08220a2200208df85300a1
:10382800059e0696002e0df1530ec0f28280049874
:1038380020f004000490002b5cd1002e7bd176464a
:10384800082a0bd1049bd80708d5089b059a9a42e9
:10385800debf302306f8013c06f1ff36aeeb060367
:103868000893384b009303aa2b4604a9384602f064
:103878008fff013017d0089b32462946384605f09d
:103888004ffd01300fd0049b990705d50026039af8
:10389800079b9b1a9e423ddb039a079b9342b8bf46
:1038a80013465a1c41d1ab895b063ff5e9ae09982e
:1038b800e8e623498df85520049a12f0800f04f1a8
:1038c800040006d0236807e0049b43f02003049318
:1038d80073e75306f6d52388d60748bf42f020027f
:1038e800044648bf04921bb9049a22f020020492ad
:1038f800102292e77646b3fbf2f002fb1033cb5c62
:1039080006f8013d03460028f5d199e708920df124
:103918005306a6e701230df129022946384605f08a
:10392800fffc0130bfd00136b1e7099a134409936f
:103938004ee6002bded116ae0b7806f8063d7fe783
:08394800649d000029930000ba
:020000040000fa
:1039500038b50188052902d80623184638bd044623
:10396000063989b2c388013b052b00f20e81dfe8de
:1039700003f00339506eb8c7a84b1b8813b148f247
:1039800004036fe00c306289238943ea0243024654
:1039900006f0e2fb03460021a14a116047f695724a
:1039a000904205d801219f4a11609f4a1060bce0f7
:1039b00047f6fa72904200f2f080002299490a60bc
:1039c00099490a600121954a118000220621a171be
:1039d000e271a3f5ff43163b2381a272e2722170cc
:1039e0006270b6e08d4b1b8813b148f2040339e0d6
:1039f0004289038943ea02420c3006f0effe031ebf
:103a000047f6fd72002808bf13460021854a116061
:103a100087e0824b1b8823f004039bb2022b02d069
:103a200048f204031ee04289038943ea02437d4ac7
:103a30001268934202d048f2050313e00c3005f0ff
:103a400097ff034600286cd147f6fd73ace0734b3b
:103a50001a88012a30d047f6fe7348f20401042a7e
:103a600018bf0b4613f4004f00f0b580002205216b
:103a7000a171e2712381a272e27206232370627047
:103a800004f10c01a38913f0ff0f00f0c28013f4be
:103a90007f4f00f0c08002235a0831f8122012f044
:103aa000ff0f00f0a48012f47f4f00f09c800233df
:103ab000dbb2202bf0d19ce05b4d00f10c012868bb
:103ac00006f00efd03462a6855490a6047f69571cf
:103ad00088425dd802442a6052490a6801320a606d
:103ae00023e04e4b1b8813b948f20403bae7408920
:103af000238943ea004006f06dff47f6ff73b1e704
:103b0000464b1b88012b04d0042b02d048f204033f
:103b1000a8e704f10c02424b1968208906f0e4ff83
:103b2000034647f69572934232d83e4a1268032103
:103b3000a1710021e1712281120c62819a1d228003
:103b40003a4a12880c3a93420cbf01220422334baa
:103b50001a80374b1d78002d4fd0a388c3f30b0379
:103b6000a380344a127812f0070f02d10121314aa2
:103b7000117030490a7843ea0233a38001320a7097
:103b8000204603f0affa0023e7e648f20403c8e753
:103b900047f6fa7293427ff618afa3f5ff427c3adc
:103ba00092b2012a3ff65eaf1e490a68501c0860b7
:103bb00000210420a071e1712281120c6281062291
:103bc0002270617047f6fd7293420cbf0222002200
:103bd000124b1a80bde70025104b1d80204606f0d1
:103be00009ff2b46b9e60133dbb21f2b01d807339f
:103bf00023800022094b1a80abe74021204604f0c5
:103c0000c1fa034600283ff4a8ae0b4b1c602b46bc
:103c1000a3e60023ebe70123e9e700bf1c02002035
:103c20002802002020020020180200202403002087
:0c3c300070020020ac02002024020020e2
:020000040000fa
:103c3c00f0b585b0044600238df80f30058905f0ea
:103c4c007f05052d06d00388072b09d806231846b7
:103c5c0005b0f0bd0388092b00f2a4800623f6e71b
:103c6c00032d00f09f80052d00f09c80012d21d0ac
:103c7c0003238df80f309df80f1000220a232370b8
:103c8c006270238923f07f0343f007032381a27220
:103c9c00e272914b53f82130e360904b1a80022171
:103cac00204604f069fa03460028d0d08c4b1c60e7
:103cbc000023cce78389052b01d90221f0e7894d3c
:103ccc0000686168a26807c5a2892a8013f0ff0307
:103cdc000ed10025814b1d8004f10c06e8b205f0d5
:103cec0057f826f8020f0135052df7d1122322e0e3
:103cfc00013bddb2794b1988002934d07a4b1a88f4
:103d0c000c3a92b204f10c0378480088adf80c0020
:103d1c000139724801800df10f01009103a9284669
:103d2c0003f02efebdf80c20704b1a806e4b1b88d6
:103d3c00063b1b1a9bb223809df80f30002b9ad1a7
:103d4c00238923f07f0242f002022281634a128807
:103d5c006281002a00f0bd8023f0ff0343f0820350
:103d6c00238182219ce7284605f012f84ff48053fa
:103d7c00adf80c305c4b1988a1f10e0292b204f133
:103d8c000e034000904209dd0c398eb2811a701e70
:103d9c00014491fbf6f151480180bce700204f49ea
:103dac000880b8e7a38998b2adf80c30b0f5805f05
:103dbc0003d205238df80f305de706f09bfb074619
:103dcc00002800f08280032d0bd0e689f6b206f0b5
:103ddc0003ff4388dbb29e4234d911218df80f10ba
:103dec004be706f0f9fe0368c4f80e3000233a46a0
:103dfc001946bdf80c0002f03ffd00f10c0292b226
:103e0c00394b1b88063b9a4210dd0c229df80f3073
:103e1c00002b7ff430afa372e3722280238923f04e
:103e2c007f0301351d432581022139e704f112037b
:103e3c003a460021bdf80c0002f01efd00f10c0208
:103e4c0092b2e3e73146384606f082fa0368236102
:103e5c008388a382e389dbb2e381384606f0bcfe9b
:103e6c004388c3f30323083b9bb2012b10d90023d7
:103e7c003a463146bdf80c0002f0fefc00f110028f
:103e8c0092b2194b1b88063b9a4212dd1022bde7f9
:103e9c00002eecd1164a166850689168c4f816606a
:103eac00c4f81a00c4f81e10127b84f822201c22bd
:103ebc00ace704f116033a463146bdf80c0002f0ab
:103ecc00dbfc00f1100292b2a0e708238df80f3052
:103edc00d1e60221e4e600bf00890000082400209e
:103eec00140200201c24002024030020e8230020be
:043efc00f02a002088
:020000040000fa
:103f00002de9f04f099f15469c4604468846002b34
:103f100040f0cd808a424cd9b2fa82febef1000f49
:103f20000bd0cef1200802fa0ef520fa08f801fabb
:103f30000ef248ea020800fa0ef44fea1549abb255
:103f4000b8fbf9fa260c09fb1a820afb03fb46eac6
:103f5000024293451ed952190af1ff3004d293450b
:103f600002d9aaf102002a44a2eb0b02a4b2b2fbce
:103f7000f9f609fb162206fb03f144ea02439942d3
:103f80000ad95b1906f1ff3207d2994205d9b21e50
:103f90002b4402e05046e7e732465b1a42ea004013
:103fa00027b123fa0ef33b6000237b606146bde836
:103fb000f08f12b90125b5fbf2f5b5fa85febef119
:103fc000000f2ed14a1b4ff0010c2e0cabb2b2fbee
:103fd000f6f8210c06fb182208fb03f941ea02421d
:103fe000914560d9521908f1ff3004d2914502d9a8
:103ff000a8f102002a44a2eb0902a4b2b2fbf6f82f
:1040000006fb182208fb03f144ea024399424cd90b
:104010005b1908f1ff32c0d29942bed9a8f1020261
:10402000b6e7cef1200421fa04fc01fa0ef220fae0
:1040300004f405fa0ef544ea02064fea154800fac0
:104040000ef4bcfbf8f1aab208fb11cc300c01fb5a
:1040500002f940ea0c43994521d95b1901f1ff307f
:1040600003d2994501d9881e2b44a3eb0903b6b2ac
:10407000b3fbf8f908fb193309fb02f146ea0342e6
:1040800091420ed9521909f1ff3c04d2914202d952
:10409000a9f1020c2a44521a4cea004c95e7084652
:1040a000e3e7cc46f7e74046a5e7424675e78b4293
:1040b00006d90fb187e803004ff0000c604675e7a2
:1040c000b3fa83f68eb98b4201d382420bd8841a9d
:1040d00061eb030201209046002f6bd087e81001ae
:1040e0004ff0000c62e73046f6e7c6f1200eb34011
:1040f00022fa0ef51d4321fa0efb02fa06f401fa2c
:1041000006f220fa0ef10a434fea15491ffa85f824
:10411000bbfbf9fa4fea124c09fb1abb0afb08f188
:104120004cea0b4c614500fa06f33fd91ceb050c39
:104130000af1ff3004d2614502d9aaf10200ac4471
:10414000aceb010c92b2bcfbf9fa09fb1acc0afbee
:1041500008f842ea0c4188452ad949190af1ff3288
:1041600004d2884502d9aaf10202294442ea004059
:10417000a1eb0801a0fb04894945c246cc4602d305
:1041800006d1434504d2b8eb040a69eb050c0138ab
:1041900087b1b3eb0a0261eb0c0303fa0efef240a7
:1041a0004eea0202f34087e80c0099e75046c7e761
:0841b0005246dbe7bc46f9e6cc
:020000040000fa
:1041b80038b5824b1b78002b5fd0814bb3f90030a8
:1041c800002b4ed17f4b1b88c3f30714242b2bd015
:1041d80010d8123b012b00f2ca807b4b1b7803b32b
:1041e80001f066fa794b1b78002b00f0e280784bdf
:1041f8001d88bde0482b40f0ba80764b1b781bb376
:10420800754b1b78002b00f0bd80744b1b78002b7e
:1042180040f0cb80724b1b88002b0cbf1a251b2546
:10422800b1e006f08dfcdbe7674b1b784bb102f081
:1042380073fc664b1b78002b00f0bd80644b1d8817
:1042480096e006f0d1fcf2e7654b1d88002d40f0a2
:10425800ae800122634b1a7008248be006f0c8fc7c
:1042680096e0584b1b88242b47d007d8123b012bcc
:1042780000f28580544b1b7823bb38bd482b7ed178
:10428800514b1b78002bf8d0524b1b78002b55d084
:10429800554bb3f90030002befdd544ab2f900203a
:1042a8009a42eadb0023504a1380504a1380464a58
:1042b800137006f09bfc002839d10122494b1a7073
:1042c800082429e00022404b1a7006f089fc0546b4
:1042d80060b90122464b1a703a4b1c7814f00f044f
:1042e80003d00022354b1a705ae038bdff28c4d0dd
:1042f80006f026fc01f0dcf938bd334b1b78002ba7
:10430800bbd00022304b1a703a4806f06bfc38b923
:104318000122394b1a7004240025284b1d703fe0f8
:10432800ff28aad006f060fc02f0f6fb38bdff2893
:10433800a3d006f05dfc06f0f1fa38bd284b1b88c7
:104348001bb1264b1b78002b97d000221e4b1a70ee
:1043580006f04cfc20b90122224b1a700824dbe736
:10436800ff288ad006f044fc06f0d8fa38bd0025ac
:10437800002c82d00022114b1a708db10ee000255e
:104388002c46f5e72d25104b1b78002b3ff466af24
:1043980006f0c4fa8cb10022084b1a7044f01004dd
:1043a8002946204601f0faf838bd1a25ebe71b2507
:1043b800e9e70125eee70125ece738bd64020020b6
:1043c8006e02002032020020360200203e02002049
:1043d8003a02002071020020500200206c020020e6
:1043e80038020020720200204a0200204202002007
:0c43f8001a0300204e0200207802002072
:020000040000fa
:10440400854b1a8841f6fe739a4201d814207047ee
:1044140070b50446002006f081f9436813f4803f28
:1044240000f0f18003f00c02042a01d0162070bdc4
:1044340013f0020f00f0e9800268130c223b9bb2d8
:10444400de2b00f2e480a2f580539bb2b3f5805fcb
:1044540080f0df80012006f061f9436813f4803fa7
:1044640000f0cf8013f00c0f40f0c38013f0020f64
:1044740000f0c1800268130c223b9bb2de2b00f2d9
:10448400bc80a2f580539bb2b3f5805f80f0b78007
:10449400032c14d8022c51d8604b1b78a34240f251
:1044a40094805f4e5d4d204606f038f943683360d2
:1044b4000134e4b22b78a342f5d8002070bd012268
:1044c400584b1a70032006f029f903681a0c406847
:1044d40010f4803f2ad0002a79d0534909888a42af
:1044e40005d00321032001f009fe1e2070bd002920
:1044f4006fd0442a6fd810f00c0f6ed19bb24b4a88
:104504001178022905d04a4a12889a4207d002211a
:10451400e8e7a3f580539bb2b3f5805fe2d210f0d5
:10452400020fb7d000223f4b1a70b3e7002a56d1ce
:104534003d4b1b88002badd00321d3e7022006f0ae
:10454400edf803681a0c406810f4803f35d0002a57
:1045540047d0384909888a4205d00321022001f056
:10456400cdfd1d2070bd00293dd0442a3dd800f06a
:104574000c02042a01d00421f0e79bb22b4a1178e3
:10458400022914d1a3f580539bb2b3f5805fe5d221
:1045940010f0400f14bf01220022274b1a7010f0b4
:1045a400020f3ff479af00221e4b1a7074e7234abe
:1045b40012889a42ecd00221d0e7c2b91d4b1b8865
:1045c400002b3ff469af0321c8e7002070bd04212c
:1045d40088e7032186e7032184e7042182e7032196
:1045e40080e70421bae70321b8e70321b6e70321f2
:1045f400b4e7162070bd162070bd162070bd1620bd
:1046040070bd162070bd162070bd162070bd16201a
:1046140070bd162070bd00bf6a0200207e0200201b
:10462400902b002030020020660200203702002078
:1046340080020020380200207a0200204402002078
:020000040000fa
:10464400f0b585b004a8002340f8043d04224ff4db
:10465400a06102f0f5f9039c002c01db05b0f0bd6c
:10466400042240f204510deb020002f0e9f9019832
:10467400039b23f0e043039304f0e064b4f1807ff0
:1046840029d018d9b4f1007f43d0b4f1806f40f041
:10469400c180624b1b88082b5bd0614b1b68002bcd
:1046a40000f0a2809847002800f09980039b43f013
:1046b4000053039302e0002c40f0ac800022594bdd
:1046c4001a8004a8039b40f8083d04224ff4a0611b
:1046d40003f05af8c2e7544a12683ab190470028e6
:1046e400ecd0039b43f000530393e7e7b0f5006f6e
:1046f4000bd84e4a146844b1484b1a884ff4a16150
:1047040004eb400003f040f8d8e743f00053039370
:10471400d4e7474a126852b1904718b1039b43f05b
:10472400005303934ff47a72424b1a80c6e7b0f5f4
:10473400006f0ad83d4a14683cb102224ff4a161cb
:1047440004eb400002f07cf9ece743f000530393e0
:10475400e8e7354d354e314f2de0039b43f00053d0
:104764000393abe73368002b34d03a884ff4a1614c
:1047740003eb400003f008f8039b23f0f04303939a
:1047840004a840f8083d04224ff4a06102f0fcffa5
:1047940004224ff4a06103a802f052f9039c04f030
:1047a400e064042240f204510deb020002f048f9e7
:1047b400b4f1806f82d10198b0f5006fcdd82b6829
:1047c400002bcfd098470028d6d0039b43f000534a
:1047d400039373e7039b43f0005303936ee7039b38
:1047e40023f00063039369e704f0e2f968b90f4b1f
:1047f400186850b104224ff4a161103002f0c4ffd4
:10480400039b23f00063039358e7039b43f0006387
:10481400039353e743f0005303934fe7a2010020af
:1048240004020020a001002040010020f801002023
:08483400440100200c020020e9
:020000040000fa
:10483c005f2900f2d0805f2a00f2cd802de9f04f85
:10484c0085b0654b1980654b1a80431e0393dff8c6
:10485c00a4a172e018ea040f0cd10135adb26400ca
:10486c00e4b2bd420dd0002cf4d196f80080013694
:10487c000124efe7baf800200199e8b202f02aff10
:10488c00ebe709f101091ffa89f9029ba9eb030374
:10489c00dbb2534a128893420fd24f4b1d88bbf1a7
:1048ac00000feed00bf1ff376b1c53fa87f7bfb23a
:1048bc0000245ffa89f30193d5e74a4b1b78002b50
:1048cc0040f082800135444b1d8036e018ea040f1d
:1048dc000cd1013dadb26400e4b2bd420dd0002c50
:1048ec00f4d196f8008001360124efe7baf80020e5
:1048fc00e9b2019802f0eefeebe709f101091ffaab
:10490c0089f9029ba9eb0303dbb2354a1288934267
:10491c0010d2324b1d88bbf1000feed06f1e0bf185
:10492c00ff33dbb2ff1abfb200245ffa89f30193a5
:10493c00d5e70025013d294b1d80039a12f8013f54
:10494c000392002b44d09bb2274a12889342f4d393
:10495c00264909889942f0d325490e689b1a9b0079
:10496c009bb20833f21816f803b09178d3781b0475
:10497c0003eb0123527813441e441a4b1b786bb182
:10498c00022b18d0144b1b881a460293144b1b880d
:10499c00002bced091464ff00008bae70f4b1b8886
:1049ac0002930f4b1b8823b1ddf808904ff00008e1
:1049bc0073e7002586e7094b1b881a460293084bc0
:1049cc001b88002bf0d19146044ba3f80090b4e760
:1049dc0005b0bde8f08f7047c62b0020da2a002006
:1049ec007e2b00204b2a0020762b0020c22b00208f
:0849fc003c2b00206e2b002073
:020000040000fa
:104a04004ff086439b7d002b00f0bf8010b54ff024
:104a14008642536803f00703127e12f0040f37d066
:104a24004ff08642906a594a5169d26891422fd216
:104a34007bb9564b5a684c1c5c6150544ff086430a
:104a44001b7e13f0010f46d001224ff086431a75e6
:104a54002ae04e4b5a684c1c5c6122f811004ff05e
:104a640086431b7e13f0010f35d001224ff086439d
:104a74001a75464a93699268934242d2434a11682e
:104a8400581c906131f813204ff086439a6218e065
:104a94004ff08642127e12f0010f1cd001214ff01c
:104aa40086421175002be4d1384a93699268934287
:104ab4001bd2364a1168581c9061ca5c4ff0864379
:104ac4009a62324b9a699b689a4227d02f4b5a6953
:104ad400db689a424cd04ff086431b7e13f0020fe2
:104ae4003dd02b4b1b7833bb10bd284b1b69002bcf
:104af40045d0ff214ff086429162013b234a136166
:104b0400dfe7224b1b69002b39d04ff6ff714ff0c2
:104b140086429162013b1d4a1361d2e71b4b1b691c
:104b2400002bd3d101221a4b1a704ff086431b7eff
:104b340013f0020f17d0154b5a69db689a4212d151
:104b4400124b00221a7707204ff08641087510494e
:104b54000a701b6a002bc7d00c4a506a98470c4b4a
:104b64001b78002bc0d002224ff086439a7510bdeb
:104b74004ff0864301229a7504221a75abe7034b62
:104b84009a699b689a42a1d1cce77047c000002083
:044b9400d32b0020ff
:020000040000fa
:104b980070b58ab04a4b1b781bb1012b6dd00ab097
:104ba80070bd2022002102a805f028ff03f086f836
:104bb80010f0100f0cbf434a434a444b1a6004f0ec
:104bc80043f90021424805f037ff04f07fff01f068
:104bd80003fc4ff6ff7005f0e4fd05f0caff002264
:104be80011463c4804f050fb0a220f213a48fff7cf
:104bf80021fe1e2205213948fff71cfe2d22052122
:104c08003748fff717fe642005f0fbfd4ff6ff70ed
:104c180005f0c7fd334d344c6a68214602a804f0fc
:104c280028fd19220521201dfff704fe4ff6ff730a
:104c3800009350235a223721192001f0d9fa37223c
:104c4800192102a8fff7f6fd00f0d4ff05f074fc67
:104c580004f04efa0124254b1c700021244805f06d
:104c6800f7fe0021234805f0fffe214605f1080064
:104c780004f040fd124b1c7091e74ff400251e4ec6
:104c88001a4c06e002f024f803f06ef82378012ba2
:104c980085d105f02bff0128f4d105f077fe002817
:104ca800fbd105f07bfe05f071fe0028fbd12b68d7
:104cb800b3f1ff3fe6d083f3088833681847e1e78c
:104cc8003824002000e00b0000e00300f801002079
:104cd80001ab0000281f0000602b0020c82a00201c
:104ce800dc2a0020182b00204ca9000048010020d5
:0c4cf8002bac00000dab00000400080015
:020000040000fa
:104d04002de9f843524b93f82c30002b40f0978058
:104d1400054603f0ff044e4b1b7d03f0ff07002bf9
:104d240040f08e800668002818bf002e14bf0124ae
:104d3400002400f08580474b002908bf1946b1ebd9
:104d4400061f3ed34ff000080a4643463005310b98
:104d540005f0e0f8c0f580304346002875d03e49a0
:104d64000a6822f002020a60ca69002afcd180b2f1
:104d7400394a90816a68022a4fd037490a6822f07a
:104d8400706222f4604242f0807242ea43320a6066
:104d94004a68ab68e868034322f4005222f0070231
:104da40013436a6813434b602b4ad369002bfcd12d
:104db400294a136843f002031360d369002bfcd122
:104dc4003ee0b1ebc60f09d30a460023f004710b91
:104dd40005f0a0f8c0f580300223bee706eb4603d9
:104de400994230d3002316eb060843eb030918eb72
:104df400060849eb03094fea094343ea18434fea1b
:104e04000842904699460a4600234046494605f022
:104e140081f8c0f5803004239fe70f490a6822f027
:104e2400706222f4604242ea43320a604a68ab6824
:104e3400e868034322f0070213434b60b4e70024fd
:104e44002046bde8f8833c46fae73c46f8e700bf55
:0c4e5400ec000020006cdc02003000408c
:020000040000fa
:104e600030b583b04ff48033019303f0d1fc4c4b49
:104e70001b78002b3cd103f063ff044610f0200f99
:104e80003ed114f0010f4fd0464b1b78002b3ad087
:104e900014f0100f60d1434b1b78002b5cd1404bba
:104ea0001b781bb3019b13f4803f58d014f4007f90
:104eb0005dd1019b13f4003f64d03b4b1b7883b959
:104ec00003f0defe384b1b78002b60d0019b43f0d3
:104ed00000730193042240f60c010deb020002f076
:104ee00055fc03f02dff10f4807f55d103b030bd89
:104ef000042240f60c010deb020001f0a3fdbae71d
:104f0000fff7a0fbbde7002502a840f8085d0422da
:104f10004ff4907101f096fd24f01104a4b22946db
:104f20009df80000fbf760ff14f0100fb3d01d4b8d
:104f30001b788bb91d4b187810f0100fafd120f0f3
:104f40001003012babd024f01004a4b2002100f018
:104f50000f00fbf749ff9ee7fff72ef99fe7134b82
:104f60001878002100f00f00fbf73eff9ee7104885
:104f70000023036004220f4b198802f007fc02f0a3
:104f80007bf996e7084b1b78002baad098e7019b8a
:104f900023f0007301939de701f034f8a6e700bf0a
:104fa0001a0300206402002038030020370200208a
:084fb000540200202e03002032
:020000040000fa
:104fb80030b40d46002956d0002854d05049097ff6
:104fc800002940f099804ff08644646804f0070493
:104fd800012c4ed04a4908604a6000244c618c611b
:104fe8000c6100284fd08d60002a50d0444ad3600d
:104ff8000121434a11774ff08642127e12f0040fc6
:1050080006d04ff08642916a117e11f0040ffad152
:105018004ff086414a8b92b242f004024a830a7edc
:1050280042f080020a76364ad1689268914202d9e3
:105038008c1a334d2c614ff08644646814f0070fc6
:1050480035d12f4989698a4225d900784ff086429f
:10505800906201312a4a9161002b45d101214ff01c
:105068008643997549e0002b44d0002aa6d1002137
:1050780043e015b115f0010f3fd1002baad013f072
:10508800010fa7d039e000241d498c60ace700214e
:105098001b4ad160ace71a4a1269002adcd0ff200b
:1050a8004ff086418862013a15490a61d4e75208ef
:1050b800134ca26025696d0825614908e160a16962
:1050c8008a4206d900884ff0864290620131a16178
:1050d800c2e7002dc0d04ff6ff714ff086429162b3
:1050e800013d074a1561b7e704224ff086439a75d8
:1050f800012102e0002100e00021084630bc704791
:04510800c0000020c3
:020000040000fa
:10510c00222913d8dfe801f086144e6a121212120b
:10511c001212121212121212121212121212121263
:10512c00121212121212121212123c00122070479a
:10513c0041f63243984205d041f6334398420ed0a3
:10514c0012207047374b1b88002b65d0364b9b8940
:10515c0003f00203002bd4bf122000207047334b06
:10516c009b8913f0020f59d02e4b1b880bb11220c8
:10517c0070472f4b1b88002b0cbf12200020704750
:10518c0041f63343984201d012207047274b9b893c
:10519c0013f0020f44d0234b1b88002b0cbf1220a2
:1051ac000020704741f63243984205d041f6334314
:1051bc0098420ad0122070471b4b9b8903f00403c2
:1051cc00002bd4bf122000207047184b9b8903f092
:1051dc000403002bd4bf12200020704741f6324349
:1051ec00984205d041f6334398420ad012207047ba
:1051fc000d4b9b8903f00803002bd4bf1220002019
:10520c0070470a4b9b8903f00803002bd4bf122074
:10521c000020704700207047122070471220704702
:10522c001220704738020020840300204003002025
:04523c0066020020e6
:020000040000fa
:1052400030b583b002a8002340f8043d0422114683
:1052500001f0f8fb019b2a4c1a0a22701b0c9b02de
:1052600003f6ff73274a138004f00efe23784bb138
:105270000024234d204604f0f1fc0134e4b22b78e5
:10528000a342f7d801f0c8fe00241f4b1c701f4b2f
:105290001c701f4b1c701f4b1c701f4b1c701f4b36
:1052a0001c701f4b1c701f4b1c801f4b1c801f4b06
:1052b0001c801f4b1c801f4b1c801f4b1c801f4bd6
:1052c0001c701f4b1c701f4b1c801f4b1c801f4be6
:1052d0001c801f4b1c8001201e4b1870214600f0c3
:1052e00061f91d4b1c801d4b1c701d4b1c7004f084
:1052f00005fd05f00dfb204604f040fc03b030bd79
:105300007e0200206a020020700200203602002087
:10531000640200206c02002072020020780200204b
:105320007a02002076020020340200203c02002095
:1053300046020020740200204c020020710200206e
:105340003e0200203a0200204e02002038020020d7
:105350006602002037020020320200207f02002077
:0453600079020020ae
:020000040000fa
:1053640000223f4b1a743f4a03f500639a621a46bf
:10537400536813f0100ffbd13b4a3c4b1a631a4697
:10538400536813f0400ffbd14222384bc3f88420fa
:105394001a46d2f8843013f0400ffad0344b00226e
:1053a4009a6377225a631a46d36b13f0040ffbd126
:1053b40002222f4b83f830201a46d36b13f0020fce
:1053c400fbd12b4a136c03f00303032bfad1012204
:1053d400284b5a711a46d37813f0010ffbd0264a92
:1053e400224b1a621a46536813f0040ffbd1234a66
:1053f4001e4b5a621a46536813f0080ffbd11f4a1a
:105404001a4bda621a46536813f0200ffbd141227b
:10541400164bc3f890201a46d2f8903013f0400f80
:10542400fad04422114bc3f89c201a46d2f89c307f
:1054340013f0400ffad043220c4bc3f808211a464c
:10544400d2f8083113f0400ffad00a4b6ff07f42c4
:105454001a6141f2ff725a6101221a62704700bf59
:10546400001400400601300006010100001c004049
:10547400001000400008004007010100070102007d
:020000040000fa
:1054840011b948f20d0070472de9f0470c463f4929
:105494000f68b7f5002f03d348f20d00bde8f0877d
:1054a4003b4909682144b1f5002f06d90022384b45
:1054b4001a6048f20300bde8f08716460546354bee
:1054c400186804eb0008b8f5005f48d9c0f500522d
:1054d400dff8c8a0caf80020dff8bc902946484489
:1054e40005f086f9dff8ac804ff40053c8f80030bb
:1054f4004946384604f09ef8d8f80010234b1a6841
:105504000a441a60224a13680b441360daf8001044
:105514000023c8f80030641aa4b22246294448463d
:1055240005f066f9c8f800401a4b1b68b3f5005f34
:1055340003d046bbb3f5005f1bd3144c1649206857
:1055440004f078f813490868226802442260104a7b
:1055540013680344136000200860bde8f087224606
:1055640029460d4b184405f043f90a4bc3f8008053
:10557400dae7c3f5005209490a60ff2106481844d6
:1055840005f03efad9e70020bde8f087982b00200b
:105594009c2b0020a02b0020d0030020a42b002053
:020000040000fa
:1055a40070b582b004460e463d4b1b7883421cbf47
:1055b4003b4b18704ff6ff73994255d002ad45f836
:1055c400041d04224ff49a71284602f0ddf8344b8e
:1055d4001b78019304224ff49871284602f0d4f802
:1055e400002e4bd100222f4b1a702e490b7843f01a
:1055f40010020a7004f00f04013c072c13d8dfe8f2
:1056040004f00f232f271212122b274b1b78012b88
:1056140042d01b2e0cbf02220d22224b1a70e4e74b
:105624000021224b197021490b7843f010030b70b1
:1056340043ea022302a840f8083d04224ff49c7177
:1056440002f0a2f802b070bd0d21184b1970eae700
:105654000121164b1970e6e70f21144b1970e2e78c
:105664000e21124b1970dee70d4b1b7802a840f88f
:10567400043d04224ff4987102f086f814f0100fe0
:10568400b0d0a6f11a039bb2182bbed8084a22fa4e
:1056940003f313f0010fb8d00122024b1a70a4e7f0
:1056a400370200207f0200203e0200204802002032
:0456b40001000801e8
:020000040000fa
:1056b80030b583b00020364b187004f0cbfa0120c7
:1056c80004f0c8fa334b1868002853d005f08ef957
:1056d800314b186828b12f4b1b68984201d005f050
:1056e80085f92e4b186848b12a4b1b68984205d09b
:1056f800294b1b68834201d005f078f902f03cfa87
:1057080004f0eeff0024264b1c60224b1c60234b48
:105718001c60214b1c60234b1c7002ad45f8044de6
:10572800042240f60c01284601f088f9019b23f079
:1057380000730193042240f60c01284602f022f877
:10574800194b1c70194b1c70194b1c70194b1c7091
:10575800194b1c70194c204604f00efd10b105f0d1
:1057680045f9f8e7164c204604f006fd58b105f057
:105778003df9f8e7084b18680028b0d1074b1868be
:105788000028b5d1bae704f0b5fa03b030bd00bfc0
:105798001a0300203c0300202003002028030020d7
:1057a8003003002038030020190300202c030020b8
:1057b8003503002034030020ac020020e40200205e
:0457c800b00200200b
:020000040000fa
:1057cc0038b5364b1b7813b903f068fb38bd03f0c2
:1057dc00e5fb10f4806f1dd0314b1b782bb1314b96
:1057ec001b7813b10022304b1a80304b1b8d13b138
:1057fc00013b2e4a13852d4b1a8d2d4b1a850122f8
:10580c002c4b1a7000222c4b1a802c4b1b7863b338
:10581c0002f090fb254b5b88012b38d0284b1b7872
:10582c002bb1234b5b88012b34d0222b32d003f0cd
:10583c00b5fb10f4806fc7d01c4a538d01339bb25b
:10584c0053851b4a53851f4d1f4c04222988204623
:10585c0003f06eff29881d4b1b8819440439042260
:10586c0089b2204603f064ffaee7164d164c0422b5
:10587c002988204603f05cff2988144b1b881944a7
:10588c000439042289b2204603f052ffc2e704f027
:10589c00fbf9c3e702f03effc9e700bf7902002025
:1058ac0050020020710200207c02002084030020a2
:1058bc00400300206c020020340200207202002001
:1058cc0078020020440200205402002038020020fc
:020000040000fa
:1058dc008a892de9f041054610070c465ad44b68cd
:1058ec00002b05dc0b6c002b02dc0020bde8f081ea
:1058fc00e66a002ef9d0002312f480522f682b6038
:10590c0033d0606da3895a0705d56368c01a636be1
:10591c000bb1236cc01a00230246e66a216a2846a2
:10592c00b047431ca38906d129681d294bd82b4aa3
:10593c00ca40d60747d500226260d904226922608a
:10594c0004d5421c01d12b6803b96065616b2f60d3
:10595c000029cad004f14403994202d0284602f02f
:10596c004ffa00206063bde8f081216a01232846cc
:10597c00b047411cc6d12b68002bc3d01d2b01d0c6
:10598c00162b01d12f60b0e7a38943f04003a3810c
:10599c00bde8f0810f69002fa7d093070e6808bff0
:1059ac004b690f6018bf0023a6eb07088b60b8f19a
:1059bc00000f9add43463a46216aa66a2846b0474c
:1059cc00002807dca38943f04003a3814ff0ff308c
:1059dc00bde8f0810744a8eb0008e8e7010040208f
:020000040000fa
:1059ec0008b50022344b1a80344b1b78002b3dd069
