:020000040000fa
:10000000f8ff0320797b00001b750000ff780000db
:100010000f830000838b000043900000000000006d
:10002000000000000000000000000000f39100004c
:10003000537e000000000000f39100001da30000ab
:10004000f3910000f3910000f3910000f3910000a0
:10005000f3910000f3910000f3910000f391000090
:10006000f3910000f3910000f3910000f391000080
:1000700089a00000a9a00000f3910000f391000006
:10008000f3910000f3910000f3910000c9a000007b
:10009000f3910000f3910000f3910000f391000050
:1000a000f3910000f3910000f3910000f391000040
:1000b000f3910000f3910000f3910000f391000030
:1000c000f3910000f3910000f3910000f391000020
:1000d000f3910000f3910000f3910000f391000010
:1000e000f3910000f3910000000000000000000008
:1000f00000000000f3910000b1620000b162000056
:10010000b1620000b1620000f3910000f3910000c1
:10011000f3910000f3910000f3910000f3910000cf
:10012000f3910000f3910000f3910000f3910000bf
:10013000f3910000f391000075480000754800003d
:100140007548000075480000f3910000f39100002d
:10015000f3910000f3910000000000000000000097
:10016000000000000000000000000000000000008f
:10017000000000000000000000000000000000007f
:10018000f3910000f3910000f3910000f39100005f
:10019000f3910000f3910000f3910000f39100004f
:1001a000f3910000f3910000f3910000f39100003f
:1001b000f3910000f3910000f3910000f39100002f
:1001c000f3910000f3910000f3910000f39100001f
:1001d000f3910000f3910000f3910000f39100000f
:1001e000f3910000f3910000f3910000f3910000ff
:1001f000f3910000f3910000f3910000f3910000ef
:10020000f39100000000000000000000f3910000e6
:10021000f3910000f3910000f3910000f3910000ce
:10022000f3910000f3910000f3910000f3910000be
:10023000f3910000f3910000f3910000f3910000ae
:10024000f3910000f3910000f3910000f39100009e
:10025000f3910000f3910000f3910000f39100008e
:020000040000fa
:10026000f8b500bff8bc08bc9e467047a1920000dc
:10027000f8b500bff8bc08bc9e4670477d920000f0
:020000040000fa
:080280009836000001000000a7
:020000040000fa
:10028800cc2a00201c000000000000000000002014
:10029800c000000000000000fe2a0020020000004c
:1002a800000000009c2b002004000000000000005b
:1002b800ce2b00200200000000000000d62b0020fa
:1002c8000200000000000000de2b002002000000f9
:1002d80000000000262c00200200000000000000a2
:1002e8004b2a002001000000000000002a2c0020fa
:1002f80002000000000000003a2b0020020000006d
:1003080000000000c72b00200100000001000000d1
:10031800b1000000302c00200300000001000000a4
:100328008a518a002f2c00200100000001000000e3
:10033800f1000000392b002001000000010000003e
:10034800cf0000004d2b002001000000010000003c
:100358005f0000005d2b002001000000010000008c
:10036800200000005e2b00200100000001000000ba
:10037800120000005f2b00200100000001000000b7
:1003880032000000332c00200100000001000000b2
:1003980001000000342c00200100000001000000d2
:1003a80032000000352c0020010000000100000090
:1003b80080000000362c0020010000000100000031
:1003c800050000002c2c00200300000001000000a4
:1003d800a0b55500282c00200200000001000000f4
:1003e800106f0000242c0020020000000100000013
:1003f800005f0000372c0020010000000000000012
:10040800c00000202c00000000000000ec000020cc
:1004180030000000000000001c0100200c0000005b
:1004280000000000442900208000000000000000b7
:10043800382c00200100000000000000242a0020c1
:10044800270000000100000000000001000001007a
:10045800000200000100000400000000000000008d
:100468000000000000000000000300000100000080
:10047800280100200200000000000000e02b0020fe
:1004880004000000000000004e2b002002000000c5
:1004980000000000a02b0020080000000000000061
:1004a80020260020b8010000010000000000000024
:1004b800000000000016210007090000b89a00009b
:1004c800088200004c2a0020000000000000000004
:1004d80000000000000000000000000001162100dc
:1004e8000409000048a10000808c0000142b0020a3
:1004f80000000000000000000000000000000000f4
:1005080000000000001a2100020900006ca500008c
:100518000c980000842b0020000000000000000060
:10052800000000000000000000000000021a210086
:10053800010900002ca70000889a0000b02b0020b9
:1005480000000000000000000000000000000000a3
:1005580000000000121c06000208000044a700006a
:1005680038a30000d02b002000000000000000008d
:10057800000000000000000000000000131c06003e
:100588000208000050a7000054a30000d82b002048
:100598000000000000000000000000000000000053
:1005a8000000000000602a000209000080a5000089
:1005b800489f0000782b0020000000000000000089
:1005c80000000000000000000000000021602a0078
:1005d800010900005ca700004ca40000a82b002023
:1005e8000000000000000000000000000000000003
:1005f8000000000010702a000409000068a1000033
:10060800189e0000902b0020000000000000000051
:1006180000000000000000000000000000802a0028
:1006280007090000e89a0000fc8800006c2b0020f5
:1006380000000000000000000000000000000000b2
:1006480000000000ffff00000000000000000000a4
:100658000000000000000000000000000000000092
:100668000000000040240020e0010000010000001c
:100678000000000000000000001007000007000054
:1006880010a8000014a70000ec2b002000000000b8
:100698000000000000000000000000000000000052
:1006a800011005000007000018a8000038a6000087
:1006b8004e2b002000000000000000000000000099
:1006c80000000000000000000810090000070000fa
:1006d80020a8000020a70000e82a00200000000051
:1006e8000000000000000000000000000000000002
:1006f800091009000007000028a8000008a500004c
:10070800e42b0020000000000000000000000000b2
:1007180000000000000000000a10090000070000a7
:1007280030a800001ca50000e82b002000000000f5
:1007380000000000000000000000000000000000b1
:10074800181023000409000028a10000f8950000f3
:10075800002b002000000000000000000000000046
:100768000000000000000000f1102a00020900004b
:1007780058a500007c940000602b002000000000b9
:100788000000000000000000000000000000000061
:10079800f8101b000007000038a8000030a5000072
:1007a800a02b0020f59100000000000000000000d0
:1007b8000000000000000000001c05000408000004
:1007c80038a7000044a50000c82b00200000000046
:1007d8000000000000000000000000000000000011
:1007e800321c2900200900009c6e0000f05900000e
:1007f800840300200000000000000000000000004a
:100808000000000000000000331c2900200900003f
:100818009c6e0000f05a0000400300200000000019
:1008280000000000000000000000000000000000c0
:10083800ffff0000000000000000000000000000b2
:1008480000000000000000000000000000000000a0
:10085800e82a0020160000000100000053414d4521
:10086800353320457468657243415420536c617672
:1008780065000000e42b00200400000001000000d7
:10088800312e3000e82b0020040000000100000099
:10089800302e3900002b0020140000000100000059
:1008a80004000000d8040000559200000100000078
:1008b80001000000c82b0020060000000100000015
:1008c8000400020104030000ec2b002004000000d7
:1008d80001000000891300002c010020080000001e
:1008e80000000000392c002001000000000000007a
:1008f80034010020e0000000000000001402002085
:10090800040000000000000018020020160000008b
:10091800000000003a2c0020010000000000000048
:10092800f02b00200400000000000000300200202e
:10093800520000000000000084020020280000008f
:1009480000000000ac02002094000000000000003d
:10095800502b00200d000000010000005375624973
:100968006e6465782030303000000000602b002075
:100978000c0000000100000002000000010000005f
:1009880004000000400300208e000000000000006a
:100998003b2c002001000000000000003c2c00203f
:1009a8000100000000000000f42b002004000000fb
:1009b80000000000f82b00200400000000000000e8
:1009c800fc2b00200400000000000000002c002088
:1009d8000400000000000000042c002004000000b7
:1009e800000000006c2b00200c000000010000003b
:1009f8000500000096000000000100004c2a0020bd
:100a08002000000001000000070000002001008015
:100a180008020080010300800104008001050080b5
:100a28000500000010000000782b00200c000000da
:100a380001000000020000000000000000000000ab
:100a4800842b00200c0000000100000002000000c0
:100a58002001006020020060902b00200c000000a4
:100a6800010000000200000000000000000000007b
:100a7800142b0020140000000100000004000000f6
:100a8800200110700802107008000000100000001b
:100a9800a82b002008000000010000000100000051
:100aa80000000000b02b002008000000010000003a
:100ab8000100000020012160082c00200400000033
:100ac8000100000001000000d02b002006000000fb
:100ad800010000000200001601160000d82b0020bb
:100ae80006000000010000000200001a021a0000bf
:100af800b82b0020080000000100000001000000e1
:100b0800802500000c2c00200400000001000000db
:100b180001000000d00300201620000000000000a3
:100b28003d2c00200100000000000000e823002008
:100b38004d000000000000003e2c002001000000d5
:100b4800000000003f2c0020010000000100000010
:100b580001000000c02b0020070000000100000079
:100b680048656c6c6f2c0000282b002011000000d9
:100b78000100000074686973206973207468652037
:100b880064656d6f000000003c2b00201100000020
:100b980001000000666f72204f4c454420432063db
:100ba8006c69636b0000000038240020020000001c
:100bb80000000000102c00200400000000000000cd
:100bc800142c00200400000000000000182c002055
:100bd80004000000000000006c2a00202000000033
:100be800000000008c2a0020200000000000000007
:100bf800ac2a002020000000000000001c2c00206f
:100c08000400000001000000c4290020c4290020bd
:100c18006000000001000000000000008c2a002095
:100c2800ac2a00206c2a0020000000000000000010
:100c380000000000000000000000000000000000ac
:100c4800000000000000000000000000000000009c
:100c5800000000000000000000000000000000008c
:100c6800000000000000000000000000000000007c
:100c78000000000000000000d82700206c010000e0
:100c88000100000043000000000000000000000018
:100c9800000000000000000000000000000000004c
:100ca80000000000430000000000000000000000f9
:100cb800000000000000000000000000000000002c
:100cc80000000000430000000000000000000000d9
:100cd800000000000000000000000000000000000c
:100ce80000000000430000000000000000000000b9
:100cf80000000000000000000000000000000000ec
:100d08000000000043000000000000000000000098
:100d180000000000000000000000000000000000cb
:100d28000000000043000000000000000000000078
:100d380000000000000000000000000000000000ab
:100d48000000000043000000000000000000000058
:100d5800000000000000000000000000000000008b
:100d68000000000019a400006d9f000000000000b2
:100d7800ec580000d1a70000d0a70000d0a70000c1
:100d8800d0a70000d0a70000d0a70000d0a700007f
:100d9800d0a70000d0a70000d0a70000ffffffffea
:100da800ffffffffffffffffffff000001004153b0
:100db8004349490000000000000000000000000056
:100dc8000000000000000000000000000000415387
:100dd8004349490000000000000000000000000036
:100de80000000000000000000000000000000000fb
:100df8003c2400200400000000000000202c0020fb
:100e080004000000000000000000000000000000d6
:020000040000fa
:100e18002de9f04f89b0b0f80890944b1e78002e59
:100e280040f0ae835ffa89f808f0e0040546202c0c
:100e380019d009d9402c16d0602c00f0b3810027b6
:100e4800bb464ff0030a06e0002c00f0ab810027f8
:100e5800bb464ff0030abaf1ff0f40f0ab813046b2
:100e680009b0bde8f08fb5f800a06f893b0203eb2d
:100e780019239bb20393184609f0b2f9049000288d
:100e880000f086833a0a0592037b9a4204d9002728
:100e9800bb464ff0110a8de108f010030693024695
:100ea8000599039806f0b0fe8346402c48d0202cc4
:100eb80000f09d80074600230793069b002b40f017
:100ec800c380bbf1000f08d1694b039a1a80694ba4
:100ed800059a1a70684b049a1a60402c00f0318108
:100ee800069b0193079b0093049b3a460599039838
:100ef80001f008fd8246ff2840f05c8101235f4a2b
:100f080013705f4a069911705e4a059911705e4a1e
:100f1800039911805d4a17605d4a07991160049a28
:100f2800116a5c4a1160514a13705b4b1d602b8932
:100f380023f0ff0309f0f00943ea09032b818ee748
:100f4800baf10a0f40f01e83431e032b44d805f163
:100f58000c0307930023ab81eb8133460746069abf
:100f6800002a72d1002bacd001234c4a13704c4a92
:100f780013704c4b069a1a703d4b039a1a803d4bde
:100f8800059a1a703c4b049a1a60402c0cbf5a46ba
:100f98003a46454b1a60454b186808b109f060fba2
:100fa800414b1868013020f0010009f051fb3f4b1c
:100fb8001860002852d0402c00f08280aaf10a075d
:100fc8003a4605f1100109f007fa394b00221a7068
:100fd800b246384b1f603ee7374b1f88103fb84278
:100fe80000f2e38205f1100307933346b7e718f0e0
:100ff800020f0bd0baf10a0f40f0c682c8f381077e
:10100800c7f1040705f10c03079356e7eb89af898d
:1010180007eb0347294b1b8807f110029a420dd9a9
:10102800063b9a4540f0b28205f110030793aaf1f6
:101038000a03bb422cbf0023012390e707f10a03f0
:101048009a45f1d008260ae73346059a012a02d9bb
:101058004ff0050aaee00122069283e7069b002bbb
:1010680014bf4ff0050a4ff0040aa3e03d2c0020fe
:1010780018240020302400202c24002000240020e4
:1010880001240020342400203224002010240020d1
:10109800ec230020fc2300200c240020f523002052
:1010a80002240020f4230020f82300201424002028
:1010b80003240020f023002024030020360300200e
:1010c800069b01930090049b5a460599039801f0ea
:1010d800adfe824650b3ff287ff47bafa44b0422b9
:1010e8001a70a44b069a1a70a34b059a1a70a34b50
:1010f800039a1a80a24bc3f800b0a24b1a68a24bfd
:101108001a60049bda69a14b1a60a14b01221a707c
:10111800a04b1d602b8923f0ff0309f0f00943ea77
:1011280009032b819c4b60221a7098e63a46954b2e
:10113800196805f1100009f04ff9974b60221a70f1
:1011480047e7069b0193079b0093049b5a46059922
:10115800039801f06bfe8246ff282bd1844b0322b3
:101168001a70844b069a1a70834b059a1a70834b2f
:10117800039a1a80824bc3f800b0834b079a1a600f
:10118800049bda69814b1a60814b01221a70814bea
:101198001d602b8923f0ff0309f0f00943ea0903d6
:1011a8002b815ce67c4b1b78a3420ed00027bb4604
:1011b8004ff0030a0195cdf800b0bbb208f0100259
:1011c8002146504604f006ff49e6002c40f04281d3
:1011d800724b1a7809f010039a4200f02381704b81
:1011e8001b8808f010026d490a70664a11680029c8
:1011f80000f02d81093b9bb26a4a10686a4a12685e
:10120800121a19f0010f18d09a4200f2cb812b88dc
:10121800033b9a4200f2c6816fea690707f00707a5
:10122800ba4205d0072a40f2bd819a4240f0ba81fd
:101238005e4b00271f70174608e05c4f4ff0010c0b
:1012480087f800c01f469a4240f2ac8110f0010fa7
:101258006ed1430868894fea192242ea002221f830
:10126800132007f1010c4fea5c0cbcf1010f1bd9ec
:1012780001200346dff82c91dff808e105eb430b6a
:10128800d9f8002000eb5201def80000bbf808a0f6
:10129800bbf80a20120242ea1a2220f81120013370
:1012a8009bb218466345e9d3404b93f80090b9f1d7
:1012b800000f1fd13e4b1b780193324b1b680093e4
:1012c8003c4b1b68384a12683b4909783b48008800
:1012d80001f018fb8246ff2872d0dff8a890d9f8f1
:1012e800000009f0bdf90023c9f80030baf1000f79
:1012f80040f09a800a232b7000236b70eb88c3f3ad
:101308000b0343f44053eb80244b1b78002b14bf92
:10131800302320232b81254b1b78012b7ad00023e7
:10132800204a13601c4a1370a2461f469b4641e799
:10133800430811f8132021f81320124919480268ac
:101348005208d1f800c02b8923f0ff033cf812e0c3
:1013580043ea0e032cf81230036823f0010302332a
:1013680008687a1e05f10a01184409f035f89be768
:1013780000240020012400203424002032240020ee
:101388001024002014240020ec230020fc2300203b
:101398003d2c00200c2400200324002002240020df
:1013a80036030020f0230020f8230020f523002036
:1013b800f42300202c2400203024002018240020ae
:1013c8007c4b02221a707c4b1a787c4b1a707c4b2f
:1013d8001a787c4b1a707c4b1a887c4b1a807c4b91
:1013e8001a687c4b1a607c4b1a687c4b1a607c4be1
:1013f8001b681a6a7b4b1a607b4b01221a707b4b65
:101408001d6000237a4a13707a4a13707a4a13606f
:101418004e4624e5784a13683b441360a2460027e9
:10142800bb46c7e64ff0010a0023714a1370714aa0
:101438001370694b186820b109f012f9664b002245
:101448001a6000236c4a13601f469b4603e54ff061
:10145800030ae9e72f7a07f01007684b1b78bb42ad
:1014680000f09b80664b1b88093b9bb2634a177050
:101478009a46614a1168564a12680b44934286bfdd
:10148800a2eb010ab3464ff0010b594b83f800b0a9
:101498005ffa89f9a5f8089011f0010245d14908c9
:1014a8004d4b186830f8113049ea0329a5f808901f
:1014b8005fea5a0e13d000230a4400eb420cbcf832
:1014c800029030f81220120a05eb430c42ea092276
:1014d800acf80a2001339bb21a469e45ecd8eb883b
:1014e800c3f30b0343f44053eb802b8903f47f438e
:1014f800bbf1000f2ed01f432f81baf1060f2dd854
:101508000a232b7000236b70caf1070347ea4307cd
:101518002f81374b1b78012b24d1374a136853444a
:101528001360b2460027bb4644e62b4b1a684908ad
:1015380032f8113023f0ff0343ea0909a5f80890af
:1015480002eb41010af1ff32023105f10a0008f00d
:1015580043ffc4e747f001071f43cde70af1030340
:101568002b80d6e71c4f386809f07af800233b60d7
:10157800214a13601f4a1370b2461f469b4619e65c
:1015880009266ce408266ae4082668e4082666e466
:101598000027bb464ff0080a0ce60027bb464ff071
:1015a800010a07e64ff00e0a3ee7012300220792e0
:1015b800d5e400bf00240020f423002001240020eb
:1015c8003024002034240020182400203224002055
:1015d800f82300201024002014240020ec230020ed
:1015e8002c240020fc2300203d2c00200c2400206b
:1015f800f523002003240020f023002002240020eb
:041608002403002097
:020000040000fa
:10160c00000020007f000d100388010002950100ee
:10161c0003a2010007af010005bc01000ac90100cb
:10162c0007e3010001f0010003fd0100030a0200c1
:10163c00051702000724020002310200033e0200db
:10164c00024b0200035802000565020004720200fe
:10165c00057f0200058c02000599020005a6020018
:10166c0005b3020005c0020005cd020005da020038
:10167c0002e7020002f4020007010300070e030058
:10168c00071b03000428030009350300064f030061
:10169c00055c03000669030006760300058303005e
:1016ac0005900300069d030006aa030003b7030080
:1016bc0004c4030005d1030004de030007eb0300a0
:1016cc0006f803000705040005120400071f0400b8
:1016dc00062c0400053904000546040006530400da
:1016ec0005600400096d04000587040005940400de
:1016fc0005a1040003ae040003bb040003c80400ee
:10170c0007d5040006e2040003ef040005fc040006
:10171c000509050004160500052305000530050024
:10172c00033d0500054a0500055705000164050049
:10173c0002710500057e0500018b05000798050068
:10174c0005a5050005b2050005bf050005cc050083
:10175c0003d9050004e6050003f3050005000600a7
:10176c00050d0600071a06000527060005340600bd
:10177c0004410600044e0600025b060004680600e5
:10178c000775060003820600000000000000000040
:10179c00000000000000000002020202020200022f
:1017ac00000000000505050000000000000000001e
:1017bc00000028287e14143f0a0a000000000404cc
:1017cc001e05050e14140f04040000000000004652
:1017dc0000490029002600900150024802880100af
:1017ec00000000000000060909262911314e0000f6
:1017fc0000000101010000000000000000000004d6
:10180c0002020101010101020204000001020204b2
:10181c0004040404020201000004150e1504000067
:10182c0000000000000000000808087f08080800fd
:10183c000000000000000000000002020201000095
:10184c000000000000070000000000000000000085
:10185c000000000002020000000004040402020266
:10186c0002020101010000000e1111111111110ee3
:10187c000000000000040604040404040e00000030
:10188c0000000e1110080402011f00000000000ee1
:10189c0011100c1010110e0000000000080c0a09a9
:1018ac001f08080800000000001f01010f10101194
:1018bc000e00000000000c02010f1111110e0000af
:1018cc000000001f100808040402020000000000c1
:1018dc000e11110e1111110e00000000000e11114d
:1018ec00111e10080600000000000000020200009b
:1018fc0002020000000000000002020000020202ce
:10190c00010000000040300c020c304000000000d0
:10191c00000000007f007f000000000000000002bb
:10192c000c3040300c0200000000000708080402d4
:10193c0002000200000000000000007c0082003960
:10194c0001250125012501f90002003c00000000e1
:10195c0000000c0c1212123f212100000000000f9d
:10196c0011110f1111110f00000000003c020101b8
:10197c000101023c00000000000f11212121211166
:10198c000f00000000001f01010f0101011f0000ea
:10199c000000001f01011f010101010000000000f7
:1019ac003c0201013921223c0000000000212121d0
:1019bc003f21212121000000000007020202020247
:1019cc00020700000000000e0808080808080700bd
:1019dc0000000000110905030305091100000000b7
:1019ec0000010101010101010f000000000063630f
:1019fc005555494941410000000000232325252964
:101a0c0029313100000000001c2241414141221cbf
:101a1c0000000000000f1111110f01010100000066
:101a2c0000001c2241414141221c10600000000fab
:101a3c001111110f09112100000000001e01010eef
:101a4c001010100f00000000001f04040404040414
:101a5c00040000000000212121212121211e000071
:101a6c000000001111110a0a0a0404000000000011
:101a7c00000000110111011101aa00aa00aa0044e2
:101a8c000044000000000000000011110a04040ac8
:101a9c001111000000000011110a0a0404040400d2
:101aac00000000001f1008040402011f00000000c9
:101abc000701010101010101010107000001010100
:101acc0002020202020404040000070404040404d9
:101adc000404040407000000081422410000000064
:101aec0000000000000000000000000000003f00ab
:101afc0000020400000000000000000000000000d4
:101b0c00000e101e11111e000000000101010f112a
:101b1c001111110f000000000000000e0101010165
:101b2c000e000000001010101e111111111e0000eb
:101b3c0000000000000e111f01110e000000000635
:101b4c000101070101010101000000000000001e5d
:101b5c00111111111e100e00000101010f111111b4
:101b6c001111000000000001000101010101010040
:101b7c000000000002000302020202020201000047
:101b8c000101010905030509110000000001010113
:101b9c00010101010101000000000000003749496a
:101bac00494949000000000000000f1111111111ea
:101bbc00000000000000000e111111110e000000b9
:101bcc00000000000f111111110f010100000000a5
:101bdc00001e111111111e10100000000000050351
:101bec0001010101000000000000000e01030c08bf
:101bfc0007000000000001010701010101060000bf
:101c0c00000000000011111111111e000000000055
:101c1c00000011110a0a0404000000000000004931
:101c2c00495555222200000000000000110a04044e
:101c3c000a110000000000000011110a0a0404023d
:101c4c000200000000000f080402010f0000000059
:101c5c00080404040403040404040800000202023f
:101c6c000202020202020202000001020202020c43
:101c7c00020202020100000000000046493100008f
:101c8c00000000000007050505050505070000001c
:020000040000fa
:101c9c00f0b585b00023029301938c4a94898c4a49
:101cac0095898c4a13808c4a1370022008f076fbbd
:101cbc0002688a4b1a80436803f00203002b0cbfa6
:101ccc0003260126032008f069fb0368844a13806d
:101cdc00426802f00202002a0cbf032201229bb2ce
:101cec008049b1f800c00cfb02327f4909888a4256
:101cfc0004dd7e4800880844834277db7c480088fa
:101d0c00824204dd7b4a1288024493426edb734aa2
:101d1c001788794a128806fb0272914204da734ed4
:101d2c00368831448f4267db904204da7149098866
:101d3c000844874260db934202da63449f425bdbd8
:101d4c0004224ff4186103a804f0cefdbdf80c304a
:101d5c00039304224ff41a6102a804f0c5fd042277
:101d6c0040f6a4110deb020004f0befd019e574b92
:101d7c005b88574a5188039a12f4106f00f0f68171
:101d8c0012f4007f00f09d812c400ad014f0040f57
:101d9c0000f0998114f0080f03d112f4806f40f019
:101dac009481029840b1494d2d69a842c0f08f81b1
:101dbc00524da84200f28d8102f4c065b5f5c06f9a
:101dcc0021d000204e4c2478002c40f031824a4b1c
:101ddc001b88002b00f06b82002840f0b781414b30
:101dec001988002900f03382022363e202210320c8
:101dfc0003f0f8ff1e2004e00221084603f0f2ff76
:101e0c001d2005b0f0bd002e00f0ac818642c0f064
:101e1c00ab8114f0100f00f05e810120d2e7022b91
:101e2c0000f06381022900f06281032b40f0ac8149
:101e3c0034e2314b1b8833b12a4b1988002940f00e
:101e4c0082810123a0e1274a1188003118bf0121aa
:101e5c009ae1032122e241ea030292b2002a40f005
:101e6c000482284b1b78002b40f0dc811346911e1a
:101e7c0089b2012950d915494b80154b5a80002342
:101e8c00214a1380214a1380214a138001285fd1f3
:101e9c00029bf1189e42c0f0c080b1fbf3f082b2fd
:101eac0003fb1013002b40f04181511c174b198080
:101ebc00184b1a804fe0074a4ff4806414809a1e26
:101ecc0092b2012a40f23a810a46d0e784030020fc
:101edc00400300204e0200206c020020440200202f
:101eec0080020020660200202e0300202403002024
:101efc001c0300203603002038020020000050c3d1
:101f0c00c803002079020020400200206802002053
:101f1c007c02002062020020a04901240c70a04920
:101f2c00098811b99f4900240c809f494b809f4917
:101f3c004a8000219e4c21809e4c21809e4c218009
:101f4c009e4c21800128a3d0022b76d0032a02d0ec
:101f5c00974b01221a800023994a13800093042284
:101f6c004ff48461684604f0bffc009c8c4b1b88ca
:101f7c0013b1a3b2002b64d1924b00221a80924b66
:101f8c001b78002b40f0b780904b1b783bb1844bf7
:101f9c001b8823b1834a138843f480631380002386
:101fac008b4a13808b4a13808b4a13808b4a138085
:101fbc008b4a13708b4a13708b4a13807b4a1385a0
:101fcc00538582f84030784a1385538582f8403027
:101fdc00039b13f4007f14d00299002900f08d802c
:101fec00824a914255d87a4a0120108013f4806fae
:101ffc0007d0019b994240f28480754b1a88774b2d
:10200c001a80674b1b88002b53d1794b1b88002bf4
:10201c0053d106f0cffb0020f3e6674a0120108075
:10202c00b1fbf3f082b2624c228003fb1013002b45
:10203c0091d001325e4b1a808de75f4b01211980e4
:10204c0084e70023009304224ff48061684604f077
:10205c004bfc009b9ab2002a00f0d8800232a3b24b
:10206c0046f2a71402fb0343db08624aa2fb0323dc
:10207c00c3f30f23534a13805f4a00211180002bb6
:10208c003ff47daf504b1b78002b7ff47daf1f20ae
:10209c00b7e64a095948a0fb0202d209520092b293
:1020ac005748a0fb0202d208494802809ee7012350
:1020bc0035e0022007f098fca7e7032007f094fc1a
:1020cc00a7e730209de630209be6302099e63620ad
:1020dc0097e6362095e6302093e6302091e63020c6
:1020ec008fe630208de630208be6302089e63020dc
:1020fc0087e6292085e61f2083e613f4806f80d0c5
:10210c00019b0b44394a9342d1d95b093b4aa2fb50
:10211c000323db095b003a4aa2fb0323db082c4aae
:10212c00128803eb52032d4a13806ae7224b1a8064
:10213c007fe71a4a012414700a46f3e6174a012471
:10214c0014700a46f1e6222101231de0284b198860
:10215c00002900f0a38012f4806f7ff47aae022184
:10216c00032399e000202de600202be6254a107869
:10217c0000283ff45eae9a1e92b2012aadd98a1e97
:10218c0092b2012aabd900201f4a1278002a7ff4a0
:10219c0062ae002b66d1292033e600bf710200200d
:1021ac00380200204e02002084030020400300204f
:1021bc006202002040020020680200207c02002005
:1021cc00cc030020760200207a0200207902002045
:1021dc00460200203c020020740200204c02002029
:1021ec00500200206d0200204a0200201fa10700af
:1021fc006602002089b5f81434020020c55a7c0a06
:10220c00cdccccccc80300203002002000232d4aba
:10221c0013802d4a1380b2e62c4b4ff48061198049
:10222c00134624e62a4b19880029f5d10b4624e0e5
:10223c0012f4806f30d1032b3ff453af03293ff4da
:10224c0052af12f4007f3ff4eaad022b9cd1029bfb
:10225c00204a53625360204a5362536002231f4a40
:10226c00127812b900293ff444af1d4a01241470ae
:10227c00174a1288002a7ff41eae1a4a12881ab125
:10228c00124a4ff4006414809a1e92b2012a7ff60f
:10229c0050af0a46ebe50221032bd6d1029b0d4a27
:1022ac00536253600c4a536253600323d7e70d49c2
:1022bc00098821b112f4806fedd00321c5e70b46dc
:1022cc0062e700bf76020020340200204e0200209c
:1022dc00380200208403002040030020300200203c
:0822ec007902002066020020c7
:020000040000fa
:1022f4002de9f0419b4b4ff6ff721a809a4b012255
:102304001a7010f0100723d0984a137823f01003a2
:10231400137001270e4600f00f05944b1c7805eb53
:10232400041404f0ff04442c00f0ba8000f2ad80e1
:10233400222c00f0a4801ad9242c40f09d808c49d2
:102344008c4803f03ff98046002840f0b380a7e0b2
:10235400864b1b7813f0100f04d000f00f02012af3
:1023640040f0ad8203f00f03804a1370d2e7122cc1
:1023740000f08580804b00221a80a4f11103772b92
:1023840000f25e82dfe813f0c5011601b7002802ef
:102394005c025c025c0228025c025c025c025c027d
:1023a4005c025c025c025c02af01c80128023a01d3
:1023b4005c025c025c0228025c025c025c025c025d
:1023c4005c025c025c025c02000128025c022802de
:1023d4005c025c025c0228025c025c025c025c023d
:1023e4005c025c025c025c02a3018e012802c8014b
:1023f4005c025c025c025c015c025c025c025c02ea
:102404005c025c025c025c025c025c025c025c02d8
:102414005c025c025c025c025c025c025c025c02c8
:102424005c025c025c025c025c025c025c025c02b8
:102434005c025c025c025c025c025c025c025c02a8
:102444005c025c025c025c025c025c025c025c0298
:102454005c025c025c025c025c025c025c025c0288
:102464005c025c025c025c0298018301280279012f
:102474005c025c025c02c801422c7ff47baf022048
:1024840002f02af81ffa80f810e0822cf7d004d961
:10249400842c05d0882c03d06ce7482c7ff46aafd9
:1024a400364b187802f018f81ffa80f8b8f1000fcc
:1024b4003ff460af2d4b1b78042b00f05181082ba7
:1024c40000f04a81022b00f04f81b8f1ff0f00f0b9
:1024d4006081264b187800f00f039d4200f09e8126
:1024e400b8f1000f40f0d681002e40f09d811f4bc3
:1024f4001d70b046dbe1224b01221a70022001f06c
:10250400ebff28b11e4b00221a704ff01508bbe1f7
:10251400002007f095f904f0fbfe804678b1b8f18d
:10252400ff0f00f0db81104b1b78bbb102f0acfe57
:10253400032007f040f8124b00221a70c9e70a4b37
:1025440000221a7008f094f980460028e7d10d4b58
:1025540001221a70032007f02ef8bae708f038f9c0
:10256400e4e700bf6e02002036020020370200209c
:102574003802002066020020320200207e02002081
:10258400700200201a030020af4b1b783bb94ff0b8
:10259400000807f05efaad4b00221a70ace0002090
:1025a400a94b187007f04cf902f06efe08f010f910
:1025b4008046eee707f0c6faa54b1b78002b00f027
:1025c4003a8104f0a5fe804648b1b8f1ff0f00f04f
:1025d4007881a04b1b7873b102f056fe79e79d4bce
:1025e40000221a7008f044f980460028edd19a4b75
:1025f40001221a706de708f0ebf8ede7fff74cfbea
:10260400804648b1b8f1ff0f00f06281914b1b780e
:102614009bb104f091f85ce78e4b00221a708f484e
:1026240008f028f980460028ecd18c4b188807f074
:1026340023f98b4b01221a704be708f01df9e8e7e8
:1026440006f03efc804648b1b8f1ff0f00f040812f
:10265400804b1b7873b107f0a5ff3ae77d4b00224e
:102664001a7008f00bf980460028edd17d4b012249
:102674001a702ee708f004f9ede708f001f907f005
:1026840091ff4ff00008734b83f8008021e708f0b6
:10269400f7f8804607f086ff6e4b00221a70b8f1f7
:1026a400000f29d108f0e8f804f046f84ff00008cc
:1026b400684b83f800800ce708f0e2f8804607f0e6
:1026c40071ff644b00221a70b8f1000f14d108f0a6
:1026d400d3f8804604f030f85e4b00221a70b8f14b
:1026e400000f40f0ab8002f0cffd08f071f8804697
:1026f400564b00221a702124b8f1ff0f7ff4e9ae83
:10270400594b01221a70594b1c80594bc8221a800c
:102714004fe04e4b00221a7077b9564b1b7813f0da
:102724000c0f00f0af80544b1b884bb9534b1b88e4
:1027340063b94ff0fe08a7e0204607f084feece7fb
:10274400022007f055f94ff0fe089de0032007f042
:102754004ff94ff0fe0897e008f092f807f022ffd7
:1027640008f08af803f0e8ffb8f1160f03d0414be4
:1027740002221a70a9e602f087fd08f029f8002069
:1027840007f0cef8012007f0cbf83a4b01221a707b
:102794009fe6354b01221a70344b1c80242c16d032
:1027a40013d8123ce4b29442afd8314b4ff4fa62de
:1027b4001a802f48b0f90030314981fb0321da1720
:1027c400c2eba1029b1a038079e0482c9dd1284bcf
:1027d40042f228321a80ece74ff0110879e6214bd7
:1027e4001b7853b9244b1b8863b9244b1b886bb9e2
:1027f400b8f1000f52d1deb979e608f041f807f0dc
:10280400d1feefe7022007f08bf8f1e7032007f091
:1028140087f8ede7174b04221a7043e00021124bae
:10282400197002f0bdfd4ae0284310f0080fd6d11c
:1028340045f010055be64ff051084ae641245be79a
:102844004ff0120820e000bf70020020c8030020ef
:102854003a2c0020360200201a0300204e020020e9
:10286400780200207202002064020020320200205c
:102874006e02002037020020380200206602002089
:10288400676666664ff0fe081b4b187800f00f036e
:10289400ab42c3d0284310f0080fa0d1164b1b78cd
:1028a400082bb7d0144a137843f010031370134b5a
:1028b40000221a704146104b187802f071fdbde8f1
:1028c400f0810e4b01221a700d4b12221a806ce714
:1028d4000a4b01221a700a4b1c8078e7032006f089
:1028e4006afe084b00221a70044b01221a70044b32
:1028f40013221a8059e700bf370200206402002027
:082904003202002070020020e5
:020000040000fa
:10290c002de9f04f8bb004900c4616461d46ddf8b1
:10291c0050809df854b01ffa81fa9b89c3f30322af
:10292c000692d9b20591072a00f04182ab6993f85f
:10293c000090b9f1000f40f05982a0f5e053103b24
:10294c009bb21f2b40f25082a0f5b0539bb2b3f553
:10295c00007fc0f05682a0f5d0539bb2b3f5007f38
:10296c00c0f052824ff23003984208bf89463de2d4
:10297c0074b3d146049aa2f5e053103b9bb21f2bc3
:10298c0012d9a2f5b0539bb2b3f5007f0cd3a2f5cc
:10299c00d0539bb2b3f5007f06d34ff230039a426b
:1029ac0002d00023089305e0ab691b78003318bff5
:1029bc00012308932f6a77b1cdf800b04346324615
:1029cc0021460498b847039003980bb0bde8f08fec
:1029dc00d1460894eee7002e00f0aa81ca4500f219
:1029ec00aa8154460723039300230793049ba3f562
:1029fc00e053103b9bb2099337e1102a44d0202ab4
:102a0c0040f060811ee0022b18d81bb2002b40f066
:102a1c00b280bbf1000f00f097817b8813f00f0f91
:102a2c0005d0184410f00f0f08bf08f10208c3f3cb
:102a3c00031308eb43080123079311e1032b23d065
:102a4c00042b1cd110f00f0f40f08a81089b5bb156
:102a5c003288b8f800309a4240f085817288b8f814
:102a6c0002309a4240f08281b8f800303380b8f8d6
:102a7c000230738008f1040801230793f0e0182357
:102a8c000393a1e7072bddd210f00f0f40f062810a
:102a9c00b8f80070089b1bb13388bb4240f05d81d5
:102aac00099b1f2b00f29380a7f5b0539bb2b3f593
:102abc00007fc0f09780a7f5d0539bb2b3f5007f91
:102acc00c0f09080002f00f08d80122303937be7e1
:102adc000b2b00f2368110f00f0f40f050817a88ea
:102aec000732d2104146304607f074fc7b881b0934
:102afc0008eb430801230793b2e02d2b3bd026d8db
:102b0c001e2b38d01bd8152b01d01b2b14d110f039
:102b1c000f0f40f02e81b8f800303380b8f8023037
:102b2c007380b8f80430b380b8f80630f38008f13d
:102b3c0008080123079393e01823039344e71f2b02
:102b4c00a2d0202b3ff47eaf182303933ce7372b06
:102b5c0009d8302b0fd22e2b96d02f2b3ff472afdf
:102b6c001823039330e7a3f518739bb2032bb2d948
:102b7c001823039328e77a88a54b33f8122000f02a
:102b8c000f0c02fa0cf1338823ea01031bb2bbf1e0
:102b9c00000f10d09bb2b8f8002011400b433380cb
:102bac007b88184410f00f0f40f0b28008f1020837
:102bbc000123079354e0b8f8001031ea020e40f0fc
:102bcc00c6800a4002fa0cf213439bb2e7e7049b5f
:102bdc00a3f5e153123b9bb2012b03d8012c07d078
:102bec00082c14d0378008f102080123079337e032
:102bfc003388bb4207d03946049802f0f3f80390af
:102c0c0000287ff4e1ae834b01221a70eae7824a76
:102c1c0000235361814911615360814a53611161f1
:102c2c00536017f0020fddd07b4a5385138582f871
:102c3c0040307b4a5385138582f84030d2e7002c14
:102c4c0061d07b8813f00f0f05d0184410f00f0fd4
:102c5c0008bf08f102081b0908eb4308182303936b
:102c6c00631c9bb24c4556d01c46e6b231462846f6
:102c7c0007f0e2f907462946304604f03ff8ba88d7
:102c8c00684b1b7803ea920313f00e0fd7d0ae6992
:102c9c00002c7ad0c0f30f1306eb4306a24506d0e6
:102cac00bbf1000fdcd0a245dad8002c70d03b88e9
:102cbc00b3f5e06f06d37a88082a3ff69eae02f190
:102ccc002f039bb2112b3ff422af3ff616af052b0f
:102cdc003ff451af7ff697ae082b7ff6d3ae092b9e
:102cec007ff4f6ae10f00f0f46d17a880732d2106f
:102cfc004146304607f06efb7b881b0908eb430806
:102d0c0001230793ace708f1020818230393a7e704
:102d1c0001230793a4e7079b002b039b18bf0023f9
:102d2c00039351e6112303934ee61a2303934be6c8
:102d3c000023039348e60723039345e613230393e9
:102d4c0042e6182303933fe6182303933ce6122331
:102d5c00039339e60523039336e61c23039333e6ea
:102d6c000523039330e61c2303932de61c230393c6
:102d7c002ae60523039327e60523039324e605237c
:102d8c00039321e6052303931ee6baf1000f87d1c6
:102d9c00069b072b8bd0b8f80030dab2059991421c
:102dac00ccd3338008f102080123079358e7bbf119
:102dbc00000fe7d14ff00009ca45b3d82146284689
:102dcc0007f03af98288174b1b7803ea920313f049
:102ddc000e0f7ff4cdad12f0380fa6d1002a0cbf28
:102dec00052307230393efe5ddf81490bbf1000fe7
:102dfc00e2d0002c7ff4bead0eb198f80090089490
:102e0c00d8e5ddf81490f1e7ddf81490eee700bf9b
:102e1c0008a20000c803002084030020a086010043
:082e2c004003002037020020e2
:020000040000fa
:102e34002de9f04f89b08046049114460293129d07
:102e44009df84ca01ffa81f919469b89c3f303220c
:102e54000792dbb20693072a00f06d81b0f5805f1c
:102e6400c0f063818b6993f800b0baf1000f10d001
:102e7400cdf818b0029bde6986b1cdf800a02b46d0
:102e8400224604994046b0470390039809b0bde830
:102e9400f08fcdf818b051e1cb46ebe7b8f5805f81
:102ea40004d2049b83b903934c4605e0cb4508d375
:102eb4004c460023039304930027cdf814a0c24684
:102ec400cee100230393e0e7049e3146029c2046b2
:102ed40007f0b6f842880732d21006f18041013972
:102ee400a36953f8211011f0010f22d094b221f0fc
:102ef40001026608012c0dd9002113881b0a2b80be
:102f040032f8020f43ea002325f8023b01318bb269
:102f1400b342f2d314f0010f00f0ec802b8803f4d9
:102f24007f432b80128843ea12232b8000230393d0
:102f3400abe70b882b804b886b80043a0431281d47
:102f440007f04cfa002303939fe7079b072b00f03d
:102f54002781069b25f8023b7de1bcf1100f34d09c
:102f6400bcf1200f40f02f811de0022b17d81bb2bb
:102f7400002b40f08580059b002b00f0c1807388f6
:102f840013f00f0f04d0984418f00f0f08bf023548
:102f9400c3f3031305eb4305012304935be1032b04
:102fa40013d0042b0cd118f00f0f40f0af8032f87f
:102fb40010302b804b886b800435012304934ae145
:102fc4001823039361e7072bedd218f00f0f40f09d
:102fd4009a8032f8103025f8023b012304933ae139
:102fe4000b2b00f28a8018f00f0f40f09580728846
:102ff4000732d210284607f0f1f973881a0905eb55
:10300400420513f00f0f62d02b782b800123049319
:1030140021e12d2b34d020d81e2b31d016d8152bde
:1030240001d01b2b0fd118f00f0f72d132f81030d2
:103034002b804b886b808b88ab80cb88eb800835ea
:103044000123049307e1182303931ee71f2bbcd02d
:10305400202ba8d01823039317e7372b08d8302b3d
:103064000ed22e2bb1d02f2b9dd0182303930ce717
:10307400a3f518739bb2032bb5d91823039304e764
:1030840008f00f0c7388854931f8133003fa0cf3f8
:103094009bb232f81000bcf1000f00d12f802a88b7
:1030a400059959b1034013432b807388984418f051
:1030b4000f0f09d1023501230493cce0034043faf6
:1030c4000cf313439bb2efe701230493c3e0012302
:1030d4000493c0e001230493bde0049b002b039bf5
:1030e40018bf00230393d0e611230393cde60523f1
:1030f4000393cae600230393c7e618230393c4e6a5
:1031040018230393c1e605230393bee60523039323
:10311400bbe605230393b8e605230393b5e605232d
:103124000393b2e605230393afe6baf1000f05d08b
:1031340005230393a9e6baf1000ff3d1069b4b458f
:10314400d2d30499029806f07bff8388002bced05b
:10315400534a127802ea430212f00e0f7ff49cae37
:1031640003f00703002b0cbf06231a2303938ce6fa
:10317400e1b2029806f064ff06468288484b1b7849
:1031840003ea420313f00e0f43d0b846a14504d01e
:10319400059b002b5fd0a1455dd8002c3ff4d5ae34
:1031a400029b9a69c8f30f1002eb40013388b3f510
:1031b400e06f08d3b6f802c0bcf1080f3ff6cdaefd
:1031c4000cf12f039bb2112b3ff42daf3ff621af2f
:1031d400052b3ff455af7ff6c8ae082b7ff6f3ae50
:1031e400092b7ff4fdae18f00f0f98d172880732c7
:1031f400d210284607f0f2f873881a0905eb420545
:1032040013f00f0f3ff466af2b782b800123049348
:1032140021e0b8462f80738813f00f0f05d098442f
:1032240018f00f0f04bf6f800235738813f0f00f8e
:1032340009d03b4625f8027f0133dbb27288c2f322
:1032440003129342f6dbb38803f00703002b0cbf91
:1032540006231a2303930134a4b2a345fff43daf1c
:10326400002c85d0baf5805f82d3e6b2029930464d
:1032740003f048fd80463146029806f0e1fe06461a
:103284008288074b1b7803ea420313f00e0f7ff486
:103294007daf18f00f0fbed1bce700bf08a200003d
:0432a40037020020cd
:020000040000fa
:1032a8002de9f04f0e4697b015461c46074618b153
:1032b80083690bb905f080fbb34b9e425cd17e68f5
:1032c800b389190762d53369002b5fd000230993ae
:1032d80020238df82930dff8b4a230238df82a3066
:1032e8004ff0ff392b46984613f8012b0ab1252acf
:1032f800f9d1b8eb050b0bd05b462a463146384668
:1033080005f076fe013000f02381099b5b440993a8
:1033180098f80030002b00f01b810023cde90593bd
:1033280008f10108049307938df853304ff0010b0f
:103338004546052215f8011b944804f02dfb049b13
:1033480078bbda0644bf20228df85320180744bf03
:103358002b228df8532098f800202a2a29d0079a82
:10336800454600204ff00a0c294611f8013b303b36
:10337800092b5ed908bb27e0854b9e4201d1be6868
:103388009ee7844b9e4208bffe6899e7314638465f
:1033980003f03efa002899d04ff0ff3017b0bde88f
:1033a800f08fa0eb0a000bfa00f018430490a8462f
:1033b800bee754f8042b002a01db079204e05242ce
:1033c80043f00203079204932b782e2b0bd16b78d2
:1033d8002a2b33d154f8043b002b05f10205acbf6e
:1033e8000593cdf81490032229786b4804f0d4fa99
:1033f80040b1694bc01a402303fa00f0049b034311
:103408000135049315f8011b64488df8281006222d
:1034180004f0c2fa9df82820692a29d039d8582af8
:1034280000f0c4801fd8002a00f0de808df85220fa
:10343800a2e00cfb023201200d4695e7002301357e
:10344800059319464ff00a0c284610f8012b303a1c
:10345800092a03d9002bc6d00591c4e70cfb01212a
:1034680001230546f0e7632a00f08280642addd153
:10347800049a54f8043b110602d4520648bf1bb202
:10348800002b03da2d225b428df8532044490a228f
:1034980015e0702a00f0a18060d86f2ac6d104997f
:1034a80054f8043b080602d4490648bf9bb26f2a69
:1034b8003b490cbf08220a2200208df85300ddf892
:1034c80014c0cdf818c0bcf1000fa2bf049820f0ba
:1034d800040004900df15300804613b9bcf1000fad
:1034e80009d0b3fbf2fc02fb1c3e9a4211f80ee035
:1034f80008f801ed76d9082a0bd1049bdb0708d51b
:10350800089b059a9a42debf302308f8013c08f16f
:10351800ff38a0eb08000890224b009303aa33461b
:1035280004a9384602f0acff013011d0089b42468e
:103538003146384605f05cfd013009d0049b9907f7
:1035480067d4079b039a9342b8bf13465a1c63d1aa
:10355800b3895b063ff520af09981fe7752a9ed00f
:10356800782a7ff463af78238df855300e4920e030
:1035780054f8043b8df852300123089300238df84a
:1035880053300df15208c7e78c2a0020e299000059
:10359800ac2a00206c2a0020e8990000ec99000071
:1035a800c0990000f98f0000d19900001c498df8de
:1035b8005520049a54f8043b100602d4500648bf1c
:1035c8009bb2d00744bf42f0200204921bb9049a70
:1035d80022f02002049210226ee7049b43f020039d
:1035e8000493c0e763467ce708920df1530893e71c
:1035f80001230df129023146384605f0f9fc013066
:10360800a6d008f10108079b039a9b1a9845efdb9f
:1036180097e74ff00008f6e7099a1344099361e623
:04362800c099000045
:020000040000fa
:10362c0038b50388052b40f25b81991f89b204469b
:10363c00c388013b052b00f2e880dfe803f0032d83
:10364c004662acbba94b1b8813b148f2040363e080
:10365c000c306289238943ea0243024606f0eafbf6
:10366c000346a34a0021116047f69572904205d893
:10367c00a04a01211160a04a1060b0e047f6fa722e
:10368c00904200f2f18000229a490a609a490a603d
:10369c00964a01211180bee0944b1b8813b148f26d
:1036ac00040339e04289038943ea02420c3006f0f4
:1036bc00d3fe034628b98f4b00221a6047f6fd73e0
:1036cc00d9e08c4a0021116085e0884b1b8823f0df
:1036dc0004039bb2022b02d048f204031ce0428983
:1036ec00038943ea0243834a12689a4202d048f2a1
:1036fc00050311e00c3005f0b5ff03460028ddd0c2
:10370c0069e07a4b1a88012a30d047f6fe7148f2ec
:10371c000403042a08bf0b4613f4004f00f0c380c7
:10372c0000220521a171e2712381a272e2720623ab
:10373c002370627004f10c01a38913f0ff0f00f0e9
:10374c00d18013f47f4f00f0cf8002235a0831f858
:10375c00122012f0ff0f00f0b28012f47f4f00f035
:10376c00aa800233dbb2202bf0d1aae0624d00f12b
:10377c000c01286806f022fd03462a685c490a60a1
:10378c0047f69571884242d802442a6059490a6822
:10379c0001320a6023e0554b1b8813b948f204032d
:1037ac00bae74089238943ea004006f047ff47f611
:1037bc00ff73b1e74d4b1b88012b04d0042b02d0b7
:1037cc0048f20403a8e704f10c02494b196820895c
:1037dc0006f0c4ff034647f69572934217d8454a44
:1037ec0012680321a1710021e1712281c2f30f4201
:1037fc0062819a1d2280414a12880c3a93423b4bbb
:10380c000cbf012204221a8011e048f2040347f68f
:10381c00fa72934228d800220621a171e271a3f515
:10382c00ff43163b2381a272e27221706270344b0b
:10383c001d78002d49d0a388c3f30b03a380314a14
:10384c00127812f0070f02d12e4a012111702d4966
:10385c000a7843ea0233a38001320a70204603f04f
:10386c007ff90023184638bda3f5ff427c3a92b28b
:10387c00012a3ff651af1f490a68501c086000210d
:10388c000420a071e1712281c2f30f4262810622f1
:10389c002270617047f6fd729342144b0cbf0222ea
:1038ac0000221a80c3e70025104b1d80204606f02d
:1038bc00d5fe2b46d6e70133dbb21f2b01d80733dd
:1038cc0023800a4b00221a80b1e74021204604f0e5
:1038dc002bfa03460028c5d00b4b1c602b46c1e7c6
:1038ec000623bfe70023eae70123e8e71c020020d8
:1038fc0028020020200200201802002024030020af
:0c390c0070020020ac0200202402002009
:020000040000fa
:103918002de9f047089e04468846002b40f0858034
:103928008a42154648d9b2fa82f24ab1c2f1200752
:1039380001fa02f320fa07f7954047ea0308944092
:103948004fea154e230cb8fbfef71ffa85fc0efb59
:10395800178843ea084307fb0cf1994209d9eb1889
:1039680007f1ff3080f0e380994240f2e080023fa7
:103978002b445b1aa4b2b3fbfef00efb103344eaef
:10398800034400fb0cfca44509d92c1900f1ff33b2
:1039980080f0cb80a44540f2c88002382c4440ea2d
:1039a8000740a4eb0c0400271eb1d4400023c6e94d
:1039b80000433946bde8f087002a53d0b2fa82f2b4
:1039c800002a40f0b680491b4fea154e1ffa85f8c9
:1039d8000127b1fbfefc230c0efb1c1143ea01433b
:1039e80008fb0cf1994207d9eb180cf1ff3002d211
:1039f800994200f2ec808446591aa3b2b1fbfef05a
:103a08000efb101443ea044408fb00f8a04507d94c
:103a18002c1900f1ff3302d2a04500f2dc801846d1
:103a2800a4eb080440ea0c40bee78b4208d9002efc
:103a380078d00027c6e9000138463946bde8f08746
:103a4800b3fa83f77fb98b4202d3824200f2bd807a
:103a5800841a61eb030301209846002ea9d0c6e919
:103a68000048a6e7ffdec7f12005bb4022fa05fca7
:103a78004cea030c01fa07f420fa05f821fa05f3d9
:103a88004fea1c4e48ea0404b3fbfef9210c0efb76
:103a980019331ffa8cf841ea034309fb08fa9a45df
:103aa80002fa07f200fa07f10bd91ceb030309f13c
:103ab800ff3080f088809a4540f28580a9f102099c
:103ac8006344a3eb0a03a4b2b3fbfef00efb10336e
:103ad80044ea034400fb08f8a04508d91ceb040499
:103ae80000f1ff336bd2a04569d90238644440ea3b
:103af8000940a4eb0804a0fb02894c45c6464b4686
:103b080054d351d0002e69d0b1eb0e0264eb0304fc
:103b180004fa05f522fa07f3fc401d43c6e90054f0
:103b2800002746e73746304643e7184637e7074653
:103b38001fe7c2f1200320fa03f7954001fa02f0cb
:103b480021fa03f34fea154e3843010cb3fbfef795
:103b58001ffa85f80efb173341ea034107fb08f308
:103b68008b4204fa02f407d9691807f1ff3c28d2fe
:103b78008b4226d9023f2944cb1a81b2b3fbfef00f
:103b88000efb103341ea034100fb08f38b4207d9cf
:103b9800691800f1ff3c10d28b420ed90238294433
:103ba800c91a40ea074714e74145abd2b8eb020e01
:103bb80069eb0c0201381346a4e76046f0e71846a3
:103bc80095e76746d8e781467be7384645e7acf195
:103bd800020c2b4410e702382c4421e73746e8e66c
:020000040000fa
:103be800f0b585b0044600238df80f30058905f03f
:103bf8007f05052d0fd00388072b40f23c81032d4c
:103c08000dd0052d0bd0012d40f010818389052b97
:103c180010d9022122e10388092b40f22a81a389c5
:103c280098b2adf80c30b0f5805f77d205238df8e7
:103c38000f30fee0924d00686168a26807c5a2894e
:103c48002a8013f0ff030ed100258e4b1d8004f14e
:103c58000c06e8b204f066ff26f8020f0135052dc0
:103c6800f7d1122022e0013bddb2864b19880029ea
:103c780035d0854b1a880c3a92b204f10c0383486c
:103c88000088adf80c0001397e4801800df10f0164
:103c9800009103a9284603f091fc7c4bbdf80c2049
:103ca8001a80794b1b88063b181a80b220809df831
:103cb8000f30002b40f0bd80238923f07f0242f0b3
:103cc800020222816f4a12886281002a00f0d580a0
:103cd80023f0ff0343f0820323818221bee02846bc
:103ce80004f020ff4ff48053adf80c30664b198870
:103cf800a1f10e0292b204f10e034000904209ddd8
:103d08000c398eb2811a701e014491fbf6f15d48a0
:103d18000180bbe75b4900200880b7e706f060fa3e
:103d2800064600287ed0032d0bd0e789ffb206f0a7
:103d38009bfd4388dbb29f4232d911238df80f30a7
:103d480077e006f091fd0368c4f80e300023324690
:103d58001946bdf80c0002f009fc4b4b1b88053bcb
:103d68000c3080b283420fdc0c229df80f30002b00
:103d78005fd1a372e3722280238923f07f03013588
:103d88001d432581022169e004f112033246002116
:103d9800bdf80c0002f0eafb00f10c0292b2e4e775
:103da8003946304606f04af9036823618388a382be
:103db800e389dbb2e381304606f056fd4388c3f35e
:103dc8000323083b9bb2012b0fd877b9304a1668fa
:103dd80050689168c4f81660c4f81a00c4f81e1038
:103de800127b84f822201c22bfe700233246394682
:103df800bdf80c0002f0bafb234b1a88053a00f113
:103e080010039bb29a4201dc1022aee704f11603bc
:103e180032463946bdf80c0002f0a8fb00f110024a
:103e280092b2a2e708238df80f3002e003238df841
:103e38000f309df80f1000220a2323706270238927
:103e480023f07f0343f007032381a272e272114b30
:103e580053f82130e3600b4b1a800221204603f00f
:103e680065ff034610b10c4b1c600023184605b0d3
:103e7800f0bd0623fae70623f8e70221eee700bfc4
:103e88001c2400200824002024030020e82300200c
:0c3e9800502b0020ec85000014020020dc
:020000040000fa
:103ea40038b5804b1b78002b68d07f4bb3f90030ba
:103eb400002b6bd17d4b1b88c3f30714242b32d00a
:103ec40011d8123b9bb2012b00f2e680784b1b7891
:103ed40033b301f0d9f9774b1b78002b00f0de8067
:103ee400754b1d8815e0482b12d1744b1b78002ba1
:103ef40029d0734b1b78002b30d0724b1b78002bce
:103f04003dd1714b1b88002b0cbf1a251b2526e0c5
:103f14000025002c32d0634b00221a7055b327e0e1
:103f240006f056fcd5e7624b1b784bb102f004fc5b
:103f3400604b1b78002b00f0b3805f4b1d88e8e7d3
:103f440006f09afcf2e7604b1d88d5b95f4b01225d
:103f54001a70544b00221a7008240be02d25544b80
:103f64001b7883b106f01efb44b14e4b00221a703d
:103f740044f010042946204601f012fa38bd1a25ef
:103f8400ede71b25ebe706f07bfcebe7474b1b88d3
:103f9400242b46d01bd8123b9bb2012beed8444baa
:103fa4001b78002bead0424b00221a7006f060fc0a
:103fb400054600282ed1464b01221a703b4b1c7833
:103fc40014f00f04dad0374b00221a70d2e7482bd2
:103fd400d4d1374b1b78002bd0d0384b1b78002b17
:103fe40040d03c4bb3f90030002bc7dd3a4ab2f95c
:103ff40000209a42c2db0023364a1380364a1380db
:104004002b4a137006f03afc28bb304b01221a707d
:10401400082415e0ff28b1d006f0dafb01f034f9ea
:10402400ace7234b1b78002ba8d0214b00221a703d
:104034002a4806f01ffc38b9294b01221a700424bf
:104044000025184b1d7095e7ff2897d006f014fc47
:1040540002f072fb92e7ff2890d006f011fc06f004
:10406400a1fa8be7184b1b881bb1164b1b78002b4e
:1040740084d00f4b00221a7006f000fc20b9134bb9
:1040840001221a700824dbe7ff283ff477af06f01b
:10409400f7fb06f087fa71e700253ae7012563e7a5
:1040a400012561e7640200206e0200203202002034
:1040b400360200203e0200203a0200207102002055
:1040c400500200206c0200203802002072020020fe
:1040d4001a0300204a020020420200204e0200205f
:0440e400780200203e
:020000040000fa
:1040e80070b5adf5804d82b06d4b1b7823b1012bb7
:1040f8007dd16c4e6c4c98e0202200210df50050cb
:10410800083006f0b5fa06f0b5f90028fbd1674c7f
:10411800674a0121204606f073fa2378002b654b85
:10412800a3f5002218bf1346634a136004f0cefcbf
:104138000021624806f0c0fa05f02cfb01f0c4ff2c
:104148004ff6ff7006f071f906f059fb0022114690
:104158005b4804f0dbfe0a220f215a4800f0b0fa4f
:104168001e220521584800f0abfa2d220521574898
:1041780000f0a6fa642006f087f94ff6ff7006f003
:1041880054f9534d534c6a6821460df500500830d8
:1041980005f0c4fa19220521201d00f091fa4ff606
:1041a800ff73009350235a223721192001f098fefb
:1041b800372219210df50050083000f081fa01f07e
:1041c80013fd06f02df804f0d5fd0124364b1c70c4
:1041d8000021414806f07cfa0021404806f084faa4
:1041e800214605f1080005f0a5f82d4b1c700df5ca
:1041f800804d02b070bd4ff43c224ff400510df5d4
:104208000050083006f0fcf906f050fa80f0100073
:10421800c0f300100df58043187024e002f0d2fbc3
:1042280003f00afc2378012be1d106f09ffa01285c
:10423800f4d106f01ff90028fbd14ff478324ff47f
:10424800006102a806f0dcf90df5005508354ff4b9
:104258003e224ff40061284606f0d2f99df8082066
:104268002b789a42c7d00df5005108314ff43c2005
:1042780005f080f906f0fef80028fbd106f0c8f931
:1042880006f0f8f80028fbd14ff400231b683268c9
:10429800b3f1ff3fc2d083f308881047bee700bfe1
:1042a8003824002004000800480100203924002098
:1042b800fcdf030000e00b00f801002081a70000ec
:1042c8000c160000c02b0020282b00203c2b0020bf
:1042d800782b0020d0a500000fa800008da70000b3
:020000040000fa
:1042e800f0b585b00023039304224ff4a06103a81e
:1042f80002f0fcfa039c002c01db05b0f0bd04f0d1
:10430800e064042240f204510deb020002f0eefae0
:104318000198039b23f0e0430393b4f1807f28d0f6
:1043280018d9b4f1007f42d0b4f1806f40f0bf805b
:10433800614b1b88082b5ad0604b1b68002b00f080
:10434800a0809847002800f09780039b43f0005313
:10435800039302e0002c40f0aa80594b00221a80f7
:10436800039b029304224ff4a06102a803f07cf897
:10437800c3e7544a12683ab190470028edd0039b2e
:1043880043f000530393e8e7b0f5006f0bd84e4aab
:10439800146844b1484b1a884ff4a16104eb4000fb
:1043a80003f062f8d9e743f000530393d5e7474a8f
:1043b800126852b1904718b1039b43f0005303931e
:1043c800434b4ff47a721a80c7e7b0f5006f0ad8ea
:1043d8003d4a14683cb102224ff4a16104eb40004d
:1043e80002f084faece743f000530393e8e7354d15
:1043f800354e314f2ce0039b43f000530393ace759
:104408003368002b33d03a884ff4a16103eb4000a6
:1044180003f02af8039b23f0f0430393029304224a
:104428004ff4a06102a803f01ff804224ff4a06122
:1044380003a802f05bfa039c04f0e064042240f253
:1044480004510deb020002f051fab4f1806f84d1ef
:104458000198b0f5006fced82b68002bd0d09847c4
:104468000028d7d0039b43f00053039375e7039bc1
:1044780043f00053039370e7039b23f00063039317
:104488006be704f0d1f968b90f4b186850b10422f2
:104498004ff4a161103002f0e7ff039b23f00063a3
:1044a80003935ae7039b43f00063039355e743f0f4
:1044b8000053039351e700bfa2010020040200202b
:1044c800a001002040010020f80100204401002044
:0444d8000c020020b2
:020000040000fa
:1044dc00704b1a8841f6fe739a4240f2d78070b541
:1044ec000446002005f05aff436813f4803f03d0c4
:1044fc0003f00c02042a01d0162070bd13f0020f39
:10450c00fad00268130c223b9bb2de2bf4d8a2f536
:10451c0080539bb2b3f5805feed2012005f03effd5
:10452c00436813f4803fe7d013f00c0fe4d113f081
:10453c00020fe1d003681a0c223a92b2de2adbd8c1
:10454c00a3f580539bb2b3f5805fd5d2032c14d85e
:10455c00032c44d0504b1b78a34240f299804f4e11
:10456c004d4d204605f01aff436833600134e4b228
:10457c002b78a342f5d80020bfe7494b01221a70d3
:10458c00032005f00bff0268130c406810f4803f09
:10459c003ad0002b3ed043490988994201d00321df
:1045ac0039e0013b9bb2432b3ad810f00c0f39d1b8
:1045bc0092b23d4b1978022905d03c4b1b88934293
:1045cc0007d0022127e0a2f5805293b2b3f5805fa9
:1045dc0021d210f0020f02d0314b00221a700220af
:1045ec0005f0dcfe0268130c406810f4803f42d0ea
:1045fc00002b47d02e490988994215d0032102205f
:10460c0001f0f0fb1d2078e7264a12881343e6d010
:10461c00032100e00421032001f0e4fb1e206ce7e1
:10462c000321f8e70421f6e7013b9bb2432b2bd87f
:10463c0000f00c03042b01d00421e0e792b21a4bda
:10464c001978022905d01b4b1b88934207d00221f5
:10465c00d5e7a2f5805293b2b3f5805fcfd2c0f309
:10466c008012154b1a7010f0020f3ff473af0c4b05
:10467c0000221a706ee70e4a128813433ff46aaf99
:10468c000321bce70421bae70321b8e714207047e3
:10469c00002032e76a0200207e020020f02b00206e
:1046ac003002002066020020370200208002002029
:0c46bc0038020020440200207a02002096
:020000040000fa
:1046c8005f2900f2c2805f2a00f2bf802de9f04f17
:1046d80083b05e4b19805e4b1a80431e01933ae00b
:1046e800009b13f801bb009301251bea050f08d1b5
:1046f8000134a4b26d00edb2b4420ad0002df4d159
:10470800eee7544b1a885146e0b202f057feefe745
:1047180026460137bfb208f101085ffa88f84e4b08
:104728001b8843450ed9494b1c88b9f1000fefd0bf
:10473800661c09f1ff3356fa83f6b6b200255ffa14
:1047480087fadbe7454b1b7813b1414b1f8002e02a
:1047580001363e4b1e80019a12f8013f0192002b50
:1047680070d09bb23e4a12889342f4d33d490988df
:104778009942f0d33c4909689b1a9b009bb20833c5
:10478800ca1811f803909078d3781b0403eb002320
:1047980052781344cb180093304b1b78002b40d031
:1047a800022b48d0294bb3f800b02b4b1c88002ca7
:1047b80033d04ff0000a57461ee01aea060f0dd113
:1047c800013dadb27600f6b2a5420fd0002ef4d16d
:1047d800009b13f801ab00930126eee71d4b1a88e6
:1047e800e9b2404602f0eafdeae72c460137ffb29b
:1047f800194b1b88bb4210d9154b1d88b9f1000f06
:10480800f3d06c1e09f1ff33dbb2e41aa4b2002620
:1048180007eb0b085ffa88f8d8e7013c0c4b1c80c3
:1048280099e70b4b1f880c4b1e88002e90d04ff039
:10483800000bd84677e7064b1f88074b1b88002bd1
:10484800f5d182e703b0bde8f08f70472a2c00202d
:104858003a2b0020ce2b0020de2b00204b2a0020f4
:0c486800d62b0020262c00209c2b0020ca
:020000040000fa
:104874004ff086439b7d002b00f0bd8010b54ff0b8
:104884008642536803f00703127e12f0040f64d0cb
:104894004ff08642906a584a5169d26891425cd27c
:1048a400002b49d1544b5a684c1c5c6150544ff056
:1048b40086431b7e13f0010f1ad04ff0864301226a
:1048c4001a754d4b9a699b689a4261d24a4b196892
:1048d400501c98618a5c4ff086439a62464b9a69f1
:1048e4009b689a426bd0444b5a69db689a4274d0f5
:1048f4004ff086431b7e13f0020f15d03f4b1b78fd
:10490400cbb13d4b5a69db689a4210d13a4b002235
:104914001a774ff086410720087538490a701b6ad8
:104924004bb1354a506a9847344b1b781bb14ff052
:10493400864302229a7510bd2f4b5a684c1c5c6149
:1049440022f811004ff086431b7e13f0010fcfd0e5
:104954004ff0864301221a750be04ff08642127e17
:1049640012f0010fc4d04ff0864201211175002bc3
:10497400a7d0214b9a699b689a4214d21e4b19689e
:10498400501c986131f812204ff086439a62a5e7d3
:10499400194b1b6943b34ff08642ff219162013bdf
:1049a400154a13619ae7144b1b69ebb14ff0864229
:1049b4004ff6ff719162013b0f4a13618ee70e4b74
:1049c4001b69002b8fd10d4b01221a704ff08643c7
:1049d4001b7e13f0020f94d1a9e74ff08643012206
:1049e4009a7504221a7583e7034b9a699b689a4265
:1049f4007ff479afe7e77047c0000020372c002030
:020000040000fa
:104a04002de9f041514b93f82c30002b40f0958068
:104a1400054603f0ff044d4b1b7d03f0ff07002bfd
:104a240040f08c800668341c18bf0124002808bf9d
:104a34000024002c00f08280454b002908bf194651
:104a4400b1eb061f3ed34ff000080a46434630053b
:104a5400310b05f0bff8c0f58030002873d03d4b12
:104a6400196821f0020119601946ca69002afcd1ab
:104a740080b2384b98816b68022b4cd03548026861
:104a840022f0706222f4604242ea483242f08072bc
:104a940002604268ab68e9680b4322f4005222f0da
:104aa400070213436a68134343602a4ad369002bfd
:104ab400fcd1284a136843f002031360d369002b26
:104ac400fcd13be0b1ebc60f0ad30a460023f00445
:104ad400710b05f07ff8c0f580304ff00208bce799
:104ae40006eb46038b422cd80022b01942eb02039a
:104af400801943eb0206330443ea104302041046d0
:104b04001e460a460023314605f064f8c0f580309d
:104b14004ff00408a1e70f490b6823f0706323f4f6
:104b2400604343ea48330b604a68ab68e868034370
:104b340022f0070213434b60b7e700242046bde888
:104b4400f0813c46fae73c46f8e700bfec00002061
:084b5400006cdc02003000409f
:020000040000fa
:104b5c0030b583b04ff48033019303f0c9fc4b4b59
:104b6c001b78002b3cd103f055ff044610f0200fae
:104b7c003ed114f0010f4ed0454b1b78002b3ad090
:104b8c0014f0100f5fd1424b1b78002b5bd13f4bc5
:104b9c001b781bb3019b13f4803f57d014f4007f98
:104bac005cd1019b13f4003f63d03a4b1b7883b963
:104bbc0003f0d0fe374b1b78002b5fd0019b43f0ea
:104bcc0000730193042240f60c010deb020002f07d
:104bdc0049fc03f01fff10f4807f53d103b030bdac
:104bec00042240f60c010deb020001f07dfebae749
:104bfc00fff774fbbde70025009504224ff490717c
:104c0c00684601f071fe24f01104a4b229469df807
:104c1c000000fdf769fb14f0100fb4d01c4b1b788f
:104c2c008bb91d4b187810f0100fb0d120f0100379
:104c3c00012bacd024f01004a4b2002100f00f0022
:104c4c00fdf752fb9fe7fff727f9a0e7124b187807
:104c5c00002100f00f00fdf747fb9fe70f480023f2
:104c6c00036004220e4b198802f0fcfb02f074f96d
:104c7c0097e7084b1b78002babd099e7019b23f0ef
:104c8c0000739ee701f02ef8a8e700bf1a0300207e
:104c9c006402002038030020370200205402002058
:044cac002e030020b3
:020000040000fa
:104cb00030b40c46002954d0002852d04b49097f0b
:104cc000002940f091804ff086456d6805f007059a
:104cd000012d4cd0454908604a6000254d618d6129
:104ce0000d61a84208bf2c468c60aa4218bf1d4621
:104cf0000a46cd60012111774ff08642127e12f0f4
:104d0000040f06d04ff08642916a117e11f0040f15
:104d1000fad14ff08642518b41f004015183117e4c
:104d200041f080011176a54202d92a1b2f490a6160
:104d30004ff08642526812f0070f2ed12b4a92692b
:104d4000a2421ed200784ff0864188620132274984
:104d50008a61002b3fd04ff0864304229a750121cf
:104d60003fe0002b3cd0002aa8d1002139e014b14b
:104d700014f0010f35d1002bacd013f0010fa9d0e6
:104d80002fe01a4a1269002ae3d04ff08641ff2033
:104d90008862013a15490a61dbe76408134a9460a6
:104da0001169490811616d08d5609269944207d96b
:104db00000884ff08641886201320c498a61c8e759
:104dc0000029c6d04ff086424ff6ff70906201393d
:104dd000064a1161bde701214ff08643997500e055
:104de0000021084630bc70470021fae7c0000020cf
:020000040000fa
:104df000222913d8dfe801f07f144b65121212123a
:104e00001212121212121212121212121212121282
:104e100012121212121212121212390012207047bc
:104e200041f63243984213d041f63343984266d15b
:104e3000394b9b8913f0020f63d0384b1b88002b32
:104e400061d1374b1b88002b0cbf1220002070470c
:104e5000324b1b88002b50d0324b9b8903f002034e
:104e6000002b0cbf12200020704741f633439842bc
:104e700001d012207047284b9b8913f0020f44d0b9
:104e8000264b1b88002b0cbf12200020704741f6d8
:104e9000324398420cd041f63343984237d11e4bef
:104ea0009b8903f00403002b0cbf122000207047e5
:104eb0001c4b9b8903f00403002b0cbf1220002025
:104ec000704741f6324398420cd041f63343984242
:104ed0001fd1114b9b8903f00803002b0cbf12203c
:104ee000002070470f4b9b8903f00803002b0cbf79
:104ef00012200020704700207047122070471220b7
:104f000070471220704712207047122070471220fd
:104f100070471220704700bf400300203802002075
:084f200066020020840300205a
:020000040000fa
:104f280030b583b000230193042211460deb020033
:104f380001f0dcfc019b2a4c1a0a22701b0c9b0214
:104f480003f6ff73274a138004f0fafd23784bb168
:104f58000024234de0b204f0e1fc01342a78e3b2e6
:104f68009a42f7d801f066fe00241f4b1c701f4bb5
:104f78001c701f4b1c701f4b1c701f4b1c701f4b51
:104f88001c701f4b1c701f4b1c801f4b1c801f4b21
:104f98001c801f4b1c801f4b1c801f4b1c801f4bf1
:104fa8001c701f4b1c701f4b1c801f4b1c801f4b01
:104fb8001c801f4b1c8001201e4b1870214600f0de
:104fc800edf91d4b1c801d4b1c701d4b1c7004f013
:104fd800bffc05f0dbfa204604f030fc03b030bd1e
:104fe8007e0200206a0200207002002036020020a3
:104ff800640200206c020020720200207802002067
:105008007a02002076020020340200203c020020b0
:1050180046020020740200204c0200207102002089
:105028003e0200203a0200204e02002038020020f2
:105038006602002037020020320200207f02002092
:0450480079020020c9
:020000040000fa
:10504c003f4b00221a7403f500633e4a9a621a46db
:10505c00536813f0100ffbd13b4b3c4a1a631a46b2
:10506c00536813f0400ffbd1374b4222c3f8842016
:10507c001a46d2f8843013f0400ffad0344b002289
:10508c009a6377225a631a46d36b13f0040ffbd141
:10509c002f4b022283f830201a46d36b13f0020fe9
:1050ac00fbd12b4a136c03f00303032bfad1294bce
:1050bc0001225a711a46d37813f0010ffbd0224b00
:1050cc00254a1a621a46536813f0040ffbd11e4b83
:1050dc00224a5a621a46536813f0080ffbd11a4b36
:1050ec001e4ada621a46536813f0200ffbd1164b96
:1050fc004122c3f890201a46d2f8903013f0400f9a
:10510c00fad0114b4422c3f89c201a46d2f89c309a
:10511c0013f0400ffad00c4b4322c3f808211a4667
:10512c00d2f8083113f0400ffad00a4b6ff07f42df
:10513c001a6141f2ff725a6101221a62704700bf74
:10514c000014004006013000001c00400601010064
:10515c000010004000080040070101000701020098
:020000040000fa
:10516c0000297ad02de9f0470c46404b1e68b6f565
:10517c00002f75d23e4b1b680b44b3f5002f5cd847
:10518c00174605463b4b1b6801eb0308b8f5005f5f
:10519c0059d9c3f50052dff8e0a0caf80020dff8b7
:1051ac00dc90014609eb030005f014f9dff8c4802c
:1051bc004ff40053c8f800304946304603f0f0ff76
:1051cc00d8f80010294b1a680a441a60284a136848
:1051dc000b441360daf800100023c8f80030641a8e
:1051ec00a4b222462944484605f0f4f8c8f8004019
:1051fc00204b1b68b3f5005f0dd0002f33d1b3f5f6
:10520c00005f08d2c3f500521b490a60ff211b48fe
:10521c00184405f02bfa154c1849206803f0c0ff10
:10522c0014490868226802442260114a1368034436
:10523c00136000200860bde8f0870d4b00221a6057
:10524c0048f20300f7e70a4601460c48184405f0fb
:10525c00c1f8084bc3f80080cae748f20d0070474c
:10526c0048f20d00e7e70020e5e700bff82b00202f
:10527c00fc2b0020002c0020042c0020d00300204c
:020000040000fa
:10528c0010b582b00020374b187004f045fb01209c
:10529c0004f042fb344b1868e8b105f0dff9334bee
:1052ac001868f0b1304b1b6898421ad017e005f023
:1052bc00d5f9204604f0d2fd0028f8d12c4c01e0a1
:1052cc0005f0ccf9204604f0c9fd0028f8d104f013
:1052dc003dfb02b010bd254b186800283cd005f0f2
:1052ec00bdf9244b186848b11f4b1b68984205d078
:1052fc001e4b1b68834201d005f0b0f902f056fa40
:10530c0005f030f800241c4b1c60174b1c60194b2b
:10531c001c60164b1c60194b1c700194042240f647
:10532c000c010deb020001f0dffa019b23f000737e
:10533c000193042240f60c010deb020002f092f8ee
:10534c000f4b1c700f4b1c700f4b1c700f4b1c70b9
:10535c000f4b1c700f4cace7064b18680028c7d1dc
:10536c00cce700bf1a0300203c03002020030020e0
:10537c00b002002028030020300300203803002056
:10538c00190300202c0300203503002034030020d7
:08539c00ac020020e402002035
:020000040000fa
:1053a40030b583b004460d463d4b1b7883421cbf89
:1053b4003b4b18704ff6ff7399421bd1384b1b7847
:1053c400019304224ff498710deb020002f04ef8a1
:1053d40014f0100f22d0a5f11a039bb2182b30d869
:1053e400304a22fa03f313f0010f2ad02e4b012284
:1053f4001a7016e0019104224ff49a710deb020029
:1054040002f034f8264b1b78019304224ff4987170
:105414000deb020002f02af8002dd9d1224b002214
:105424001a7021490b7843f010020a7004f00f043b
:10543400013c072c13d8dfe804f00f222e261212a9
:10544400122a1a4b1b78012bd0d01b2d164b0cbfe4
:1054540002220d221a70e4e7154b00211970144939
:105464000b7843f010030b7043ea022300930422e9
:105474004ff49c71684601f0f9ff03b030bd0c4b4a
:105484000d211970ebe70a4b01211970e7e7084b6e
:105494000f211970e3e7064b0e211970dfe700bff7
:1054a40037020020010008017f0200203e02002094
:0454b400480200208a
:020000040000fa
:1054b80038b5364b1b7813b903f0b0fc38bd03f090
:1054c800b1fb10f4806f1dd0314b1b782bb1314be1
:1054d8001b7813b1304b00221a80304b1b8d13b14f
:1054e800013b2e4a13852d4b1a8d2d4b1a852d4bba
:1054f80001221a702c4b00221a802c4b1b7863b3a4
:1055080002f0a4fc254b5b88012b38d0284b1b7874
:105518002bb1234b5b88012b34d0222b32d003f0e4
:1055280081fb10f4806fc7d01c4a538d01339bb2a6
:1055380053851b4a53851f4d1f4c0422298820463a
:1055480003f038ff29881d4b1b88194404390422ad
:1055580089b2204603f02effaee7164d164c042202
:105568002988204603f026ff2988144b1b881944f4
:105578000439042289b2204603f01cffc2e704f074
:10558800c7fac3e703f018f9c9e700bf790200209a
:1055980050020020710200207c02002084030020b9
:1055a800400300206c020020340200207202002018
:1055b8007802002044020020540200203802002013
:020000040000fa
:1055c8002de9f04f83b0009001913f4b1c8884b3c4
:1055d8004ff000099a464ff0010bc84618e01d46e7
:1055e800b4693146e8b201f08bfbc0f30e1014f831
:1055f800104044441ffa84f86b1c9bb2bd42eed1a4
:1056080009f10109baf800201ffa89f39a420fd963
:105618001ffa89f30aeb4303588804f0e1fd0646b4
:1056280000283dd083691f88002fe9d05d46d7e761
:1056380044460734c4f3cf08244b1888002840d0c8
:105648004ff0000a5546dff884b018e01c46d6f83b
:1056580018903146e0b201f053fbc0f30e1019f870
:1056680010301d44adb2631c9bb2bc42eed10af1ae
:10567800010abbf800201ffa8af39a420ed91ffad2
:105688008af30beb4303588804f0aafd0646a8b139
:1056980083691f88002fead00124d8e7002003e09f
:1056a8004ff0000845462520eb1ddb10009a1380bb
:1056b800019ba3f8008003b0bde8f08f00252420eb
:1056c800f2e70546f0e700bfd02b0020d82b0020da
:020000040000fa
:1056d8008a892de9f041054610070c4658d44b68d5
:1056e800002b05dc0b6c002b02dc0020bde8f081f0
:1056f800e66a002ef9d0002312f480522f682b603e
:1057080032d0606da3895a0705d56368c01a636be8
:105718000bb1236cc01a00230246e66a216a2846a8
:10572800b047431ca38906d129681d292cd82a4ac9
:10573800ca40d60728d500226260d90422692260af
:1057480004d5421c01d12b6803b96065616b2f60d9
:105758000029cad004f14403994202d0284602f035
:10576800b9f900206063c1e7216a01232846b047e0
:10577800411cc7d12b68002bc4d01d2b01d0162b80
:1057880001d12f60b1e7a38943f04003a381ade7be
:105798000f69002fa9d093070e6808bf4b690f60e7
:1057a80018bf0023a6eb07088b60b8f1000f9cdd3b
:1057b80043463a46216aa66a2846b047002806dcce
:1057c800a38943f04003a3814ff0ff308ee70744dd
:0c57d800a8eb0008e9e700bf010040203a
:020000040000fa
:1057e40008b5354b00221a80344b1b78002b3dd072
:1057f400334b1b781bb1334a138801331380324b6c
:105804001b883bb3314a128893421dd2304b1b880c
:10581400002b41d02f4b1b8d2f4a12899a4219d34a
:1058240003332c4a138515e00023284a13802b4a9e
:1058340013850fe002f0c2ff294b1b88012b15d101
:10584400204b00221a8011e0214b1b888bb10132be
:105854001e4b1a8004f05ef9194b1b7833b1204bb0
:105864001b881bb1174a12889a42e3d003f0d8fa76
:1058740008bd1c4b1b88002be9d003f0d5f910f4ac
:10588400006fd1d1114b1b880f4a12889a42e1d381
:1058940001330e4a1380dde7124a1288002ad9d058
:1058a400002bd7d10d4b1b8d0b4a12899a42e4d39e
:1058b40003330a4a1385e0e73c020020710200200a
:1058c4007802002040020020680200207c020020b0
:1058d4003802002084030020602b002040030020b5
:0858e4006202002066020020b0
:020000040000fa
:1058ec0000202020202020202020282828282820a4
:1058fc00202020202020202020202020202020209c
:10590c002088101010101010101010101010101003
:10591c0010040404040404040404041010101010f3
:10592c0010104141414141410101010101010101bd
:10593c00010101010101010101010101101010100f
:10594c00101042424242424202020202020202028f
:10595c0002020202020202020202020210101010e3
:10596c00200000000000000000000000000000000b
:10597c00000000000000000000000000000000001b
:10598c00000000000000000000000000000000000b
:10599c0000000000000000000000000000000000fb
:1059ac0000000000000000000000000000000000eb
:1059bc0000000000000000000000000000000000db
:1059cc0000000000000000000000000000000000cb
:1059dc0000000000000000000000000000000000bb
:0159ec0000ba
