:020000040000fa
:10000000f0ff0320d9c7000001eb000007eb000060
:1000100013eb000019eb00001feb000000000000d4
:100020000000000000000000000000002798000011
:100030000deb00000000000027980000f1dd00003b
:1000400027980000279800002798000027980000b4
:1000500027980000279800002798000027980000a4
:100060002798000027980000279800002798000094
:100070006ddd000099dd0000279800002798000042
:10008000279800002798000027980000c5dd000091
:100090002798000027980000279800002798000064
:1000a0002798000027980000279800002798000054
:1000b0002798000027980000279800002798000044
:1000c0002798000027980000279800002798000034
:1000d0002798000027980000279800002798000024
:1000e0002798000027980000000000000000000092
:1000f000000000002798000055cd000055cd0000fd
:1001000055cd000055cd000027980000279800002d
:1001100027980000279800002798000027980000e3
:1001200027980000279800002798000027980000d3
:1001300027980000279800009d6800009d68000037
:100140009d6800009d680000279800002798000027
:100150002798000027980000000000000000000021
:10016000000000000000000000000000000000008f
:10017000000000000000000000000000000000007f
:100180002798000027980000279800002798000073
:100190002798000027980000279800002798000063
:1001a0002798000027980000279800002798000053
:1001b0002798000027980000279800002798000043
:1001c0002798000027980000279800002798000033
:1001d0002798000027980000279800002798000023
:1001e0002798000027980000279800002798000013
:1001f0002798000027980000279800002798000003
:100200002798000000000000000000002798000070
:1002100027980000279800002798000027980000e2
:1002200027980000279800002798000027980000d2
:1002300027980000279800002798000027980000c2
:1002400027980000279800002798000027980000b2
:1002500027980000279800002798000027980000a2
:020000040000fa
:10026000f8b500bff8bc08bc9e46704729d4000012
:10027000f8b500bff8bc08bc9e46704705d4000026
:020000040000fa
:08028000a05000000100000085
:020000040000fa
:10028800c82a00201c000000000000000000002018
:10029800c000000000000000fa2a00200200000050
:1002a80000000000c62b0020020000000000000033
:1002b800472a002001000000010000005f00000044
:1002c800bf2b00200100000001000000800000009a
:1002d800232c002001000000010000002000000085
:1002e800272c00200100000001000000120000007f
:1002f800352b00200100000001000000b1000000c3
:10030800492b00200100000001000000f10000005e
:10031800592b0020010000000100000032000000fd
:10032800302c002001000000010000000500000042
:10033800312c00200100000001000000cf00000067
:10034800322c002001000000010000000100000024
:100358002c2c00200200000001000000106f00009b
:10036800282c00200200000001000000005f0000af
:10037800332c0020010000000100000032000000c2
:10038800242c00200300000001000000a0b5550047
:10039800202c002003000000010000008a518a0080
:1003a800d82b00200400000000000000ce2b002005
:1003b8000200000000000000342c002001000000b2
:1003c80000000000d62b0020020000000000000002
:1003d8002a2c00200200000000000000362b00201c
:1003e80002000000000000004a2b0020020000006c
:1003f800000000005a2b002002000000000000004e
:10040800352c00200100000000000000c000002082
:100418002c00000000000000ec000020300000006c
:10042800000000001c0100200c000000000000007b
:10043800402900208000000000000000202a002041
:10044800270000000100000000000001000001007a
:10045800000200000100000400000000000000008d
:100468000000000000000000000300000100000080
:10047800982b002008000000000000001c26002027
:10048800b8010000010000000000000000000000aa
:1004980000162100070900006cdb00000cbc0000fe
:1004a800482a0020000000000000000000000000b2
:1004b80000000000000000000116210004090000ef
:1004c800c8e300000ccc0000102b00200000000046
:1004d8000000000000000000000000000000000014
:1004e800001a21000209000060e80000f0d80000ae
:1004f800682b002000000000000000000000000041
:100508000000000000000000021a2100010900009c
:1005180034ea00009cdb0000a02b00200000000053
:1005280000000000000000000000000000000000c3
:10053800121c06000208000040ea000024e6000041
:10054800c82b002000000000000000000000000090
:100558000000000000000000131c06000208000054
:100568004cea000040e60000d02b0020000000000c
:100578000000000000000000000000000000000073
:1005880000602a000209000074e8000070e1000021
:10059800742b002000000000000000000000000094
:1005a800000000000000000021602a00010900008e
:1005b80058ea000010e70000a82b00200000000007
:1005c8000000000000000000000000000000000023
:1005d80010702a0004090000e8e3000040e0000071
:1005e800802b002000000000000000000000000038
:1005f800000000000000000000802a000709000039
:10060800ccdb000090c500008c2b0020000000000f
:1006180000000000000000000000000000000000d2
:10062800ffff0000000000000000000000000000c4
:1006380000000000000000000000000000000000b2
:10064800dc2b0020040000000100000089130000da
:100658002e2c00200200000000000000e42a0020e8
:10066800160000000100000053414d453533204578
:100678007468657243415420536c617665000000cc
:10068800e02b00200400000001000000312e3000a3
:10069800e42b00200400000001000000302e390087
:1006a800fc2a0020140000000100000004000000e3
:1006b800d80400005592000001000000010000006d
:1006c800c02b002006000000010000000400020109
:1006d80004030000e82b00200400000000000000d4
:1006e8003c240020e00100000100000000000000a0
:1006f800000000000010070000070000b8ea000032
:1007080064ea0000dc2b002000000000000000006c
:1007180000000000000000000000000001100500bb
:1007280000070000c0ea000028e900002e2c002085
:1007380000000000000000000000000000000000b1
:10074800000000000810090000070000c8ea0000c7
:1007580070ea0000e42a0020000000000000000009
:10076800000000000000000000000000091009005f
:1007780000070000d0ea000088e80000e02b002015
:100788000000000000000000000000000000000061
:10079800000000000a10090000070000d8ea000065
:1007a8009ce80000e42b002000000000000000008e
:1007b80000000000000000000000000018102300e6
:1007c8000409000008e4000074d60000fc2a002098
:1007d8000000000000000000000000000000000011
:1007e80000000000f1102a0002090000b0e8000033
:1007f800c4d400005c2b00200000000000000000b2
:10080800000000000000000000000000f8101b00bd
:1008180000070000e0ea0000c4e80000982b002070
:1008280091c8000000000000000000000000000067
:1008380000000000001c0500040800007cea00001d
:10084800d8e80000c02b00200000000000000000d5
:10085800000000000000000000000000321c290019
:10086800200900007ca200009c8c0000800300206e
:100878000000000000000000000000000000000070
:1008880000000000331c2900200900007ca20000a1
:100898009c8d00003c0300200000000000000000c8
:1008a800000000000000000000000000ffff000042
:1008b8000000000000000000000000000000000030
:1008c80000000000000000000000000028010020d7
:1008d8000800000000000000362c00200100000085
:1008e8000000000030010020e000000000000000cf
:1008f8001002002004000000000000001402002084
:100908001600000000000000ec2b0020040000008e
:1009180000000000372c002001000000000000004b
:100928002c0200205200000000000000800200207d
:100938002800000000000000a80200209400000029
:10094800000000005c2b00200c00000001000000eb
:100958000200000001000000040000004c2b0020f1
:100968000d00000001000000537562496e6465784f
:1009780020303030000000003c0300208e000000d2
:1009880000000000482a00202000000001000000ac
:100998000700000020010080080200800103008099
:1009a800010400800105008005000000100000001f
:1009b800102b0020140000000100000004000000bb
:1009c80020011070080210700800000010000000dc
:1009d800682b00200c00000001000000020000004d
:1009e8002001006020020060a02b00200800000009
:1009f800010000000100000020012160c82b002038
:100a080006000000010000000200001601160000a8
:100a1800d02b002006000000010000000200001a90
:100a2800021a0000742b00200c00000001000000d6
:100a3800020000000000000000000000a82b0020b9
:100a48000800000001000000010000000000000094
:100a5800802b00200c0000000100000002000000b4
:100a680000000000000000008c2b00200c0000009b
:100a780001000000050000009600000000010000d1
:100a8800f02b00200400000000000000f42b0020e0
:100a9800040000000100000001000000b02b00204d
:100aa800080000000100000001000000802500008f
:100ab800f82b0020040000000100000001000000e5
:100ac800fc2b00200400000000000000002c002087
:100ad8000400000000000000042c002004000000b6
:100ae80000000000082c00200400000000000000a6
:100af800382c00200100000000000000392c0020e4
:100b08000100000000000000cc03002016200000b7
:100b1800000000003a2c0020010000000000000046
:100b2800e42300204d000000000000003b2c0020c2
:100b380001000000000000003c2c00200100000023
:100b48000100000001000000b82b00200700000091
:100b58000100000048656c6c6f2c0000242b0020fd
:100b68001100000001000000746869732069732097
:100b78007468652064656d6f00000000382b0020e4
:100b88001100000001000000666f72204f4c4544c0
:100b9800204320636c69636b00000000342400204c
:100ba80002000000000000000c2c002004000000df
:100bb80000000000102c00200400000000000000cd
:100bc800142c00200400000000000000682a002007
:100bd8002000000000000000882a002020000000fb
:100be80000000000a82a00202000000000000000eb
:100bf800182c00200400000001000000c02900207b
:100c0800c029002060000000010000000000000072
:100c1800882a0020a82a0020682a00200000000056
:100c280000000000000000000000000000000000bc
:100c380000000000000000000000000000000000ac
:100c4800000000000000000000000000000000009c
:100c5800000000000000000000000000000000008c
:100c6800000000000000000000000000d427002061
:100c78006c010000010000004300000000000000bb
:100c8800000000000000000000000000000000005c
:100c98000000000000000000430000000000000009
:100ca800000000000000000000000000000000003c
:100cb80000000000000000004300000000000000e9
:100cc800000000000000000000000000000000001c
:100cd80000000000000000004300000000000000c9
:100ce80000000000000000000000000000000000fc
:100cf80000000000000000004300000000000000a9
:100d080000000000000000000000000000000000db
:100d18000000000000000000430000000000000088
:100d280000000000000000000000000000000000bb
:100d38000000000000000000430000000000000068
:100d4800000000000000000000000000000000009b
:100d5800000000000000000095e6000049e20000e5
:100d680000000000988b0000b5ea0000b4ea00001b
:100d7800b4ea0000b4ea0000b4ea0000b4ea0000f3
:100d8800b4ea0000b4ea0000b4ea0000b4ea0000e3
:100d9800ffffffffffffffffffffffffffff000059
:100da80001004153434949000000000000000000d1
:100db800000000000000000000000000000000002b
:100dc80000004153434949000000000000000000b2
:100dd800000000000000000000000000000000000b
:100de800000000003824002004000000000000007b
:100df8001c2c00200400000000000000000000007f
:100e08000000000022222222222222222222222242
:020000040000fa
:100e1800820e00cc8813ff00000040c000001300c1
:100e2800d8040000559200000100000000000000f6
:100e3800000000000000000000108000801080000a
:100e480000108000801080000c00000000000000ee
:100e5800000000000000000000000000000000008a
:100e6800000000000000000000000000000000007a
:100e7800000000000000000000000000000000006a
:100e88000000000000000000000000000f0001004a
:100e98000a00a100120a5353435f446576696365eb
:100ea8001553414d453533204574686572434154a7
:100eb80020536c6176650853796e6368726f6e0ba8
:100ec800534d2d53796e6368726f6e1b496e707542
:100ed80074732070726f636573732064617461202a
:100ee8006d617070696e6707436f756e7465721017
:100ef800756172745f726561645f6275666665725a
:100f080020756172745f7374617475732070726f89
:100f1800636573732064617461206d617070696ebc
:100f2800670872785f726561647923636f6e6669ba
:100f3800677572655f756172742070726f6365732f
:100f4800732064617461206d617070696e670862f6
:100f5800756164726174651e70617269747920616b
:100f68006e6420646174612073656c656374696f75
:100f78006e20626974730b656e61626c65207561c1
:100f880072740874785f72656164791273746f7033
:100f98002073656c656374696f6e206269741c4f99
:100fa8007574707574732070726f636573732064e1
:100fb800617461206d617070696e6707547269674a
:100fc80067657211756172745f77726974655f62c3
:100fd8007566666572001e0010000100020200239b
:100fe80001000000000400000100110000000000e2
:100ff80000000000000000000000280002000102bc
:1010080003ff290010000010800026000101801055
:101018008000220001020011100064000103001486
:101028000c002000010432001400001a020300051d
:10103800000000600106072000000060020707208a
:101048000000021a010300080000216001090720be
:1010580000003300340000160702000a0000008078
:10106800010b072000000080020c0508000000802a
:10107800030d010100000080040e01010000008042
:10108800050f01010000000000000005000000003d
:10109800000000100000011604020010000010708b
:1010a800011107200000107002120508000000005e
:1010b80000000008000000000000001000003c00d4
:1010c8000c0000000000000000000000000000000c
:1010d80000000000030400000000ffffffffffff07
:1010e800ffffffffffffffffffffffffffffffff08
:1010f800fffffffffffffffffffffffffffffffff8
:10110800ffffffffffffffffffffffffffffffffe7
:10111800ffffffffffffffffffffffffffffffffd7
:020000040000fa
:1016180080b590b000af0023bb8600237b860023f3
:101628003b610023fb60002387f83f300323bb871f
:1016380003237b8700233b870023fb864ff6ff733a
:101648003b86a24b9a893b8e13403b86a04b9a89d6
:101658003b8e13403b869f4b00221a809e4b0022f4
:101668001a7002200cf0defaf862fb6a1b689ab264
:101678009a4b1a80fb6a5b6803f00203002b01d0c7
:1016880001237b8703200cf0cdfaf862fb6a1b6804
:101698009ab2934b1a80fb6a5b6803f00203002b33
:1016a80001d00123bb878e4b1b881a468d4b1b88a4
:1016b8001946bb8f03fb01f313448b4a12889342ec
:1016c8000add874b1b881a46874b1b881946874bb0
:1016d8001b880b449a4218db814b1b881a46814ba6
:1016e8001b881946bb8f03fb01f31344804a1288f9
:1016f800934210dd7a4b1b881a467d4b1b8819468e
:101708007c4b1b880b449a4205da0221032004f023
:10171800d1ff1e233ee3714b1b881a46764b1b886c
:1017280019467b8f03fb01f313446f4a12889342d7
:101738000add6a4b1b881a466b4b1b8819466b4b94
:101748001b880b449a4231db644b1b881a466a4b50
:101758001b8819467b8f03fb01f31344644a1288e4
:1017680093420add5d4b1b881a46614b1b8819465c
:10177800604b1b880b449a4218db584b1b881a464f
:101788005d4b1b8819467b8f03fb01f31344544ab6
:101798001288934210dd514b1b881a46504b1b8808
:1017a8001946504b1b880b449a4205da0221022045
:1017b80004f080ff1d23ede207f1140304224ff427
:1017c8001861184608f0f1fc7b697b617b699bb264
:1017d8007b6107f1100304224ff41a61184608f0e0
:1017e800e4fc3b693b6107f10c03042240f6a411b9
:1017f800184608f0dafcfb68fb60344b5b883b87d3
:10180800334b5b88fb867b6903f41063002b79d02c
:101818007b6903f4c063002b01d13023bae27b69f2
:1018280003f40073002b06d17b6903f48063002b5b
:1018380001d03023aee23b8e002b15d03b8e03f057
:101848000403002b04d17b6903f40073002b09d136
:101858003b8e03f00803002b06d17b6903f48063f9
:10186800002b01d0302395e2244bbb62174b1b6938
:10187800bb623b69002b09d03b69ba6a9a4203d81c
:101888003b691f4a934201d9362383e27b6903f4fb
:101898000073002b0ed07b6903f48063002b09d002
:1018a800fb68002b06d0fa683b699a4202d30123f1
:1018b80087f83f3097f83f30002b23d03b8e03f05a
:1018c8001003002b1ed1302364e200bf80030020e8
:1018d8003c0300204a020020680200204002002049
:1018e8007c020020620200202a030020200300203e
:1018f800180300203203002034020020a0860100d3
:10190800000050c3914b1b78002b2cd07b6903f44b
:101918001063002b0dd13b8f022b08d03b8f032b7c
:1019280005d0fb8e022b02d0fb8e032b5fd1302318
:1019380030e27b6903f48063002b07d13b8f032bd4
:1019480002d0fb8e032b01d1302323e27b6903f401
:101958000073002b4bd13b8f022b02d0fb8e022b46
:1019680045d1302316e27b6903f41063002b1dd1a7
:10197800774b1b88002b0bd001233b87754b1b88ab
:10198800002b02d02223fb8631e00023fb862ee0c9
:10199800704b1b88002b04d000233b870123fb8658
:1019a80025e000233b870023fb8620e0684b1b884b
:1019b800002b09d097f83f30002b02d003233b8738
:1019c80004e002233b8701e000233b87614b1b882f
:1019d800002b0ad07b6903f48063002b02d0032319
:1019e800fb8604e00223fb8601e00023fb863b8f95
:1019f800032b0cd13b69584a53623b69564a5360e2
:101a08003b69564a53623b69544a53600ee03b8f28
:101a1800022b0bd13b69504a53623b694e4a5360d3
:101a28003b694e4a53623b694c4a53604c4b1b78a6
:101a3800002b07d13b8f002b02d0fb8e002b01d14e
:101a48002923a7e13b8f002b02d1fb8e002b02d06c
:101a5800444b01221a70434b1b78002b10d03c4b8f
:101a68001b88002b04d0404b4ff480621a8007e09b
:101a7800384b1b88002b03d03b4b4ff400621a8075
:101a88003b8f022b08d03b8f032b05d0fb8e022bfc
:101a980002d0fb8e032b09d1344b01221a702c4b38
:101aa8001b88002b02d1304b00221a802a4a3b8f18
:101ab80053802a4afb8e53802d4b00221a802d4bcf
:101ac80000221a802c4b00221a802c4b00221a80ec
:101ad80097f83f30012b53d1fa683b6913447b6276
:101ae800fa683b699a4216d33b697a6ab2fbf3f308
:101af8009ab2214b1a803a697b6ab3fbf2f102fb76
:101b080001f29b1a002b09d11b4b1b8801339ab297
:101b1800194b1a8002e0184b01221a803b697a6a35
:101b2800b2fbf3f39ab2124b1a803a697b6ab3fba1
:101b3800f2f102fb01f29b1a002b2dd00c4b1b88f3
:101b480001339ab20a4b1a8026e000bfc403002072
:101b58003402002062020020800300203c030020a1
:101b68002c020020750200204a0200206d0200208d
:101b78005e0200203c02002064020020780200205f
:101b88003b8f022b02d1854b01221a80fb8e032b3f
:101b980002d0834b01221a80824b00221a80002334
:101ba800bb6007f1080304224ff48461184608f06b
:101bb800fcfabb687b867c4b1b88002b34d07b8e61
:101bc800002b31d000237b603b1d04224ff4806141
:101bd800184608f0eafa7b687b607b68bb86bb8e98
:101be800002b18d0bb8e02333b627a8e3b6a02fb15
:101bf80003f33b623b6a03f5c34327333b623b6a0b
:101c0800db086a4aa2fb03231b0a3b623b6a9ab2bf
:101c1800674b1a8004e000237b86654b00221a80fc
:101c2800644b00221a8004e00023bb86604b00222c
:101c38001a805f4b1b88002b03d15f4b1b78002b4e
:101c480007d15b4b1b88002b05d05b4b1b78002b07
:101c580001d11f239ee0594b1b78002b0ad0524b11
:101c68001b88002b06d0564b1b8843f480639ab21e
:101c7800534b1a80534b00221a80534b00221a8070
:101c8800524b00221a80524b00221a80514b0022dc
:101c98001a70514b00221a70504b00221a80504b78
:101ca80000221a854e4b00225a854d4b002283f89c
:101cb80040204c4b00221a854a4b00225a85494b3a
:101cc800002283f840207b6903f40073002b50d076
:101cd8003b69002b03d13b4b00221a8018e03b697b
:101ce8005b09414aa2fb0323db09fb61fb69042b67
:101cf80003d8344b01221a800ae0fb699bb25b00cf
:101d08009bb23a4aa2fb0323db089ab22d4b1a80f6
:101d18007b6903f48063002b2bd0fa683b699a42f5
:101d280004d2284b1a882a4b1a8022e0fa683b69a9
:101d380013445b092c4aa2fb0323db09bb61bb6983
:101d4800042b03d8224b01221a8008e0bb695b00f0
:101d5800264aa2fb0323db089ab21d4b1a80194bb3
:101d68001b885b089ab21a4b1b8813449ab2184b0b
:101d78001a800d4b1b88002b02d002200bf0a4f810
:101d88001b4b1b88002b02d003200bf09df809f099
:101d9800fdfb002318464037bd4680bd6402002085
:101da8005e020020c80300203402002089b5f81420
:101db8007202002030020020760200207502002006
:101dc8004a0200204202002038020020700200204f
:101dd800480200204c020020690200204602002030
:101de8003c03002080030020c55a7c0acdcccccc13
:041df8006202002063
:020000040000fa
:101dfc0080b584b000af03460a46fb711346bb8026
:101e0c000023fb8100237b73d54b4ff6ff721a80a6
:101e1c00d44b01221a70fb7903f01003002b09d06c
:101e2c0001237b73d04b1b7823f01003dab2ce4b1b
:101e3c001a7012e0cc4b1b7803f01003002b05d06a
:101e4c00fb7903f00f03012b40f08783c64b1b7803
:101e5c0003f00f03dab2c44b1a70fb7903f00f03d3
:101e6c00fb71c14b1b783b733b7b1b013b733a7b78
:101e7c00fb7913443b733b7b442b28d0442b0bdc6a
:101e8c00222b15d0222b02dc122b11d028e0242b74
:101e9c0014d0422b0cd023e0822b09d0822b02dcf5
:101eac00482b14d01ce0842b11d0882b0fd017e0ba
:101ebc00022002f09dfe0346fb8111e0ab49ac48c9
:101ecc0005f0e0f90346fb81fb89002b07d1a94bf8
:101edc001b78184602f08cfe0346fb8100e000bf25
:101eec00fb89002b40f05182a34b00221a803b7bd4
:101efc00113b772b00f2458201a252f823f000bf70
:101f0c0045230000bb210000ed20000089230000c8
:101f1c008f2300008f2300008f23000089230000f3
:101f2c008f2300008f2300008f2300008f230000dd
:101f3c008f2300008f2300008f2300008f230000cd
:101f4c003323000049230000892300001d220000d8
:101f5c008f2300008f2300008f23000089230000b3
:101f6c008f2300008f2300008f2300008f2300009d
:101f7c008f2300008f2300008f2300008f2300008d
:101f8c0091210000892300008f2300008923000089
:101f9c008f2300008f2300008f2300008923000073
:101fac008f2300008f2300008f2300008f2300005d
:101fbc008f2300008f2300008f2300008f2300004d
:101fcc0017230000eb2200008923000049230000a6
:101fdc008f2300008f2300008f230000732200004a
:101fec008f2300008f2300008f2300008f2300001d
:101ffc008f2300008f2300008f2300008f2300000d
:10200c008f2300008f2300008f2300008f230000fc
:10201c008f2300008f2300008f2300008f230000ec
:10202c008f2300008f2300008f2300008f230000dc
:10203c008f2300008f2300008f2300008f230000cc
:10204c008f2300008f2300008f2300008f230000bc
:10205c008f2300008f2300008f2300008f230000ac
:10206c008f2300008f2300008f2300008f2300009c
:10207c008f2300008f2300008f2300008f2300008c
:10208c008f2300008f2300008f2300008f2300007c
:10209c008f2300008f2300008f2300008f2300006c
:1020ac008f2300008f2300008f2300008f2300005c
:1020bc008f2300008f2300008f2300008f2300004c
:1020cc00fb220000cd22000089230000bd2200006d
:1020dc008f2300008f2300008f2300004923000072
:1020ec00264b01221a70022002f082fd0346002bbf
:1020fc0005d0224b00221a701523fb8178e10020b9
:10210c000bf001f806f0acfb0346fb81fb89002bbe
:10211c000cd1144b00221a700cf008fc0346fb8106
:10212c00fb89002b02d1164b01221a70fb89002b64
:10213c000ad0fb89ff2b07d00a4b1b78002b01d14f
:10214c000cf058fc05f080fd03200cf039fbfb89ea
:10215c00002b00f04081094b00221a703be100bfbc
:10216c006a020020320200203302002034020020d8
:10217c00620200207a0200202e0200206c02002055
:10218c0016030020ab4b1b78002b0bd0a94b002265
:10219c001a7000200af0b7ff05f056fd0cf02afc6f
:1021ac000346fb810cf01ffc0cf0c4fa20e10af092
:1021bc0017fea14b1b78002b01d15123fb81fb890e
:1021cc00002b40f00a8106f04bfb0346fb81fb8998
:1021dc00002b0cd1994b00221a700cf0a7fb034674
:1021ec00fb81fb89002b02d1954b01221a70fb89d4
:1021fc00002b00f0f280fb89ff2b00f0ee808f4b60
:10220c001b78002b01d10cf0f5fb05f01dfde4e073
:10221c00fff7fcf90346fb81fb89002b12d1874b9e
:10222c0000221a7087480cf0ecfa0346fb81fb89fc
:10223c00002b07d1834b1b8818460af087ff824b73
:10224c0001221a70fb89002b00f0c980fb89ff2b3f
:10225c0000f0c580794b1b78002b01d10cf06efb84
:10226c0005f094ffbbe009f0f9fe0346fb81fb8906
:10227c00002b0cd1714b00221a700cf067fb03463b
:10228c00fb81fb89002b02d1704b01221a70fb8958
:10229c00002b00f0a680fb89ff2b00f0a280674b7f
:1022ac001b78002b01d10cf059fb0bf07fff98e051
:1022bc000cf054fb0bf07aff604b00221a7097e085
:1022cc000cf04cfb0346fb810bf070ff5b4b0022c8
:1022dc001a70fb89002b40f0868042233b730cf074
:1022ec002dfb05f053ff554b00221a7080e00cf0cb
:1022fc0035fb0346fb810bf059ff504b00221a7043
:10230c00fb89002b71d141233b730cf017fb034667
:10231c00fb8105f03bff494b00221a70fb89002b17
:10232c0065d121233b7305f08ffc0cf063fb034656
:10233c00fb810cf0fff95be00cf0fcf97b7b002bd4
:10234c0004d03b7b9bb218460cf050fa404b1b78e8
:10235c0003f00c03002b0ed03e4b1b88002b03d03c
:10236c0002200af0affd06e03b4b1b88002b02d08d
:10237c0003200af0a7fdfe23fb8139e01123fb812a
:10238c0036e01223fb8100bf32e0314b1b78042b6b
:10239c0008d0082b02d0022b08d029e00cf0defa72
:1023ac000bf004ff0cf0cafa05f0f0fefb89162bbb
:1023bc000dd105f049fc0cf01dfb00200af036fd98
:1023cc0001200af033fd224b01221a7010e0204b41
:1023dc0002221a700ce000bf0ae000bf08e000bf48
:1023ec0006e000bf04e000bf02e000bf00e000bf59
:1023fc00fb89ff2b51d1194b01221a703b7b9ab2ee
:10240c00174b1a80164b1b88242b0dd0242b03dc66
:10241c00123b012b28d802e0482b05d024e0114bad
:10242c004ff4fa621a8023e00e4b42f228321a80e3
:10243c001ee000bf6c020020372c0020320200206e
:10244c00160300204a020020740200206e020020b5
:10245c0033020020340200206202002060020020bf
:10246c002e0200206a0200203e4bc8221a8000bfb8
:10247c003c4bb3f900309ab23a4bb3f900303a49bd
:10248c0081fb03018910db17cb1a1bb29bb2d31a49
:10249c009bb21ab2334b1a8060e0fa79334b1b783b
:1024ac0003f00f039a424ed0fb89002b02d1bb885c
:1024bc00002b1fd02d4b1a78fb791343dbb203f0a2
:1024cc000803002b16d02a4b1b78002b03d00cf0e2
:1024dc0045fa0bf06bfe274b1b88002b03d0022018
:1024ec000af0a4fc06e0244b1b88002b02d003202e
:1024fc000af09cfcfb89002b0ed01c4b1b78082b84
:10250c0002d11a4b04221a70184b1b7843f010039b
:10251c00dab2164b1a700be0bb88002b05d0bb88c7
:10252c00fb81fb7943f01003fb71104afb791370ac
:10253c00124b00221a700d4b1b78fa891146184663
:10254c0005f012f80ae00d4b00221a70074b1b78ad
:10255c000021184605f008f800e000bf1037bd4612
:10256c0080bd00bf6a0200206766666633020020e9
:10257c006e02002034020020620200206002002063
:020000040000fa
:10258c0090b591b002afba607b600346fb810b46fd
:10259c007b737b7bfb867b689b891b12dbb203f016
:1025ac000f0387f823300023bb867b689b89dbb243
:1025bc003b84002387f833307b7b3b8697f82330b2
:1025cc00072b28d07b689b691b88dbb2bb86bb8e34
:1025dc00002b20d1fb8941f60f42934204d9fb8991
:1025ec0041f62f42934214d9fb89b3f5b05f03d364
:1025fc00fb89b3f5c05f0cd3fb89b3f5d05f03d374
:10260c00fb89b3f5e05f04d3fb894ff230029342b0
:10261c0001d13b8cbb8697f84c30002b12d097f82d
:10262c002330072b01d105232de37b7b002b06d117
:10263c00bb68002b03d0bb6c1b88dbb2bb86bb8e8c
:10264c003b862ce07b7b9bb2ba8e9a4201d2112343
:10265c0019e37b7b194678680af052faf861fb693a
:10266c009b889bb29b10dbb203f00e02a84b1b782d
:10267c0003f00f031340002b11d1fb699b889bb215
:10268c0003f03803002b08d1fb699b889bb2002b0d
:10269c0001d10523f7e20723f5e21a23f3e27b7b52
:1026ac00002b29d0fb8941f60f42934204d9fb89b8
:1026bc0041f62f42934214d9fb89b3f5b05f03d393
:1026cc00fb89b3f5c05f0cd3fb89b3f5d05f03d3a3
:1026dc00fb89b3f5e05f04d3fb894ff230029342e0
:1026ec000ad17b689b691b88dbb27b837b8b002bbd
:1026fc0002d0012387f833307b681b6a002b0bd088
:10270c007b681c6a797bf88997f84c300093bb6c1a
:10271c00ba68a0470346b6e2002387f82f30072398
:10272c0087f82e30bb68002b01d10023abe27b7bfa
:10273c00fb869be27b689b69bb6200233b83fb8e21
:10274c00dbb2194678680af0dbf9f861fb8edbb274
:10275c007968184604f0dafc03463b83fb699b88d6
:10276c009bb29b10dbb203f00e02694b1b7803f09b
:10277c000f031340002b00f04f82fb8e002b06d072
:10278c003b8b1b099bb25b00ba6a1344bb627b7b1d
:10279c009bb2fa8e9a420ad097f84c30002b00f07c
:1027ac0062827b7b9bb2fa8e9a42c0f05c82fb8e7b
:1027bc00002b15d197f82330072b11d0bb6c1b883d
:1027cc00fb75fb7d9bb23a8c9a4201d213235ae2e1
:1027dc00bb6c1a88bb6a1a80bb6c0233bb6417e2f1
:1027ec00fb691a785b781b021343fb84fb691b881b
:1027fc009bb2b3f5e06f19d3fb695b889bb2082bd6
:10280c0005d8fb695b889bb22f33fb840ee0fb6918
:10281c005b889bb2102b02d10623fb8406e0fb697c
:10282c005b889bb2202b01d10723fb84fb8c112be3
:10283c0000f08881112b1edc052b6bd0052b0ddcd9
:10284c00022b04dc002b65dc002b3bd0dde1032be1
:10285c0000f0c280042b00f04d81d6e1082b03dc84
:10286c00072b80f24781b7e0092b00f089810b2bf5
:10287c0000f3cb81ace12d2b4cd02d2b11dc1e2b7e
:10288c0048d01e2b06dc152b00f05c811b2b00f0b6
:10289c005981bae11f2b00f09f80202b00f02a8178
:1028ac00b3e1372b08dc302b34da2e2b00f094807c
:1028bc002f2b00f01f81a8e1a3f51873032b00f256
:1028cc00a48185e197f84c30002b1ed0fb695b8806
:1028dc009bb203f00f03002b0cddfb695b889ab2f3
:1028ec003b8b13449bb203f00f03002b02d1bb6c48
:1028fc000233bb64fb695b889bb21b1103f00f03b3
:10290c005b00ba6c1344bb6482e11823bbe100bfcb
:10291c00330200200023bb84fb695b889bb21a4600
:10292c009b4b33f812301a463b8b03f00f0302fa21
:10293c0003f3bb82bb6a1b88bb84b7f91430db433f
:10294c001ab2b7f9243013401bb2bb8497f84c3041
:10295c00002b08d0bb6c1a88bb8a13409ab2bb8c74
:10296c001343bb8426e0bb6c1b881a46fb695b884f
:10297c009bb21946864b33f81130db431340002bc6
:10298c0001d012237fe1bb6c1a88fb695b889bb278
:10299c0019467f4b33f8113013409bb21a463b8bd0
:1029ac0003f00f0302fa03f31ab2b7f924301343fe
:1029bc001bb2bb84bb6aba8c1a80fb695b889ab267
:1029cc003b8b13449bb203f00f03002b40f01f8191
:1029dc00bb6c0233bb641ae13b8b03f00f03002b7f
:1029ec0001d005234fe1bb6c1b887b8297f83330f9
:1029fc00002b06d0bb6a1b887a8a9a4201d01c2312
:102a0c0041e1fb8941f60f42934219d9fb8941f60a
:102a1c002f42934214d87b8ab3f5b05f03d37b8ae1
:102a2c00b3f5c05f0cd37b8ab3f5d05f03d37b8a3d
:102a3c00b3f5e05f04d37b8a002b01d0122322e193
:102a4c00fb8941f63242934204d0fb8941f6334272
:102a5c00934248d1fb8e012b17d1bb6a1b887a8a13
:102a6c009a420fd07a8afb891146184604f0aef9c7
:102a7c00034687f82e3097f82e30002b02d097f8ab
:102a8c002e3000e1434b01221a70fb8e082b2ad109
:102a9c00414b00225a61404b404a1a613e4b002286
:102aac005a603f4b00225a613d4b3c4a1a613c4be9
:102abc0000225a607b8a03f00203002b13d0364ba2
:102acc0000225a85344b00221a85334b002283f89e
:102adc004020334b00225a85314b00221a85304b53
:102aec00002283f84020bb6a7a8a1a80bb6c0233be
:102afc00bb648de03b8b03f00f03002b01d005234f
:102b0c00c1e097f83330002b0fd0bb6a1a88bb6c2e
:102b1c001b889a4207d1bb6a02331a88bb6c0233fa
:102b2c001b889a4201d01c23ade0bb6c1a88bb6a8f
:102b3c001a80bb6a0233ba6c52881a80bb6c04339d
:102b4c00bb6465e03b8b03f00f03002b01d0052326
:102b5c0099e0bb6c1a88bb6a1a80bb6a0233ba6ce8
:102b6c0052881a80bb6a0433ba6c92881a80bb6a8a
:102b7c000633ba6cd2881a80bb6c0833bb6447e04e
:102b8c003b8b03f00f03002b0cd005237be000bf25
:102b9c0048e40000c403002080030020a08601004c
:102bac003c030020fb695b889bb20733db101a46a1
:102bbc00b96cb86a0bf04cfdfb695b889bb223f0d7
:102bcc000f030f331b115b00ba6c1344bb641fe083
:102bdc003b8b03f00f03002b01d0052353e0fb6963
:102bec005b889bb20733db101a46b96cb86a0bf0e2
:102bfc002ffdfb695b889bb223f00f030f331b1176
:102c0c005b00ba6c1344bb6402e018233be000bfca
:102c1c00012387f82f3026e0fb8e002b03d1bb6cf1
:102c2c000233bb641ce0fb695b889bb203f00f03af
:102c3c00002b0cddfb695b889ab23b8b13449bb277
:102c4c0003f00f03002b02d1bb6c0233bb64fb6996
:102c5c005b889bb21b099bb25b00ba6c1344bb64d0
:102c6c00182387f82e30fb8e0133fb86fa8e3b8eb1
:102c7c009a427ff65fad97f82f30002b02d197f870
:102c8c002e3000e0002318463c37bd4690bd00bff7
:020000040000fa
:102c9c00000020007f000d10038801000295010048
:102cac0003a2010007af010005bc01000ac9010025
:102cbc0007e3010001f0010003fd0100030a02001b
:102ccc00051702000724020002310200033e020035
:102cdc00024b020003580200056502000472020058
:102cec00057f0200058c02000599020005a6020072
:102cfc0005b3020005c0020005cd020005da020092
:102d0c0002e7020002f4020007010300070e0300b1
:102d1c00071b03000428030009350300064f0300ba
:102d2c00055c0300066903000676030005830300b7
:102d3c0005900300069d030006aa030003b70300d9
:102d4c0004c4030005d1030004de030007eb0300f9
:102d5c0006f803000705040005120400071f040011
:102d6c00062c040005390400054604000653040033
:102d7c0005600400096d0400058704000594040037
:102d8c0005a1040003ae040003bb040003c8040047
:102d9c0007d5040006e2040003ef040005fc040060
:102dac00050905000416050005230500053005007e
:102dbc00033d0500054a05000557050001640500a3
:102dcc0002710500057e0500018b050007980500c2
:102ddc0005a5050005b2050005bf050005cc0500dd
:102dec0003d9050004e6050003f305000500060001
:102dfc00050d0600071a0600052706000534060017
:102e0c0004410600044e0600025b0600046806003e
:102e1c000775060003820600000000000000000099
:102e2c000000000000000000020202020202000288
:102e3c000000000005050500000000000000000077
:102e4c00000028287e14143f0a0a00000000040425
:102e5c001e05050e14140f040400000000000046ab
:102e6c000049002900260090015002480288010008
:102e7c00000000000000060909262911314e00004f
:102e8c00000001010100000000000000000000042f
:102e9c00020201010101010202040000010202040c
:102eac0004040404020201000004150e15040000c1
:102ebc0000000000000000000808087f0808080057
:102ecc0000000000000000000000020202010000ef
:102edc0000000000000700000000000000000000df
:102eec0000000000020200000000040404020202c0
:102efc0002020101010000000e1111111111110e3d
:102f0c000000000000040604040404040e00000089
:102f1c0000000e1110080402011f00000000000e3a
:102f2c0011100c1010110e0000000000080c0a0902
:102f3c001f08080800000000001f01010f101011ed
:102f4c000e00000000000c02010f1111110e000008
:102f5c000000001f1008080404020200000000001a
:102f6c000e11110e1111110e00000000000e1111a6
:102f7c00111e1008060000000000000002020000f4
:102f8c000202000000000000000202000002020227
:102f9c00010000000040300c020c3040000000002a
:102fac00000000007f007f00000000000000000215
:102fbc000c3040300c02000000000007080804022e
:102fcc0002000200000000000000007c00820039ba
:102fdc0001250125012501f90002003c000000003b
:102fec0000000c0c1212123f212100000000000ff7
:102ffc0011110f1111110f00000000003c02010112
:10300c000101023c00000000000f112121212111bf
:10301c000f00000000001f01010f0101011f000043
:10302c000000001f01011f01010101000000000050
:10303c003c0201013921223c000000000021212129
:10304c003f212121210000000000070202020202a0
:10305c00020700000000000e080808080808070016
:10306c000000000011090503030509110000000010
:10307c0000010101010101010f0000000000636368
:10308c0055554949414100000000002323252529bd
:10309c0029313100000000001c2241414141221c19
:1030ac0000000000000f1111110f010101000000c0
:1030bc0000001c2241414141221c10600000000f05
:1030cc001111110f09112100000000001e01010e49
:1030dc001010100f00000000001f0404040404046e
:1030ec00040000000000212121212121211e0000cb
:1030fc000000001111110a0a0a040400000000006b
:10310c00000000110111011101aa00aa00aa00443b
:10311c000044000000000000000011110a04040a21
:10312c001111000000000011110a0a04040404002b
:10313c00000000001f1008040402011f0000000022
:10314c000701010101010101010107000001010159
:10315c000202020202040404000007040404040432
:10316c0004040404070000000814224100000000bd
:10317c0000000000000000000000000000003f0004
:10318c00000204000000000000000000000000002d
:10319c00000e101e11111e000000000101010f1184
:1031ac001111110f000000000000000e01010101bf
:1031bc000e000000001010101e111111111e000045
:1031cc0000000000000e111f01110e00000000068f
:1031dc000101070101010101000000000000001eb7
:1031ec00111111111e100e00000101010f1111110e
:1031fc00111100000000000100010101010101009a
:10320c0000000000020003020202020202010000a0
:10321c00010101090503050911000000000101016c
:10322c0001010101010100000000000000374949c3
:10323c00494949000000000000000f111111111143
:10324c00000000000000000e111111110e00000012
:10325c00000000000f111111110f010100000000fe
:10326c00001e111111111e101000000000000503aa
:10327c0001010101000000000000000e01030c0818
:10328c000700000000000101070101010106000018
:10329c00000000000011111111111e0000000000af
:1032ac00000011110a0a040400000000000000498b
:1032bc00495555222200000000000000110a0404a8
:1032cc000a110000000000000011110a0a04040297
:1032dc000200000000000f080402010f00000000b3
:1032ec000804040404030404040408000002020299
:1032fc000202020202020202000001020202020c9d
:10330c0002020202010000000000004649310000e8
:10331c000000000000070505050505050700000075
:020000040000fa
:10332c0090b593b002afba607b600346fb810b464d
:10333c007b737b7bfb877b689b891b12dbb203f067
:10334c000f0387f82a307b689b89dbb2bb877b7bba
:10335c007b8797f82a30072b08d0fb89b3f5805f61
:10336c0004d37b689b691b88dbb2bb8797f854300e
:10337c00002b0cd097f82a30072b03d0fb89b3f520
:10338c00805f01d2052302e3bb8f7b872ee07b7b22
:10339c009bb2ba8f9a4201d21123f8e2fb8fdbb2b7
:1033ac001946786809f0acfb78627b6a9b889bb203
:1033bc00002b19d07b6a9b889bb2dbb25b00dbb223
:1033cc0003f00e02a04b1b7803f00f031340002bed
:1033dc000cd17b6a9b889bb203f00703002b01d1b5
:1033ec000623d4e21a23d2e20523d0e27b68db6900
:1033fc00002b0bd07b68dc69797bf88997f854300b
:10340c0000933b6dba68a0470346c0e2fb89b3f555
:10341c00805f7cd27b7b002b79d07b689b697b6344
:10342c007b7b1946786809f06bfb78627b6a5b885a
:10343c009bb20733db107b847b6bfb617b7b03f1e3
:10344c008043013b9b00fa6913441b687b637b6bd5
:10345c0003f00103002b43d000237b867b6b23f00e
:10346c0001037b6300237b861be07b6b1b881b0aa1
:10347c009ab23b6d1a803b6d1b881ab27b6b023380
:10348c001b881b021bb213431bb29ab23b6d1a80f2
:10349c003b6d02333b657b6b02337b637b8e01336d
:1034ac007b867b8c5b089bb27a8e9a42ddd37b8cbd
:1034bc0003f001039bb2002b00f067823b6d1b886d
:1034cc0023f0ff039ab23b6d1a803b6d1a887b6b1d
:1034dc001b881b0a9bb213439ab23b6d1a8054e2b1
:1034ec007b6b1a883b6d1a803b6d02337a6b52886a
:1034fc001a803b6d04333b657b6b04337b637b8ca5
:10350c00043b1a46796b386d0bf0a2f83de20023b0
:10351c0087f83130002387f830307b7bfb8728e23b
:10352c007b689b69bb610023fb85fb8f002b0bd059
:10353c00fb89b3f5805f07d3fb8fdbb27968184644
:10354c0003f0e4fd0346fb85fb8d1b099bb25b007e
:10355c00ba691344bb61fb8fdbb21946786809f07a
:10356c00cffa78627b6a9b889bb2dbb25b00dbb2e2
:10357c0003f00e02344b1b7803f00f031340002ba7
:10358c0000f0ab817b7b9bb2fa8f9a420ad097f802
:10359c005430002b00f0ea817b7b9bb2fa8f9a426d
:1035ac00c0f0e481fb8f002b0ad197f82a30072b4f
:1035bc0006d03b6dba8f1a803b6d02333b65d5e16b
:1035cc007b6a1a785b781b021343bb857b6a1b886a
:1035dc009bb2b3f5e06f19d37b6a5b889bb2082b67
:1035ec0005d87b6a5b889bb22f33bb850ee07b6a68
:1035fc005b889bb2102b02d10623bb8506e07b6a4d
:10360c005b889bb2202b01d10723bb85bb8d112b73
:10361c0000f0e680112b20dc052b6ad0052b0ddc8d
:10362c00022b04dc002b64dc002b3dd04ae1032b85
:10363c0000f0b380042b00f0bf8043e1082b05dcc5
:10364c00072b80f2b980a8e033020020092b00f090
:10365c000f810b2b00f33681e0e02d2b49d02d2b65
:10366c0011dc1e2b45d01e2b06dc152b00f0b88070
:10367c001b2b00f0b58025e11f2b00f08e80202b3a
:10368c0000f09a801ee1372b08dc302b31da2e2b20
:10369c0000f083802f2b00f08f8013e1a3f51873bb
:1036ac00032b00f20f81b9e097f85430002b1ed099
:1036bc007b6a5b889bb203f00f03002b0cdd7b6aeb
:1036cc005b889ab2fb8d13449bb203f00f03002b63
:1036dc0002d13b6d02333b657b6a5b889bb21b114d
:1036ec0003f00f035b003a6d13443b65f1e01823c4
:1036fc004de10023fb827b6a5b889bb21a46a64b8a
:10370c0033f812301a46fb8d03f00f0302fa03f361
:10371c00bb82bb691b88fb82fb8d03f00f03002b64
:10372c0002d13b6d00221a803b6d1a883b6d1a80ca
:10373c0097f85430002b0ad03b6d1a88f98abb8a53
:10374c000b409bb213439ab23b6d1a8012e03b6d57
:10375c001b881ab2f98abb8a0b409bb21946fb8da7
:10376c0003f00f0341fa03f31bb213431bb29ab2db
:10377c003b6d1a803b6d1a883b6d1a807b6a5b88a7
:10378c009ab2fb8d13449bb203f00f03002b40f055
:10379c009b803b6d02333b6596e0fb8d03f00f0382
:1037ac00002b01d00523f2e0bb691a883b6d1a800f
:1037bc003b6d02333b658ce0fb8d03f00f03002b5c
:1037cc0001d00523e3e0bb691a883b6d1a803b6d81
:1037dc000233ba6952881a803b6d04333b6578e03a
:1037ec00fb8d03f00f03002b01d00523cfe0bb6949
:1037fc001a883b6d1a803b6d0233ba6952881a8065
:10380c003b6d0433ba6992881a803b6d0633ba69f2
:10381c00d2881a803b6d08333b655ae0fb8d03f070
:10382c000f03002b01d00523b1e07b6a5b889bb2b0
:10383c000733db101a46b969386d0af009ff7b6a49
:10384c005b889bb223f00f030f331b115b003a6da7
:10385c0013443b657b6a5b889bb203f00f03002b20
:10386c0034d03b6d1b88dbb29ab23b6d1a802de0d5
:10387c00fb8d03f00f03002b01d0052387e07b6a3f
:10388c005b889bb20733db101a46b969386d0af0b6
:10389c00dffe7b6a5b889bb223f00f030f331b1197
:1038ac005b003a6d13443b657b6a5b889bb203f00b
:1038bc000f03002b0cd03b6d1b88dbb29ab23b6d17
:1038cc001a8005e0182362e000bf02e000bf00e0b0
:1038dc0000bf012387f8313048e0002387f82b30f4
:1038ec00fb8d03f00f03002b02d13b6d00221a80dd
:1038fc007b6a5b889bb203f00f03002b0fdd7b6aa6
:10390c005b889ab2fb8d13449bb203f00f03002b20
:10391c0005d13b6d02333b653b6d00221a800023c1
:10392c0087f82b300ae03b6d02333b653b6d002280
:10393c001a8097f82b30013387f82b3097f82b200f
:10394c007b6a5b889bb21b1103f00f039a42eadb84
:10395c007b6a9b889bb203f00703002b03d10623e1
:10396c0087f8303002e01a2387f83030fb8f0133b0
:10397c00fb87fa8f7b8f9a427ff6d2ad97f8313066
:10398c00002b03d197f8303001e000bf002318461c
:0c399c004437bd4690bd00bf48e4000069
:020000040000fa
:1039a80090b591b002af7860002387f837307b6814
:1039b8001b899bb287f8223097f8223023f01f0327
:1039c80087f821307b681a785b781b021343fb83e6
:1039d800002387f8363000233b630023fb62ae4b9d
:1039e8001b78002b01d00923a9e297f82130202b5e
:1039f8000bd0202b03dc002b00f0698283e2402be4
:103a080003d0602b00f063827de27b685b899bb208
:103a1800dbb2bb83bb8b1b02bb837b681b899bb25e
:103a28001b0a9ab2bb8b1344bb837b685b899bb22e
:103a38001b0a9bb2fb76bb8b184609f0c5ff786161
:103a48007b69002b00f03f82002387f82b3000238e
:103a58007b62002387f823307b699b89fb74fa7e9d
:103a6800fb7c9a4203d9112387f837300ce097f88a
:103a7800223003f01003dbb2f97eb88b7a6904f0c8
:103a8800affc38633b6bfb6297f83730002b32d1c1
:103a980097f82130402b28d1fb8b0a2b01d0082323
:103aa8004de23b6b042b10d83b6b002b0dd0012350
:103ab80087f82b307b680c337b627b6a00221a8084
:103ac8007b6a023300221a8015e0744b1b88103b76
:103ad800fb62fa6a3b6b9a4203d2012387f82330d0
:103ae80009e07b6810337b6205e097f8223003f029
:103af800020387f82b3097f83730002b44d197f81a
:103b08002130202b40d197f82b30002b10d0fb8b85
:103b18000a2b01d0082312e297f822309b1003f0f9
:103b28000303c3f10403fb627b680c337b622be065
:103b38007b68db899bb21b047a68928992b2134432
:103b4800fb60fb681033564a1288934207d9fa8bf8
:103b5800534b1b88063b9a4208d00823efe1fa8ba7
:103b6800fb680a339a4201d00823e8e17b681033e6
:103b78007b62fb68fb62fb8b0a3b1a46fb6a93423b
:103b880002d9012387f8233097f83730002b0ed15c
:103b980097f8223003f01003002b08d0012387f890
:103ba8003630fb7e012b02d9052387f8373097f88a
:103bb8003730002b40f0ab8197f82330002b00f012
:103bc800d980384b01221a70374b01221a70374ab4
:103bd80097f836301370364abb8b1380354afb7e14
:103be8001370354a7b69136097f82130402b03d155
:103bf800324a3b6b136002e0304afb6a1360304b79
:103c08001b68002b07d02e4b1b6818460af0c0fe15
:103c18002b4b00221a60294b1b68013323f0010348
:103c280018460af0adfe03461a46254b1a60244b87
:103c38001b68002b0bd197f83630002b03d00523d7
:103c480087f8373063e1042387f837305fe197f866
:103c58002130402b7ad11a4b1b68f97eb88b97f824
:103c68003620019200937b693a6bfff75bfb0346b2
:103c780087f8373097f83730002b25d17b6803f168
:103c880010000f4b1b68fa6a19460af0e3fc0d4b4b
:103c980060221a706ae000bf3a2c0020200300203e
:103ca80032030020f1230020fe230020f02300200f
:103cb800142400202c24002028240020f423002091
:103cc80010240020ff23002097f83730ff2b4dd118
:103cd8009d4b04221a709d4a97f8363013709c4aff
:103ce800fb7e13709b4abb8b13809b4a3b6b136014
:103cf8009a4b1b689a4a13607b69db69994a13607f
:103d0800994b01221a70994a7b681360974b1b687c
:103d18001b899ab2954b1b6822f0ff0292b21a8156
:103d2800924b1b681b899bb21ab297f822301bb2c0
:103d380003f0f0031bb213431ab28c4b1b6892b208
:103d48001a818b4b60221a700023f8e0834b1868a5
:103d58007b6803f11001fb8b0a3b1a460af07afcd8
:103d6800834b00221a70fb8b0a3bfb62814afb6a79
:103d78001360cce03b6b002b08d17f4abb8b1380d0
:103d88007e4afb7e13707e4a7b69136097f8213068
:103d9800402b4cd1f97eb88b97f8363001937b6a6b
:103da80000937b693a6bfff7bdfa034687f8373013
:103db80097f83730ff2b40f0aa80634b03221a7024
:103dc800624a97f836301370614afb7e1370614a75
:103dd800bb8b1380604a3b6b1360614a7b6a13603c
:103de8007b69db695f4a13605f4b01221a705f4a87
:103df8007b6813605d4b1b681b899ab25b4b1b6821
:103e080022f0ff0292b21a81584b1b681b899bb2a1
:103e18001ab297f822301bb203f0f0031bb2134317
:103e28001ab2524b1b6892b21a81002387e0f97ebe
:103e3800b88b97f8363001937b6a00937b69fa6aee
:103e4800fef7a0fb034687f8373097f83730ff2b8b
:103e58005dd13d4b01221a703c4a97f836301370f9
:103e68003b4afb7e13703b4abb8b13803a4afb6a82
:103e780013603b4a7b6a13607b691b6a394a13608b
:103e8800394b01221a70394a7b681360374b1b681b
:103e98001b899ab2354b1b6822f0ff0292b21a8135
:103ea800324b1b681b899bb21ab297f822301bb29f
:103eb80003f0f0031bb213431ab22c4b1b6892b2e7
:103ec8001a8100233be0082387f837301fe0284b8e
:103ed8001b7897f821209a4211d197f82130002bae
:103ee80006d1786800f0acfc034687f837300fe05d
:103ef800786801f091ff034687f8373008e003231c
:103f080087f8373004e0032387f8373000e000bf34
:103f180097f83730ff2b11d097f8223003f01003b1
:103f2800dab2fb6a9cb297f8211097f837007b68e1
:103f380001933b6b0093234602f092fd0023184641
:103f48003c37bd4690bd00bffc230020fd23002068
:103f5800302400202e2400200c24002010240020cf
:103f6800e8230020f82300203a2c00200824002011
:103f7800ff230020ec230020142400202c24002000
:043f880028240020c9
:020000040000fa
:103f8c0080b58cb000af786048f20403fb857b6889
:103f9c001b889bb2063b7b857b681b889bb2052be1
:103fac0001d8062321e27b68db889bb2013b052b01
:103fbc0000f2f78001a252f823f000bfe13f0000ad
:103fcc005540000099400000ef40000045410000c2
:103fdc006f410000984b1b88002b40f0d7807b680a
:103fec001b899bb21a467b685b899bb21b041343eb
:103ffc007b627b6803f10c007b6803f10c02798d0a
:10400c007b6a08f0cdff0346fb858c4b00221a60bf
:10401c00fb8d47f69572934206d8894b01221a60a4
:10402c00fb8d884a1360b1e0fb8d47f6fa72934220
:10403c0000f2ac80824b00221a60824b00221a6084
:10404c007d4b01221a80a1e07b4b1b88002b40f09a
:10405c009f807b681b899bb21a467b685b899bb2ed
:10406c001b0413433b627b680c33798d3a6a184608
:10407c0009f054fc0346fb85fb8d002b02d147f65f
:10408c00fd73fb856e4b00221a6081e06a4b1b8826
:10409c00022b03d0684b1b88062b7bd17b681b89ba
:1040ac009bb21a467b685b899bb21b041343fb6172
:1040bc00634b1b68fa699a420fd17b680c337a8d7b
:1040cc001146184608f08cf90346fb85fb8d002b36
:1040dc0060d147f6fd73fb855ce048f20503fb8578
:1040ec0058e0554b1b88012b1ed1564b1a687b6828
:1040fc000c331946104609f02dfc0346fb85514b39
:10410c001b684e4a1360fb8d47f69572934243d859
:10411c00fa8d4c4b1b6813444a4a1360484b1b687e
:10412c000133474a136037e0434b1b88042b33d1d0
:10413c0047f6fe73fb852fe03f4b1b88002b2dd0e1
:10414c007b681b899bb21a467b685b899bb21b04fc
:10415c001343bb61b8690af04df847f6ff73fb8552
:10416c001ce0354b1b88012b03d0334b1b88042bd5
:10417c0016d17b681b8998b2304b19687b680c335d
:10418c001a460af04bf90346fb8509e000bf08e02c
:10419c0000bf06e000bf04e000bf02e000bf00e08b
:1041ac0000bffb8d47f69572934225d8244b1b68b4
:1041bc007b617b68002242f003029a710022da7163
:1041cc007b699ab27b681a817b691b0c9ab27b68fb
:1041dc005a81fb8d06339ab27b681a80fa8d1a4b82
:1041ec001b880c3b9a4203d1134b01221a80c5e069
:1041fc00114b04221a80c1e0fb8d47f6fa729342f0
:10420c0024d87b68002242f006029a710022da71ef
:10421c00fb8da3f5ff43163b9ab27b681a817b6832
:10422c0000229a720022da727b68002242f00602a7
:10423c001a7000225a70a1e01802002024020020fb
:10424c001c0200201402002020030020fb8d47f6e6
:10425c00fd72934204d0fb8d47f6fc7293422bd136
:10426c00644b1b68bb60634b1b680133614a136072
:10427c007b68002242f004029a710022da71bb685a
:10428c009ab27b681a81bb681b0c9ab27b685a8104
:10429c007b68002242f006021a7000225a70fb8dd5
:1042ac0047f6fd72934203d1534b02221a8065e00c
:1042bc00514b00221a8061e0b7f92e30002b07db3e
:1042cc004d4b00221a8078680af060fb00238ce0ca
:1042dc00fb8d3b61002387f82d307b68002242f078
:1042ec0005029a710022da713b699ab27b681a81d5
:1042fc003b691b0c9ab27b685a817b68002242f0a6
:10430c0006021a7000225a701de07b6803f10c0241
:10431c0097f82d305b08dbb25b0013441b88fb81e4
:10432c00fb89dbb2002b13d097f82d30013387f8c3
:10433c002d30fb8903f47f43002b0bd097f82d30e5
:10434c00013387f82d3097f82d301f2bddd902e083
:10435c0000bf00e000bf97f82d301f2b0bd87b68f7
:10436c001b889ab297f82d309bb213449bb2013341
:10437c009ab27b681a80204b00221a801f4b1b7844
:10438c00002b27d07b689b889bb2c3f30b039ab29c
:10439c007b689a801a4b1b7803f00703002b02d121
:1043ac00174b01221a707b689b889bb21ab2144b74
:1043bc001b781b031bb213431bb29ab27b689a8007
:1043cc000f4b1b780133dab20d4b1a70786804f07e
:1043dc00d1fa09e04021786805f03efd0346002b38
:1043ec0002d0084a7b681360002318463037bd465c
:1043fc0080bd00bf1c020020180200206c020020af
:08440c00a8020020200200209c
:020000040000fa
:1044140090b58fb002af78600023fb737b681b8973
:104424009bb2dbb203f07f0387f82130022387f8c5
:104434002f3097f82130052b06d17b681b889bb25f
:10444400092b08d80623f2e17b681b889bb2072b53
:1044540001d80623ebe197f82130032b00f0d1803b
:10446400052b00f0ce80012b40f0a5817b689b8951
:104474009bb2052b00f2a2810023bb857b689b893c
:104484009bb287f820300e227968ad480af0e4f830
:1044940097f820305a1e87f82020002b22d1a94bf0
:1044a40000221a80002387f82b3014e097f82b3071
:1044b400184606f08bff0346fb837b689a1d97f82a
:1044c4002b3004335b001344fa8b1a8097f82b309b
:1044d400013387f82b3097f82b30042be6d91223bd
:1044e400bb855ae00023bb83964b1b88002b11d05d
:1044f400954b1b880c3bbb857b68063306337b627c
:10450400924b1b88bb818f4b1b88013b9ab28d4b0e
:104514001a802ae097f82030184606f057ff034621
:10452400bb834ff48053bb81874b1b880e3bbb85f9
:104534007b68063308337b62bb8b5a00bb8d9a427f
:1045440010ddbb8d02337b83bb8b5a00bb8dd21a2b
:104554007b8b013b1a447b8b92fbf3f39ab2794b2e
:104564001a8002e0774b00221a8097f8203098b224
:10457400ba8d07f10c0107f10f0300937b6a04f075
:1045840083fe0346bb85ba89704b1a806e4b1a882a
:10459400bb8dd31a9bb2063bbb857b68ba8d1a8050
:1045a400fb7b002b40f00a817b681b899bb223f0c4
:1045b4007f039ab27b681a817b681b899bb243f0a4
:1045c40002039ab27b681a815e4b1a887b685a810f
:1045d4005c4b1b88002b00f0f1807b681b899bb22d
:1045e40023f080039ab27b681a817b681b899bb293
:1045f40043f080039ab27b681a81822387f82f30b4
:10460400dce07b689b899bb2bb81bb89b3f5805f8f
:1046140002d20523fb73d3e0bb89184609f0d6f90f
:1046240078617b69002b00f0c38000237b8497f8ba
:104634002130032b26d17b6803f10e0478690af03c
:1046440089f803461b682360b88900237a6900212e
:1046540003f0eaff03460c337b843b4b1b885a1f51
:104664007b8c9a4202dc0c237b8481e0b8897b68d2
:104674000e3304337a69002103f0d6ff03460c336a
:104684007b8475e07b68db899bb2fb7478690af0f4
:1046940061f803465b889bb2bb74fa7cbb7c9a428c
:1046a40064d87b6803f11004fb7c1946786908f030
:1046b4002bfa034606221946204609f0cdff7b68f3
:1046c400db899bb2dbb29ab27b68da8178690af043
:1046d40041f803469a78db781b0213433b823b8afa
:1046e4001b129bb203f00f033b823b8a082b02d0c0
:1046f4003b8a092b11d1fb7c002b0ed17b68103334
:104704000633134a1468506891681c6058609960b5
:10471400127b1a731c237b842ae0b889f97c00235a
:104724007a6903f081ff034610337b84064b1b88b0
:104734005a1f7b8c9a420ddc10237b8418e000bf47
:10474400182400200424002020030020e423002057
:104754004c2b0020b8897b6810330633f97c7a69c6
:1047640003f062ff034610337b8401e01123fb73e3
:10477400fb7b002b24d17b6800229a720022da7220
:104784007b687a8c1a807b681b899bb223f07f0339
:104794009ab27b681a817b681b899ab297f8213098
:1047a4009bb201339bb213439ab27b681a8107e030
:1047b4000823fb7304e00323fb7302e000bf00e063
:1047c40000bffb7b002b25d07b68002242f00a024d
:1047d4001a7000225a707b681b899bb223f07f03f6
:1047e4009ab27b681a817b681b899bb243f00703ea
:1047f4009ab27b681a817b6800229a720022da726c
:10480400fb7b1a460c4b53f822207b68da600b4b77
:1048140000221a8097f82f301946786805f020fb9b
:104824000346002b02d0064a7b6813600023184617
:104834003437bd4690bd00bf8cbe00000424002068
:04484400100200203e
:020000040000fa
:10484800b0b588b002af78600023fb7500233b61e8
:104858007b681b899bb203f010039b4a1278934232
:1048680002d10123fb7562e1984b1b88093bbb8190
:104878007b681b899bb2dbb203f01003dab2924b60
:104888001a70934b1b68002b00f04f81914b1a68ec
:10489800914b1b68d31a3b617b681b899bb203f061
:1048a8000103002b2ed0bb893a699a4227d87b682e
:1048b8001a785b781b0213437b817b89033b1a467a
:1048c8003b6993420bd87b681b899bb25b109bb2f8
:1048d800db439bb203f007033a699a4208d03b696d
:1048e800072b09d97b89033b1a463b69934203d1bd
:1048f8007a4b00221a7011e00e23fb750ee00e238e
:10490800fb750be0754b01221a70bb893a699a4214
:1049180002d80e23fb7501e0bb893b61fb7d002bb0
:1049280040f005810023fb816b4b1b6803f00103fa
:10493800002b3dd0664b1a68674b1b685b085b0011
:1049480013441988624b1a68634b1b685b085b0049
:104958001344cab292b21a805d4b1a685e4b1b6848
:104968005b085b0013441b881ab27b681b899bb2e7
:104978001bb223f0ff031bb2134319b2544b1a683e
:10498800554b1b685b085b0013448ab21a80504b76
:104998001a68514b1b685b0801335b00d0187b68b1
:1049a80003f10a013b69013b1a4609f053fe42e054
:1049b8007b681b899bb21b0a9bb21ab27b685b8916
:1049c8009bb21b021bb2134319b2414b1a68424bec
:1049d8001b685b085b0013448ab21a800123fb81c1
:1049e80023e0fb89013b7a6804335b0013445b884e
:1049f8009bb21b0a9bb21ab2fb89796804335b002d
:104a08000b445b889bb21b021bb2134318b2304b9a
:104a18001a68314b1b685908fb890b445b00134427
:104a280082b21a80fb890133fb81fa893b69013321
:104a38005b089a42d5d3294b1b78002b77d1284b9a
:104a48001888284b1978234b1c68274b1d68204b66
:104a58001b68264a1278019200932b462246fdf7de
:104a680091fd0346fb75fb7dff2b55d1204b0222a0
:104a78001a701e4b1a781f4b1a701a4b1a781e4b55
:104a88001a70174b1a881d4b1a80124b1b681c4a48
:104a980013600f4b1b681b4a1360134b1b681b6a80
:104aa800194a1360194b01221a70194a7b6813605e
:104ab8000a4b00221a70174b00221a70064b00226c
:104ac8001a60ff2388e000bffe2300203203002085
:104ad80010240020f4230020ec230020f1230020e0
:104ae800142400202c24002028240020f023002057
:104af800fc230020fd230020302400202e24002049
:104b08000c240020e8230020f82300203a2c002061
:104b180008240020ff230020314b1b68184609f0a9
:104b280037ff2f4b00221a6001e00323fb75fb7d42
:104b3800002b3bd17b68002242f00a021a70002247
:104b48005a707b68db889bb2c3f30b039ab27b680d
:104b5800da807b68db889bb243f440539ab27b6867
:104b6800da80204b1b78002b07d07b68002242f0ac
:104b780030021a7200225a7206e07b68002242f064
:104b880020021a7200225a72174b1b78012b06d189
:104b9800164b1a683b691344144a13601be0134b05
:104ba80000221a60124b00221a7014e00e4b0022e9
:104bb8001a700f4b00221a70094b1b68002b07d084
:104bc800074b1b68184609f0e3fe054b00221a60e4
:104bd800064b00221a60fb7d18461837bd46b0bd4b
:104be80010240020fe230020f1230020ec230020c5
:044bf800ff23002077
:020000040000fa
:104bfc0080b586b000af0346fb710023bb75002364
:104c0c00bb8200237b82974b1b8841f6fe7293423a
:104c1c0011d9944b1b8841f6fe7293420bd9914be0
:104c2c001b8841f6fe72934205d98e4b1b8841f6c8
:104c3c00fe72934201d8142397e1002008f0f0ff94
:104c4c00f860fb681b681b0cbb82fb681b687b82d3
:104c5c00fb685b6803f48033002b02d11623bb7511
:104c6c002be0fb685b6803f00c03042b02d01623cb
:104c7c00bb7522e0fb685b6803f00203002b02d1da
:104c8c001623bb7519e0bb8a212b02d81623bb75e2
:104c9c0013e0bb8ab3f5807f02d91623bb750ce0f9
:104cac007b8ab3f5805f02d21623bb7505e07b8a45
:104cbc00b3f5005f01d31623bb75bb7d002b3fd131
:104ccc00012008f0adfff860fb681b681b0cbb8271
:104cdc00fb681b687b82fb685b6803f48033002bea
:104cec0002d11623bb752be0fb685b6803f00c0349
:104cfc00002b02d01623bb7522e0fb685b6803f027
:104d0c000203002b02d11623bb7519e0bb8a212ba1
:104d1c0002d81623bb7513e0bb8ab3f5807f02d98a
:104d2c001623bb750ce07b8ab3f5805f02d2162389
:104d3c00bb7505e07b8ab3f5005f01d31623bb7509
:104d4c00bb7d002b6fd1fb79032b6cd9464b012219
:104d5c001a70032008f064fff860fb681b681b0cda
:104d6c00bb82fb681b687b82fb685b6803f4803347
:104d7c00002b05d0bb8a002b02d10423bb7548e065
:104d8c00fb685b6803f48033002b39d0374b1b88ee
:104d9c00ba8a9a4206d1354b1b88002b02d0bb8aab
:104dac00442b02d90323bb7533e0fb685b6803f02b
:104dbc000c03002b21d12e4b1b78022b07d17b8aa5
:104dcc00b3f5805f03d37b8ab3f5005f08d3284b20
:104ddc001b78022b0ed0274b1b887a8a9a4209d15a
:104dec00fb685b6803f00203002b12d01e4b002201
:104dfc001a700ee00223bb750be00423bb7508e0b0
:104e0c00bb8a002b03d1194b1b88002b01d0032329
:104e1c00bb75bb7d002b06d0bb7d1946032001f072
:104e2c0047fc1e23bb75bb7d002b40f08680fb79b5
:104e3c00022b40f28280022008f0f2fef860fb6840
:104e4c001b681b0cbb82fb681b687b82fb685b6866
:104e5c0003f48033002b0fd0bb8a002b0cd104231e
:104e6c00bb7560e0660200202c020020620200206c
:104e7c00330200207c020020fb685b6803f4803363
:104e8c00002b47d03b4b1b88ba8a9a423fd1394bf7
:104e9c001b88002b3bd0bb8a442b38d8fb685b6843
:104eac0003f00c03042b2ed1334b1b78022b07d1b0
:104ebc007b8ab3f5805f03d37b8ab3f5005f08d39d
:104ecc002d4b1b78022b1bd02c4b1b887a8a9a42b9
:104edc0016d1fb685b6803f04003002b03d0284b12
:104eec0001221a7002e0264b00221a70fb685b68e4
:104efc0003f00203002b09d0224b00221a7005e0ac
:104f0c000223bb750fe00423bb750ce00be00323fd
:104f1c00bb7508e0bb8a002b03d1164b1b88002bfa
:104f2c0001d00323bb75bb7d002b06d0bb7d19467e
:104f3c00022001f0bdfb1d23bb75bb7d002b13d1e3
:104f4c00fb79fb750be0fb7d184608f069fef860f9
:104f5c00fb685b680c4a1360fb7d0133fb750b4be4
:104f6c001b78fa7d9a42eed3bb7d18461837bd46a6
:104f7c0080bd00bf3402002033020020400200201c
:104f8c00760200202c020020ec2b00207a0200205c
:020000040000fa
:104f9c002de9f04f0e4697b015461c46074618b142
:104fac0083690bb907f0b4fbb34b9e425cd17e68ae
:104fbc00b389190762d53369002b5fd0002309939d
:104fcc0020238df82930dff8b4a230238df82a3055
:104fdc004ff0ff392b46984613f8012b0ab1252abe
:104fec00f9d1b8eb050b0bd05b462a463146384657
:104ffc0007f08dff013000f02381099b5b4409937e
:10500c0098f80030002b00f01b810023cde90593ac
:10501c0008f10108049307938df853304ff0010bfe
:10502c004546052215f8011b944806f093f8049b9d
:10503c0078bbda0644bf20228df85320180744bff2
:10504c002b228df8532098f800202a2a29d0079a71
:10505c00454600204ff00a0c294611f8013b303b25
:10506c00092b5ed908bb27e0854b9e4201d1be6857
:10507c009ee7844b9e4208bffe6899e7314638464e
:10508c0004f058ff002899d04ff0ff3017b0bde85e
:10509c00f08fa0eb0a000bfa00f018430490a8461e
:1050ac00bee754f8042b002a01db079204e05242bd
:1050bc0043f00203079204932b782e2b0bd16b78c1
:1050cc002a2b33d154f8043b002b05f10205acbf5d
:1050dc000593cdf81490032229786b4806f03af822
:1050ec0040b1694bc01a402303fa00f0049b034300
:1050fc000135049315f8011b64488df8281006221d
:10510c0006f028f89df82820692a29d039d8582a81
:10511c0000f0c4801fd8002a00f0de808df85220e9
:10512c00a2e00cfb023201200d4695e7002301356d
:10513c00059319464ff00a0c284610f8012b303a0b
:10514c00092a03d9002bc6d00591c4e70cfb012119
:10515c0001230546f0e7632a00f08280642addd142
:10516c00049a54f8043b110602d4520648bf1bb2f1
:10517c00002b03da2d225b428df8532044490a227e
:10518c0015e0702a00f0a18060d86f2ac6d104996e
:10519c0054f8043b080602d4490648bf9bb26f2a58
:1051ac003b490cbf08220a2200208df85300ddf881
:1051bc0014c0cdf818c0bcf1000fa2bf049820f0a9
:1051cc00040004900df15300804613b9bcf1000f9c
:1051dc0009d0b3fbf2fc02fb1c3e9a4211f80ee024
:1051ec0008f801ed76d9082a0bd1049bdb0708d50a
:1051fc00089b059a9a42debf302308f8013c08f15f
:10520c00ff38a0eb08000890224b009303aa33460a
:10521c0004a9384604f08cfa013011d0089b4246a0
:10522c003146384607f073fe013009d0049b9907cc
:10523c0067d4079b039a9342b8bf13465a1c63d199
:10524c00b3895b063ff520af09981fe7752a9ed0fe
:10525c00782a7ff463af78238df855300e4920e01f
:10526c0054f8043b8df852300123089300238df839
:10527c0053300df15208c7e7882a0020fada0000f3
:10528c00a82a0020682a002000db000004db0000b4
:10529c00d8da00001bcf0000e9da00001c498df8b9
:1052ac005520049a54f8043b100602d4500648bf0b
:1052bc009bb2d00744bf42f0200204921bb9049a5f
:1052cc0022f02002049210226ee7049b43f020038c
:1052dc000493c0e763467ce708920df1530893e70b
:1052ec0001230df129023146384607f010fe01303a
:1052fc00a6d008f10108079b039a9b1a9845efdb8f
:10530c0097e74ff00008f6e7099a1344099361e612
:04531c00d8da0000db
:020000040000fa
:105320002de9f047089e04468846002b40f0858012
:105330008a42154648d9b2fa82f24ab1c2f1200730
:1053400001fa02f320fa07f7954047ea0308944070
:105350004fea154e230cb8fbfef71ffa85fc0efb37
:10536000178843ea084307fb0cf1994209d9eb1867
:1053700007f1ff3080f0e380994240f2e080023f85
:105380002b445b1aa4b2b3fbfef00efb103344eacd
:10539000034400fb0cfca44509d92c1900f1ff3390
:1053a00080f0cb80a44540f2c88002382c4440ea0b
:1053b0000740a4eb0c0400271eb1d4400023c6e92b
:1053c00000433946bde8f087002a53d0b2fa82f292
:1053d000002a40f0b680491b4fea154e1ffa85f8a7
:1053e0000127b1fbfefc230c0efb1c1143ea014319
:1053f00008fb0cf1994207d9eb180cf1ff3002d2ef
:10540000994200f2ec808446591aa3b2b1fbfef037
:105410000efb101443ea044408fb00f8a04507d92a
:105420002c1900f1ff3302d2a04500f2dc801846af
:10543000a4eb080440ea0c40bee78b4208d9002eda
:1054400078d00027c6e9000138463946bde8f08724
:10545000b3fa83f77fb98b4202d3824200f2bd8058
:10546000841a61eb030301209846002ea9d0c6e9f7
:105470000048a6e7ffdec7f12005bb4022fa05fc85
:105480004cea030c01fa07f420fa05f821fa05f3b7
:105490004fea1c4e48ea0404b3fbfef9210c0efb54
:1054a00019331ffa8cf841ea034309fb08fa9a45bd
:1054b00002fa07f200fa07f10bd91ceb030309f11a
:1054c000ff3080f088809a4540f28580a9f102097a
:1054d0006344a3eb0a03a4b2b3fbfef00efb10334c
:1054e00044ea034400fb08f8a04508d91ceb040477
:1054f00000f1ff336bd2a04569d90238644440ea19
:105500000940a4eb0804a0fb02894c45c6464b4663
:1055100054d351d0002e69d0b1eb0e0264eb0304da
:1055200004fa05f522fa07f3fc401d43c6e90054ce
:10553000002746e73746304643e7184637e7074631
:105540001fe7c2f1200320fa03f7954001fa02f0a9
:1055500021fa03f34fea154e3843010cb3fbfef773
:105560001ffa85f80efb173341ea034107fb08f3e6
:105570008b4204fa02f407d9691807f1ff3c28d2dc
:105580008b4226d9023f2944cb1a81b2b3fbfef0ed
:105590000efb103341ea034100fb08f38b4207d9ad
:1055a000691800f1ff3c10d28b420ed90238294411
:1055b000c91a40ea074714e74145abd2b8eb020edf
:1055c00069eb0c0201381346a4e76046f0e7184681
:1055d00095e76746d8e781467be7384645e7acf173
:1055e000020c2b4410e702382c4421e73746e8e64a
:020000040000fa
:1055f00080b58ab000af0023fb8400233b6107f134
:10560000100304224ff4a061184604f0d2fd3b6958
:105610003b613b69002b80f23b813b6903f0e06317
:105620003b6207f10c03042240f20451184604f0d7
:10563000c0fdfb68fb603b6923f0e0433b613b6ad4
:10564000b3f1807f11d03b6ab3f1807f04d83b6a0d
:10565000002b00f00e8107e13b6ab3f1007f35d0eb
:105660003b6ab3f1806f63d0fee08b4b1b68002b6d
:105670000fd0894b1b68fa68104698470346fb8495
:10568000fb8c002b00f0f7803b6943f000533b613b
:10569000f1e0fb68b3f5006f13d8804b1b68002b5b
:1056a0000fd07e4b1b68fb61fb685b00fa69d0186a
:1056b0007b4b1b881a464ff4a16104f015fd00bf17
:1056c000d9e03b6943f000533b61d4e0754b1b6864
:1056d000002b0ed0734b1b68fa68104698470346a0
:1056e000fb84fb8c002b1ed03b6943f000533b61d5
:1056f00019e0fb68b3f5006f11d8684b1b68002bed
:105700000dd0664b1b68bb61fb685b00ba69134434
:1057100002224ff4a161184604f04bfd03e03b69ff
:1057200043f000533b61604b4ff47a721a80a3e060
:105730005b4b1b88082b62d1fb68b3f5006f04d963
:105740003b6943f000533b618de0534b1b68002bda
:105750000ed0514b1b68fa68104698470346fb84ed
:10576000fb8c002b20d03b6943f000533b617ae077
:10577000fb68b3f5006f12d8484b1b68002b0ed0a6
:10578000464b1b687b61fb685b007a69d018444b11
:105790001b881a464ff4a16104f0a6fc04e03b69a3
:1057a00043f000533b615ee03b6923f0f0433b6113
:1057b0003b69bb6007f1080304224ff4a06118465f
:1057c00004f092fc07f1100304224ff4a061184684
:1057d00004f0effc3b693b613b6903f0e0633b6233
:1057e00007f10c03042240f20451184604f0e1fcd6
:1057f000fb68fb603b6ab3f1806f9dd03ce02b4bb4
:105800001b68002b11d0294b1b6898470346fb846b
:10581000fb8c002b04d03b6943f000533b612be031
:105820003b6923f000633b6126e005f049fc034639
:10583000fb84fb8c002b03d1184b1b68002b04d17d
:105840003b6943f000633b610de0144b1b68103370
:1058500004224ff4a161184604f046fc3b6923f092
:1058600000633b6108e007e03b6943f000533b61a4
:1058700002e000bf00e000bf0d4b00221a803b6930
:105880007b603b1d04224ff4a061184604f02cfc01
:1058900000bf2837bd4680bd3c010020f401002038
:1058a0009e0100204001002008020020000200208c
:0458b0009c01002037
:020000040000fa
:1058b40080b582b000af9d4b1b78002b00f0328185
:1058c40000237b800023fb710023bb80984bb3f93a
:1058d4000030002b6dd1974b1b881b099bb2fb71c9
:1058e400944b1b88242b1cd0242b04dc123b012b4f
:1058f40000f2058102e0482b26d000e18e4b1b7894
:10590400002b01d109f07af802f0a2f98b4b1b7835
:10591400002b03d08a4b1b88bb80f0e00123bb80a3
:10592400ede0854b1b78002b01d109f00bf802f058
:1059340031fc824b1b78002b03d0814b1b88bb802e
:10594400dde00123bb80dae07e4b1b78002b14d012
:105954007d4b1b78002b02d12d23bb801be07b4b9e
:105964001b78002b06d17a4b1b88002b02d01b23fb
:10597400bb8010e01a23bb800de0754b1b88002b05
:1059840002d01b23bb8006e00823fb710023bb80ed
:10599400704b01221a70bb88002b00f0a980664b63
:1059a4001b78002b01d108f0ddff08f003fc00bfd9
:1059b4009ee0604b1b88242b2ad0242b04dc123b52
:1059c400012b00f29c8002e0482b3ed097e05a4b1a
:1059d4001b78002b00f08e80574b00221a7008f0c1
:1059e400a9ff03467b807b88002b09d15a4b0122f7
:1059f4001a70504b1b88dbb203f00f03fb7179e084
:105a04007b88ff2b76d008f0f9ff02f021f971e0d2
:105a1400494b1b78002b6fd0474b00221a704f481c
:105a240008f0f3fe03467b807b88002b05d14c4baa
:105a340001221a700423fb715ee07b88ff2b5bd08c
:105a440008f080ff02f0a6fb56e03b4b1b78002bce
:105a540054d03c4b1b78002b2ad0424bb3f9003076
:105a6400002b4bdd3f4bb3f900203f4bb3f9003023
:105a74009a4243dc3b4b00221a803b4b00221a80a3
:105a84002d4b00221a7008f065ff03467b807b884b
:105a9400002b05d12f4b01221a700823fb712de036
:105aa4007b88ff2b2ad008f05dff08f083fb25e0fc
:105ab400274b1b88002b03d0244b1b78002b1dd0b5
:105ac4001d4b00221a7008f045ff03467b807b883b
:105ad400002b05d11f4b01221a700823fb710de026
:105ae4007b88ff2b0ad008f03dff08f063fb05e03c
:105af40000bf04e000bf02e000bf00e000bffb798c
:105b0400002b0fd0094b00221a70bb88002b03d046
:105b1400fb7943f01003fb71ba88fb7911461846f0
:105b240001f026fd00bf0837bd4680bd600200209d
:105b34006a0200202e020020320200203a020020d5
:105b4400360200206d0200204c0200206802002072
:105b5400340200206e020020160300204a020020b6
:0c5b640074020020460200203e020020d7
:020000040000fa
:105b700080b5adf5804d86b002af974b1b78002bfa
:105b800003d0012b00f08b801fe107f5005303f1d8
:105b900010030c3b184620231a46002108f004ff8e
:105ba00000bf08f0d5f90346002bfad18b4a01213a
:105bb0008b4808f0b5fb8a4b1b78002b03d1894a30
:105bc000894b1a6002e0884b884a1a6007f0e8f8af
:105bd0000021874808f0d0f906f0eeff03f04cfcf6
:105be0004ff6ff7008f0adfb08f01dff002200210a
:105bf000804805f0a7fd0a220f217f4806f02efffe
:105c00001e2205217d4806f029ff2d2205217c4812
:105c100006f024ff642007f059fa4ff6ff7008f0f1
:105c200090fb784b5a6807f5005303f110030c3bc7
:105c30007549184607f05afd19220521734806f0e8
:105c40000dff4ff6ff73009350235a22372119207e
:105c500002f054f907f5005303f110030c3b37220f
:105c60001921184606f0fafe01f046ff08f018f96f
:105c700006f0f2fc664b01221a700021654808f01c
:105c80008ff90021644808f09ff90121634806f06c
:105c900077fb514b01221a7000bf96e000bf08f05d
:105ca00067fd0346012b40f08680002307f5804204
:105cb00002f1070213704ff4783307f5804202f1c6
:105cc0000c02136000bf08f043f90346002bfad121
:105cd00007f110030c3b07f5804202f10c02126839
:105ce0004ff40061184608f01bfb07f5804303f1f1
:105cf0000c031b6803f5002207f5005303f11003a2
:105d00000c3b4ff40061184608f00afb07f1100342
:105d10000c3b1a7807f5005303f110030c3b1b787a
:105d20009a422bd107f5804303f10c031b6803f55e
:105d3000fc2207f5005303f110030c3b4ff4005114
:105d4000184608f0edfa08f0cbf9034603f010030b
:105d5000002b05d1012307f5804202f107021370e1
:105d600007f5804303f107031a7807f5005303f1a1
:105d700010030c3b03f5ff5318331a7007f500535b
:105d800003f110030c3b07f5804202f10802136097
:105d900007f5804303f10c031b6803f5fc2307f5ab
:105da000804202f108021168184606f0d1f908f0a5
:105db00039fa07f0f4fc03f04bfc04f085ff144bb8
:105dc0001b78012b3ff46aaf00bf00bf07f5804787
:105dd0001037bd4680bd00bf34240020fcdf030027
:105de00035240020180e0800f4010020180e0000d1
:105df00069e400009c2c0000b82b0020242b00201c
:105e0000382b0020742b0020ece80000f0e80000a4
:105e10004401002001e9000089e400007c2b0020ff
:020000040000fa
:105e200080b588b000af78600023fb777b683b616a
:105e30007b681b7a03f010038a4a1278934202d1de
:105e40000123fb7709e10023bb61874b1b88093bda
:105e5000fb817b681b7a03f01003dab2814b1a7066
:105e6000fa89824b1b681a44814b1b689a4209d9f4
:105e70007f4b1a687d4b1b68d31abb617d4b002298
:105e80001a7004e0fb89bb617a4b01221a703b69ee
:105e90001b899bb2dbb29ab23b691a81734b1b68b8
:105ea00003f00103002b25d03b691b899bb21ab27a
:105eb000714b19686d4b1b685b085b000b441b88ba
:105ec0001bb223f0ff031bb213431bb29ab23b6910
:105ed0001a813b6903f10a00674b1a68634b1b6820
:105ee0005b0801335b00d118bb69013b1a4608f01f
:105ef000b5fb46e00023fb825c4b1b685b08bb6084
:105f00003b691b899bb21ab25b4b1968574b1b68e4
:105f10005b085b000b441b881b021bb213431bb2c4
:105f20009ab23b691a810023fb8225e0524b1a6822
:105f3000f98abb680b445b0013441b881b0a9bb2a5
